:1000000070C40020D5020000D1020000D10200001F
:10001000D1020000D1020000D10200000000000067
:10002000000000000000000000000000D1020000FD
:10003000D102000000000000D1020000D102000047
:10004000D1020000D1020000D1020000D102000064
:10005000D1020000D1020000D1020000D102000054
:10006000D1020000D1020000D1020000D102000044
:10007000D1020000D1020000D1020000D102000034
:10008000D1020000D1020000D1020000D102000024
:10009000D1020000D1020000D1020000D102000014
:1000A000D1020000D1020000D1020000D102000004
:1000B000D1020000D1020000D1020000D1020000F4
:1000C000D1020000D1020000D1020000D1020000E4
:1000D000D1020000D1020000D1020000D1020000D4
:1000E000D1020000D102000000000000000000006A
:1000F00000000000D1020000D1020000D102000087
:10010000D1020000D1020000D1020000D1020000A3
:10011000D1020000D1020000D1020000D102000093
:10012000D1020000D1020000D1020000D102000083
:10013000D1020000D1020000D1020000D102000073
:10014000D1020000D1020000D1020000D102000063
:10015000D1020000D1020000D1020000D102000053
:10016000D1020000D1020000D1020000D102000043
:10017000D1020000D10200000000000000000000D9
:10018000D1020000D1020000D1020000D102000023
:1001900000000000D1020000D1020000D1020000E6
:1001A000D1020000D1020000D1020000D102000003
:1001B000D1020000D1020000D1020000D1020000F3
:1001C000D1020000D1020000D1020000D1020000E3
:1001D000D1020000D1020000D1020000D1020000D3
:1001E000D1020000D1020000D1020000D1020000C3
:1001F000D1020000D1020000D1020000D1020000B3
:10020000D1020000D1020000D1020000D1020000A2
:10021000D1020000D1020000D1020000D102000092
:10022000D1020000D1020000D1020000D102000082
:10023000D1020000D1020000D1020000D102000072
:10024000D1020000D1020000D1020000D102000062
:10025000D1020000D1020000D1020000D102000052
:10026000D102000010B5054C237833B9044B13B10B
:100270000448AFF300800123237010BD2C0400203C
:1002800000000000D80400000C4B43B10C480D499D
:1002900010B5AFF300800C48036823B910BD0A48BD
:1002A000036833B97047094B002BF7D0BDE8104005
:1002B0001847064B002BF5D0184700BF0000000080
:1002C000D804000030040020D80400000000000022
:1002D000FEE7000008B5104B104A9A4209D00E4BB9
:1002E0000E4A03E011681960043304320C498B4252
:1002F000F8D30C4B02E000221A6004330A4A9342FE
:10030000F9D30A4A0A4B23F07F039360094B9847BD
:10031000094B9847FEE700BF00000020D80400000A
:100320002C0400202C0400206C04002000ED00E0D0
:1003300000000000410300003D030000FEE7000054
:1003400070B50F4E0F4D761BB61018BF002405D0A8
:10035000013455F8043B9847A642F9D10A4E0B4D9B
:10036000761B00F0A7F8B61018BF002406D00134A1
:1003700055F8043B9847A642F9D170BD70BD00BF47
:10038000C0040000C0040000C8040000C004000055
:10039000024B13B1024800F005B87047000000009E
:1003A000B1030000002301461A46184600F01EB8AB
:1003B00038B50A4C0A4D641BA4100AD004F18043DE
:1003C000013B05EB8305013C55F804399847002CA7
:1003D000F9D1BDE8384000F077B800BFD80400007C
:1003E000D4040000704700BF704700BF2DE9F843F8
:1003F0002C4D0646286898460F469146FFF7F2FFB7
:10040000294B1C68D4F84831002B3ED05A681F2A6B
:100410001CDC02F1010E76B103EB82010124C1F86C
:100420008890D3F8880194402043022EC3F88801B5
:10043000C1F8088123D00232C3F804E0286843F8E9
:100440002270FFF7D1FF0020BDE8F883174B0BB3F4
:100450004FF4C870AFF300800346D8B1D4F84821F8
:100460000260002141600A46C4F848014FF0010EC5
:10047000C0F88811C0F88C11002EDCD0CCE7D3F87E
:100480008C110C43C3F88C41D5E704F5A673C4F86E
:100490004831BBE72868FFF7A7FF4FF0FF30BDE802
:1004A000F88300BF28040020B00400000000000012
:1004B00000000020F8B500BFF8BC08BC9E4670479D
:1004C0009103000089020000F8B500BFF8BC08BC29
:0804D0009E4670476502000022
:1004D80000000000EC02002054030020BC030020B0
:1004E8000000000000000000000000000000000004
:1004F80000000000000000000000000000000000F4
:1005080000000000000000000000000000000000E3
:1005180000000000000000000000000000000000D3
:1005280000000000000000000000000000000000C3
:1005380000000000000000000000000000000000B3
:1005480000000000000000000000000000000000A3
:100558000000000000000000000000000000000093
:100568000000000000000000000000000000000083
:100578000000000000000000010000000000000072
:100588000E33CDAB34126DE6ECDE05000B00000037
:100598000000000000000000000000000000000053
:1005A8000000000000000000000000000000000043
:1005B8000000000000000000000000000000000033
:1005C8000000000000000000000000000000000023
:0C08F80000000000000000004804002088
:00000001FF
