:10000000B8200020051100000111000001110000BE
:1000100000000000000000000000000000000000E0
:1000200000000000000000000000000001110000BE
:10003000000000000000000001110000011100009C
:100040000111000001110000011100000111000068
:100050000111000001110000011100000111000058
:1000600001110000310600004106000051060000A9
:100070006106000071060000810600000111000009
:100080000111000001110000011100000111000028
:100090000111000001110000011100000111000018
:1000A0000111000001110000011100000111000008
:1000B0000000000010B5064C2378002B07D1054B3B
:1000C000002B02D0044800E000BF0123237010BDC4
:1000D00010000020000000002C280000084B10B584
:1000E000002B03D00749084800E000BF0748036819
:1000F000002B00D110BD064B002BFBD09847F9E731
:1001000000000000140000202C2800002C28000013
:100110000000000070B50020084B98470500084C0F
:10012000FA218900A047074B186007492800A0471B
:10013000064B18600522064B1A6070BD910E000038
:10014000F92500000000002040420F0004000020BC
:1001500010E000E030B5084B1C68084A00258021FB
:100160004902013807D3002CFBD054609560136816
:100170000B42FCD0F5E730BD0000002010E000E0AD
:100180000C4B1B68002B06D1EFF31083002B07D01C
:100190000022094B1A70074A136801331360704735
:1001A00072B6BFF35F8F0022044B1A700132024B0C
:1001B0001A70F0E72C00002030000020080000201A
:1001C000084B1A68013A1A601B68002B09D1064BCC
:1001D0001B78002B05D00122044B1A70BFF35F8FF0
:1001E00062B670472C00002030000020080000207C
:1001F000F0B583B001AC012565700027A7702570AC
:1002000021003E20064EB0478022D205054B9A6160
:100210002770657021000F20B04703B0F0BDC046C5
:10022000290200008044004100B583B001AB802268
:100230001A700A785A704A789A708A78DA701900B7
:10024000014B984703B000BDA1100000F0B5DE4699
:1002500057464E464546E0B587B0804604911600A5
:100260001F000022002300218B463F240120210093
:10027000009601975C4603944446059413E02024BD
:10028000641A0500E540A84614E0009C019D121B7D
:10029000AB415C464D462C43A346039C45462C434C
:1002A0000394013925D3202464420C19E7D40500B6
:1002B000A540A84604008C40A14692185B4114005A
:1002C0001D00059E4F463E40B446049E47463E40B4
:1002D000B246664657463E4303D0060026433200E8
:1002E0002B00009C019D9D42DBD8CED19442D8D8F2
:1002F000CBE7039B5846190007B03CBC9046994693
:10030000A246AB46F0BD10B5490840230024814207
:1003100002D2180010BD1C00091A631C9BB288424F
:10032000F9D94023FF2CF4D814800023F1E7000012
:10033000F0B583B00F00160008AA117804004C43F2
:100340004022BC4202D9100003B0F0BD002B14D1F2
:10035000020008000021194CA04701003A000023C8
:100360000020174CA04700220123121A8B41120CC7
:100370001B041A4332800022E5E70022012BF9D149
:100380000A00002300210D4CA04702000B00009240
:100390000193380000210A4CA047050080239B01EF
:1003A00040229842CFD8790FF800009A019BA047CD
:1003B000EA00821AD2B252032A43DBE71127000077
:1003C0004D02000010B582B004000E4B1B78002BCC
:1003D00007D0002905D10B4B5B78834210D01D203C
:1003E0000CE001A90C701320074B98471320074B12
:1003F0009847044B5C7001221A70002002B010BDB7
:100400000020FBE734000020A90F00001D0F0000B2
:10041000404B984231D00AD93F4B98424DD03F4B88
:1004200098425AD03E4B984237D0002070473D4BFF
:1004300098420CD03C4B9842F7D1012917D00029A3
:100440005DD0022915D0032915D00020EEE701293F
:1004500007D0002951D0022905D0032905D000205A
:10046000E4E73248E2E73248E0E73248DEE7324884
:10047000DCE73248DAE73248D8E7012907D000291B
:100480003FD0022905D0032905D00020CEE72D4812
:10049000CCE72D48CAE72D48C8E7012907D0002935
:1004A00031D0022905D0032905D00020BEE7284815
:1004B000BCE72848BAE72848B8E7012907D000294F
:1004C00023D0022905D0032905D00020AEE7234818
:1004D000ACE72348AAE72348A8E7012907D0002969
:1004E00015D0022905D0032905D000209EE71E481B
:1004F0009CE71E489AE71E4898E71E4896E70320A7
:1005000094E71D4892E71D4890E71D488EE71D4877
:100510008CE7C0460010004200180042001C004258
:100520000014004200080042000C004203000500D5
:1005300003000600030007000300010003001E0083
:1005400003001F000300090003000A0003000B0062
:1005500003001100030012000300130003000D004C
:1005600003000E0003000F00030017000300180033
:10057000030019000300040003000800030010003A
:1005800003000C000300160030B587B00B4B6A4621
:1005900032CB32C232CB32C2009B83420BD001231A
:1005A0009A0069465258824206D00133062BF7D191
:1005B000002007B030BD0023D8B2FAE7AC27000016
:1005C00070470000F0B50A4B1B78002B0CD1094F87
:1005D000094E0A4D0024DE515A1914600433182BB9
:1005E000F9D10122024B1A708000024BC150F0BDBC
:1005F0003600002038000020C105000068000020FF
:1006000000B583B009236A46137001335370013378
:1006100093700133D3700133137101335371034B62
:1006200098476B46185603B000BDC04689050000C8
:1006300010B5024B1B680020984710BD3800002001
:1006400010B5024B5B680120984710BD38000020B0
:1006500010B5024B9B680220984710BD380000205F
:1006600010B5024BDB680320984710BD380000200E
:1006700010B5024B1B690420984710BD38000020BC
:1006800010B5024B5B690520984710BD380000206B
:10069000F0B5DE4657464E464546E0B591B00500FA
:1006A0000C00160029600800BA4B98470200236826
:1006B0000520DB0706D511B03CBC90469946A24602
:1006C000AB46F0BD236817309B07F4D4B249086AE3
:1006D000971C0123BB4003430B620FA92D27F35D39
:1006E0000B701432D3B202931800AC4B98470298A7
:1006F000AB4B9847F05D0021AA4B9847F37A6B719A
:100700002423F35CAB712523F35CEB71F37E2B7236
:10071000337F6B722B68984618009E4B98471430B5
:1007200000220E2306A98C4663441A80328A029264
:100730008023DB019A4200D19AE00FD9C023DB016C
:10074000029A9A4200D18EE080231B029A4200D086
:100750001BE1032306930023079308E080239B01FA
:100760009A4200D011E1102306930F3B07933368A0
:100770000593F3689B4673690393337E04932623A2
:10078000F35C9A4673689946002B00D19CE0802365
:100790005B05994500D180E0737E002B02D0B37ECB
:1007A000424693730E2306AA944663441B8842462E
:1007B0009381059B5A461343039A13434A461343B6
:1007C000029F1F43049B1B021F4353465B071F43AB
:1007D0002723F35C002B01D104331F43737E9B025C
:1007E000327F52021343727F120213432422B25CFF
:1007F000520413432522B25C12041343B17AF27AF5
:10080000114319433389FF2B00D181E08022520428
:10081000174319432C23F35C002B03D1624B9B78C5
:100820009B0701D580231F432A68D369002BFCD185
:10083000434659602A68D369002BFCD143461F60A8
:100840000EAB80221A7000225A70DA709A70336BE5
:100850000A93736B0B93B36B0C93F36B02930D932F
:1008600000270AAE63E008230693073B07937EE761
:1008700033680593F3689B4673690393337E04934F
:100880002623F35C9A4673689946002B18D0802380
:100890005B05994501D0002025E02723F35C002B60
:1008A00000D079E7336A1F00C0B2404B984701007F
:1008B0000E2206AB9C46624438003D4B984712E03E
:1008C00008230693002307932723F35C002B0ED005
:1008D000069B0093079B0E2206A98C466244B16AD0
:1008E000306A344FB847002800D0E4E654E7336A52
:1008F0001F00C0B22D4B98470100069B0093079B39
:100900000E2206A88446624438002A4FB847EAE718
:10091000F37E002B00D17DE78023DB041F4379E7C2
:100920002000254B984707E00137042F0DD0F9B27E
:10093000BB0098590028F3D0431CF5D00EA90870CD
:10094000000CC0B21D4B9847EEE70023EB602B6113
:100950006B61AB61EB612B62AB626B620022EB857A
:10096000AB853033EA540133EA540133EA5401339E
:10097000EA542868074B984704001149114B9847DF
:10098000A400114BE550002095E6102306930023A8
:100990000793ECE68905000000040040A90F000061
:1009A0001D0F0000C503000000200041C50F00001E
:1009B000070300003103000011040000A110000033
:1009C000CD090000C505000068000020F8B58000D2
:1009D000624BC5582C68E369002BFCD1237EA67DB1
:1009E0001E403023EB5C3122AF5C1F40F30722D561
:1009F000EB8D9BB2002B1CD0AA6A1378DBB2511C82
:100A0000A962697901290ED09BB2DB05DB0D238534
:100A1000EB8D013B9BB2EB85002B0CD10133237591
:100A20000133A37507E0517809020B430232AA6231
:100A3000EBE701232375B30706D5022323750022B4
:100A40003133EA54FB071AD4730765D5AB8D9BB2DB
:100A5000002B5FD0638BDBB21A0714D43F22134004
:100A6000002B34D09A0711D51A223223EA54303B96
:100A700063837B0750D528006B6998474CE02800BA
:100A8000EB689847E0E737221340E9E75A0705D5B6
:100A90001E223223EA542E3B6383EAE7DA0705D5A8
:100AA00013223223EA54313B6383E2E7DA0605D5A9
:100AB00042223223EA54223B6383DAE720221A429D
:100AC000D7D021323223EA54123B6383D1E7238DFE
:100AD000DB05DB0DDAB2696A0A706A6A511C696269
:100AE0006979012910D0AB8D013B9BB2AB85002BFE
:100AF00012D10433237500222E33EA54BB070BD5E1
:100B000028002B69984707E01B0A53706B6A013372
:100B10006B62E8E704232375F30604D510232375DD
:100B20002376FB060ED4B30604D520232375237643
:100B30003B070BD4330704D5082323752376BB0664
:100B400008D4F8BD2800EB699847ECE72800AB69AA
:100B50009847EFE72B6A28009847F2E768000020E3
:100B600010B5082803D880001C4B1B589F46002056
:100B700032E01B4B18692FE01A4B1B6A9B059B0F39
:100B80001948D84028E0164B586925E0144B1B68DB
:100B900000209B0720D513491022CB681A42FCD0B5
:100BA0000F4B1A6824231340042B01D00F4813E085
:100BB00000200F4B98470A4B9B681B041B0C5843A3
:100BC0000AE05023074AD35C00205B0704D5044B9E
:100BD000D86801E08020000210BDC046C427000094
:100BE000500000200008004000127A00006CDC0277
:100BF000C50F000070B50C490B6A04788578407801
:100C00000122104080014026B34303432A40D20111
:100C100080208343134303222240120203480340EF
:100C200013430B6270BDC04600080040FFFCFFFF8D
:100C3000082803D88000254B1B589F46172044E006
:100C4000234A136A02210B43136200203DE0204A2D
:100C5000936902210B439361002036E01C4A138AFA
:100C600002210B43138200202FE0194A938A0221AC
:100C70000B439382002028E016490B68022213439D
:100C80000B60134B9A8419000E32CB681A42FCD0C9
:100C9000104A91680E4BD96252689A6200229A8477
:100CA00019001032CB681A42FCD00A4B1B689BB269
:100CB000074A9384002008E0054944228B5C022007
:100CC00003438B54002000E000207047E827000019
:100CD000000800405000002030B585B0C222D2008C
:100CE0001A4B9A601A4A53681E218B4353600123A2
:100CF0006A4613700024174DE0B26946A8470134D4
:100D0000252CF9D103A800244470012585700470B6
:100D1000114B98470620114B9847114B9847114BA0
:100D20001C725C729C72DC7201956B465C700623CF
:100D30006A46137014725472694600200A4B984731
:100D400000200A4B984705B030BDC046000800405F
:100D500000400041A90F0000F50B0000310C00001D
:100D6000710D000000040040950D00004D0E0000C4
:100D7000064A936908210B4393610122044B1A70C0
:100D800019000B781342FCD17047C04600040040A4
:100D9000000C004070B5060004000D782D020543DC
:100DA0004B78002B02D08023DB021D434B7A002BB3
:100DB00002D080231B031D434868012810D9431E1D
:100DC000184234D1022830D90223002201325B00BC
:100DD0009842FBD812023243140080235B031D4368
:100DE0000B7A002B02D080239B031D43134A5378B8
:100DF0005BB2002BFBDB124B9847124B1E700F4A65
:100E000053785BB2002BFBDB0C4B9C601A005378D1
:100E10005BB2002BFBDB094A5368802149020B407F
:100E20001D435560084B984770BD0022D2E704026D
:100E3000344380239B021D43D2E7C046000C004090
:100E400081010000080C0040C101000010B5040041
:100E50000B4A53785BB2002BFBDB0A4B98470A4BDB
:100E60001C70074A53785BB2002BFBDB044A5168C5
:100E700080235B020B435360044B984710BDC04670
:100E8000000C004081010000040C0040C101000082
:100E900070B504001A4A53785BB2002BFBDB194B88
:100EA0009847194B1C70164A53785BB2002BFBDB3A
:100EB000134E7068C004C00E144B98470500124BC7
:100EC0001C707668F602F60F114B1C700C4A5378B2
:100ED0005BB2002BFBDB0A4B9C682402240C0D4BFD
:100EE0009847002E07D1012C07D9210028000A4B72
:100EF0009847050001E00134E540280070BDC04678
:100F0000000C004081010000040C0040610B000057
:100F1000080C0040C1010000F925000010B50400D4
:100F2000064B9847064B1C70064A53888021C9011E
:100F30000B435380044B984710BDC046810100000D
:100F4000020C0040000C0040C101000010B504007C
:100F50000F4B98470F4B1C700F4A53881B05180FF7
:100F600053880E490B40538053880D490B405380E2
:100F700011008022D2014B881342FCD106494A88D5
:100F800003020648024013434B80064B984710BDAE
:100F900081010000020C0040000C0040FFF0FFFF48
:100FA000FFBFFFFFC101000010B50C78240204430D
:100FB000024B9847A4B2024B5C8010BD4D0F00005D
:100FC000000C004010B50400064B9847064B1C70FF
:100FD000064B5C882405240F054B98472000054BE1
:100FE000984710BD81010000020C0040000C004039
:100FF000C1010000910E000030B5D378002B35D12F
:101000001378802B29D01B06802464022343547854
:101010000225AC4306D19478002C20D18024A40270
:10102000234341605478013C012C1CD90D042D0C44
:10103000A024E4052C431C4384620D0CD024240618
:101040002C431C438462D478002C22D15B031CD532
:101050009378012B1ED0416117E00023D7E7C0240D
:10106000E4022343DDE70D4C2340DFE741600C043D
:10107000240CA023DB05234383620C0CD0231B0626
:1010800023438362D378002B03D15378013B012B98
:1010900002D930BD8161F8E78160FAE7FFFFFBFF0D
:1010A00010B50A00C1090023002904D14309DB015E
:1010B00005498C4663441F242040012181401800CB
:1010C000024B984710BDC04600440041F90F000094
:1010D0007047000010B5054B9847054B9847054BE6
:1010E0009847054B9847054B984710BDD90C000011
:1010F000F1010000D1100000D1100000D11000005B
:10110000FEE70000F8B52A4A2A4B9A4211D01A008D
:10111000294B9A420DD2294A03339B1A9B0801336B
:101120009B000022234822498C58845004329A4262
:10113000FAD1234A234B9A420AD2D34321495B185E
:1011400003218B4304339B18002102C29342FCD13C
:101150001D4AFF211D4B8B439360FD3990235B009B
:101160001B4AD1501B4AD3780325AB4302242343A7
:10117000D370D3780C27BB4308263343D370164B68
:10118000987B30229043202210439873997BB94377
:10119000314399739A7BAA4322439A730F4A536847
:1011A00080210B4353600E4B98470E4B9847FEE748
:1011B0002C28000000000020100000200400002067
:1011C00010000020B800002000ED00E0000000004A
:1011D00000700041005000410048004100400041C3
:1011E000652700005524000030B591B08023DB0551
:1011F000009300230193FF2269460A8100228B722B
:10120000CB72962189010891012124206C4621543A
:101210000130215425316354013163540A9305315F
:1012200063540131635405932382E3762276227757
:1012300062761323A376627780235B030393124BBA
:101240000C93124B0D9301235B420E930F93104DA1
:10125000104C6A4610492800A0470028F9D10C4DCF
:101260002C6820000D4B98471F2318401E3B8340DD
:101270000B4A13602A68D369002BFCD12368022231
:101280001343236011B030BD0200160002001700A6
:1012900080000020910600000014004201060000BA
:1012A00000E100E030B5204C204B1C6000020143FF
:1012B0001F4B19601509002D27DD00241B488023D2
:1012C0009B021B4903600B6003600B6003600B60B3
:1012D00003600B6003600B6003600B6003600B60D6
:1012E00003600B6003600B6003600B6003600B60C6
:1012F00003600B6003600B6003600B6003600B60B6
:1013000003600B600134A542DCDC0F231A400AD0D5
:1013100001320023054C80218902054821600160CB
:1013200001339342FADB30BDFFFF000094440041DB
:101330009844004110B5064C064B2360000201435F
:10134000054B19608022920222601A6010BDC046CF
:1013500094440041FFFF00009844004110B58022F2
:101360001204024B1A60024B984710BD944400418E
:101370003513000010B5010080221204024B1A60E0
:101380000020024B984710BD9844004135130000DF
:10139000F0B583B0060000921C4A1588691A8FB216
:1013A000ED1AADB200212A20194CA0470196300A4F
:1013B000184EB04701212A20A0476B461879B04744
:1013C00002212A20A047009B180AB04703212A20A7
:1013D000A0476B461878B04700212B20A047380A59
:1013E000B04701212B20A047F8B2B04702212B20A3
:1013F000A047280AB04703212B20A047E8B2B047F6
:1014000000212C20A04703B0F0BDC0460C000020F6
:101410005D13000075130000F0B583B007001D00D8
:101420008026F603104B1E60ABB201926A4692888A
:1014300000916946098880B20C4CA0470C4C80236F
:101440001B042360019BDA1B0132009BED1A01355E
:101450006A4392B2074B1978074B1878074B9847A5
:10146000266003B0F0BDC0469444004191130000D3
:1014700098440041B6000020B5000020A5120000ED
:1014800010B5044B1B88044A128800210020034C2D
:10149000A04710BD0A0000200C000020911300009E
:1014A00010B58022D203024B1A60024B984710BD40
:1014B0009444004181140000F8B580235B02FE4A89
:1014C0001360FE4C23608025ED0525600520FC4F50
:1014D000B847FC4E35600F20B84725608023DB03FA
:1014E00033600021F020F84CA0475520F74DA84765
:1014F0000121F020A047AA20A8470221F020A04700
:101500005220A8470321F020A0470820A847042123
:10151000F020A0470120A8470021B020A0470D20BF
:10152000A8470121B020A0470D20A8470221B020E4
:10153000A0470D20A8470021B620A0473420A84787
:101540000121B620A0473420A8470221B620A04799
:101550003420A8470021B120A0470D20A847012131
:10156000B120A0470D20A8470221B120A0470D209F
:10157000A8470021B720A0473420A8470121B72061
:10158000A0473420A8470221B720A0473420A8470D
:101590000021B220A0470020A8470121B220A04787
:1015A0000020A8470221B220A0470020A847002120
:1015B000B820A0472420A8470121B820A047242014
:1015C000A8470221B820A0472420A8470021BF2017
:1015D000A0470120A8470021B320A0470F20A8471B
:1015E0000121B320A0470F20A8470221B320A04724
:1015F0000F20A8470021B920A0473420A847012187
:10160000B920A0473420A8470221B920A0473420A0
:10161000A8470021B520A0470820A8470021B520F1
:10162000A0470820A8470121B520A0470820A847C7
:101630000021C220A0470320A8470021BA20A047CC
:101640002420A8470121BA20A0472420A84702212E
:10165000BA20A0472420A8470021BC20A047002092
:10166000A8470121BC20A0477820A8470221BC2020
:10167000A0470020A8470021BD20A0470020A84780
:101680000121BD20A0477820A8470221BD20A04706
:101690000020A8470021BE20A0470020A847012124
:1016A000BE20A0478920A8470021D120A0470020C4
:1016B000A8470121D120A0472D20A8470221D120F1
:1016C000A0470020A8470321D120A0472E20A847EB
:1016D0000421D120A0470020A8470521D120A04700
:1016E0003220A8470621D120A0470020A847072183
:1016F000D120A0474420A8470821D120A04700209E
:10170000A8470921D120A0475320A8470A21D1206A
:10171000A0470020A8470B21D120A0478820A84738
:101720000C21D120A0470020A8470D21D120A0479F
:10173000B620A8470E21D120A0470020A8470F219E
:10174000D120A047F320A8471021D120A047012095
:10175000A8471121D120A0472220A8471221D1203B
:10176000A0470120A8471321D120A0476420A84703
:101770001421D120A0470120A8471521D120A0473E
:101780009220A8471621D120A0470120A847172161
:10179000D120A047D420A8471821D120A04702205B
:1017A000A8471921D120A0470720A8471A21D120F6
:1017B000A0470220A8471B21D120A0470820A84706
:1017C0001C21D120A0470220A8471D21D120A047DD
:1017D0003420A8471E21D120A0470220A8471F215E
:1017E000D120A0475F20A8472021D120A047022078
:1017F000A8472121D120A0477820A8472221D12025
:10180000A0470220A8472321D120A0479420A84721
:101810002421D120A0470220A8472521D120A0477C
:10182000A620A8472621D120A0470220A84727218B
:10183000D120A047BB20A8472821D120A0470220C3
:10184000A8472921D120A047CA20A8472A21D12072
:10185000A0470220A8472B21D120A047DB20A84782
:101860002C21D120A0470220A8472D21D120A0471C
:10187000E820A8472E21D120A0470220A8472F21E9
:10188000D120A047F920A8473021D120A04703202C
:10189000A8473121D120A0471F20A8473221D120BD
:1018A000A0470320A8473321D120A0477F20A84785
:1018B0000021D220A0470BE0884400419844004119
:1018C00055010000944400415D13000075130000B1
:1018D0000020A8470121D220A0472D20A84702219F
:1018E000D220A0470020A8470321D220A0472E20C5
:1018F000A8470421D220A0470020A8470521D220D4
:10190000A0473220A8470621D220A0470020A847A0
:101910000721D220A0474420A8470821D220A04771
:101920000020A8470921D220A0475320A8470A2118
:10193000D220A0470020A8470B21D220A047882012
:10194000A8470C21D220A0470020A8470D21D22073
:10195000A047B620A8470E21D220A0470020A847C4
:101960000F21D220A047F320A8471021D220A04762
:101970000120A8471121D220A0472220A8471221E8
:10198000D220A0470120A8471321D220A0476420DD
:10199000A8471421D220A0470120A8471521D22012
:1019A000A0479220A8471621D220A0470120A8478F
:1019B0001721D220A047D420A8471821D220A04721
:1019C0000220A8471921D220A0470720A8471A21A2
:1019D000D220A0470220A8471B21D220A0470820E0
:1019E000A8471C21D220A0470220A8471D21D220B1
:1019F000A0473420A8471E21D220A0470220A84794
:101A00001F21D220A0475F20A8472021D220A04735
:101A10000220A8472121D220A0477820A8472221D0
:101A2000D220A0470220A8472321D220A0479420FB
:101A3000A8472421D220A0470220A8472521D22050
:101A4000A047A620A8472621D220A0470220A847C9
:101A50002721D220A047BB20A8472821D220A04779
:101A60000220A8472921D220A047CA20A8472A211E
:101A7000D220A0470220FE4DA8472B21D220FD4CAA
:101A8000A047DB20A8472C21D220A0470220A8474E
:101A90002D21D220A047E820A8472E21D220A04700
:101AA0000220A8472F21D220A047F920A8473021A3
:101AB000D220A0470320A8473121D220A0471F20D1
:101AC000A8473221D220A0470320A8473321D220A3
:101AD000A0477F20A8470021D320A0470020A84787
:101AE0000121D320A0472D20A8470221D320A047C1
:101AF0000020A8470321D320A0472E20A847042177
:101B0000D320A0470020A8470521D320A04732209A
:101B1000A8470621D320A0470020A8470721D320AB
:101B2000A0474420A8470821D320A0470020A84769
:101B30000921D320A0475320A8470A21D320A0473A
:101B40000020A8470B21D320A0478820A8470C21BC
:101B5000D320A0470020A8470D21D320A047B620BE
:101B6000A8470E21D320A0470020A8470F21D3204B
:101B7000A047F320A8471021D320A0470120A84761
:101B80001121D320A0472220A8471221D320A0470B
:101B90000120A8471321D320A0476420A84714217F
:101BA000D320A0470120A8471521D320A047922089
:101BB000A8471621D320A0470120A8471721D320EA
:101BC000A047D420A8471821D320A0470220A84727
:101BD0001921D320A0470720A8471A21D320A047C6
:101BE0000220A8471B21D320A0470820A8471C217A
:101BF000D320A0470220A8471D21D320A04734208E
:101C0000A8471E21D320A0470220A8471F21D32088
:101C1000A0475F20A8472021D320A0470220A84743
:101C20002121D320A0477820A8472221D320A047F4
:101C30000220A8472321D320A0479420A84724218D
:101C4000D320A0470220A8472521D320A047A620C3
:101C5000A8472621D320A0470220A8472721D32028
:101C6000A047BB20A8472821D320A0470220A8478F
:101C70002921D320A047CA20A8472A21D320A04742
:101C80000220A8472B21D320A047DB20A8472C21E6
:101C9000D320A0470220A8472D21D320A047E82029
:101CA000A8472E21D320A0470220A8472F21D320C8
:101CB000A047F920A8473021D320A0470320A847F8
:101CC0003121D320A0471F20A8473221D320A0478D
:101CD0000320A8473321D320A0477F20A847002115
:101CE000D420A0470020A8470121D420A0472D20C0
:101CF000A8470221D420A0470020A8470321D420D0
:101D0000A0472E20A8470421D420A0470020A847A0
:101D10000521D420A0473220A8470621D420A0477F
:101D20000020A8470721D420A0474420A847082125
:101D3000D420A0470020A8470921D420A047532041
:101D4000A8470A21D420A0470020A8470B21D4206F
:101D5000A0478820A8470C21D420A0470020A847EE
:101D60000D21D420A047B620A8470E21D420A0479B
:101D70000020A8470F21D420A047F320A847102116
:101D8000D420A0470120A8471121D420A047222019
:101D9000A8471221D420A0470120A8471321D4200E
:101DA000A0476420A8471421D420A0470120A847B9
:101DB0001521D420A0479220A8471621D420A0475F
:101DC0000120A8471721D420A047D420A8471821D4
:101DD000D420A0470220A8471921D420A0470720DB
:101DE000A8471A21D420A0470220A8471B21D420AD
:101DF000A0470820A8471C21D420A0470220A847BC
:101E00001D21D420A0473420A8471E21D420A0475C
:101E10000220A8471F21D420A0475F20A8472021E7
:101E2000D420A0470220A8472121D420A047782011
:101E3000A8472221D420A0470220A8472321D4204C
:101E4000A0479420A8472421D420A0470220A847D7
:101E50002521D420A047A620A8472621D420A0478A
:101E60000220A8472721D420A047BB20A84703E091
:101E7000751300005D1300002821D420A047022024
:101E8000A8472921D420A047CA20A8472A21D42026
:101E9000A0470220A8472B21D420A047DB20A84739
:101EA0002C21D420A0470220A8472D21D420A047D0
:101EB000E820A8472E21D420A0470220A8472F21A0
:101EC000D420A047F920A8473021D420A0470320E0
:101ED000A8473121D420A0471F20A8473221D42071
:101EE000A0470320A8473321D420A0477F20A8473C
:101EF0000021D520A0470020A8470121D520A047D8
:101F00002D20A8470221D520A0470020A847032163
:101F1000D520A0472E20A8470421D520A047002087
:101F2000A8470521D520A0473220A8470621D52063
:101F3000A0470020A8470721D520A0474420A84754
:101F40000821D520A0470020A8470921D520A04777
:101F50005320A8470A21D520A0470020A8470B21DD
:101F6000D520A0478820A8470C21D520A0470020D5
:101F7000A8470D21D520A047B620A8470E21D5207F
:101F8000A0470020A8470F21D520A047F320A8474D
:101F90001021D520A0470120A8471121D520A04716
:101FA0002220A8471221D520A0470120A8471321AD
:101FB000D520A0476420A8471421D520A0470120A0
:101FC000A8471521D520A0479220A8471621D52043
:101FD000A0470120A8471721D520A047D420A84713
:101FE0001821D520A0470220A8471921D520A047B5
:101FF0000720A8471A21D520A0470220A8471B2167
:10200000D520A0470820A8471C21D520A0470220A2
:10201000A8471D21D520A0473420FE4DA8471E21EA
:10202000D520FD4CA0470220A8471F21D520A0475E
:102030005F20A8472021D520A0470220A8472121C2
:10204000D520A0477820A8472221D520A0470220EC
:10205000A8472321D520A0479420A8472421D52094
:10206000A0470220A8472521D520A047A620A847A1
:102070002621D520A0470220A8472721D520A04708
:10208000BB20A8472821D520A0470220A847292106
:10209000D520A047CA20A8472A21D520A047022042
:1020A000A8472B21D520A047DB20A8472C21D520ED
:1020B000A0470220A8472D21D520A047E820A84707
:1020C0002E21D520A0470220A8472F21D520A047A8
:1020D000F920A8473021D520A0470320A847312167
:1020E000D520A0471F20A8473221D520A047032094
:1020F000A8473321D520A0477F20A8470021D6201C
:10210000A0470020A8470121D620A0472D20A8479E
:102110000221D620A0470020A8470321D620A047AF
:102120002E20A8470421D620A0470020A84705213B
:10213000D620A0473220A8470621D620A04700205D
:10214000A8470721D620A0474420A8470821D62029
:10215000A0470020A8470921D620A0475320A84720
:102160000A21D620A0470020A8470B21D620A0474F
:102170008820A8470C21D620A0470020A8470D2181
:10218000D620A047B620A8470E21D620A047002081
:10219000A8470F21D620A047F320A8471021D6201A
:1021A000A0470120A8471121D620A0472220A847F8
:1021B0001221D620A0470120A8471321D620A047EE
:1021C0006420A8471421D620A0470120A847152144
:1021D000D620A0479220A8471621D620A04701204C
:1021E000A8471721D620A047D420A8471821D620D9
:1021F000A0470220A8471921D620A0470720A847BA
:102200001A21D620A0470220A8471B21D620A0478C
:102210000820A8471C21D620A0470220A8471D213E
:10222000D620A0473420A8471E21D620A047022050
:10223000A8471F21D620A0475F20A8472021D620ED
:10224000A0470220A8472121D620A0477820A847F0
:102250002221D620A0470220A8472321D620A0472C
:102260009420A8472421D620A0470220A847252152
:10227000D620A047A620A8472621D620A047022086
:10228000A8472721D620A047BB20A8472821D62031
:10229000A0470220A8472921D620A047CA20A84746
:1022A0002A21D620A0470220A8472B21D620A047CC
:1022B000DB20A8472C21D620A0470220A8472D21AB
:1022C000D620A047E820A8472E21D620A0470220EC
:1022D000A8472F21D620A047F920A8473021D62093
:1022E000A0470320A8473121D620A0471F20A84798
:1022F0003221D620A0470320A8473321D620A0476B
:102300007F20A8470021F020A0475520A8470121A1
:10231000F020A047AA20A8470221F020A047522081
:10232000A8470321F020A0470820A8470421F02057
:10233000A0470020A8470021B120A047CC20A847F3
:102340000121B120A0470020A8470021B620A047C6
:102350000520A8470021B720A0477020A8470121E9
:10236000B720A0477020A8470021B820A04701202F
:10237000A8470121B820A0470320A8470221B82080
:10238000A0470320A8470321B820A0470320A8475F
:102390000021BC20A0470220A8470121BC20A04763
:1023A0000020A8470221BC20A0470020A847002108
:1023B000C920A047D020A8470121C920A04702205A
:1023C000A8470221C920A0475020A8470321C920BF
:1023D000A0475020A8470421C920A0475020A84763
:1023E00000213520A0470020A84700213A20A0471F
:1023F0005520A84700213620A0470020A8470021EB
:102400001120A0477820054DA84700212920A0478A
:10241000642005E0751300005D1300005501000005
:10242000A8478022D203064B1A60FF23054A137087
:10243000054A13700023054A1370054A1370F8BD4E
:1024400098440041B5000020B6000020B7000020ED
:10245000B4000020F8B5DE4657464E464546E0B586
:10246000564B9847564B9847564B9847564B574AAA
:102470001A6001271F6002261E6004251D600824C3
:102480001C60102018602021196040221A60403220
:102490001A6080321A600132FF321A608022D20044
:1024A0001A60802212011A60802252011A60802272
:1024B00092011A608022D2011A60802212021A60F0
:1024C0008022D20593461A608022D20392461A6077
:1024D0008022920291461A608022120490461A606D
:1024E0008022520294461A60394B5A461A6052466C
:1024F0001A604A461A6042461A6062461A601F60B5
:102500001E601D601C601860196040221A60403215
:102510001A6080321A600132FF321A608022D200C3
:102520001A60802212011A60802252011A608022F1
:1025300092011A608022D2011A60802212021A606F
:10254000244B9847244B9846244D254CC047E02304
:10255000FF33244AE92149000020A847FA2040001F
:10256000A047214B9B46FF261E70204B9A461E70AB
:102570001F4B994600234A4613701E4F3B70E023C1
:10258000FF33184AE92149000020A847FA204000FB
:10259000A047F8235A461370D93B524613704B4656
:1025A0001E70E0233B70E023FF330E4AE92149000F
:1025B0000020A847FA204000A047C7E7D510000038
:1025C00015010000E911000088440041FFFF0000F0
:1025D00094440041B9140000A11400001914000033
:1025E000550100001F030000B5000020B6000020C8
:1025F000B7000020B4000020002243088B4274D3AF
:1026000003098B425FD3030A8B4244D3030B8B42F3
:1026100028D3030C8B420DD3FF22090212BA030CFC
:102620008B4202D31212090265D0030B8B4219D3DD
:1026300000E0090AC30B8B4201D3CB03C01A5241FD
:10264000830B8B4201D38B03C01A5241430B8B4245
:1026500001D34B03C01A5241030B8B4201D30B032E
:10266000C01A5241C30A8B4201D3CB02C01A524155
:10267000830A8B4201D38B02C01A5241430A8B4218
:1026800001D34B02C01A5241030A8B4201D30B0201
:10269000C01A5241CDD2C3098B4201D3CB01C01A1B
:1026A000524183098B4201D38B01C01A5241430925
:1026B0008B4201D34B01C01A524103098B4201D313
:1026C0000B01C01A5241C3088B4201D3CB00C01A80
:1026D000524183088B4201D38B00C01A52414308F8
:1026E0008B4201D34B00C01A5241411A00D201461D
:1026F000524110467047FFE701B5002000F006F890
:1027000002BDC0460029F7D076E770477047C04643
:10271000F0B5CE46474615042D0C2E0080B50704B3
:10272000140C3F0C9946030C7E435D43674363439F
:102730007F19340CE4199C46A54203D980235B021F
:102740009846C4444B46514343433604360C250C4B
:1027500024046544A4195918491920000CBC90465A
:102760009946F0BD70B500260C4D0D4C641BA410AD
:10277000A64209D1002600F049F80A4D0A4C641B14
:10278000A410A64205D170BDB300EB58984701369E
:10279000EEE7B300EB5898470136F2E7182800003F
:1027A00018280000182800001C280000000800421B
:1027B000000C0042001000420014004200180042C9
:1027C000001C0042720B00006E0B00006E0B00003C
:1027D000D40B0000D40B0000860B0000780B000027
:1027E0008C0B0000C20B00005C0C00003C0C0000D5
:1027F0003C0C0000C80C00004E0C00006A0C0000ED
:10280000400C0000780C0000B80C0000F8B5C04681
:10281000F8BC08BC9E467047DD000000F8B5C04615
:0C282000F8BC08BC9E467047B5000000E4
:10282C00401F0000080000000100DF011F03000032
:0400000300001105E3
:00000001FF
