:1000000018230020751B0000711B0000711B0000ED
:1000100000000000000000000000000000000000E0
:10002000000000000000000000000000711B000044
:100030000000000000000000711B00008D34000073
:10004000711B0000711B0000711B0000711B000080
:10005000711B0000711B0000711B0000711B000070
:10006000711B0000150E0000250E0000350E00006B
:10007000450E0000550E0000650E0000711B0000CB
:10008000711B0000711B0000711B0000711B000040
:10009000711B0000711B0000711B0000490900006A
:1000A000711B0000711B0000711B0000711B000020
:1000B0000000000010B5064C2378002B07D1054B3B
:1000C000002B02D0044800E000BF0123237010BDC4
:1000D000A400002000000000B06B0000084B10B529
:1000E000002B03D00749084800E000BF0748036819
:1000F000002B00D110BD064B002BFBD09847F9E731
:1001000000000000A8000020B06B0000B06B0000F1
:1001100000000000F0B5C1B00700D0222D490CA8A6
:100120002D4B984705A82D4B1A005032010031CABB
:1001300031C131CA31C112680A606C336A4613CBCF
:1001400013C203CB03C20CAC40AE254DE3885B1059
:100150009633A28852102D32FF32618849109631B1
:10016000208840102D30FF30A8470834B442EDD12C
:10017000002F03D0012F17D041B0F0BD05AC0CAE5D
:10018000174DE3785B109633A27852102D32FF3270
:10019000617849109631207840102D30FF30A84703
:1001A0000434A642EDD1E7E76C4605AE0C4DE3788A
:1001B0005B109633A27852102D32FF3261784910CD
:1001C0009631207840102D30FF30A8470434B442D7
:1001D000EDD1D1E7044A000019390000844A00003B
:1001E000F92F000070B5494C494B2360494B6360BF
:1001F000494BA360494BE360494B2361494B636121
:10020000494BA361494BE361494B2362494B63620C
:10021000494BA362494BE362494B2363494B6363F8
:10022000494BA363494BE363494B2364494B6364E4
:10023000494BA364494BE364494B2365494B6365D0
:10024000494BA365494BE365494B2366494B6366BC
:10025000494BA366494BE366494B2367494B6367A8
:10026000494BA367494BE367494A8023E250494B16
:100270009847C317DB0EC2181F201040C01A800019
:100280000459454B9847FF22FF21FF20434B9847D5
:1002900080221206424B1A60424BDF22995C0420F6
:1002A00001439954995C0220014399543F3A9B5869
:1002B000002B26DB00203C4B98473C4B9847200006
:1002C0003B4B98473B4E40082823181A30703A4D54
:1002D00010232B702000394B9847FA20C000384B70
:1002E00098472D4B98470022FF2100202B4B984721
:1002F000002200210020334B9847002333702B70DD
:1003000070BD0120284B9847D7E7C046C0000020A9
:10031000044B0000204B0000344B00004C4B00000D
:100320005C4B0000644B00008C4B0000B84B00009D
:10033000E04B00000C4C0000144C00002C4C000062
:100340004C4C00006C4C0000904C0000A04C000095
:10035000AC4C0000CC4C0000EC4C0000F44C000015
:10036000084D0000244D0000344D0000584D0000A1
:10037000844D0000BC4D0000D04D0000FC4D00003D
:10038000104E00002C4E0000504E0000744E000035
:10039000944E0000CD39000099310000AD2E0000D0
:1003A0008C4400410044004115010000613100000F
:1003B000B13B000080010020810100202D210000C0
:1003C00009040000D52E000070B50020084B9847A6
:1003D0000500084CFA218900A047074B186007491F
:1003E0002800A047064B18600522064B1A6070BD16
:1003F00001190000653700000000002040420F0096
:100400000400002010E000E030B5084B1C68084AEA
:10041000002580214902013807D3002CFBD054600D
:10042000956013680B42FCD0F5E730BD000000205A
:1004300010E000E00C4B1B68002B06D1EFF310839B
:10044000002B07D00022094B1A70074A13680133AA
:100450001360704772B6BFF35F8F0022044B1A70AF
:100460000132024B1A70F0E74001002044010020E5
:1004700008000020084B1A68013A1A601B68002B1C
:1004800009D1064B1B78002B05D00122044B1A70B2
:10049000BFF35F8F62B67047400100204401002027
:1004A00008000020F0B583B001AC0125657000277D
:1004B000A770257021003E20064EB0478022D2054D
:1004C000054B9A612770657021000F20B04703B07B
:1004D000F0BDC0460D0A00008044004110B5002266
:1004E0000023027042700021428001710376026293
:1004F000C2618260C0246401C48103744374837444
:10050000C37403752A24035543758375063C03554C
:10051000C2840285C1752B23C1540133C15410BD5F
:10052000F0B5D6464F464646C0B596B00700160011
:100530000160C64A106A80235B02034313620B7892
:100540000520DB0705D516B01CBC90469946A2468F
:10055000F0BD0B7817309B07F5D473783B71002BF7
:1005600004D1BB4A136C04210B4313640023BB600A
:10057000FB603B61BB76FB763B833B77B54B1F60F3
:100580002A23F35C002B05D1337D002B02D10133EC
:100590007B7701E000237B773B68984633786A4697
:1005A000137069461E20AC4B98471E20AB4B9847F2
:1005B0002C23F25C002A54D0013BF55C337BEB1812
:1005C000DBB2D118C9B28B4221D25219D3B29946AB
:1005D000A34B9A4603E00135EDB24D4517D00F24E9
:1005E0002C40337BE41850229E4902A8D047132C9C
:1005F000F1D8A40002ABE05801A900234B70CB70E6
:100600008B7001330B70C0B2974B9847E3E7F489C6
:100610005022944902A8924B9847132C13D9737D0A
:100620009B00DBB242461370B37DDB01727813434B
:10063000DBB2424653703379342B00D97BE19B0007
:100640008A4AD3589F46A40002ABE05801A9002370
:100650004B70CB708B7001330B70C0B2824B9847DC
:10066000DDE7347B50227F4902A87D4B9847132C4D
:1006700015D9F48950227B4902A8794B9847132C4D
:10068000CDD8A40002ABE05801A900234B70CB7079
:100690008B7001330B70C0B2734B9847BFE7A40057
:1006A00002ABE05801A900234B70CB708B70013373
:1006B0000B70C0B26C4B9847DBE704231024022177
:1006C0001AE0717C337C102416E0062310240121EB
:1006D00012E00823102400210EE000233024002122
:1006E0000AE000232024002106E00023002400214A
:1006F00002E0022310240121090170220A40134361
:1007000042469370F37D17203F2B00D91BE7D3702F
:100710003A68537E5BB2002BFBDBF37C7288134399
:100720002422B25CD2001343327D92001343B27C88
:1007300052001343234342469380337E002B20D044
:10074000102C00D1D9E000D898E0202C00D1B6E0E0
:10075000302C16D1F27C002A0AD0F26980321720A0
:10076000FF2A00D9EFE6326A8032FF2A00D9EAE692
:100770001720F269FF2A00DDE5E6326AFF2A00DD74
:10078000E1E639684A7E52B2002AFBDB4246137228
:100790003A68537E5BB2002BFBDBB38B42469383FC
:1007A0003A68537E5BB2002BFBDB338C42461384EA
:1007B0002C23F35C002B05D0013BDBB217200F2B61
:1007C00000D9C0E62B22B15C17200F2900D9BAE668
:1007D0003868427E52B2002AFBDBF289307B02434A
:1007E000B068024309050A431B04134342461361E0
:1007F0002A23F35C13750F2393751533F35C002BD9
:1008000012D0F38C1A4A1720934200D99BE6424635
:100810009384328D80231B01D31815499BB28B42E0
:1008200000D990E64346DA84124B1B685B01E02254
:10083000D2001340104A516849011268D20E0A438F
:10084000D2B213434246138500207CE600040040E8
:10085000000800408C010020191A00008D190000CA
:1008600019390000884F0000111B0000B44E000031
:10087000FF0F00002460800020608000002C00D06A
:100880007FE7F27C002A0FD0F269802109018C46B3
:1008900062442A4917208A4200D954E6326A6244E7
:1008A00026498A4200D94EE6244A1720F16991422E
:1008B00000DD48E6316A914200DD44E661E7F27C02
:1008C000002A0FD0F269802189008C4662441C49BD
:1008D00017208A4200D936E6326A624418498A42B1
:1008E00000D930E6164A1720F169914200DD2AE668
:1008F000316A914200DD26E643E7F27C002A0FD000
:10090000F269802109028C4662440E4917208A420E
:1009100000D918E6326A62440A498A4200D912E6CE
:10092000084A1720F169914200DD0CE6316A9142D4
:1009300000DD08E625E7172005E6C046FF0F0000AA
:10094000FF030000FFFF000070B52F4B1D682B68F0
:100950001A7EDC7D1440E20716D4630708D5042311
:100960002A681376EB7E9B0702D5AB7E9B0742D4A9
:10097000A30708D502232A681376EB7E5B0702D50E
:10098000AB7E5B073BD470BD01221A762A68537E8A
:100990005BB2002BFBDB69698B1C6B61538B9BB2D9
:1009A0000B802B8B013B9BB22B83002B11D06B7FD9
:1009B000002BD2D02A68537E5BB2002BFBDB137B6B
:1009C00002210B4313732A68537E5BB2002BFBDBBF
:1009D000C3E701232A6893752B7F052BBDD1002324
:1009E0002B77EB7EDB07B8D5AB7EDB07B5D52800D0
:1009F000AB689847B1E72800EB689847B8E72B69E0
:100A000028009847BFE7C0468C01002000B583B09E
:100A100001AB80221A700A785A704A789A708A78E4
:100A2000DA701900014B984703B000BD111B00009C
:100A3000F0B5DE4657464E464546E0B587B080469F
:100A4000049116001F000022002300218B463F2442
:100A500001202100009601975C46039444460594CA
:100A600013E02024641A0500E540A84614E0009C29
:100A7000019D121BAB415C464D462C43A346039C93
:100A800045462C430394013925D3202464420C1994
:100A9000E7D40500A540A84604008C40A146921862
:100AA0005B4114001D00059E4F463E40B446049E27
:100AB00047463E40B246664657463E4303D0060090
:100AC000264332002B00009C019D9D42DBD8CED1F5
:100AD0009442D8D8CBE7039B5846190007B03CBCDA
:100AE00090469946A246AB46F0BD10B54908402352
:100AF0000024814202D2180010BD1C00091A631C98
:100B00009BB28842F9D94023FF2CF4D814800023EB
:100B1000F1E70000F0B583B00F00160008AA1178C5
:100B200004004C434022BC4202D9100003B0F0BD87
:100B3000002B14D1020008000021194CA04701002D
:100B40003A0000230020174CA04700220123121A6C
:100B50008B41120C1B041A4332800022E5E700226D
:100B6000012BF9D10A00002300210D4CA0470200FF
:100B70000B0000920193380000210A4CA0470500A9
:100B800080239B0140229842CFD8790FF800009A29
:100B9000019BA047EA00821AD2B252032A43DBE744
:100BA0007D380000310A000010B582B004000E4B01
:100BB0001B78002B07D0002905D10B4B5B788342B3
:100BC00010D01D200CE001A90C701320074B984792
:100BD0001320074B9847044B5C7001221A700020C9
:100BE00002B010BD0020FBE748010020191A0000E8
:100BF0008D190000404B984231D00AD93F4B9842A2
:100C00004DD03F4B98425AD03E4B984237D00020AF
:100C100070473D4B98420CD03C4B9842F7D101298C
:100C200017D000295DD0022915D0032915D0002046
:100C3000EEE7012907D0002951D0022905D0032968
:100C400005D00020E4E73248E2E73248E0E73248E6
:100C5000DEE73248DCE73248DAE73248D8E70129F4
:100C600007D000293FD0022905D0032905D0002054
:100C7000CEE72D48CCE72D48CAE72D48C8E7012923
:100C800007D0002931D0022905D0032905D0002042
:100C9000BEE72848BCE72848BAE72848B8E7012952
:100CA00007D0002923D0022905D0032905D0002030
:100CB000AEE72348ACE72348AAE72348A8E7012981
:100CC00007D0002915D0022905D0032905D000201E
:100CD0009EE71E489CE71E489AE71E4898E71E4874
:100CE00096E7032094E71D4892E71D4890E71D48CA
:100CF0008EE71D488CE7C0460010004200180042F5
:100D0000001C00420014004200080042000C004297
:100D100003000500030006000300070003000100B4
:100D200003001E0003001F000300090003000A0067
:100D300003000B0003001100030012000300130066
:100D400003000D0003000E0003000F000300170056
:100D5000030018000300190003000400030008004A
:100D60000300100003000C000300160030B587B02C
:100D70000B4B6A4632CB32C232CB32C2009B83422B
:100D80000BD001239A0069465258824206D00133A3
:100D9000062BF7D1002007B030BD0023D8B2FAE708
:100DA000D84F000070470000F0B50A4B1B78002BAD
:100DB0000CD1094F094E0A4D0024DE515A19146016
:100DC0000433182BF9D10122024B1A708000024B18
:100DD000C150F0BD4A0100204C010020A50D0000CB
:100DE0009001002000B583B009236A4613700133D7
:100DF0005370013393700133D37001331371013396
:100E00005371034B98476B46185603B000BDC0465C
:100E10006D0D000010B5024B1B680020984710BDF7
:100E20004C01002010B5024B5B680120984710BDB3
:100E30004C01002010B5024B9B680220984710BD62
:100E40004C01002010B5024BDB680320984710BD11
:100E50004C01002010B5024B1B690420984710BDBF
:100E60004C01002010B5024B5B690520984710BD6E
:100E70004C010020F0B5DE4657464E464546E0B5EB
:100E800091B005000C00160029600800BA4B984785
:100E9000020023680520DB0706D511B03CBC904654
:100EA0009946A246AB46F0BD236817309B07F4D4A1
:100EB000B249086A971C0123BB4003430B620FA988
:100EC0002D27F35D0B701432D3B202931800AC4B94
:100ED00098470298AB4B9847F05D0021AA4B984782
:100EE000F37A6B712423F35CAB712523F35CEB7114
:100EF000F37E2B72337F6B722B68984618009E4BE3
:100F00009847143000220E2306A98C4663441A80A9
:100F1000328A02928023DB019A4200D19AE00FD9F3
:100F2000C023DB01029A9A4200D18EE080231B028B
:100F30009A4200D01BE1032306930023079308E0A5
:100F400080239B019A4200D011E1102306930F3BAE
:100F5000079333680593F3689B4673690393337E65
:100F600004932623F35C9A4673689946002B00D1BC
:100F70009CE080235B05994500D180E0737E002BC7
:100F800002D0B37E424693730E2306AA944663446E
:100F90001B8842469381059B5A461343039A134389
:100FA0004A461343029F1F43049B1B021F435346A1
:100FB0005B071F432723F35C002B01D104331F433E
:100FC000737E9B02327F52021343727F12021343DD
:100FD0002422B25C520413432522B25C1204134350
:100FE000B17AF27A114319433389FF2B00D181E0A2
:100FF00080225204174319432C23F35C002B03D1A6
:10100000624B9B789B0701D580231F432A68D369D5
:10101000002BFCD1434659602A68D369002BFCD1D0
:1010200043461F600EAB80221A7000225A70DA709D
:101030009A70336B0A93736B0B93B36B0C93F36BD4
:1010400002930D9300270AAE63E008230693073B43
:1010500007937EE733680593F3689B4673690393B0
:10106000337E04932623F35C9A4673689946002BDB
:1010700018D080235B05994501D0002025E0272367
:10108000F35C002B00D079E7336A1F00C0B2404BFD
:10109000984701000E2206AB9C46624438003D4B47
:1010A000984712E008230693002307932723F35C55
:1010B000002B0ED0069B0093079B0E2206A98C46A0
:1010C0006244B16A306A344FB847002800D0E4E681
:1010D00054E7336A1F00C0B22D4B98470100069BAE
:1010E0000093079B0E2206A88446624438002A4FCC
:1010F000B847EAE7F37E002B00D17DE78023DB04CD
:101100001F4379E72000254B984707E00137042F5C
:101110000DD0F9B2BB0098590028F3D0431CF5D08C
:101120000EA90870000CC0B21D4B9847EEE70023D3
:10113000EB602B616B61AB61EB612B62AB626B624D
:101140000022EB85AB853033EA540133EA54013396
:10115000EA540133EA542868074B984704001149C0
:10116000114B9847A400114BE550002095E6102341
:10117000069300230793ECE66D0D00000004004089
:10118000191A00008D190000A90B00000020004171
:10119000351A0000EB0A0000150B0000F50B0000EB
:1011A000111B000041120000A90D00009001002059
:1011B000C2791C23002A01D118007047C28D92B257
:1011C000173B002AF8D1026811850221137E0B42D9
:1011D000FCD00023F0E782791C23002A01D11800FB
:1011E0007047828D92B2173B002AF8D10268107EB8
:1011F0004007F4D5538BDBB298061DD0980703D572
:10120000022353831833EAE7580703D50423538393
:101210001A33E4E7D80703D5012353831233DEE7FB
:10122000D80603D5102353833233D8E79B0603D562
:10123000202353832133D2E7138D0B800023CEE785
:10124000F8B58000624BC5582C68E369002BFCD1CF
:10125000237EA67D1E403023EB5C3122AF5C1F4015
:10126000F30722D5EB8D9BB2002B1CD0AA6A137812
:10127000DBB2511CA962697901290ED09BB2DB0552
:10128000DB0D2385EB8D013B9BB2EB85002B0CD155
:10129000013323750133A37507E0517809020B432D
:1012A0000232AA62EBE701232375B30706D50223B6
:1012B000237500223133EA54FB071AD4730765D52E
:1012C000AB8D9BB2002B5FD0638BDBB21A0714D4BB
:1012D0003F221340002B34D09A0711D51A22322313
:1012E000EA54303B63837B0750D528006B699847ED
:1012F0004CE02800EB689847E0E737221340E9E725
:101300005A0705D51E223223EA542E3B6383EAE7AF
:10131000DA0705D513223223EA54313B6383E2E72F
:10132000DA0605D542223223EA54223B6383DAE708
:1013300020221A42D7D021323223EA54123B63834F
:10134000D1E7238DDB05DB0DDAB2696A0A706A6AC0
:10135000511C69626979012910D0AB8D013B9BB2A8
:10136000AB85002B12D10433237500222E33EA54AF
:10137000BB070BD528002B69984707E01B0A537061
:101380006B6A01336B62E8E704232375F30604D527
:10139000102323752376FB060ED4B30604D5202331
:1013A000237523763B070BD4330704D50823237515
:1013B0002376BB0608D4F8BD2800EB699847ECE714
:1013C0002800AB699847EFE72B6A28009847F2E7B7
:1013D0009001002010B5082803D880001C4B1B5832
:1013E0009F46002032E01B4B18692FE01A4B1B6A06
:1013F0009B059B0F1948D84028E0164B586925E0FB
:10140000144B1B6800209B0720D513491022CB6882
:101410001A42FCD00F4B1A6824231340042B01D02E
:101420000F4813E000200F4B98470A4B9B681B04A2
:101430001B0C58430AE05023074AD35C00205B078B
:1014400004D5044BD86801E08020000210BDC046DE
:10145000F04F0000640100200008004000127A00F4
:10146000006CDC02351A000070B50C490B6A047878
:10147000857840780122104080014026B343034321
:101480002A40D201802083431343032222401202C8
:101490000348034013430B6270BDC0460008004080
:1014A000FFFCFFFFF0B5DE4657464E464546E0B529
:1014B0000100264B9B469B8A457800784242424178
:1014C00091468878CA7894460A7990464E7B0F7B7D
:1014D0008C7B8A681E494A6101214A4692009146E6
:1014E000042293434A46134342460A40D2009046A0
:1014F000082293434246134362460A40120194462F
:101500001022934362461343084040012022934334
:1015100003430F40BF01402083433B430E40F6018D
:10152000403083433343793805402D020948034056
:101530002B4321400903084803400B435A4693823A
:101540003CBC90469946A246AB46F0BD0008004020
:1015500064010020FFF8FFFFFFEFFFFF10B5037AE3
:101560009B061B0C42899205920D134318494B6050
:101570008379C27913434288848822431343427893
:10158000D20113430B600378042B11D0202B0ED112
:10159000037B9B06028A1343C28912040D490A4049
:1015A00013430B4A936011680B4B0B43136010BD40
:1015B000037B9B06028A1343C289120405490A4031
:1015C0001343034A9360136804210B431360EEE74F
:1015D000640100200000FF0324040000082803D851
:1015E0008000254B1B589F46172044E0234A136A6E
:1015F00002210B43136200203DE0204A936902213F
:101600000B439361002036E01C4A138A02210B43EE
:10161000138200202FE0194A938A02210B43938200
:10162000002028E016490B68022213430B60134B7D
:101630009A8419000E32CB681A42FCD0104A916885
:101640000E4BD96252689A6200229A8419001032B5
:10165000CB681A42FCD00A4B1B689BB2074A9384A2
:10166000002008E0054944228B5C022003438B5490
:10167000002000E0002070471450000000080040E7
:1016800064010020F0B58FB0C222D200474B9A60AF
:1016900047494B681E2293431C3A13434B6001ABEE
:1016A0001A700024434DE0B201A9A8470134252C4B
:1016B000F9D10AA80023037083708022120282608D
:1016C000C370012202710373837305324270437346
:1016D000394B98470520394B984734490222CB684B
:1016E0001A42FCD0314A938A80210B43938205AB86
:1016F00000210022598099809A71DA713F31598115
:101700003B3919705A702E4B1B689B0E3F2B4BD0E8
:1017100005A80372B723DB00038207230373383362
:10172000C381284B984704A8002545700126867080
:101730000570254B98470620204FB847234B984704
:1017400001AC029665702572657205232370210035
:1017500001201F4B984701201E4B984726702100FF
:101760000020144B984700201B4B98470720B84790
:101770000E49D022CB681340D02BFBD1174A00234F
:10178000137253729372D37201A901224A604B7093
:101790000B724B7207330B7000200D4B98470020E3
:1017A0000C4B98470FB0F0BD203BB1E7000800405C
:1017B00000400041191A0000A5140000DD150000CA
:1017C000246080005D15000069140000E11700002E
:1017D00005180000BD1800008D190000000400402D
:1017E000064A936908210B4393610122044B1A7046
:1017F00019000B781342FCD17047C046000400402A
:10180000000C004070B5060004000D782D02054361
:101810004B78002B02D08023DB021D434B7A002B38
:1018200002D080231B031D434868012810D9431EA2
:10183000184234D1022830D90223002201325B0041
:101840009842FBD812023243140080235B031D43ED
:101850000B7A002B02D080239B031D43134A53783D
:101860005BB2002BFBDB124B9847124B1E700F4AEA
:1018700053785BB2002BFBDB0C4B9C601A00537857
:101880005BB2002BFBDB094A5368802149020B4005
:101890001D435560084B984770BD0022D2E70402F3
:1018A000344380239B021D43D2E7C046000C004016
:1018B00035040000080C00407504000010B5040059
:1018C0000B4A53785BB2002BFBDB0A4B98470A4B61
:1018D0001C70074A53785BB2002BFBDB044A51684B
:1018E00080235B020B435360044B984710BDC046F6
:1018F000000C004035040000040C0040750400009A
:1019000070B504001A4A53785BB2002BFBDB194B0D
:101910009847194B1C70164A53785BB2002BFBDBBF
:10192000134E7068C004C00E144B98470500124B4C
:101930001C707668F602F60F114B1C700C4A537837
:101940005BB2002BFBDB0A4B9C682402240C0D4B82
:101950009847002E07D1012C07D9210028000A4BF7
:101960009847050001E00134E540280070BDC046FD
:10197000000C004035040000040C0040D5130000AA
:10198000080C0040750400006537000010B5040025
:10199000064B9847064B1C70064A53888021C901A4
:1019A0000B435380044B984710BDC04635040000DC
:1019B000020C0040000C00407504000010B504004B
:1019C0000F4B98470F4B1C700F4A53881B05180F7D
:1019D00053880E490B40538053880D490B40538068
:1019E00011008022D2014B881342FCD106494A885B
:1019F00003020648024013434B80064B984710BD34
:101A000035040000020C0040000C0040FFF0FFFF16
:101A1000FFBFFFFF7504000010B50C7824020443DB
:101A2000024B9847A4B2024B5C8010BDBD19000068
:101A3000000C004010B50400064B9847064B1C7084
:101A4000064B5C882405240F054B98472000054B66
:101A5000984710BD35040000020C0040000C004007
:101A6000750400000119000030B5D378002B35D182
:101A70001378802B29D01B068024640223435478DA
:101A80000225AC4306D19478002C20D18024A402F6
:101A9000234341605478013C012C1CD90D042D0CCA
:101AA000A024E4052C431C4384620D0CD02424069E
:101AB0002C431C438462D478002C22D15B031CD5B8
:101AC0009378012B1ED0416117E00023D7E7C02493
:101AD000E4022343DDE70D4C2340DFE741600C04C3
:101AE000240CA023DB05234383620C0CD0231B06AC
:101AF00023438362D378002B03D15378013B012B1E
:101B000002D930BD8161F8E78160FAE7FFFFFBFF92
:101B100010B50A00C1090023002904D14309DB01E3
:101B200005498C4663441F24204001218140180050
:101B3000024B984710BDC04600440041691A00009E
:101B40007047000010B5054B9847054B9847054B6B
:101B50009847054B9847054B984710BD85160000E0
:101B6000A5040000411B0000411B0000411B0000B8
:101B7000FEE70000F8B52A4A2A4B9A4211D01A0013
:101B8000294B9A420DD2294A03339B1A9B080133F1
:101B90009B000022234822498C58845004329A42E8
:101BA000FAD1234A234B9A420AD2D34321495B18E4
:101BB00003218B4304339B18002102C29342FCD1C2
:101BC0001D4AFF211D4B8B439360FD3990235B0021
:101BD0001B4AD1501B4AD3780325AB43022423432D
:101BE000D370D3780C27BB4308263343D370164BEE
:101BF000987B30229043202210439873997BB943FD
:101C0000314399739A7BAA4322439A730F4A5368CC
:101C100080210B4353600E4B98470E4B9847FEE7CD
:101C2000B06B000000000020A40000200400002091
:101C3000A40000201403002000ED00E000000000DC
:101C40000070004100500041004800410040004148
:101C5000D138000001370000F0B5C64600B50C00D1
:101C6000904600280FD1002A11DD8F18094E0A4D29
:101C7000306821002B6898470134BC42F8D14046B7
:101C800004BC9046F0BD01235B429846F7E78046CE
:101C9000F5E7C046B0010020A8010020F0B5C64617
:101CA00000B50E0015000138022810D8002A11D006
:101CB00000240C4B98460C4F43461868315D3B6836
:101CC0009847002808DB0134A542F5D106E001243D
:101CD000644203E0140001E001246442200004BCDB
:101CE0009046F0BDB0010020AC0100200300064A80
:101CF0001268002A04D0044A1068C31813607047A1
:101D00000249014A1160F6E77C01002018230020F7
:101D100001204042704780239B014B6000207047A8
:101D2000012070470020704770B582B005000E009A
:101D300000226B46DA80064C6B46991D2800A047AE
:101D40000028F9D16B4606331B88337002B070BD92
:101D5000D711000070B505008CB2034E2100280099
:101D6000B0470028FAD170BDB111000070B590B035
:101D70008023DB05009300230193FF2269460A813B
:101D800000228B72CB7296218901089101212420B7
:101D90006C46215401302154253163540131635480
:101DA0000A93053163540131635405932382E3762A
:101DB0002276227762761323A376627780235B03F1
:101DC00003931E4B0C931E4B0D9301235B420E930A
:101DD0000F931C4D1C4C6A461C492800A047002844
:101DE000F9D1184C1A4B1C601A4A1B4B1A601B4A3B
:101DF0001B4B1A606A4615492000134B9847194E31
:101E0000336898680021184DA84733685868002146
:101E1000A84725682800154B98471F2318401E3BEC
:101E20008340134A13602268D369002BFCD12B68CE
:101E3000022213432B6010B070BDC046030008009F
:101E400003000900B4010020750E000000100042DC
:101E5000B0010020551D0000AC010020291D00002C
:101E6000A801002040000020453A0000E50D0000D8
:101E700000E100E0F0B5D6464F464646C0B52F4CCF
:101E8000A5440400C82252012D4968462D4B9847AD
:101E90002D4B18784F38C317C01858402B4B197862
:101EA0008022D2032A4B1A608300C018400080B2FF
:101EB000142359430B0013339BB20200093292B230
:101EC000244DA847A5002D19AB00ED186D44013431
:101ED000A3001B199A009B186B449A461E4B994607
:101EE0001E4B98461E4F1F4E19E04B4618880002A5
:101EF00043461B88184380B2B847013C0CD32B786B
:101F00002341DB07F1D530880002174B1B881843AB
:101F100080B2134B9847F0E70135554501D00724AF
:101F2000EDE78022D203114B1A60C8235B019D4468
:101F30001CBC90469946A246F0BDC04600E7FFFF94
:101F40003850000019390000800100208101002074
:101F500094440041712F0000BA020020B402002016
:101F600051310000B6020020B80200209844004120
:101F7000F0B5DE4657464E464546E0B55A4CA544B8
:101F80005A4B8025ED031D60802636041E6000211B
:101F90003620574B9847574C26600020564B9847A1
:101FA000256000230093514B984627008026760237
:101FB00046E05346237043461E603E60013464454C
:101FC00008D043461E603E6043581A42F1D04B464B
:101FD0002370F0E7019480231B043B60474A484B81
:101FE0001A6000990B00474A0020474CA047474B16
:101FF0009B46474B9A46474B9946019C0BE0464B04
:1020000018880002454B1B88184380B2414B984703
:102010000135AC420BD02B78FF2BF0D05B461888F3
:10202000000253461B88184380B2C847F0E7009B64
:1020300001339BB21A000093E6235B009A4231D031
:1020400043468022D2031A600099143189B20B00F2
:102050002C4A00202C4CA04700212E20244B9847CE
:1020600080231B043B604346802252021A603A6080
:1020700080222B4B1A602B4AC723D15C02200143DC
:10208000D154D15C04200143D15402ADCAAB9C466B
:1020900001951000A021802200239A46FF33994623
:1020A0002C008EE780252D04104B1D60002136206A
:1020B0000F4B98470F4C256080200F4B984780238B
:1020C000DB032360F0235B000E4AE6214900002079
:1020D000154CA047CB239B009D443CBC90469946A1
:1020E000A246AB46F0BDC046D4FCFFFF944400417D
:1020F000F53100009844004125320000FFFF000048
:10210000884400411F030000712F0000BA02002024
:10211000B402002051310000B6020020B8020020B5
:10212000844400410044004189300000F0B5C646B7
:1021300000B505000C4B9847002811DD2C002D1828
:102140000A4F0B4EB04602E00134AC4208D0207872
:10215000B8473378502BF7D8013342461370F3E772
:1021600004BC9046F0BDC046B13B0000751E0000A7
:1021700080010020F0B5DE4657464E464546E0B5A4
:10218000C7B0E04B996A8022D2030A439A62DE4AC2
:102190008021490211608027BF0217608026F60265
:1021A000166080252D031560802464031460802050
:1021B00080031060802109058C461160D34A80217C
:1021C0004902116017601660156014601060614666
:1021D0001160CF4A0421116004311160083111608F
:1021E0001031116020311160403111608021C9002F
:1021F0001160802109011160802149011160802155
:102200008901116042229246995C04221143504692
:10221000195443218946595C1143484619544421B5
:102220008846595C11434046195445218C46595CF7
:102230001143604619544627D95D1143D9554726A5
:10224000995D114399554A25595D114359554B24C0
:10225000195D114319554C21595C1143073019542C
:102260004D21595C0A434D215A5452469A5C93467B
:102270000222594611438B46514658465854494606
:10228000595C11438A464946504658544146595C68
:10229000114389464146484658546146595C1143AA
:1022A0008846614640465854D95D1143D9559F5DD3
:1022B00017439F555E5D16435E551D5D15431D55C5
:1022C0004C215C5C14435C540131585C02435A5409
:1022D000904A8021490211601A6A002304211142A8
:1022E00001D000930133874A126A120704D59A007D
:1022F0000121684611500133824A126AD20604D580
:102300009A0002216846115001337E4A126A9206F1
:1023100004D59A000321684611500133794A126AA4
:10232000520604D59A000421684611500133754ABB
:10233000126A120604D59A0005216846115001332D
:10234000704A126A520504D59A0006216846115057
:1023500001336C4A126A120504D59A0007216846B7
:1023600011500133674A126AD20404D59A00082139
:10237000684611500133634A126A920404D59A00E8
:102380000921684611500133802149025F4A1160DA
:10239000802189025F4A11605A4A126A520704D5A5
:1023A0009A000A21684611500133564A126A1207F0
:1023B00004D59A000B21684611500133514A126A24
:1023C000D20604D59A000C216846115001334D4ABB
:1023D000126A920604D59A000D2168461150013305
:1023E000484A126A520604D59A000E2168461150D6
:1023F0000133444A126A120604D59A000F21684636
:10240000115001333F4A126A520504D59A00102137
:102410006846115001333B4A126A120504D59A00EE
:102420001121684611500133364A126AD20404D58C
:102430009A001221684611500133324A126A9204FE
:1024400004D59A0013216846115001338021890276
:102450002E4A11608021C9022E4A1160294A126A4F
:10246000520704D59A001421684611500133254AB9
:10247000126A120704D59A001521684611500133DB
:10248000204A126AD20604D59A00162168461150D5
:1024900001331C4A126A920604D59A001721684635
:1024A00011500133174A126A520604D59A001821B6
:1024B000684611500133134A126A120604D59A0075
:1024C00019216846115001330E4A126A520504D58B
:1024D0009A001A216846115001330A4A126A1205FD
:1024E00004D59A001B21684611500133054A126A2F
:1024F000D20404D59A001C21684611500133014AC8
:10250000126A09E0004400410844004114440041BB
:102510000444004118440041920404D59A001D214E
:102520006846115001338021C902D64A11608021CA
:102530000903D54A1160D54A126A520704D59A0098
:102540001E21684611500133D04A126A120704D581
:102550009A001F21684611500133CC4A126AD206F4
:1025600004D59A002021684611500133C74A126AE7
:10257000920604D59A002121684611500133C34ABE
:10258000126A520604D59A0022216846115001337E
:10259000BE4A126A120604D59A00232168461150D9
:1025A0000133BA4A126A520504D59A0024216846BA
:1025B00011500133B54A126A120504D59A0025213B
:1025C000684611500133B14A126AD20404D59A0008
:1025D0002621684611500133AC4A126A920404D590
:1025E0009A00272168461150013380210903A54A2A
:1025F000116080214903A44A1160A44A126A52075B
:1026000004D59A0028216846115001339F4A126A66
:10261000120704D59A0029216846115001339B4ABC
:10262000126AD20604D59A002A2168461150013355
:10263000964A126A920604D59A002B2168461150D8
:102640000133924A126A520604D59A002C21684638
:10265000115001338D4A126A120604D59A002D21B9
:10266000684611500133894A126A520504D59A000E
:102670002E21684611500133844A126A120504D58E
:102680009A002F21684611500133804A126AD20401
:1026900004D59A0030216846115001337B4A126AF2
:1026A000920404D59A0031216846115001338021EB
:1026B0004903744A116080218903734A1160734A87
:1026C000126A520704D59A0032216846115001332C
:1026D0006E4A126A120704D59A00332168461150D7
:1026E00001336A4A126AD20604D59A003421684638
:1026F00011500133654A126A920604D59A003521B9
:10270000684611500133614A126A520604D59A0094
:1027100036216846115001335C4A126A120604D50C
:102720009A003721684611500133584A126A5205FF
:1027300004D59A003821684611500133534A126A71
:10274000120504D59A0039216846115001334F4AC9
:10275000126AD20404D59A003A2168461150013316
:102760004A4A126A920404D59A003B2168461150E5
:10277000013380218903434A116080210905424ABF
:102780001160424A126A520704D59A003C216846F9
:10279000115001333D4A126A120704D59A003D21B7
:1027A000684611500133394A126AD20604D59A009C
:1027B0003E21684611500133344A126A920604D50C
:1027C0009A003F21684611500133304A126A52067E
:1027D00004D59A0040216846115001332B4A126AF1
:1027E000120604D59A004121684611500133274A48
:1027F000126A520504D59A004221684611500133ED
:10280000224A126A120504D59A00432168461150E3
:1028100001331E4A126AD20404D59A004421684644
:1028200011500133194A126A920404D59A004521C5
:10283000684611500133134A80210905116014497B
:1028400004208346086004308246086008308146D0
:102850000860103080460860203084460860802779
:102860000F608026F6000E6080252D010D6080240B
:1028700064010C6080208001086059461160514657
:10288000116007E014440041184400410044004135
:10289000084400414946116041461160614611609B
:1028A000176016601560146010603B4A8021490271
:1028B00011608021890211608021C902116080218C
:1028C000090311608021490311608021890311608F
:1028D000802109051160314A50218846505C04214D
:1028E00008434446105551208446105C0843644612
:1028F00010552E3FD05D0843D0555326905D0843B8
:1029000090555425505D0843505555208246105C23
:102910000843544610555B208346105C01435846DB
:1029200011544146515C894602214846084381467C
:1029300040464C4614546046105C0843804660464E
:1029400044461454D05D0843D055975D0F439755C6
:10295000565D0E4356555046155C0D43155458466A
:10296000145C21431154002B0FDD6A460C499B0077
:10297000D3180D0003E0043201319A4205D01068EB
:102980002C78A042F7D00870F5E747B03CBC9046E1
:102990009946A246AB46F0BD0444004100440041C4
:1029A00028000020044B1900C83100221A7001339E
:1029B0008B42FBD17047C046EC010020F0B5C64603
:1029C00000B51C4B18784F38C317C0185840830007
:1029D000C018400080B2184B1978142359430B00DB
:1029E00013339BB20200093292B2144CA047144C2C
:1029F0002500C835134B9846134F144E0BE0144B6B
:102A000018880002134B1B88184380B20F4B98475D
:102A10000134AC420AD02378FF2BF0D0434618880B
:102A200000023B88184380B2B047F1E704BC9046EF
:102A3000F0BDC0468001002081010020712F000000
:102A4000EC010020BA020020B40200205131000045
:102A5000B6020020B8020020F8B5DE4657464E46C2
:102A60004546E0B583468A468022314B1A60314A9A
:102A7000C723D15C02200143D154D15C042001431F
:102A8000D1542D4C8023DB03236058464F38C317A5
:102A9000C01858408300C018400080B2142153462B
:102AA00059430B0013339BB20200093292B2234DFB
:102AB000A84700212E20224B9847224B8022120447
:102AC0001A608022520222601A601F4BC92291466E
:102AD00099442000802252021A49164CA046A02494
:102AE000A4468025002705E01F7002600A600133BC
:102AF0004B4509D002600A6044466646A459254207
:102B0000F2D0FF241C70F0E7802212040D4B1A60F3
:102B10000E4A0F4B1A600F4B5A461A700E4B524614
:102B20001A703CBC90469946A246AB46F8BDC046DA
:102B3000844400410044004194440041712F00004E
:102B4000F531000098440041EC010020FFFF000037
:102B5000884400418001002081010020F0B5DE465C
:102B60004F464646C0B5A6B07B4C4622210014A86D
:102B70007A4DA84721004831462202A8A847784E3E
:102B80003100143135000023019302E001358D42FC
:102B90000BD02B781A000D3A50424241313B58423B
:102BA00043411343F2D00193F0E700276C4B994661
:102BB0006C4CA04607E06C4B1B78002B3AD10137D8
:102BC000142F00D1BCE04B46FB5C22789342F6D038
:102BD0004246D355FF2BF2D0232BECD02D2B34D0F3
:102BE000372B41D0412B4ED0312BE8D00D2BE6D0E6
:102BF0003A2B57D0452B6BD0422B74D0019A002A28
:102C000000D184E002AAD05C584B9847564B187804
:102C10004E28D4D89B46431C5A461370544B1978FF
:102C2000544B98475B461B7801335A461370524BFE
:102C30009847C4E7514B98474D4B19784A4B187841
:102C40000138C0B24B4B9847B9E7494B1B78172B5B
:102C5000B5D84A4B9847464B19780131C9B2424B17
:102C60001878444B9847AAE7414B1B78002BA6D015
:102C7000424B98473E4B19780139C9B23A4B187804
:102C80003C4B98479BE7384B1B784E2B97D83B4BD8
:102C90009847374B1978344B18780130C0B2354B10
:102CA00098478CE7324B1B78172B09D0334B98474A
:102CB0002F4A13780133137000222B4B1A707EE7D2
:102CC0002E4B98472E4B98470022274B1A7076E7D9
:102CD000274B1B78172B03D00133254A13706EE75F
:102CE000274B98476BE7254B98471F4B9B461B7814
:102CF000013B5A46137020201C4B98471E4B9847A7
:102D00001B4B19785B4618781A4B984757E714AA5B
:102D1000D05C164B9847144B18784E2800D94EE7D4
:102D20009B46431C5A461370114B1978114B984718
:102D30005B461B7801335A4613700F4B98473EE7AA
:102D4000FF2333700136B542FBD126B01CBC904640
:102D50009946A346F0BDC046386900001939000005
:102D6000280000201400002080010020751E0000B3
:102D700081010020592A0000A5290000BD2900007A
:102D8000711F0000F0B5C64600B53E4B1B78002B06
:102D90003CD03D4B18784F38C317C01858408300BB
:102DA000C018400080B2394B1978142359430B00E6
:102DB00013339BB20200093292B2354CA047354C16
:102DC0002500C835344B9846344F354E09E043460C
:102DD000188800023B88184380B2B0470134A542EE
:102DE0000CD02378FF2BF2D02E4B188800022E4BEC
:102DF0001B88184380B22A4B9847EFE7214A137883
:102E000001214B40137004BC9046F0BD1E4B187856
:102E10004F38C317C01858408300C018400080B214
:102E20001A4B1978142359430B0013339BB2020039
:102E3000093292B2164CA047164C2500C835164BE5
:102E40009846164F164E0BE0164B18880002164B8C
:102E50001B88184380B2124B98470134AC420AD009
:102E60002378FF2BF0D04346188800023B88184394
:102E700080B2B047F1E7034A137801214B40137049
:102E8000C1E7C04610000020800100208101002021
:102E9000712F0000EC010020BA020020B4020020D3
:102EA00051310000B6020020B802002010B54B09D5
:102EB0000724A0431843054B1880C900E02319409C
:102EC000D2080A43024B1A8010BDC046B602002049
:102ED000B802002010B54B090724A0431843054B46
:102EE0001880C900E0231940D2080A43024B1A8017
:102EF00010BDC046BA020020B402002070B5194CC3
:102F0000194B1C6000020143184B1960D3170F26A0
:102F10001E40B61836110025002E0CDD124C802103
:102F200089021248102321600160013B002BFAD175
:102F30000135AE42F6D1130713D0D3171B0FD218A9
:102F40000F211140C91A4B1C002B0ADD1900002368
:102F5000054C8022920205482260026001339942AA
:102F6000FAD170BDFFFF0000944400419844004135
:102F7000F0B583B00E0000931C4B1D88281A87B251
:102F8000AD1AADB200212A20194CA0470196300A93
:102F9000184EB04701212A20A0476B461879B04748
:102FA00002212A20A047009B180AB04703212A20AB
:102FB000A0476B461878B04700212B20A047280A6D
:102FC000B04701212B20A047E8B2B04702212B20B7
:102FD000A047380AB04703212B20A047F8B2B047DA
:102FE00000212C20A04703B0F0BDC0463E000020C9
:102FF000F531000025320000F0B5CE46474680B5D9
:1030000083B08146884615001C00904202DD03040F
:1030100091461D0CA04503DD43461B04A0461C0C35
:103020008027FF03124B1F60A3B2AAB24146684635
:10303000C180C18848466E46F080F0880D4EB0478A
:103040000D4E80231B0433604B46ED1A0135434679
:10305000E21A01326A43094B1988094B1888094B57
:103060009847376003B00CBC90469946F0BDC04607
:1030700094440041712F000098440041B8020020A0
:10308000B6020020FD2E0000F0B5CE46474680B5C2
:1030900083B08146884615001C00904202DD03047F
:1030A00091461D0CA04503DD43461B04A0461C0CA5
:1030B0008027FF03124B1F60A3B2AAB241466846A5
:1030C000C180C18848466E46F080F0880D4EB047FA
:1030D0000D4E80231B0433604B46ED1A01354346E9
:1030E000E21A01326A43094B1988094B1888094BC7
:1030F0009847376003B00CBC90469946F0BDC04677
:1031000094440041712F000098440041B402002013
:10311000BA020020FD2E000010B5044B1B88044AA3
:10312000128800210020034CA04710BD3E00002063
:103130003C000020712F000010B58022D203024B0A
:103140001A60024B984710BD9444004119310000A9
:1031500010B5C1B2000A014B984710BD0D320000F6
:1031600070B5094B8025ED031D60802636041E6076
:1031700000213620054B9847054C26608020054BE2
:103180009847256070BDC04694440041F531000069
:10319000984400412532000010B50023064A1380F0
:1031A000064A1380064B1B88064A1288002100201D
:1031B000054CA04710BDC046B6020020B802002052
:1031C0003C0000203E000020F92F000010B5064C06
:1031D000064B236000020143054B196080229202D6
:1031E00022601A6010BDC04694440041FFFF0000F9
:1031F0009844004110B580221204024B1A60024B21
:10320000984710BD94440041CD31000010B5802294
:103210001204024B1A60024B984710BD98440041BB
:10322000CD31000010B5010080221204024B1A605B
:103230000020024B984710BD98440041CD3100005A
:10324000F0B5C64600B582B0804B814F1F60802527
:10325000ED051D608026F6031E6080208002186048
:10326000802109041960802252021A60794C27607B
:10327000256026602060216022601A60764F3A60E7
:103280003D600520754B9846984725600520C0474E
:103290003D60266000246F4B984680252D042F004A
:1032A0006F4E43461F60A15D6E4BE05C6E4B9847CE
:1032B000694B1D606D4BE05C6D4B98470134462CAB
:1032C000EFD1D1230193684D694F6A4C2600343603
:1032D00000210198A8472078B8470134A642F7D1C9
:1032E000019B0133DBB20193D62BEED10021F020FC
:1032F0005D4CA04755205E4DA8470121F020A04716
:10330000AA20A8470221F020A0475220A847032165
:10331000F020A0470820A8470421F020A047002063
:10332000A8470021B120A047CC20A8470121B12007
:10333000A0470020A8470021B520A0475020A8475B
:103340000021B620A0470520A8470021B720A047AC
:103350007020A8470121B720A0477020A84700216E
:10336000B820A0470120A8470121B820A04703208A
:10337000A8470221B820A0470320A8470321B8206E
:10338000A0470320A8470021BC20A0470220A8474F
:103390000121BC20A0470020A8470221BC20A04753
:1033A0000020A8470021C920A047D020A84701211C
:1033B000C920A0470220A8470221C920A0475020C9
:1033C000A8470321C920A0475020A8470421C920AD
:1033D000A0475020A84700213520A0470020A8473B
:1033E00000213A20A0475520A84700213620A047B9
:1033F0000020A84700211120A0476420174EB047A5
:1034000000212920A0476420B04700215120A04777
:10341000FF20A8478022D2030F4B1A60164B984713
:10342000002200210020154B984700220021002097
:10343000134B9847EA23FF33124A00210020124C15
:10344000A04702B004BC9046F0BDC046884400418D
:10345000FFFF00009444004198440041090400002B
:103460008C6A0000FC690000F5310000446A00002D
:1034700025320000C869000039310000AD2E00007F
:10348000D52E00001F030000F92F0000064B1B88FB
:1034900001339BB2054A934202D0034A138070471E
:1034A0000022014B1A80FAE782010020DF2E000083
:1034B00010B50E4B1868FA2189000D4B984701385A
:1034C0000C4B98420DD80C4A50600C48036A1B0202
:1034D0001B0AC02109060B430362002393600733D4
:1034E000136080221206064B1A6010BD0C000020EB
:1034F00065370000FFFFFF0010E000E000ED00E096
:1035000000E100E030B591B08023DB05009300239B
:103510000193FF2269460A8100228B72CB729621A9
:1035200089010891012124206C4621540130215445
:1035300025316354013163540A93053163540131D9
:10354000635405932382E3762276227762761323EF
:10355000A376627780235B030393124B0C93124B89
:103560000D9301235B420E930F93104D104C6A464E
:1035700010492800A0470028F9D10C4D2C682000E4
:103580000D4B98471F2318401E3B83400B4A136086
:103590002A68D369002BFCD12368022213432360DD
:1035A00011B030BD0200160002001700BC0200205E
:1035B000750E000000140042E50D000000E100E07F
:1035C00010B58CB06846114B98471C236A4613739C
:1035D0000F4C10492000104B98472268537E5BB275
:1035E000002BFBDB802109040C4B19600F23937522
:1035F0001376137802210B431370054B1A68537E20
:103600005BB2002BFBDB0CB010BDC046DD0400003C
:10361000F0020020004000422105000000E100E02F
:1036200070B5294B9847294B19684B7E5BB2002B2C
:10363000FBDB0B7B022213430B734B7E5BB2002B35
:10364000FBDB01200425022401E010420AD10B7E9D
:10365000DBB202001A401D4200D022431C42F4D0CB
:103660002A43F2E74B7E5BB2002BFBDB4C8BA4B210
:1036700001230B760A7ED2B21340500701D50220F7
:103680000343920701D5042213435B0701D50223AC
:103690000B760F4B98470F4B984720000E4B9847DF
:1036A0000E4B98470E4B98470E480F4B98470F4BC1
:1036B00098470F4B98470F4B98470F4B984700215F
:1036C00000200E4B984770BDC1350000F00200206D
:1036D000451B0000C90300007139000005350000DA
:1036E0006D1D0000E06A00003D390000413200001D
:1036F000E5010000B1340000A5290000592A0000AE
:10370000F8B50F4B98470F4E0F4D104F16E00D4B6D
:10371000188814210C4B984789B200290AD03088A8
:103720002100A84789B20029F1D1B8470848094BC0
:103730009847ECE7084B9847084B9847084CEEE74A
:10374000213600008201002071380000852D000024
:10375000D46A00003D390000752100005D2B000097
:10376000E02E0000002243088B4274D303098B42F1
:103770005FD3030A8B4244D3030B8B4228D3030C41
:103780008B420DD3FF22090212BA030C8B4202D3E3
:103790001212090265D0030B8B4219D300E0090A0B
:1037A000C30B8B4201D3CB03C01A5241830B8B4214
:1037B00001D38B03C01A5241430B8B4201D34B03FD
:1037C000C01A5241030B8B4201D30B03C01A524162
:1037D000C30A8B4201D3CB02C01A5241830A8B42E7
:1037E00001D38B02C01A5241430A8B4201D34B02D0
:1037F000C01A5241030A8B4201D30B02C01A524134
:10380000CDD2C3098B4201D3CB01C01A52418309E7
:103810008B4201D38B01C01A524143098B4201D321
:103820004B01C01A524103098B4201D30B01C01A4C
:103830005241C3088B4201D3CB00C01A52418308C6
:103840008B4201D38B00C01A524143088B4201D3F3
:103850004B00C01A5241411A00D201465241104653
:103860007047FFE701B5002000F006F802BDC04632
:103870000029F7D076E770477047C046F0B5CE46CE
:10388000474615042D0C2E0080B50704140C3F0C80
:103890009946030C7E435D43674363437F19340CB1
:1038A000E4199C46A54203D980235B029846C44490
:1038B0004B46514343433604360C250C24046544DF
:1038C000A4195918491920000CBC90469946F0BD1E
:1038D00070B500260C4D0D4C641BA410A64209D1F6
:1038E000002603F055F90A4D0A4C641BA410A642A9
:1038F00005D170BDB300EB5898470136EEE7B30031
:10390000EB5898470136F2E79C6B00009C6B000077
:103910009C6B0000A06B0000002310B59A4200D100
:1039200010BDCC5CC4540133F8E703008218934205
:1039300000D1704719700133F9E700000FB40B4B49
:1039400013B51C68002C05D0A369002B02D1200000
:1039500000F02EFA05AB049AA1682000019300F054
:1039600003FC16BC08BC04B01847C0464000002049
:10397000104B70B51C680500A36B002B15D11820E7
:1039800000F018FB0C4BA06303800C4B012243801A
:103990000B4B83800B4BC3800B4B0381052343816F
:1039A000063383810023026143610022A36B1D6102
:1039B0005A6170BD400000200E330000CDABFFFF08
:1039C000341200006DE6FFFFECDEFFFF154B10B573
:1039D0001C68A36B002B15D1182000F0EBFA124BDA
:1039E000A0630380114B01224380114B8380114B54
:1039F000C380114B03810523438106338381002358
:103A000002614361A46B0D4A206961690C4BFFF7A9
:103A100035FF01220023801859412061616148006F
:103A2000400810BD400000200E330000CDABFFFF6A
:103A3000341200006DE6FFFFECDEFFFF2D7F954C9A
:103A40002DF451584A424A41802310B55200DB0000
:103A500000F002F810BD0000F0B51D004F4B85B01E
:103A60001E6804000F000092002E05D0B369002BE1
:103A700002D1300000F09CF9494B9C4250D174684F
:103A8000009B022B05D0012B00D984E0002D00DA29
:103A900081E02100300000F01DF9616B002908D0A1
:103AA00023004433994202D0300000F08DFA002305
:103AB00063630023A3616360A3891B0603D52169A7
:103AC000300000F081FAA389364A1340A381009B9D
:103AD000022B5AD003AB02AA2100300000F0FEF9FD
:103AE000A3891843A081002D24D1029D280000F055
:103AF00061FA0195071E42D1029B0193AB4239D175
:103B0000012040420223A2891343A3810023A36022
:103B100023004733236023610123636105B0F0BDB7
:103B2000214B9C4201D1B468AAE7204B9C42A7D10B
:103B3000F468A5E7002FD9D0B369002B02D130007B
:103B400000F036F9009B012B03D1A389009A1A4398
:103B5000A2810820A389276027616561184018D0D9
:103B6000012018400023984211D06D42A360A56146
:103B70001800D3E7019800F01DFA071EC0D080237B
:103B8000A289019D1343A381D6E70020BAE7A5606F
:103B9000C4E7A060C2E701204042BFE74000002028
:103BA0001C6B00005CF3FFFF3C6B0000FC6A000034
:103BB0000023C25C0133002AFBD1581E704700006D
:103BC000F7B58A8905000C00130760D44B68002BF9
:103BD00004DC0B6C002B01DC0020FEBDE76A002F2B
:103BE000FAD000232E682B6080235B011A4034D06A
:103BF000606DA3895B0706D56368C01A636B002BF1
:103C000001D0236CC01A0200216A00232800E76A51
:103C1000B847A189431C06D12B681D2B31D82C4AEB
:103C2000DA40D3072DD50023636023692360CB04DA
:103C300005D5431C02D12B68002B00D16065616B58
:103C40002E600029C8D023004433994202D02800B6
:103C500000F0BAF900206063BFE70123216A280061
:103C6000B847431CC5D12B68002BC2D01D2B01D0F7
:103C7000162B01D12E60AFE74023A2891343A38105
:103C8000ABE740230B430120A3814042A5E70F6926
:103C9000002FA1D00B680F60DB1B0193002392075C
:103CA00000D14B69A360019B002B00DC94E7019BD2
:103CB0003A00216A2800A66AB047002803DC4023A6
:103CC000A2891343DFE7019B3F181B1A0193EAE720
:103CD000010040200B6970B505000C00002B01D1DC
:103CE000002070BD002804D08369002B01D100F0B2
:103CF0005FF80B4B9C4209D16C680C22A35E002B31
:103D0000EED021002800FFF75BFFEAE7054B9C425D
:103D100001D1AC68F1E7044B9C42EED1EC68ECE7D2
:103D20001C6B00003C6B0000FC6A000010B50249EF
:103D300000F0B2F810BDC046D53C0000002310B51D
:103D4000040003604360836081814366C281036134
:103D500043618361190008225C30FFF7E6FD054BE3
:103D600024626362044BA362044BE362044B23634B
:103D700010BDC046D5460000FD4600003547000096
:103D80006147000070B568254A1E55430E002900A2
:103D9000743100F063F9041E08D000212A0001608C
:103DA00046600C30A0606832FFF7BFFD200070BD98
:103DB000836913B50400002B28D18364C3640365B1
:103DC000134B144A1B6882620193984201D101236C
:103DD0008361200000F020F86060200000F01CF8F3
:103DE000A060200000F018F80022E0600421606864
:103DF000FFF7A4FF01220921A068FFF79FFF02221D
:103E00001221E068FFF79AFF0123A36113BDC046AA
:103E1000F86A00002D3D0000F8B51E4B07001E6833
:103E2000B369002B02D13000FFF7C2FF4836B468F7
:103E30007368013B04D53368002B07D03668F6E77A
:103E40000C22A55E002D0DD06834F2E70421380065
:103E5000FFF798FF30600028F0D10C2304003B608E
:103E60002000F8BD012320005B42E3810233A381DF
:103E700065662560A560656025616561A5610822AC
:103E800029005C30FFF751FD6563A563A564E56417
:103E9000E6E7C046F86A0000F7B504000700002610
:103EA00001914834002C01D13000FEBD6368A56843
:103EB0000093009B013B009301D52468F2E7AB8996
:103EC000012B08D90E22AB5E013304D02900380043
:103ED000019B984706436835EBE7000070B50E007C
:103EE0001D000E23C95E90B01400002907DA0023DC
:103EF0002B60B3891B0611D48023DB000FE001AADD
:103F000000F026FD0028F2DBF022029B1202134093
:103F1000054A9B185A4253412B60EDE7402300208D
:103F2000236010B070BDC04600E0FFFFF7B5022669
:103F30008B8905000C00334206D0230047332360F1
:103F4000236101236361F7BD01AB6A46FFF7C6FF3A
:103F500000990700280000F081F8002808D10C2201
:103F6000A35E9A05EFD4032293431E43A681E4E7A0
:103F70000F4BAB628023A28920601343A381009B77
:103F800020616361019B002B0DD00E23E15E2800B0
:103F900000F0F0FC002806D00322A38993431A0006
:103FA00001231343A381A0893843A081CBE7C046F6
:103FB0002D3D000010B5034B0100186800F04EF8CD
:103FC00010BDC0464000002070B50500002910D08B
:103FD0000C1F2368002B00DAE418280000F0FBFC1B
:103FE0001D4A1368002B05D163601460280000F09F
:103FF000F3FC70BDA34209D9216860188342F3D154
:1040000018685B6841182160EEE713005A68002ABF
:1040100001D0A242F9D919685818A0420BD12068E2
:104020000918581819608242E0D110685268411886
:1040300019605A60DAE7A04202D90C232B60D5E759
:1040400021686018824203D11068526841182160CB
:1040500062605C60CAE7C04684010020032370B53B
:10406000CD1C9D43083506000C2D1ED20C25A942FF
:104070001DD8300000F0AFFC254A1468210000294B
:1040800019D1244C2368002B03D1300000F010FB21
:1040900020602900300000F00BFB431C2CD10C23C6
:1040A0003000336000F098FC03E0002DDFDA0C23D1
:1040B0003360002070BD0B685B1B1AD40B2B03D937
:1040C0000B60CC18256003E08C420ED1636813604E
:1040D000300000F081FC200007220B30231D9043AC
:1040E000C31AE7D05A42E250E4E74B6863600C0021
:1040F000EEE70C004968C2E70323C41C9C43A042BE
:10410000E0D0211A300000F0D3FA431CDAD1C6E720
:104110008401002088010020936810B5013B936062
:10412000002B05DA9469A34208DBCBB20A2B05D039
:104130001368581C10601970C8B210BD00F016FB4F
:10414000FBE7F8B506000F001400D518AC4201D10A
:10415000002007E021783A003000FFF7DDFF01344E
:10416000431CF3D1F8BD0000F0B59FB006000F006E
:1041700014000593002804D08369002B01D1FFF7B8
:1041800017FE7F4B9F425CD17768BB891B0762D5C6
:104190003B69002B5FD0002306AD6B6120336B764B
:1041A0001033AB760294029C2378002B5DD1029BE6
:1041B000E31A04930DD0049B029A39003000FFF7F4
:1041C000C0FF431C00D1CCE06A69049B9446634461
:1041D0006B612378002B00D1C3E0012200235242FF
:1041E0006A6002A95432521801342B60EB60AB6054
:1041F0001370AB6521780522624800F0E1FB631C77
:104200009C46002835D12968CB0604D5532302AA41
:1042100020309B1818700B0704D553232B2002AABB
:104220009B18187023782A2B2CD000200A21099B78
:104230002278303A092A00D86BE000282AD0099366
:1042400028E0514B9F4201D1B7689EE74F4B9F42F8
:104250009BD1F76899E73900300000F0F1FA0028A7
:1042600099D0012040421FB0F0BD252B9FD00134D2
:104270009AE7444B2968C01A012383400B432B6003
:104280006446B7E7059B181D1B680590002B3ADBB9
:104290000993644623782E2B0BD16378621C2A2B5A
:1042A0003FD1059B02341A1D1B680592002B35DB9C
:1042B000079321780322364800F082FB002807D0BC
:1042C000334B2A68C01A4023834013432B600134C8
:1042D0002178631C06222F480293297600F070FB98
:1042E000002844D02C4B002B2FD12968059B072296
:1042F000C90528D59B189343083305936B69039A26
:104300009B186B614FE75B42EB6002230B432B6012
:10431000BFE74B4301349B18012089E701235B422F
:10432000C6E7002314000A201A006B602178303998
:10433000092903D9002BBCD00792BAE742430134C4
:1043400052180123F2E70733D5E705AB00933A0093
:10435000124B2900300000E000BF0390039B0133A3
:10436000CCD1BB895B0600D57BE70B987BE705AB1F
:1043700000933A00094B2900300000F07FF8ECE789
:104380001C6B00005C6B00003C6B0000FC6A0000D2
:10439000626B0000666B00000000000043410000FB
:1043A000F7B5150001938A680B6900900C009342E1
:1043B00000DA130022002B6043321278002A01D069
:1043C00001332B6023689B0602D52B6802332B60D8
:1043D000062723681F4027D0230043331B785A1E2B
:1043E00093412268920630D422000199433200980A
:1043F000089EB047431C25D0062320682A68E16840
:1044000003400025042B03D18D1AEB43DB171D401D
:10441000A3682269934201DD9B1AED180027BD4273
:1044200020D1002010E00137E3682A689B1A9F42E0
:10443000D2DA22000123193201990098089EB04770
:10444000431CF0D101204042FEBD3020E118433131
:10445000087021005A1C45310978A21843320233F2
:104460001170C1E7220001231A3201990098089EB9
:10447000B047431CE6D00137D1E70000F0B58BB060
:1044800006920A0043320793059004920A7E0C00BC
:10449000109B6E2A00D18FE017D8632A2CD008D841
:1044A000002A00D199E0582A54D0260042363270B2
:1044B00029E0642A01D0692AF7D121681A68080620
:1044C00023D5111D1960156825E0732A00D188E0F5
:1044D00008D86F2A29D0702AE7D1202209680A4318
:1044E000226003E0752A20D0782ADED122007821CC
:1044F000453211706C4A30E00E001A684236111DC8
:10450000196013683370012379E04906D9D5111D6C
:1045100019600023D55E002D03DA2D23049A6D4225
:104520001370624B0A2703932FE020681968050671
:1045300003D5081D18600D6805E04006F9D50D6823
:10454000081D1860ADB2594B082703936F2A18D085
:104550000A2716E045310A70544A03921A68216806
:10456000101D18601568080622D5CB0702D5202338
:10457000194321601027002D03D1202322689A437C
:1045800022602300002243331A706368A360002B6B
:104590005CDB0422216891432160002D58D1049EE8
:1045A000002B64D02600039B42361B7833705EE0FC
:1045B0004806DAD5ADB2D8E709681A68080605D505
:1045C000111D1960136862691A6006E04906F7D583
:1045D000111D19601368A28A1A800023049E2361AA
:1045E00054E01A68111D19601668002162683000D5
:1045F00000F0E6F9002801D0801B60606368236149
:104600000023049A137041E023693200069905984B
:10461000079DA847431C43D0236800259B070FD460
:10462000099BE06898423DDA18003BE02200012334
:10463000193206990598079EB047431C30D00135C2
:10464000E368099A9B1A9D42F0DBE9E7002DA9D0A7
:10465000049E28003900FFF70BF9039B013E5B5CC9
:10466000280033703900FFF77DF8051EF1D1082FBF
:1046700009D12368DB0706D563682269934202DC0F
:104680003023013E3370049B9B1B2361079B09AAC7
:1046900000932100069B0598FFF782FE431CB3D1CF
:1046A000012040420BB0F0BD7E6B00006D6B00003E
:1046B000002370B5064C050008002360FDF716FBCB
:1046C000431C03D12368002B00D02B6070BDC04673
:1046D0001003002070B50C000E25495F00F07EF934
:1046E000002803DB636D1B18636570BDA389024A54
:1046F0001340A381F9E7C046FFEFFFFFF8B51F00A5
:104700008B8905000C001600DB0505D50E23C95E5C
:104710000022022300F040F9A389054A2800134033
:10472000A38132000E23E15E3B0000F075F8F8BD76
:10473000FFEFFFFF70B50C000E25495F00F02CF96C
:10474000A389421C03D1054A1340A38170BD802276
:1047500052011343A3816065F8E7C046FFEFFFFFF6
:1047600010B50E23C95E00F0E1F810BDF8B50500E4
:104770000E001400002804D08369002B01D1FFF73C
:1047800017FB224B9C422DD16C68A369A360A389BF
:104790001B0731D52369002B2ED023682269F7B27D
:1047A000981A6369F6B2984205DB21002800FFF7EA
:1047B00091FA002826D1A3680130013BA360236849
:1047C0005A1C22601F706369984204D0A389DB07DA
:1047D0001AD50A2E18D121002800FFF77BFA0028ED
:1047E00012D00FE00A4B9C4201D1AC68CDE7094BD7
:1047F0009C42CAD1EC68C8E72100280000F020F8EC
:104800000028CAD0012676423000F8BD1C6B00009B
:104810003C6B0000FC6A000070B505000800110048
:104820000022064C22601A00FDF738FA431C03D11F
:104830002368002B00D02B6070BDC0461003002001
:10484000364B70B51D6806000C00002D05D0AB6915
:10485000002B02D12800FFF7ABFA314B9C420FD15D
:104860006C680C23E25E93B219072DD4D90611D4DB
:1048700009230120336037331343A381404270BDC5
:10488000284B9C4201D1AC68EBE7274B9C42E8D116
:10489000EC68E6E75B0713D5616B002908D02300BD
:1048A0004433994202D03000FFF78EFB002363634C
:1048B0002422A3899343A381002363602369236097
:1048C0000823A2891343A3812369002B0BD1A021C4
:1048D0008022A389890092000B40934203D02100DB
:1048E0003000FFF723FB0123A289134011D00023DE
:1048F000A36063695B42A361002023698342BED148
:104900000C23E25E1306BAD540231343A38101387A
:10491000B5E7920700D46369A360EDE7400000208B
:104920001C6B00003C6B0000FC6A0000002370B5AB
:10493000064C050008002360FDF7EAF9431C03D18B
:104940002368002B00D02B6070BDC04610030020F0
:10495000002370B5064C0500080011002360FDF728
:10496000DAF9431C03D12368002B00D02B6070BD03
:1049700010030020002370B5064C050008002360DA
:10498000FDF7CEF9431C03D12368002B00D02B6028
:1049900070BDC0461003002070B50500080011006E
:1049A0000022064C22601A00FDF7BCF9431C03D11B
:1049B0002368002B00D02B6070BDC0461003002080
:1049C000C9B28218904201D10020704703788B420F
:1049D000FBD00130F6E770477047000070B5050066
:1049E000080011000022064C22601A00FDF734F97D
:1049F000431C03D12368002B00D02B6070BDC04640
:104A0000100300200A000A00140014001400000023
:104A10007C010A007C010A008601140000001400D9
:104A20000A00220186011400900122010A002201DD
:104A300014002C017C01220186012C0114002C01A0
:104A40007C01360100001E00320028000000320008
:104A500032003C0050001E001801280046002800CB
:104A60005000BE005000BE001801C8001801280008
:104A70002201BE00000046003200500000005A0033
:104A80003200640000006E003200780000008200F6
:104A900032008C00000096003200A0000000AA0046
:104AA0003200B4000000BE003200C8002C01C80073
:104AB0007201D2001E00DC007201E6001E00F00050
:104AC0007201FA001E00040172010E015A00180161
:104AD0002C012201B450BE82AA82BE8C8C3C96640A
:104AE000D23CDC6482968CA08CA0DCAADC96E6A08A
:104AF000783CF0506E46785A963CAAAAC83CDCA096
:104B0000D2A0E6AA556E69782065706F6368206D43
:104B1000696E7573203078464620646179730000B1
:104B200031335E35202B2031365E35203D20313744
:104B30005E3500005265746963756C6174696E67F7
:104B40002053706C696E65730000000056696F6CCD
:104B5000656E636520776F726B73000054616273DA
:104B6000210000004B696C6C2042696C6C696F6EAF
:104B700061697265732028616E64205472696C6C7F
:104B8000696F6E616972652900000000496E746585
:104B90007265737420696E20746563686E6F6C6FE4
:104BA0006779206973206E6F74206120706572735D
:104BB0006F6E616C697479003130205052494E54E7
:104BC0002043485224283230352E352B524E44286B
:104BD0003129293B203A20474F544F2031300000E3
:104BE0004E6F20676F64732E204E6F206D6173745B
:104BF0006572732E204E6F2065787465726E616CDD
:104C0000206C69627261726965732E005370616312
:104C1000657321005469616E616E6D656E2053711C
:104C2000756172652031393839000000416D657257
:104C30006963612077617320666F756E64656420B7
:104C40006F6E20736C6176657279000054686572CE
:104C500065206973206F6E6C79206361706974617F
:104C60006C20616E64206C61626F7200456E636FD0
:104C700075726167652073796D6D65747269632003
:104C8000636C617373207761726661726500000006
:104C90002443555252454E545F4D454D450000004A
:104CA00041204E6963652054545900005472616E6E
:104CB0007320726967687473206172652068756D0E
:104CC000616E207269676874730000006920203D7E
:104CD0002030783566333735396466202D2028201A
:104CE00069203E3E203120293B00000041434142E3
:104CF00000000000446566636F6E27732063616E79
:104D000063656C65642E0000526174736E65737424
:104D10003A204E6F7468696E6720546F20446F218B
:104D200000000000497420686173203639206B65EB
:104D300079732E00426563617573652056542D3476
:104D400032302077617320616C7265616479207400
:104D5000616B656E00000000436F6D707265737368
:104D6000696F6E20616C676F726974686D20626133
:104D7000736564206F6E20424250202831393937E4
:104D80002900000054686520736F75726365206F99
:104D90006620746865204D697373697373697070F8
:104DA0006920726976657220697320696E2050658A
:104DB0006E6E73796C76616E69612E004F66666502
:104DC0006E73697665206861726477617265000050
:104DD000466F6C6C6F7720576F726C6420506F67F2
:104DE0002046656465726174696F6E2020202040E2
:104DF000576F726C64506F670000000044756D6DF2
:104E00007920746869636320636C69656E7400005F
:104E100041204E696365205454592E20416E204F25
:104E20004B20436F6D70757465722E00492063418D
:104E30006E204F70456E2041204C6F436B205769A8
:104E40005468204120734F64412063416E0000008C
:104E5000536F6C69646172697479206973206E6F35
:104E6000742061206E6577206672616D65776F7260
:104E70006B0000004272656164626F617264696E0A
:104E800067204973204E6F742041204372696D651D
:104E9000000000004F6666206279206F6E65206515
:104EA00072726F72732061726520636F6D6D6F6EC9
:104EB00000000000EA060000360900003609000084
:104EC00036090000360900003609000036090000E6
:104ED00036090000360900003609000036090000D6
:104EE00036090000360900003609000036090000C6
:104EF00036090000D206000036090000360900001D
:104F000036090000360900003609000036090000A5
:104F10003609000036090000360900003609000095
:104F20003609000036090000360900003609000085
:104F300036090000E20600003609000036090000CC
:104F40003609000036090000360900003609000065
:104F50003609000036090000360900003609000055
:104F60003609000036090000360900003609000045
:104F700036090000DA060000F2060000BA0600005A
:104F8000CA060000C2060000020000000300000084
:104F900028000000290000000400000005000000B7
:104FA00006000000070000002000000021000000B3
:104FB0002200000023000000240000002500000063
:104FC0002600000027000000080000000900000083
:104FD0000A0000000B00000000080042000C004224
:104FE000001000420014004200180042001C004261
:104FF000E6130000E2130000E21300004814000072
:1050000048140000FA130000EC1300000014000024
:105010003614000008160000E8150000E81500002E
:1050200074160000FA15000016160000EC150000BA
:1050300024160000641600000000000000000000BC
:105040000000000000000000000000000000000060
:105050000000000000000000000000000000000050
:105060000000000000000000000000000000000040
:105070000000000000000000000000000000000030
:10537000000000000000000003FF303FF3000000C9
:1053800000000000000000000000000003F0003FEB
:1053900000000000000003F0003F000000000000DB
:1053A000000000033003FFF03FFF00330003300331
:1053B000FFF03FFF0033000330000000030000CC8B
:1053C000C00CCC03FFF03FFF00CCC00CCC000300AE
:1053D00000000000001C030330E00E38000E000344
:1053E0008000E1C038330000E000000000000F3C06
:1053F000030C3030C3030C3030C300F330000C001A
:10540000033000330000000000000000030000F043
:10541000003C00030000000000000000000000004D
:10542000000000000003F0003F000C0C03003000FF
:10543000000000000000000000000000000000006C
:105440000300300C0C003F0003F0000000000000DF
:10545000000000C000CCC003F0000C0000C0003F02
:10546000000CCC000C00000000000000C0000C008C
:1054700000C0000C000FFC000C0000C0000C00007D
:10548000C0000000000000000C00030000F0000C51
:105490000000000000000000000000000000C0004C
:1054A0000C0000C0000C0000C0000C0000C0000C8C
:1054B0000000C00000000000000000000F0000F02D
:1054C000000F0000000000000000000000000000CD
:1054D000030000C00030000C00030000C0003000DA
:1054E000000000000000000003F000FFC03C0F03BC
:1054F000003030030300303C0F00FFC003F0000019
:105500000000000060300C030180303FFF03FFF01B
:10551000000300000000000000000C0F03C3F03087
:105520003303033030C3030C3030C300F0300F03BB
:10553000000000300C030070300303003031C3035F
:105540003C303EC303C3C0303C0000000070000F7D
:105550000003B00063001C3003FFF00030000300C4
:1055600000300000003FCC03FC3033030330303305
:10557000030330303303030FC030FC00000003FC92
:1055800000FFF03CC3030C3030C3030C3030C300C9
:1055900003C0003C0000003000030000300F030097
:1055A000F03030030C00330003C0003C000000006A
:1055B0000F3C00F3C030C3030C3030C3030C303059
:1055C000C300F3C00F3C0000000F0003FC3030C3E9
:1055D000030C3030C3030C30330E00FFC00FF0005B
:1055E000000000000000000F0F00F0F00F0F00009F
:1055F0000000000000000000000000000000000C9F
:105600000F0F00F0F00F0C00000000000000000081
:105610000000000000C0000C0003300033000C0C40
:1056200000C0C03003030030000000000003300061
:105630003300033000330003300033000330003305
:1056400000033000000030030300300C0C00C0C029
:10565000033000330000C0000C0000000000000C0C
:105660000003C0003000030F3030F303300033007C
:1056700000C0000C000000000FFC03FFF03003032B
:105680000C30333303333031E300FF000FF0000000
:105690000000FF003FF00F3001C300303001C300B5
:1056A0000F30003FF000FF000000300303FFF03F29
:1056B000FF030C3030C3030C3030C300F3C00F3C89
:1056C00000000003F000FFC03C0F03003030030374
:1056D0000030300300C0C00C0C000000300303FF9A
:1056E000F03FFF030030300303C0F00E1C003F000A
:1056F00001E00000003FFF03FFF030C3030C303037
:10570000C3030C30300303003030030000003FFFC0
:1057100003FFF030C0030C0030C0030C0030000366
:105720000000300000000003F000FFC03C0F030049
:10573000303003030330303300C3C00C3C000000A2
:105740003FFF03FFF000C0000C0000C0000C000091
:10575000C003FFF03FFF00000000000300303003F3
:1057600003FFF03FFF0300303003000000000000A3
:105770000000000C0000F00003030030300303FFC2
:10578000F03FFC03000030000000003FFF03FFF08B
:1057900000C0003300033000C0C00C0C03003030E8
:1057A000030000003FFF03FFF00003000030000390
:1057B000000030000300003000030000003FFF0342
:1057C000FFF01C0000700003C00070001C0003FF0D
:1057D000F03FFF0000003FFF03FFF01C00007000DF
:1057E00001C0000700001C03FFF03FFF0000000F96
:1057F000FC00FFC0380703003030030300303807D7
:1058000000FFC00FFC0000003FFF03FFF030C003AB
:105810000C0030C0030C0030C000F0000F0000008E
:10582000000FFC03FFF0300303003030330303F0BC
:10583000300C00FF300FF30000003FFF03FFF0309B
:10584000C0030C0030C0030F0030FC00F0F00F0369
:105850000000000F0C03FCF030C3030C3030C30316
:105860000C3030C300C3C00C3C000000300003000B
:105870000030000300003FFF030000300003000081
:1058800030000000003FFC03FFC0000300003000B8
:1058900003000030000303FFC03FFC0000003C0099
:1058A00003FC0003FC0003E000030003E003FC032F
:1058B000FC003C000000003FFE03FFF0000300037B
:1058C000E000F00003E0000303FFF03FFE000000F3
:1058D000300303C0F00F3C00370001E0003B000F35
:1058E0003C03C0F03003000000300003C0000F0094
:1058F000003E0000FF003E000F0003C0003000002B
:105900000000300F0301F0303303073030C3033899
:10591000303E0303C03030030000000000000000F0
:105920003FFF03FFF03003030030300300000000AE
:105930000000000000000300003C0000F00003C075
:10594000000F00003C0000F0000300000000000316
:10595000003030030300303FFF03FFF00000000081
:1059600000000000000000C0003C000F0001C0006B
:10597000300001C0000F00003C0000C0000000002B
:10598000030000300003000030000300003000037B
:1059900000003000030000000000000000300003A1
:1059A00000003C0000F000030000000000000000C8
:1059B00000000C0000C003330033300333003330E9
:1059C0000333003F3000FF0000003FFF03FFF00102
:1059D000CE00303003030030300303003CF000FC05
:1059E00000000000FC003FF0030300303003030020
:1059F00030300303000C3000C300000000FC003F07
:105A0000F00303003030030300303000CC03FFF01C
:105A10003FFF00000000FC003FF003330033300381
:105A2000330033300333000F3000F000000000C0BB
:105A3000000C000FFF00FFF030C0030C003000002E
:105A4000C0000C0000000000CCC03FFF0333303327
:105A5000330333303F3300C3F0300C0300C0000089
:105A60003FFF03FFF000C0003000030000300003E0
:105A700000000FF000FF00000000000000300303F2
:105A8000033FF033FF00003000030000000000007F
:105A900000000003C0003F00003000030000333F5F
:105AA000FF33FFC0000000000000003FFF03FFF0D5
:105AB000003000070001EC0038C006030000300091
:105AC00000000000000000000030030300303FFF32
:105AD00003FFF00003000000000000000003FF00CF
:105AE0003FF000C00007000070000C000380003F82
:105AF000F000FF00000003FF000FF003C0003000C3
:105B000003000030000300000FF000FF0000000061
:105B1000FC003FF00303003030030300303003FF8C
:105B2000000FC0000000000003FFF00F00030C0096
:105B300030C0030C0030C0030C000F0000F0000068
:105B40000000F0000F00030C0030C0030C0030C058
:105B5000030C000F0003FFF0000003FF000FF00034
:105B6000C0001C0003000030000300001C0000C047
:105B700000000000C3003F30033300333003330024
:105B8000333003330000C0000C000000030000307D
:105B9000003FFC03FFC00303003030030C0000C0D3
:105BA000000000000003FC003FF000030000300094
:105BB0000300003003FC003FF0000300000001C0C0
:105BC000000E0000780001E0000F0001E000780006
:105BD0000E0001C000000003FC003FF000030001C4
:105BE000C000300001C00003003FF003FC000000D3
:105BF0000303001CE000780003000078001CE003B1
:105C000003000000000000000003F0C03FCF000CC4
:105C10007000C3000C703FFF03FFC00000000000D5
:105C200000000303003030030F0030F00333003373
:105C30003003C3003C3003030000000000000000FC
:105C400000C0000C000CCC033330300303003030B4
:105C5000030000000000000000000003FFF03FFF11
:105C600000000000000000000000000000300303FE
:105C7000003033330333300CCC000C000000000044
:105C80000000000000000F0003F00030000380005F
:105C90000C00007000030003F0003C000000000056
:105CA00000000000000000000000000000000000F4
:105CB000000000000000000003F000FFC03C0F03E4
:105CC00000343003C30030300300C0C00C0C0000AF
:105CD0000003FC01BFF01803000030000301803016
:105CE0001BFC003FF0000300000000FC003FF0033D
:105CF000330033300B3301B3301333000F3000F077
:105D0000000000000C0000C003330033300B3301EF
:105D100033300B33003F3000FF000000000C000068
:105D2000C01B3301B33003330033301B3301BF30AA
:105D300000FF000000000C0000C003330133301BE3
:105D40003300B3300333003F3000FF000000000C8D
:105D50000000C003330333304B3304B3303333001C
:105D60003F3000FF00000000FC003FF00303003064
:105D700030030340303C0303000C3000C30000003C
:105D800000FC003FF0033300B330133300B33003A3
:105D900033000F3000F000000000FC01BFF01B33A7
:105DA000003330033301B3301B33000F3000F000F9
:105DB000000000FC003FF0133301B3300B3300331D
:105DC000300333000F3000F000000000000300300B
