S018000044756D42616467654669726D776172652E73726563D6
S113000078210020911300008D1300008D1300004F
S113001000000000000000000000000000000000DC
S11300200000000000000000000000008D1300002C
S113003000000000000000008D1300008D1300007C
S11300408D1300008D1300008D1300008D1300002C
S11300508D1300008D1300008D1300008D1300001C
S11300608D13000031060000410600005106000017
S11300706106000071060000810600008D13000077
S11300808D1300008D1300008D1300008D130000EC
S11300908D1300008D1300008D1300008D130000DC
S11300A08D1300008D1300008D1300008D130000CC
S11300B00000000010B5064C2378002B07D1054B37
S11300C0002B02D0044800E000BF0123237010BDC0
S11300D0740000200000000024410000084B10B50B
S11300E0002B03D00749084800E000BF0748036815
S11300F0002B00D110BD064B002BFBD09847F9E72D
S11301000000000078000020244100002441000089
S11301100000000070B50020084B98470500084C0B
S1130120FA218900A047074B186007492800A04717
S1130130064B18600522064B1A6070BD1D110000A5
S1130140FD1D00000000002040420F0004000020BC
S113015010E000E030B5084B1C68084A00258021F7
S11301604902013807D3002CFBD054609560136812
S11301700B42FCD0F5E730BD0000002010E000E0A9
S11301800C4B1B68002B06D1EFF31083002B07D018
S11301900022094B1A70074A136801331360704731
S11301A072B6BFF35F8F0022044B1A700132024B08
S11301B01A70F0E79000002094000020080000204E
S11301C0084B1A68013A1A601B68002B09D1064BC8
S11301D01B78002B05D00122044B1A70BFF35F8FEC
S11301E062B67047900000209400002008000020B0
S11301F0F0B583B001AC012565700027A7702570A8
S113020021003E20064EB0478022D205054B9A615C
S11302102770657021000F20B04703B0F0BDC046C1
S1130220290200008044004100B583B001AB802264
S11302301A700A785A704A789A708A78DA701900B3
S1130240014B984703B000BD2D130000F0B5DE4606
S113025057464E464546E0B587B0804604911600A1
S11302601F000022002300218B463F24012021008F
S1130270009601975C4603944446059413E02024B9
S1130280641A0500E540A84614E0009C019D121B79
S1130290AB415C464D462C43A346039C45462C4348
S11302A00394013925D3202464420C19E7D40500B2
S11302B0A540A84604008C40A14692185B41140056
S11302C01D00059E4F463E40B446049E47463E40B0
S11302D0B246664657463E4303D0060026433200E4
S11302E02B00009C019D9D42DBD8CED19442D8D8EE
S11302F0CBE7039B5846190007B03CBC904699468F
S1130300A246AB46F0BD10B5490840230024814203
S113031002D2180010BD1C00091A631C9BB288424B
S1130320F9D94023FF2CF4D814800023F1E700000E
S1130330F0B583B00F00160008AA117804004C43EE
S11303404022BC4202D9100003B0F0BD002B14D1EE
S1130350020008000021194CA04701003A000023C4
S11303600020174CA04700220123121A8B41120CC3
S11303701B041A4332800022E5E70022012BF9D145
S11303800A00002300210D4CA04702000B0000923C
S11303900193380000210A4CA047050080239B01EB
S11303A040229842CFD8790FF800009A019BA047C9
S11303B0EA00821AD2B252032A43DBE7E9200000A2
S11303C04D02000010B582B004000E4B1B78002BC8
S11303D007D0002905D10B4B5B78834210D01D2038
S11303E00CE001A90C701320074B98471320074B0E
S11303F09847044B5C7001221A70002002B010BDB3
S11304000020FBE79800002035120000A91100002D
S1130410404B984231D00AD93F4B98424DD03F4B84
S113042098425AD03E4B984237D0002070473D4BFB
S113043098420CD03C4B9842F7D1012917D000299F
S11304405DD0022915D0032915D00020EEE701293B
S113045007D0002951D0022905D0032905D0002056
S1130460E4E73248E2E73248E0E73248DEE7324880
S1130470DCE73248DAE73248D8E7012907D0002917
S11304803FD0022905D0032905D00020CEE72D480E
S1130490CCE72D48CAE72D48C8E7012907D0002931
S11304A031D0022905D0032905D00020BEE7284811
S11304B0BCE72848BAE72848B8E7012907D000294B
S11304C023D0022905D0032905D00020AEE7234814
S11304D0ACE72348AAE72348A8E7012907D0002965
S11304E015D0022905D0032905D000209EE71E4817
S11304F09CE71E489AE71E4898E71E4896E70320A3
S113050094E71D4892E71D4890E71D488EE71D4873
S11305108CE7C0460010004200180042001C004254
S11305200014004200080042000C004203000500D1
S113053003000600030007000300010003001E007F
S113054003001F000300090003000A0003000B005E
S113055003001100030012000300130003000D0048
S113056003000E0003000F0003001700030018002F
S11305700300190003000400030008000300100036
S113058003000C000300160030B587B00B4B6A461D
S113059032CB32C232CB32C2009B83420BD0012316
S11305A09A0069465258824206D00133062BF7D18D
S11305B0002007B030BD0023D8B2FAE78C31000028
S11305C070470000F0B50A4B1B78002B0CD1094F83
S11305D0094E0A4D0024DE515A1914600433182BB5
S11305E0F9D10122024B1A708000024BC150F0BDB8
S11305F09A0000209C000020C1050000DC000020BF
S113060000B583B009236A46137001335370013374
S113061093700133D3700133137101335371034B5E
S113062098476B46185603B000BDC04689050000C4
S113063010B5024B1B680020984710BD9C00002099
S113064010B5024B5B680120984710BD9C00002048
S113065010B5024B9B680220984710BD9C000020F7
S113066010B5024BDB680320984710BD9C000020A6
S113067010B5024B1B690420984710BD9C00002054
S113068010B5024B5B690520984710BD9C00002003
S1130690F0B5DE4657464E464546E0B591B00500F6
S11306A00C00160029600800BA4B98470200236822
S11306B00520DB0706D511B03CBC90469946A246FE
S11306C0AB46F0BD236817309B07F4D4B249086ADF
S11306D0971C0123BB4003430B620FA92D27F35D35
S11306E00B701432D3B202931800AC4B98470298A3
S11306F0AB4B9847F05D0021AA4B9847F37A6B7196
S11307002423F35CAB712523F35CEB71F37E2B7232
S1130710337F6B722B68984618009E4B98471430B1
S113072000220E2306A98C4663441A80328A029260
S11307308023DB019A4200D19AE00FD9C023DB0168
S1130740029A9A4200D18EE080231B029A4200D082
S11307501BE1032306930023079308E080239B01F6
S11307609A4200D011E1102306930F3B079333689C
S11307700593F3689B4673690393337E049326239E
S1130780F35C9A4673689946002B00D19CE0802361
S11307905B05994500D180E0737E002B02D0B37EC7
S11307A0424693730E2306AA944663441B8842462A
S11307B09381059B5A461343039A13434A461343B2
S11307C0029F1F43049B1B021F4353465B071F43A7
S11307D02723F35C002B01D104331F43737E9B0258
S11307E0327F52021343727F120213432422B25CFB
S11307F0520413432522B25C12041343B17AF27AF1
S1130800114319433389FF2B00D181E08022520424
S1130810174319432C23F35C002B03D1624B9B78C1
S11308209B0701D580231F432A68D369002BFCD181
S1130830434659602A68D369002BFCD143461F60A4
S11308400EAB80221A7000225A70DA709A70336BE1
S11308500A93736B0B93B36B0C93F36B02930D932B
S113086000270AAE63E008230693073B07937EE75D
S113087033680593F3689B4673690393337E04934B
S11308802623F35C9A4673689946002B18D080237C
S11308905B05994501D0002025E02723F35C002B5C
S11308A000D079E7336A1F00C0B2404B984701007B
S11308B00E2206AB9C46624438003D4B984712E03A
S11308C008230693002307932723F35C002B0ED001
S11308D0069B0093079B0E2206A98C466244B16ACC
S11308E0306A344FB847002800D0E4E654E7336A4E
S11308F01F00C0B22D4B98470100069B0093079B35
S11309000E2206A88446624438002A4FB847EAE714
S1130910F37E002B00D17DE78023DB041F4379E7BE
S11309202000254B984707E00137042F0DD0F9B27A
S1130930BB0098590028F3D0431CF5D00EA90870C9
S1130940000CC0B21D4B9847EEE70023EB602B610F
S11309506B61AB61EB612B62AB626B620022EB8576
S1130960AB853033EA540133EA540133EA5401339A
S1130970EA542868074B984704001149114B9847DB
S1130980A400114BE550002095E6102306930023A4
S11309900793ECE6890500000004004035120000CE
S11309A0A9110000C50300000020004151120000FD
S11309B00703000031030000110400002D130000A0
S11309C05D0A0000C5050000DC000020C2791C237C
S11309D0002A01D118007047C28D92B2173B002A39
S11309E0F8D1026811850221137E0B42FCD000234A
S11309F0F0E782791C23002A01D118007047828D08
S1130A0092B2173B002AF8D10268107E4007F4D551
S1130A10538BDBB298061DD0980703D5022353836A
S1130A201833EAE7580703D5042353831A33E4E75A
S1130A30D80703D5012353831233DEE7D80603D541
S1130A40102353833233D8E79B0603D520235383E3
S1130A502133D2E7138D0B800023CEE7F8B5800055
S1130A60624BC5582C68E369002BFCD1237EA67D1C
S1130A701E403023EB5C3122AF5C1F40F30722D5CC
S1130A80EB8D9BB2002B1CD0AA6A1378DBB2511CED
S1130A90A962697901290ED09BB2DB05DB0D2385A0
S1130AA0EB8D013B9BB2EB85002B0CD101332375FD
S1130AB00133A37507E0517809020B430232AA629D
S1130AC0EBE701232375B30706D502232375002220
S1130AD03133EA54FB071AD4730765D5AB8D9BB247
S1130AE0002B5FD0638BDBB21A0714D43F22134070
S1130AF0002B34D09A0711D51A223223EA54303B02
S1130B0063837B0750D528006B6998474CE0280025
S1130B10EB689847E0E737221340E9E75A0705D521
S1130B201E223223EA542E3B6383EAE7DA0705D513
S1130B3013223223EA54313B6383E2E7DA0605D514
S1130B4042223223EA54223B6383DAE720221A4208
S1130B50D7D021323223EA54123B6383D1E7238D69
S1130B60DB05DB0DDAB2696A0A706A6A511C6962D4
S1130B706979012910D0AB8D013B9BB2AB85002B69
S1130B8012D10433237500222E33EA54BB070BD54C
S1130B9028002B69984707E01B0A53706B6A0133DE
S1130BA06B62E8E704232375F30604D51023237549
S1130BB02376FB060ED4B30604D5202323752376AF
S1130BC03B070BD4330704D5082323752376BB06D0
S1130BD008D4F8BD2800EB699847ECE72800AB6916
S1130BE09847EFE72B6A28009847F2E7DC000020DB
S1130BF010B5082803D880001C4B1B589F460020C2
S1130C0032E01B4B18692FE01A4B1B6A9B059B0FA4
S1130C101948D84028E0164B586925E0144B1B6846
S1130C2000209B0720D513491022CB681A42FCD020
S1130C300F4B1A6824231340042B01D00F4813E0F0
S1130C4000200F4B98470A4B9B681B041B0C58430E
S1130C500AE05023074AD35C00205B0704D5044B09
S1130C60D86801E08020000210BDC046A431000015
S1130C70B40000200008004000127A00006CDC027E
S1130C805112000070B50C490B6A047885784078DD
S1130C900122104080014026B34303432A40D2017D
S1130CA0802083431343032222401202034803405B
S1130CB013430B6270BDC04600080040FFFCFFFFF9
S1130CC0F0B5DE4657464E464546E0B50100264B94
S1130CD09B469B8A457800784242424191468878F7
S1130CE0CA7894460A7990464E7B0F7B8C7B8A683F
S1130CF01E494A6101214A469200914604229343C7
S1130D004A46134342460A40D2009046082293437F
S1130D104246134362460A4012019446102293430A
S1130D2062461343084040012022934303430F408B
S1130D30BF01402083433B430E40F60140308343D0
S1130D403343793805402D02094803402B432140A1
S1130D500903084803400B435A4693823CBC90461F
S1130D609946A246AB46F0BD00080040B4000020FE
S1130D70FFF8FFFFFFEFFFFF10B5037A9B061B0C84
S1130D8042899205920D134318494B608379C279C5
S1130D90134342888488224313434278D201134385
S1130DA00B600378042B11D0202B0ED1037B9B0600
S1130DB0028A1343C28912040D490A4013430B4AA1
S1130DC0936011680B4B0B43136010BD037B9B06B0
S1130DD0028A1343C289120405490A401343034A91
S1130DE09360136804210B431360EEE7B400002002
S1130DF00000FF0324040000082803D88000254BCA
S1130E001B589F46172044E0234A136A02210B43D0
S1130E10136200203DE0204A936902210B43936151
S1130E20002036E01C4A138A02210B43138200205F
S1130E302FE0194A938A02210B439382002028E071
S1130E4016490B68022213430B60134B9A84190052
S1130E500E32CB681A42FCD0104A91680E4BD9620C
S1130E6052689A6200229A8419001032CB681A429E
S1130E70FCD00A4B1B689BB2074A9384002008E00D
S1130E80054944228B5C022003438B54002000E07C
S1130E9000207047C831000000080040B400002062
S1130EA0F0B58FB0C222D200474B9A6047494B68D5
S1130EB01E2293431C3A13434B6001AB1A70002467
S1130EC0434DE0B201A9A8470134252CF9D10AA861
S1130ED0002303708370802212028260C370012297
S1130EE0027103738373053242704373394B98471D
S1130EF00520394B984734490222CB681A42FCD06A
S1130F00314A938A80210B43938205AB002100224E
S1130F10598099809A71DA713F3159813B3919703E
S1130F205A702E4B1B689B0E3F2B4BD005A80372A7
S1130F30B723DB000382072303733833C381284BB1
S1130F40984704A800254570012686700570254B36
S1130F5098470620204FB847234B984701AC029688
S1130F6065702572657205232370210001201F4BD3
S1130F70984701201E4B9847267021000020144BEF
S1130F80984700201B4B98470720B8470E49D022AA
S1130F90CB681340D02BFBD1174A00231372537232
S1130FA09372D37201A901224A604B700B724B7287
S1130FB007330B7000200D4B984700200C4B9847CB
S1130FC00FB0F0BD203BB1E70008004000400041F5
S1130FD035120000C10C0000F90D000024608000EF
S1130FE0790D0000850C0000FD0F000021100000A9
S1130FF0D9100000A911000000040040064A9369BA
S113100008210B4393610122044B1A7019000B78D9
S11310101342FCD17047C04600040040000C00405D
S113102070B5060004000D782D0205434B78002BA3
S113103002D08023DB021D434B7A002B02D0802395
S11310401B031D434868012810D9431E184234D19C
S1131050022830D90223002201325B009842FBD8D7
S113106012023243140080235B031D430B7A002BCE
S113107002D080239B031D43134A53785BB2002B99
S1131080FBDB124B9847124B1E700F4A53785BB22E
S1131090002BFBDB0C4B9C601A0053785BB2002BDB
S11310A0FBDB094A5368802149020B401D4355600C
S11310B0084B984770BD0022D2E7040234438023D2
S11310C09B021D43D2E7C046000C00408101000092
S11310D0080C0040C101000010B504000B4A53780D
S11310E05BB2002BFBDB0A4B98470A4B1C70074A88
S11310F053785BB2002BFBDB044A516880235B020C
S11311000B435360044B984710BDC046000C00408D
S113111081010000040C0040C101000070B504000E
S11311201A4A53785BB2002BFBDB194B9847194BD7
S11311301C70164A53785BB2002BFBDB134E7068AD
S1131140C004C00E144B98470500124B1C707668FF
S1131150F602F60F114B1C700C4A53785BB2002B4D
S1131160FBDB0A4B9C682402240C0D4B9847002E91
S113117007D1012C07D9210028000A4B9847050004
S113118001E00134E540280070BDC046000C004079
S113119081010000040C0040F10B0000080C004029
S11311A0C1010000FD1D000010B50400064B984766
S11311B0064B1C70064A53888021C9010B43538097
S11311C0044B984710BDC04681010000020C00404A
S11311D0000C0040C101000010B504000F4B9847FB
S11311E00F4B1C700F4A53881B05180F53880E4968
S11311F00B40538053880D490B40538011008022CB
S1131200D2014B881342FCD106494A88030206489E
S1131210024013434B80064B984710BD81010000E8
S1131220020C0040000C0040FFF0FFFFFFBFFFFF77
S1131230C101000010B50C7824020443024B984706
S1131240A4B2024B5C8010BDD9110000000C004018
S113125010B50400064B9847064B1C70064B5C887F
S11312602405240F054B98472000054B984710BDD3
S113127081010000020C0040000C0040C10100008C
S11312801D11000030B5D378002B35D11378802B95
S113129029D01B0680246402234354780225AC43DE
S11312A006D19478002C20D18024A40223434160E9
S11312B05478013C012C1CD90D042D0CA024E40508
S11312C02C431C4384620D0CD02424062C431C4361
S11312D08462D478002C22D15B031CD59378012B33
S11312E01ED0416117E00023D7E7C024E402234362
S11312F0DDE70D4C2340DFE741600C04240CA02300
S1131300DB05234383620C0CD0231B062343836237
S1131310D378002B03D15378013B012B02D930BD84
S11313208161F8E78160FAE7FFFFFBFF10B50A006F
S1131330C1090023002904D14309DB0105498C4676
S113134063441F242040012181401800024B984728
S113135010BDC046004400418512000070470000E3
S113136010B5054B9847054B9847054B9847054BD7
S11313709847054B984710BDA10E0000F1010000ED
S11313805D1300005D1300005D130000FEE7000024
S1131390F8B52A4A2A4B9A4211D01A00294B9A428C
S11313A00DD2294A03339B1A9B0801339B00002268
S11313B0234822498C58845004329A42FAD1234A51
S11313C0234B9A420AD2D34321495B1803218B430E
S11313D004339B18002102C29342FCD11D4AFF2111
S11313E01D4B8B439360FD3990235B001B4AD15006
S11313F01B4AD3780325AB4302242343D370D37809
S11314000C27BB4308263343D370164B987B3022FA
S11314109043202210439873997BB94331439973C5
S11314209A7BAA4322439A730F4A536880210B4341
S113143053600E4B98470E4B9847FEE7244100003B
S1131440000000207400002004000020740000202C
S11314507801002000ED00E0000000000070004171
S11314600050004100480041004000413D2100007F
S1131470B91C0000F0B5C64600B50C009046002823
S11314800FD1002A11DD8F18094E0A4D3068210052
S11314902B6898470134BC42F8D1404604BC9046BE
S11314A0F0BD01235B429846F7E78046F5E7C04666
S11314B0FC000020F4000020F0B5C64600B50E0084
S11314C015000138022810D8002A11D000240C4B32
S11314D098460C4F43461868315D3B68984700288E
S11314E008DB0134A542F5D106E00124644203E09F
S11314F0140001E001246442200004BC9046F0BDC5
S1131500FC000020F80000200300064A1268002AAC
S113151004D0044A1068C318136070470249014A92
S11315201160F6E7CC000020782100200120404221
S1131530704780239B014B60002070470120704757
S11315400020704770B582B005000E0000226B4683
S1131550DA80064C6B46991D2800A0470028F9D173
S11315606B4606331B88337002B070BDF30900006C
S113157070B505008CB2034E21002800B047002846
S1131580FAD170BDCD09000070B590B08023DB05A1
S1131590009300230193FF2269460A8100228B7283
S11315A0CB72962189010891012124206C46215493
S11315B00130215425316354013163540A930531B8
S11315C063540131635405932382E37622762277B0
S11315D062761323A376627780235B0303931E4B07
S11315E00C931E4B0D9301235B420E930F931C4DE2
S11315F01C4C6A461C492800A0470028F9D1184C05
S11316001A4B1C601A4A1B4B1A601B4A1B4B1A606C
S11316106A4615492000134B9847194E3368986859
S11316200021184DA847336858680021A847256849
S11316302800154B98471F2318401E3B8340134A2C
S113164013602268D369002BFCD12B680222134358
S11316502B6010B070BDC0460300080003000900F1
S1131660000100209106000000100042FC00002050
S113167071150000F800002045150000F40000205A
S113168010000020DD2100000106000000E100E060
S113169030B591B08023DB05009300230193FF2232
S11316A069460A8100228B72CB72962189010891C6
S11316B0012124206C4621540130215425316354E6
S11316C0013163540A930531635401316354059322
S11316D02382E3762276227762761323A3766277D7
S11316E080235B030393124B0C93124B0D93012342
S11316F05B420E930F93104D104C6A46104928001C
S1131700A0470028F9D10C4D2C6820000D4B9847B8
S11317101F2318401E3B83400B4A13602A68D36979
S1131720002BFCD1236802221343236011B030BD87
S11317300200160002001700380100209106000084
S1131740001400420106000000E100E070B5194CED
S1131750194B1C6000020143184B1960D3170F2664
S11317601E40B61836110025002E0CDD124C8021C7
S113177089021248102321600160013B002BFAD139
S11317800135AE42F6D1130713D0D3171B0FD2186D
S11317900F211140C91A4B1C002B0ADD190000232C
S11317A0054C80229202054822600260013399426E
S11317B0FAD170BDFFFF00009444004198440041F9
S11317C010B5064C064B236000020143054B19601B
S11317D08022920222601A6010BDC04694440041E7
S11317E0FFFF00009844004110B580221204024B10
S11317F01A60024B984710BD94440041C117000081
S113180010B580221204024B1A60024B984710BD97
S113181098440041C117000010B5C1B2000A014B41
S1131820984710BD0118000010B501008022120471
S1131830024B1A600020024B984710BD98440041A7
S1131840C1170000F0B583B00E0000931C4B1D8837
S1131850281A87B2AD1AADB200212A20194CA0472C
S11318600196300A184EB04701212A20A0476B4642
S11318701879B04702212A20A047009B180AB047D4
S113188003212A20A0476B461878B04700212B205B
S1131890A047280AB04701212B20A047E8B2B0474F
S11318A002212B20A047380AB04703212B20A04750
S11318B0F8B2B04700212C20A04703B0F0BDC046C9
S11318C00C000020E917000029180000F0B5DE46DE
S11318D057464E464546E0B5354CA5440400354AC6
S11318E0354902A8354B98478022D203344B1A60FD
S11318F0A00000198300C01802AB9C4660448046D7
S113190000239946002500242E4B9B462E4B9A46D5
S11319103BE001362D4B187884002418A4000A21DA
S113192030002B4B98472418631E9846294B19788E
S11319308C00641864000A213000274B984764180F
S1131940013C013F15D32B783B41DB07E1D5A0B225
S113195043466A46D380D1880B000200D8475346D9
S1131960188800021D4B1B88184380B21C4B9847F3
S1131970CFE74346A8461D0008239C46E144073BA5
S11319809C46E0444B46C82B05D04E4607272B0007
S113199045469846D7E78022D203124B1A60124B71
S11319A09D443CBC90469946A246AB46F0BDC04619
S11319B08CF3FFFF670C0000EC3100008521000070
S11319C094440041451800006E010020D10000201D
S11319D0111F0000D0000020DD2000007001002055
S11319E01918000098440041740C0000F0B5CE466C
S11319F0474680B583B08146884615001C00904256
S1131A0002DD030491461D0CA04503DD43461B047F
S1131A10A0461C0C8027FF03124B1F60A3B2AAB27E
S1131A2041466846C180C18848466E46F080F088C9
S1131A300D4EB0470D4E80231B0433604B46ED1A08
S1131A4001354346E21A01326A43094B1988094BAE
S1131A501888094B9847376003B00CBC90469946E8
S1131A60F0BDC0469444004145180000984400412C
S1131A70700100206E0100204D17000010B5044BCA
S1131A801B88044A128800210020034CA04710BD83
S1131A900C0000200A0000204518000010B5802228
S1131AA0D203024B1A60024B984710BD9444004184
S1131AB07D1A0000F0B5C1B00700D022304968316A
S1131AC00CA8304B984705A82F4B1A003832010058
S1131AD031CA31C131CA31C112680A6054336A460D
S1131AE013CB13C203CB03C20023284A1380284A12
S1131AF013800CAC40AE274DE3885B109633A2886C
S1131B0052102D32FF3261884910963120884010DE
S1131B102D30FF30A8470834B442EDD1002F03D054
S1131B20012F17D041B0F0BD05AC0CAE194DE378D0
S1131B305B109633A27852102D32FF32617849102F
S1131B409631207840102D30FF30A8470434A64247
S1131B50EDD1E7E76C4605AE0E4DE3785B109633A6
S1131B60A27852102D32FF326178491096312078D4
S1131B7040102D30FF30A8470434B442EDD1D1E7F2
S1131B80EC3D000085210000EC3E000072010020C5
S1131B906C010020ED190000F0B5D6464F464646CC
S1131BA0C0B582B080235B02324A1360324C23609A
S1131BB08025ED0525600520304FB847304E35604F
S1131BC00F20B84725608023DB03336000242D4FAA
S1131BD02D4E2E4DE15DA05DA8472D4BE05C2D4BB5
S1131BE098470134462CF5D1D1230193274D2A4F30
S1131BF0284E0024E1B20198A847E05DB0470134C3
S1131C00302CF7D1019B0133DBB20193D62BF0D1F9
S1131C10002111201D4DA8470520184CA047002184
S1131C202920A8470520A0478022D203124B1A601E
S1131C301A4B98471A4B984600241C80194F3C8035
S1131C40194E3480194B9A461C80EA23FF33184AF4
S1131C5000210020174DA847FF23424613803B80F4
S1131C60348053461C8002B01CBC90469946A24660
S1131C70F0BDC0468844004198440041550100002D
S1131C809444004124400000843F0000E917000010
S1131C90CC3F000029180000543F00009D1A0000AA
S1131CA06E01002070010020720100206C010020F0
S1131CB01F030000ED190000F8B5CE46474680B575
S1131CC0374B384E1E608025ED051D608024E403EB
S1131CD01C60802080021860802109041960802221
S1131CE052021A60304B1E601D601C60186019603F
S1131CF01A602E4B98472E4B98472E4B98472E4BE5
S1131D0098472E482E4B98472E4B984700202E4B31
S1131D109847FA2080002D4B98472D4E002434809C
S1131D202C4D2C802C4B1B882C4A1288002100201F
S1131D302B4FB847042333802C802A4B1C802A4B1A
S1131D401C8000239946294B9846294F294E1DE0B3
S1131D500022284B1A70A5420DD07F212000C047D5
S1131D60C8B2B84733780133DBB201344F2BEFD814
S1131D70204A1370EFE750239C46E1441E4A13782F
S1131D8001331370F023DB00994503D04D465035E1
S1131D904C46E2E700200CBC90469946F8BDC0468C
S1131DA088440041FFFF0000944400416113000097
S1131DB01501000091160000891500001440000070
S1131DC0A9210000991B0000B51A0000550100006C
S1131DD06E010020700100200A0000200C00002089
S1131DE0ED190000720100206C010020DD200000CC
S1131DF0CD180000D0000020D100002000224308AC
S1131E008B4274D303098B425FD3030A8B4244D3BE
S1131E10030B8B4228D3030C8B420DD3FF22090200
S1131E2012BA030C8B4202D31212090265D0030BBF
S1131E308B4219D300E0090AC30B8B4201D3CB03B5
S1131E40C01A5241830B8B4201D38B03C01A5241F7
S1131E50430B8B4201D34B03C01A5241030B8B42F9
S1131E6001D30B03C01A5241C30A8B4201D3CB02E4
S1131E70C01A5241830A8B4201D38B02C01A5241C9
S1131E80430A8B4201D34B02C01A5241030A8B42CC
S1131E9001D30B02C01A5241CDD2C3098B4201D3E4
S1131EA0CB01C01A524183098B4201D38B01C01A62
S1131EB0524143098B4201D34B01C01A52410309D9
S1131EC08B4201D30B01C01A5241C3088B4201D388
S1131ED0CB00C01A524183088B4201D38B00C01A35
S1131EE0524143088B4201D34B00C01A5241411A5C
S1131EF000D20146524110467047FFE701B5002069
S1131F0000F0F0F802BDC0460029F7D076E770472C
S1131F1003460B437FD4002243088B4274D3030946
S1131F208B425FD3030A8B4244D3030B8B4228D3E7
S1131F30030C8B420DD3FF22090212BA030C8B420D
S1131F4002D31212090265D0030B8B4219D300E0AD
S1131F50090AC30B8B4201D3CB03C01A5241830B32
S1131F608B4201D38B03C01A5241430B8B4201D3E2
S1131F704B03C01A5241030B8B4201D30B03C01A0B
S1131F805241C30A8B4201D3CB02C01A5241830A85
S1131F908B4201D38B02C01A5241430A8B4201D3B4
S1131FA04B02C01A5241030A8B4201D30B02C01ADE
S1131FB05241CDD2C3098B4201D3CB01C01A524145
S1131FC083098B4201D38B01C01A524143098B42CE
S1131FD001D34B01C01A524103098B4201D30B01B7
S1131FE0C01A5241C3088B4201D3CB00C01A5241DC
S1131FF083088B4201D38B00C01A524143088B42A1
S113200001D34B00C01A5241411A00D20146524139
S1132010104670475DE0CA0F00D04942031000D358
S11320204042534000229C4603098B422DD3030AAD
S11320308B4212D3FC22890112BA030A8B420CD3BD
S1132040890192118B4208D3890192118B4204D3E6
S113205089013AD0921100E08909C3098B4201D366
S1132060CB01C01A524183098B4201D38B01C01AA0
S1132070524143098B4201D34B01C01A5241030917
S11320808B4201D30B01C01A5241C3088B4201D3C6
S1132090CB00C01A524183088B4201D38B00C01A73
S11320A05241D9D243088B4201D34B00C01A52414A
S11320B0411A00D20146634652415B10104601D3D7
S11320C04042002B00D54942704763465B1000D361
S11320D0404201B5002000F005F802BD0029F8D007
S11320E016E770477047C046F0B5CE46474615041C
S11320F02D0C2E0080B50704140C3F0C9946030CDC
S11321007E435D43674363437F19340CE4199C4663
S1132110A54203D980235B029846C4444B465143ED
S113212043433604360C250C24046544A419591879
S1132130491920000CBC90469946F0BD70B50026A4
S11321400C4D0D4C641BA410A64209D1002601F0CD
S1132150D9FF0A4D0A4C641BA410A64205D170BDD8
S1132160B300EB5898470136EEE7B300EB589847B5
S11321700136F2E710410000104100001041000058
S113218014410000002310B59A4200D110BDCC5C6C
S1132190C4540133F8E703008218934200D1704716
S11321A019700133F9E700000FB40B4B13B51C6829
S11321B0002C05D0A369002B02D1200000F0BCF94B
S11321C005AB049AA1682000019300F091FB16BCB2
S11321D008BC04B01847C046100000204A424A41D7
S11321E0802310B55200DB0000F002F810BD00009F
S11321F0F0B51D004F4B85B01E6804000F0000921F
S1132200002E05D0B369002B02D1300000F094F900
S1132210494B9C4250D17468009B022B05D0012B82
S113222000D984E0002D00DA81E02100300000F0C4
S113223015F9616B002908D023004433994202D078
S1132240300000F085FA002363630023A361636018
S1132250A3891B0603D52169300000F079FAA3890C
S1132260364A1340A381009B022B5AD003AB02AA27
S11322702100300000F0F6F9A3891843A081002D55
S113228024D1029D280000F059FA0195071E42D17D
S1132290029B0193AB4239D1012040420223A2891F
S11322A01343A3810023A3602300473323602361E6
S11322B00123636105B0F0BD214B9C4201D1B46898
S11322C0AAE7204B9C42A7D1F468A5E7002FD9D0F8
S11322D0B369002B02D1300000F02EF9009B012BD2
S11322E003D1A389009A1A43A2810820A3892760F5
S11322F027616561184018D00120184000239842D6
S113230011D06D42A360A5611800D3E7019800F0D5
S113231015FA071EC0D08023A289019D1343A3810F
S1132320D6E70020BAE7A560C4E7A060C2E70120B1
S11323304042BFE710000020904000005CF3FFFF24
S1132340B040000070400000F7B58A8905000C0019
S1132350130760D44B68002B04DC0B6C002B01DCEE
S11323600020FEBDE76A002FFAD000232E682B6000
S113237080235B011A4034D0606DA3895B0706D5C6
S11323806368C01A636B002B01D0236CC01A02006F
S1132390216A00232800E76AB847A189431C06D1B3
S11323A02B681D2B31D82C4ADA40D3072DD50023B6
S11323B0636023692360CB0405D5431C02D12B68D9
S11323C0002B00D16065616B2E600029C8D023000A
S11323D04433994202D0280000F0BAF90020606327
S11323E0BFE70123216A2800B847431CC5D12B68E5
S11323F0002BC2D01D2B01D0162B01D12E60AFE7CC
S11324004023A2891343A381ABE740230B4301205C
S1132410A3814042A5E70F69002FA1D00B680F608C
S1132420DB1B01930023920700D14B69A360019B3E
S1132430002B00DC94E7019B3A00216A2800A66A7D
S1132440B047002803DC4023A2891343DFE7019B44
S11324503F181B1A0193EAE7010040200B6970B58D
S113246005000C00002B01D1002070BD002804D011
S11324708369002B01D100F05FF80B4B9C4209D11A
S11324806C680C22A35E002BEED021002800FFF71D
S11324905BFFEAE7054B9C4201D1AC68F1E7044BD2
S11324A09C42EED1EC68ECE790400000B0400000A4
S11324B07040000010B5024900F0B2F810BDC046EB
S11324C05D240000002310B50400036043608360B2
S11324D081814366C28103614361836119000822DB
S11324E05C30FFF758FE054B24626362044BA36221
S11324F0044BE362044B236310BDC0465D2E000011
S1132500852E0000BD2E0000E92E000070B5682560
S11325104A1E55430E002900743100F063F9041E6D
S113252008D000212A00016046600C30A0606832A7
S1132530FFF731FE200070BD836913B50400002B42
S113254028D18364C3640365134B144A1B688262F5
S11325500193984201D101238361200000F020F807
S11325606060200000F01CF8A060200000F018F863
S11325700022E06004216068FFF7A4FF0122092122
S1132580A068FFF79FFF02221221E068FFF79AFF7D
S11325900123A36113BDC0466C400000B5240000B4
S11325A0F8B51E4B07001E68B369002B02D130003A
S11325B0FFF7C2FF4836B4687368013B04D533683B
S11325C0002B07D03668F6E70C22A55E002D0DD04F
S11325D06834F2E704213800FFF798FF30600028E0
S11325E0F0D10C2304003B602000F8BD012320003F
S11325F05B42E3810233A38165662560A560656063
S113260025616561A561082229005C30FFF7C3FDDF
S11326106563A563A564E564E6E7C0466C40000015
S1132620F7B504000700002601914834002C01D1BD
S11326303000FEBD6368A5680093009B013B0093D6
S113264001D52468F2E7AB89012B08D90E22AB5ED1
S1132650013304D029003800019B984706436835AC
S1132660EBE7000070B50E001D000E23C95E90B0AC
S11326701400002907DA00232B60B3891B0611D448
S11326808023DB000FE001AA00F026FD0028F2DB26
S1132690F022029B12021340054A9B185A425341EE
S11326A02B60EDE740230020236010B070BDC046CE
S11326B000E0FFFFF7B502268B8905000C003342CA
S11326C006D0230047332360236101236361F7BDF0
S11326D001AB6A46FFF7C6FF00990700280000F027
S11326E081F8002808D10C22A35E9A05EFD40322B6
S11326F093431E43A681E4E70F4BAB628023A28978
S113270020601343A381009B20616361019B002B24
S11327100DD00E23E15E280000F0F0FC002806D066
S11327200322A38993431A0001231343A381A0899D
S11327303843A081CBE7C046B524000010B5034B55
S11327400100186800F04EF810BDC04610000020CB
S113275070B50500002910D00C1F2368002B00DA87
S1132760E418280000F0FBFC1D4A1368002B05D177
S113277063601460280000F0F3FC70BDA34209D923
S1132780216860188342F3D118685B68411821609E
S1132790EEE713005A68002A01D0A242F9D9196859
S11327A05818A0420BD120680918581819608242A1
S11327B0E0D110685268411819605A60DAE7A04203
S11327C002D90C232B60D5E721686018824203D11B
S11327D0106852684118216062605C60CAE7C046B4
S11327E0D4000020032370B5CD1C9D43083506009A
S11327F00C2D1ED20C25A9421DD8300000F0AFFCD0
S1132800254A14682100002919D1244C2368002B7F
S113281003D1300000F010FB20602900300000F0EC
S11328200BFB431C2CD10C233000336000F098FCCC
S113283003E0002DDFDA0C233360002070BD0B6849
S11328405B1B1AD40B2B03D90B60CC18256003E057
S11328508C420ED163681360300000F081FC2000CC
S113286007220B30231D9043C31AE7D05A42E2508B
S1132870E4E74B6863600C00EEE70C004968C2E7CC
S11328800323C41C9C43A042E0D0211A300000F072
S1132890D3FA431CDAD1C6E7D4000020D8000020C4
S11328A0936810B5013B9360002B05DA9469A34249
S11328B008DBCBB20A2B05D01368581C10601970C2
S11328C0C8B210BD00F016FBFBE7F8B506000F0018
S11328D01400D518AC4201D1002007E021783A0059
S11328E03000FFF7DDFF0134431CF3D1F8BD0000D5
S11328F0F0B59FB006000F0014000593002804D023
S11329008369002B01D1FFF717FE7F4B9F425CD1F7
S11329107768BB891B0762D53B69002B5FD0002316
S113292006AD6B6120336B761033AB760294029C58
S11329302378002B5DD1029BE31A04930DD0049BF2
S1132940029A39003000FFF7C0FF431C00D1CCE0ED
S11329506A69049B944663446B612378002B00D11D
S1132960C3E00122002352426A6002A95432521881
S113297001342B60EB60AB601370AB6521780522EA
S1132980624800F0E1FB631C9C46002835D12968AD
S1132990CB0604D5532302AA20309B1818700B07CA
S11329A004D553232B2002AA9B18187023782A2BB2
S11329B02CD000200A21099B2278303A092A00D819
S11329C06BE000282AD0099328E0514B9F4201D1A3
S11329D0B7689EE74F4B9F429BD1F76899E7390050
S11329E0300000F0F1FA002899D0012040421FB0D5
S11329F0F0BD252B9FD001349AE7444B2968C01AB7
S1132A00012383400B432B606446B7E7059B181DE5
S1132A101B680590002B3ADB0993644623782E2B20
S1132A200BD16378621C2A2B3FD1059B02341A1DFB
S1132A301B680592002B35DB079321780322364867
S1132A4000F082FB002807D0334B2A68C01A4023C9
S1132A50834013432B6001342178631C06222F48E2
S1132A600293297600F070FB002844D02C4B002BF5
S1132A702FD12968059B0722C90528D59B189343A4
S1132A80083305936B69039A9B186B614FE75B42AC
S1132A90EB6002230B432B60BFE74B4301349B18CD
S1132AA0012089E701235B42C6E7002314000A20C2
S1132AB01A006B6021783039092903D9002BBCD066
S1132AC00792BAE74243013452180123F2E707336D
S1132AD0D5E705AB00933A00124B2900300000E023
S1132AE000BF0390039B0133CCD1BB895B0600D5A7
S1132AF07BE70B987BE705AB00933A00094B290071
S1132B00300000F07FF8ECE790400000D040000077
S1132B10B040000070400000D6400000DA400000E1
S1132B2000000000CB280000F7B5150001938A6867
S1132B300B6900900C00934200DA130022002B6012
S1132B4043321278002A01D001332B6023689B069C
S1132B5002D52B6802332B60062723681F4027D039
S1132B60230043331B785A1E93412268920630D4C3
S1132B702200019943320098089EB047431C25D097
S1132B80062320682A68E16803400025042B03D14A
S1132B908D1AEB43DB171D40A3682269934201DDC4
S1132BA09B1AED180027BD4220D1002010E0013708
S1132BB0E3682A689B1A9F42D2DA22000123193261
S1132BC001990098089EB047431CF0D1012040426F
S1132BD0FEBD3020E1184331087021005A1C4531F4
S1132BE00978A218433202331170C1E7220001238D
S1132BF01A3201990098089EB047431CE6D0013769
S1132C00D1E70000F0B58BB006920A004332079377
S1132C10059004920A7E0C00109B6E2A00D18FE06E
S1132C2017D8632A2CD008D8002A00D199E0582A52
S1132C3054D026004236327029E0642A01D0692A31
S1132C40F7D121681A68080623D5111D1960156883
S1132C5025E0732A00D188E008D86F2A29D0702A89
S1132C60E7D1202209680A43226003E0752A20D0B4
S1132C70782ADED122007821453211706C4A30E086
S1132C800E001A684236111D19601368337001234F
S1132C9079E04906D9D5111D19600023D55E002DB0
S1132CA003DA2D23049A6D421370624B0A270393AF
S1132CB02FE020681968050603D5081D18600D6803
S1132CC005E04006F9D50D68081D1860ADB2594BF2
S1132CD0082703936F2A18D00A2716E045310A7093
S1132CE0544A03921A682168101D18601568080672
S1132CF022D5CB0702D52023194321601027002DAC
S1132D0003D1202322689A43226023000022433304
S1132D101A706368A360002B5CDB04222168914372
S1132D202160002D58D1049E002B64D02600039B03
S1132D3042361B7833705EE04806DAD5ADB2D8E788
S1132D4009681A68080605D5111D196013686269B7
S1132D501A6006E04906F7D5111D19601368A28AA6
S1132D601A800023049E236154E01A68111D19601F
S1132D70166800216268300000F0E6F9002801D0EE
S1132D80801B6060636823610023049A137041E030
S1132D902369320006990598079DA847431C43D030
S1132DA0236800259B070FD4099BE06898423DDA0D
S1132DB018003BE022000123193206990598079E6A
S1132DC0B047431C30D00135E368099A9B1A9D42F1
S1132DD0F0DBE9E7002DA9D0049E28003900FFF7B5
S1132DE093F8039B013E5B5C280033703900FFF7C6
S1132DF005F8051EF1D1082F09D12368DB0706D594
S1132E0063682269934202DC3023013E3370049BE1
S1132E109B1B2361079B09AA00932100069B05982D
S1132E20FFF782FE431CB3D1012040420BB0F0BD3A
S1132E30F2400000E1400000002370B5064C05009C
S1132E4008002360FEF760FB431C03D12368002BBA
S1132E5000D02B6070BDC0467401002070B50C001A
S1132E600E25495F00F07EF9002803DB636D1B1813
S1132E70636570BDA389024A1340A381F9E7C04684
S1132E80FFEFFFFFF8B51F008B8905000C0016004B
S1132E90DB0505D50E23C95E0022022300F040F9AC
S1132EA0A389054A28001340A38132000E23E15E62
S1132EB03B0000F075F8F8BDFFEFFFFF70B50C00A4
S1132EC00E25495F00F02CF9A389421C03D1054A61
S1132ED01340A38170BD802252011343A381606516
S1132EE0F8E7C046FFEFFFFF10B50E23C95E00F000
S1132EF0E1F810BDF8B505000E001400002804D058
S1132F008369002B01D1FFF717FB224B9C422DD183
S1132F106C68A369A360A3891B0731D52369002BBF
S1132F202ED023682269F7B2981A6369F6B29842E0
S1132F3005DB21002800FFF791FA002826D1A368B9
S1132F400130013BA36023685A1C22601F7063692F
S1132F50984204D0A389DB071AD50A2E18D1210080
S1132F602800FFF77BFA002812D00FE00A4B9C429E
S1132F7001D1AC68CDE7094B9C42CAD1EC68C8E7E3
S1132F802100280000F020F80028CAD0012676424B
S1132F903000F8BD90400000B040000070400000D8
S1132FA070B50500080011000022064C22601A00CA
S1132FB0FEF782FA431C03D12368002B00D02B6058
S1132FC070BDC04674010020364B70B51D68060004
S1132FD00C00002D05D0AB69002B02D12800FFF7AF
S1132FE0ABFA314B9C420FD16C680C23E25E93B276
S1132FF019072DD4D90611D409230120336037339E
S11330001343A381404270BD284B9C4201D1AC685C
S1133010EBE7274B9C42E8D1EC68E6E75B0713D566
S1133020616B002908D023004433994202D0300058
S1133030FFF78EFB002363632422A3899343A381B8
S113304000236360236923600823A2891343A381B7
S11330502369002B0BD1A0218022A389890092002F
S11330600B40934203D021003000FFF723FB0123E0
S1133070A289134011D00023A36063695B42A3615A
S1133080002023698342BED10C23E25E1306BAD525
S113309040231343A3810138B5E7920700D4636941
S11330A0A360EDE71000002090400000B040000055
S11330B070400000002370B5064C05000800236032
S11330C0FEF734FA431C03D12368002B00D02B6095
S11330D070BDC04674010020002370B5064C050085
S11330E0080011002360FEF724FA431C03D123686F
S11330F0002B00D02B6070BD74010020002370B53C
S1133100064C050008002360FEF718FA431C03D19F
S11331102368002B00D02B6070BDC04674010020D2
S113312070B50500080011000022064C22601A0048
S1133130FEF706FA431C03D12368002B00D02B6052
S113314070BDC04674010020C9B28218904201D1FA
S11331500020704703788B42FBD00130F6E77047BC
S11331607047000070B50500080011000022064CED
S113317022601A00FEF77EF9431C03D12368002B5A
S113318000D02B6070BDC0467401002000080042CE
S1133190000C0042001000420014004200180042DB
S11331A0001C0042020C0000FE0B0000FE0B00009D
S11331B0640C0000640C0000160C0000080C0000F5
S11331C01C0C0000520C0000240E0000040E000031
S11331D0040E0000900E0000160E0000320E0000D7
S11331E0080E0000400E0000800E000000000000E9
S11331F000000000000000000000000000000000CB
S113320000000000000000000000000000000000BA
S113321000000000000000000000000000000000AA
S1133220000000000000000000000000000000009A
S1133520000000000000000180601806018060189F
S113353006018060000001806000000000000000BF
S1133540066198661986619800000000000000007A
S113355000000000000000000006619866198FFB5F
S1133560FE66198FFBFE6619866198000000000054
S113357000000180607E1F8982607E1F8190647ECE
S11335801F81806000000000000000042108A429BD
S113359004812010040220884511482208000000FC
S11335A0000000000781E08421084210781E085AB8
S11335B016822087D9F60000000000000000C03009
S11335C018060300C0000000000000000000000016
S11335D000000000000000401008020300C0300C8E
S11335E00300C008020040100000000000000001B9
S11335F000400802006018060180601808020100FB
S113360040000000000000000000004210824090D2
S1133610FFBFE24090421080000000000000000064
S1133620000000000802008020FFBFE080200802A4
S11336300000000000000000000000000000000086
S11336400000000000000018060300C04010000045
S11336500000000000000000000000FFBFE00000C8
S11336600000000000000000000000000000000056
S1133670000000000000000000380E0380E000009D
S11336800000000000002008040100802010040253
S1133690008040100802000000000000000003E069
S11336A0F86318CC1B06C1B06C1B066318C3E0F8A2
S11336B000000000000000008060381A0480200828
S11336C002008020080207E1F8000000000000006A
S11336D007E1F8C1B06018060E038701C0C0300FBF
S11336E0FBFE000000000000000FFBFE0300C060B2
S11336F0300E0380180681B067E1F8000000000076
S113370000000040300C0703409064310FFBFE04BE
S113371001004010000000000000000FFBFEC0305C
S11337200FE3F8C1B060180681A067E1F80000005B
S11337300000000003E0F860180C0300FE3F8C1B3F
S113374006C1B067E1F8000000000000000FFBFEB6
S113375001806020080401008020300C0300C000B8
S113376000000000000003E0F8C1B06C1B063E0F2F
S11337708C1B06C1B063E0F80000000000000007E5
S1133780E1F8C1B06C3B0E7D9F6018060300C7E1F1
S1133790F000000000000000000000380E0380E08C
S11337A00000000000380E0380E00000000000006C
S11337B000000000380E0380E00000000000380E16
S11337C00300C04010000000000000300C0C030394
S11337D000C0C0300300C00C0300300C0000000027
S11337E000000000000000000FFBFE00000FFBFEC5
S11337F00000000000000000000000000C03003086
S11338000C00C0300300C0C030300C0C03000000BA
S1133810000000000007E1F8C1B06060181806015C
S1133820806000000180600000000000000007E1EB
S1133830F8C1B06CDB3ED3B4ECFB36C03007E1F822
S113384000000000000000008070360D86318CC13D
S1133850B06FFBFEC1B06C1B06000000000000004E
S11338600FE3F861986619867E1F86198661986F42
S1133870E3F80000000000000003E0F861986C0326
S113388000C0300C0300619863E0F8000000000001
S113389000000FC3F06619863186619866198C663C
S11338A0198FC3F0000000000000000FFBFEC030C1
S11338B00C0300FC3F0C0300C0300FFBFE000000B3
S11338C0000000000FFBFEC0300C0300FC3F0C03A3
S11338D000C0300C03000000000000000003E0F80A
S11338E061986C0300C0300C7B1E619863E0F800A3
S11338F00000000000000C1B06C1B06C1B06FFBFDB
S1133900EC1B06C1B06C1B060000000000000007A1
S1133910E1F818060180601806018060180607E1C6
S1133920F80000000000000001F87E060180601825
S11339300601806018C63187C1F000000000000055
S1133940000C1B06C6318D8360E0380D8360C631E0
S11339508C1B06000000000000000C0300C0300CAB
S11339600300C0300C0300C0300FFBFE0000000059
S11339700000000C1B8EE3BDEDDB76C9B26C1B06A8
S1133980C1B06C1B06000000000000000C1B86E1A7
S1133990BC6D1B66C9B36C5B1EC3B0EC1B06000098
S11339A0000000000003E0F8E3B06C1B06C1B06C3B
S11339B01B06C1B8E3E0F8000000000000000FE3BC
S11339C0F8C1B06C1B06FE3F8C0300C0300C030032
S11339D00000000000000007E1F8C1B06C1B06C144
S11339E0B06CDB36C63187D9F60000000000000059
S11339F00FE3F8C1B06C1B06FE3F8C6318C330CCD8
S1133A001B060000000000000007E1F8C1B06C03D1
S1133A10007E1F801806C1B067E1F80000000000B6
S1133A2000000FFBFE08020080200802008020082E
S1133A3002008020000000000000000C1B06C1B042
S1133A406C1B06C1B06C1B06C1B063E0F80000003B
S1133A50000000000C1B06C1B066318C6318C36003
S1133A60D8360D81C020000000000000000C1B06A9
S1133A70C1B06C1B06C9B26DDB76D5B56F798C000D
S1133A800000000000000C1B066318C360F80C065D
S1133A9003E0D86318CC1B06000000000000000CF3
S1133AA01B066318C360D81C0701C02008020080ED
S1133AB020000000000000000FFBFE0300C06010A7
S1133AC00C060301C0C0300FFBFE00000000000024
S1133AD00003E0F8300C0300C0300C0300C0300CCD
S1133AE003E0F800000000000000060180300C0133
S1133AF080600C030060180300C01806000000007A
S1133B0000000007C1F00C0300C0300C0300C030FB
S1133B100C0307C1F00000000000000000807036B4
S1133B200D86318CC1B06000000000000000000070
S1133B300000000000000000000000000000000081
S1133B40000000000FFBFE000000000000000380E6
S1133B50E00C0300601800000000000000000000FA
S1133B6000000000000000000000000003F0FC0161
S1133B708063F8FEC0B023F8FE00000000000000DF
S1133B800C0300C0300DF3FCE1B86C0B02E1B86F1C
S1133B90F37C00000000000000000000000007E1CA
S1133BA0F8C1B06C0300C03007F9FE00000000004B
S1133BB00000001806018067D9F6C3B0EC1B06C3E9
S1133BC0B0E7D9F60000000000000000000000008B
S1133BD007E1F8C1B06FFBFEC03007F1FC00000044
S1133BE00000000000E038318C6300C0FC3F03009B
S1133BF0C0300C0300C00000000000000000000002
S1133C00000007D9F6C63187C1F0C03007E1F8C318
S1133C10B0E7E1F800000C0300C0300DE378E1B830
S1133C206C1B06C1B06C1B06000000000000000104
S1133C30806000000380E01806018060180607E138
S1133C40F800000000000000006018000000601888
S1133C50060180601806018C6318C63187C1F00024
S1133C60000C0300C0308C6330CC360F83C0CC33DF
S1133C700C330C0000000000000003C0F00C030033
S1133C80C0300C0300C0300C0303E0F80000000057
S1133C9000000000000000000C330CB7AD699A6608
S1133CA099A0681A0600000000000000000000004F
S1133CB0000BE2F8E1B86C1B06C1B06C1B060000F7
S1133CC00000000000000000000007E1F8C330CC51
S1133CD0330CC330C7E1F80000000000000000000E
S1133CE00000000BE2F8C1B06C1B06BE2F88020076
S1133CF080200802000000000000000003E8FAC170
S1133D00B06C1B063E8FA008020080200802000051
S1133D10000000000008E238719C640100401004B7
S1133D2001000000000000FFFFFFFFFFFFFFFFFF97
S1133D30FFFFFFFFFFFFFFFFFFFFFFFFFFFFFFFF8F
S1133D40FFFFFFFFFFFFFFFFFFFFFFFFFFFFFFFF7F
S1133D50FFFFFFFFFFFFFFFFFFFFFFFFFFFFFFFF6F
S1133D60FFFFFFFFFFFFFFFFFFFFFFFFFFFFFFFF5F
S1133D70FFFFFFFFFFFFFFFFFFFFFFFFFFFFFFFF4F
S1133D80FFFFFFFFFFFFFFFFFFFFFFFFFFFFFFFF3F
S1133D90FFFFFFFFFFFFFFFFFFFFFFFFFFFFFFFF2F
S1133DA0FFFFFFFFFFFFFFFFFFFFFFFFFFFFFFFF1F
S1133DB0FFFFFFFFFFFFFFFFFFFFFFFFFFFFFFFF0F
S1133DC0FFFFFFFFFFFFFFFFFFFFFFFFFFFFFFFFFF
S1133DD0FFFFFFFFFFFFFFFFFFFFFFFFFFFFFFFFEF
S1133DE0FFFFFFFFFFFFFFFFFFFFFFFFFFFFFFFFDF
S1133DF0FFFFFFFFFFFFFFFFFFFFFFFFFFFFFFFFCF
S1133E00FFFFFFFFFFFFFFFFFFFFFFFFFFFFFFFFBE
S1133E10FFFFFFFFFFFFFFFFFFFFFFFFFFFFFFFFAE
S1133E20FFFFFFFFFFFFFFFFFFFFFFFFFFFFFFFF9E
S1133E30FFFFFFFFFFFFFFFFFFFFFFFFFFFFFFFF8E
S1133E40FFFFFFFFFFFFFFFFFFFFFFFFFFFFFFFF7E
S1133E50FFFFFF000A000A00140014001400000011
S1133E607C010A007C010A00860114000000140091
S1133E700A00220186011400900122010A00220195
S1133E8014002C017C01220186012C0114002C0158
S1133E907C01360100001E003200280000003200C0
S1133EA032003C0050001E00180128004600280083
S1133EB05000BE005000BE001801C80018012800C0
S1133EC02201BE00000046003200500000005A00EB
S1133ED03200640000006E003200780000008200AE
S1133EE032008C00000096003200A0000000AA00FE
S1133EF03200B4000000BE003200C8002C01C8002B
S1133F007201D2001E00DC007201E6001E00F00007
S1133F107201FA001E00040172010E015A00180118
S1133F202C012201B450BE82AA82BE8C8C3C9664C1
S1133F30D23CDC6482968CA08CA0DCAADC96E6A041
S1133F40783CF0506E46785A963CAAAAC83CDCA04D
S1133F50D2A0E6AA002D002E0032004400530088AF
S1133F6000B600F301220164019201D402070208A1
S1133F700234025F0278029402A602BB02DB02F959
S1133F80031F037FF0F0F0F0F0B0B0B0B6B6B6B1F6
S1133F90B1B1B7B7B7B2B2B2B8B8B8BFB3B3B3B9C7
S1133FA0B9B9B5B5B5C2BABABABCBCBCBDBDBDBE63
S1133FB0BEF0F0F0F0F0B1B1B6B7B7B8B8B8B8BC6D
S1133FC0BCBCC9C9C9C9C9353A36000055AA52088A
S1133FD0010D0D0D3434340D0D0D34343400000056
S1133FE0242424010F0F0F34343408080803242434
S1133FF024007800007800008955AA520800CC00FB
S113400005707001030303020000D00250505000F9
S11340105500000048656C6C6F20576F726C640A21
S11340200D0000000001020304000102000102006F
S1134030010200010200010200010200010200016C
S1134040020000010000010200010200010200015F
S1134050000102030400000000010001020300014A
S1134060020001020304000000000000140000200C
S1134070000000000000000000000000000000003C
S1134080000000000000000000000000000000002C
S1134090000000000000000000000000000000001C
S11340A0000000000000000000000000000000000C
S11340B000000000000000000000000000000000FC
S11340C000000000000000000000000000000000EC
S11340D0232D302B2000686C4C00656667454647ED
S11340E00030313233343536373839414243444570
S11340F046003031323334353637383961626364DF
S113410065660000F8B5C046F8BC08BC9E4670471A
S1134110DD000000F8B5C046F8BC08BC9E467047F8
S1074120B5000000E2
S1134124401F0000080000000100DF011F0300001D
S1134134140000200000000090400000B040000083
S113414470400000000000000000000000000000B7
S11341540000000000000000000000000000000057
S11341640000000000000000000000000000000047
S11341740000000000000000000000000000000037
S11341840000000000000000000000000000000027
S10741940000000023
S903139158
