:10000000D82A0020B5200000B1200000B120000057
:1000100000000000000000000000000000000000E0
:10002000000000000000000000000000B1200000FF
:100030000000000000000000B1200000F9310000C5
:10004000B1200000B1200000B1200000B12000006C
:10005000B1200000B1200000B1200000B12000005C
:10006000B1200000CD120000DD120000ED120000F2
:10007000FD1200000D1300001D130000B120000050
:10008000B1200000B1200000B1200000B12000002C
:10009000B1200000B1200000B1200000010E0000DE
:1000A000B1200000B1200000B1200000B12000000C
:1000B0000000000010B5064C2378002B07D1054B3B
:1000C000002B02D0044800E000BF0123237010BDC4
:1000D000C801002000000000A86E0000084B10B509
:1000E000002B03D00749084800E000BF0748036819
:1000F000002B00D110BD064B002BFBD09847F9E731
:1001000000000000CC010020A86E0000A86E0000D6
:100110000000000070B505000C000C20044B98474F
:100120000560048100238380C380837270BDC04654
:100130005939000000238380C38083727047000018
:1001400010B5040083885B0002689952837A002B03
:1001500005D0C08801302189074B9847E180A088ED
:1001600001302189044B98478BB2A380E188C91ADA
:100170004A424A41A27210BDB1380000827A00237F
:10018000002A05D18388C0881B1A58424341DBB23C
:100190001800704770B504000D000B4B98470028FD
:1001A0000ED1E3885B0022689B5A2B700023A37258
:1001B000E08801302189054B9847E180002070BD1F
:1001C00001204042FBE7C0467D010000B13800003D
:1001D00070B5442800D070BD184B1A88162A1BD859
:1001E000174C184D29884B005B18DB00E318985C0E
:1001F000154EB047114A138801339BB213802988EA
:100200004A005218D200A418E05CB0470F4B984740
:1002100000220F4B1A70DEE70A4D2C8863001B1971
:10022000DB000749CB18985C074EB047094B98474D
:100230000020B0472C80054B9847E9E7A602002034
:1002400024030020A40200206922000051230000A2
:10025000A9020020AD24000010B5D0B00400A022F7
:10026000520004496846044B9847A4006B46E05886
:1002700050B010BDD84A00006D390000F0B5C64638
:1002800000B507283BD9082835D0092853D00A28BB
:1002900000D172E00B2800D1C6E00C282FD00D2829
:1002A00000D119E103000E3B0C2B28D91B2800D1EB
:1002B00038E103001C3B032B21D97F281FD09B4D25
:1002C0009B4C23889B4F3A8818267343EB1898540D
:1002D000994B98469847238801339BB223803A88EC
:1002E0007343ED18A85CC04723884F2B07D9013B07
:1002F0008F4A138003E08E4B1B88002B02D104BC75
:100300009046F0BD894C8B4D29885A00D318DB00EC
:10031000E318585C884EB047854A1388013B9BB26E
:10032000138029885A00D318DB00E318585CB047C3
:10033000824B9847E3E77E4C22887E4B1988530016
:100340009B18DB00794AD318585C7B4B9847208870
:100350004F2803D87A4B9847754B1880744B1A88EE
:10036000744B198853009B18DB00704AD318585CF3
:10037000714B9847714B9847C1E76E4B1A88172A03
:1003800032D06A4C6A4D29884B005B18DB00E318B9
:10039000985C694EB047674A138801339BB213805B
:1003A00029884A005218D200A418E05CB047634B79
:1003B0009847644B1B78002BA1D05E4B1A88172AF4
:1003C00021D05A4D5A4E31884B005B18DB00EB1898
:1003D000985C594CA04700233380564B1B88E85C3F
:1003E000A047564B98478AE7514B1A8853009B18F1
:1003F000DB004E4AD318D87D4F4B9847524B984755
:100400004E4B9847D5E74A4D2A8853009B18DB008E
:10041000464AD318D87D484CA04700232B800020A3
:10042000A047464B98476AE7424B1A88172A33D0B1
:100430003E4C3F4D29884B005B18DB00E318985C6D
:100440003D4EB0473B4A138801339BB21380298845
:100450004A005218D200A418E05CB047374B9847C6
:10046000384B1B78002B00D149E7324B1A88172AEA
:1004700021D02E4D2E4E31884B005B18DB00EB183F
:10048000985C2D4CA047002333802A4B1B88E85CE6
:10049000A0472A4B984732E7254B1A8853009B18F0
:1004A000DB00224AD318D87D234B9847264B984728
:1004B000224B9847D4E71E4D2A8853009B18DB0037
:1004C0001A4AD318D87D1C4CA04700232B8000204B
:1004D000A0471A4B984712E7164B1A88172A12D0D2
:1004E000124D134E31884B005B18DB00EB18985C03
:1004F000114CA047002333800E4B1B88E85CA047BB
:100500000E4B9847FBE60A4C228853009B18DB00F1
:10051000064AD318D87D084B984700232380074B01
:100520009847ECE60122094B1A70E8E62403002004
:10053000A4020020A602002069220000512300002E
:100540005902000058010020AD240000A90200203B
:1005500010B5064B1B78002B02D0012B03D010BD29
:10056000034B9847FBE7034B9847F8E7A9020020A5
:100570007D020000D1010000F0B5C1B00700D0221B
:100580002D490CA82D4B984705A82D4B1A00503229
:10059000010031CA31C131CA31C112680A606C33FD
:1005A0006A4613CB13C203CB03C20CAC40AE254D3D
:1005B000E3885B109633A28852102D32FF32618897
:1005C00049109631208840102D30FF30A84708345C
:1005D000B442EDD1002F03D0012F17D041B0F0BDB0
:1005E00005AC0CAE174DE3785B109633A278521031
:1005F0002D32FF32617849109631207840102D302D
:10060000FF30A8470434A642EDD1E7E76C4605AEBB
:100610000C4DE3785B109633A27852102D32FF32E6
:10062000617849109631207840102D30FF30A8476E
:100630000434B442EDD1D1E7184C00006D3900000C
:10064000984C0000C12D000070B5494C494B236007
:10065000494B6360494BA360494BE360494B2361BD
:10066000494B6361494BA361494BE361494B2362A9
:10067000494B6362494BA362494BE362494B236395
:10068000494B6363494BA363494BE363494B236481
:10069000494B6364494BA364494BE364494B23656D
:1006A000494B6365494BA365494BE365494B236659
:1006B000494B6366494BA366494BE366494B236745
:1006C000494B6367494BA367494BE367494A80231A
:1006D000E250494B9847C317DB0EC2181F20104049
:1006E000C01A80000459454B9847FF22FF21FF2084
:1006F000434B984780221206424B1A60424BDF223E
:10070000995C042001439954995C02200143995457
:100710003F3A9B58002B26DB00203C4B984720009B
:100720003B4B98473B4E40082823181A30803A4DDF
:1007300010232B802000394B9847FA20C000384BFB
:1007400098472E4B9847374B98470022FF210020AF
:100750002B4B9847002200210020334B9847002361
:1007600033802B8070BD0120284B9847D7E7C046C7
:10077000E4010020184D0000384D00004C4D0000F1
:10078000644D0000744D00007C4D0000A44D00003D
:10079000D04D0000F84D0000244E0000304E000007
:1007A000484E0000684E0000884E0000AC4E00002D
:1007B000BC4E0000C84E0000E44E0000044F000094
:1007C0000C4F0000204F00003C4F00004C4F000039
:1007D000704F00009C4F0000C84F0000DC4F00002D
:1007E000FC4F0000105000002C5000003C50000056
:1007F0006050000080500000993B0000912E0000E6
:10080000852C00008C440041004400417905000023
:10081000A13D0000A4020020A602002069250000DE
:10082000C1080000B1250000AD2C0000F0B583B078
:100830000B4E0C4D370008E06B46DC1D210038687C
:10084000094B98472078094B98473068A8470028FB
:10085000F2D0034B1868064B984703B0F0BDC04672
:10086000C00200207D01000095010000510500003C
:100870003501000010B5014B984710BD153B000035
:1008800070B50020084B98470500084CFA218900F4
:10089000A047074B186007492800A047064B18607F
:1008A0000522064B1A6070BD411E0000D1350000C4
:1008B0000000002040420F000400002010E000E093
:1008C00030B5084B1C68084A0025802149020138D0
:1008D00007D3002CFBD05460956013680B42FCD00A
:1008E000F5E730BD0000002010E000E00C4B1B6875
:1008F000002B06D1EFF31083002B07D00022094B09
:100900001A70074A136801331360704772B6BFF359
:100910005F8F0022044B1A700132024B1A70F0E70D
:10092000640200206802002008000020084B1A68BA
:10093000013A1A601B68002B09D1064B1B78002B6B
:1009400005D00122044B1A70BFF35F8F62B6704767
:10095000640200206802002008000020F0B583B087
:1009600001AC012565700027A770257021003E208D
:10097000064EB0478022D205054B9A6127706570FC
:1009800021000F20B04703B0F0BDC046C50E0000E7
:100990008044004110B50022002302704270002103
:1009A0004280017103760262C2618260C0246401E8
:1009B000C481037443748374C37403752A24035578
:1009C00043758375063C0355C2840285C1752B238C
:1009D000C1540133C15410BDF0B5D6464F4646460A
:1009E000C0B596B0070016000160C64A106A8023A1
:1009F0005B02034313620B780520DB0705D516B0B5
:100A00001CBC90469946A246F0BD0B7817309B0758
:100A1000F5D473783B71002B04D1BB4A136C0421CD
:100A20000B4313640023BB60FB603B61BB76FB762A
:100A30003B833B77B54B1F602A23F35C002B05D12A
:100A4000337D002B02D101337B7701E000237B77DC
:100A50003B68984633786A46137069461E20AC4B53
:100A600098471E20AB4B98472C23F25C002A54D0A9
:100A7000013BF55C337BEB18DBB2D118C9B28B427A
:100A800021D25219D3B29946A34B9A4603E00135BD
:100A9000EDB24D4517D00F242C40337BE418502283
:100AA0009E4902A8D047132CF1D8A40002ABE0580D
:100AB00001A900234B70CB708B7001330B70C0B257
:100AC000974B9847E3E7F4895022944902A8924B48
:100AD0009847132C13D9737D9B00DBB242461370E9
:100AE000B37DDB0172781343DBB242465370337936
:100AF000342B00D97BE19B008A4AD3589F46A4003F
:100B000002ABE05801A900234B70CB708B7001330E
:100B10000B70C0B2824B9847DDE7347B50227F498F
:100B200002A87D4B9847132C15D9F48950227B4994
:100B300002A8794B9847132CCDD8A40002ABE058FB
:100B400001A900234B70CB708B7001330B70C0B2C6
:100B5000734B9847BFE7A40002ABE05801A90023FC
:100B60004B70CB708B7001330B70C0B26C4B9847DD
:100B7000DBE70423102402211AE0717C337C10246B
:100B800016E006231024012112E00823102400217E
:100B90000EE00023302400210AE00023202400215D
:100BA00006E000230024002102E00223102401219A
:100BB000090170220A40134342469370F37D1720C7
:100BC0003F2B00D91BE7D3703A68537E5BB2002BF2
:100BD000FBDBF37C728813432422B25CD200134304
:100BE000327D92001343B27C5200134323434246AA
:100BF0009380337E002B20D0102C00D1D9E000D878
:100C000098E0202C00D1B6E0302C16D1F27C002ADE
:100C10000AD0F26980321720FF2A00D9EFE6326A43
:100C20008032FF2A00D9EAE61720F269FF2A00DDA8
:100C3000E5E6326AFF2A00DDE1E639684A7E52B213
:100C4000002AFBDB424613723A68537E5BB2002BEC
:100C5000FBDBB38B424693833A68537E5BB2002B37
:100C6000FBDB338C424613842C23F35C002B05D032
:100C7000013BDBB217200F2B00D9C0E62B22B15C61
:100C800017200F2900D9BAE63868427E52B2002AEE
:100C9000FBDBF289307B0243B068024309050A435B
:100CA0001B041343424613612A23F35C13750F237D
:100CB00093751533F35C002B12D0F38C1A4A17206E
:100CC000934200D99BE642469384328D80231B01D8
:100CD000D31815499BB28B4200D990E64346DA847B
:100CE000124B1B685B01E022D2001340104A51688E
:100CF00049011268D20E0A43D2B213434246138509
:100D000000207CE60004004000080040C4020020EF
:100D1000591F0000CD1E00006D3900007451000005
:100D200051200000A0500000FF0F00002460800050
:100D300020608000002C00D07FE7F27C002A0FD0DA
:100D4000F269802109018C4662442A4917208A42AF
:100D500000D954E6326A624426498A4200D94EE6F6
:100D6000244A1720F169914200DD48E6316A914238
:100D700000DD44E661E7F27C002A0FD0F2698021B1
:100D800089008C4662441C4917208A4200D936E605
:100D9000326A624418498A4200D930E6164A17205E
:100DA000F169914200DD2AE6316A914200DD26E6D2
:100DB00043E7F27C002A0FD0F269802109028C46B9
:100DC00062440E4917208A4200D918E6326A62440A
:100DD0000A498A4200D912E6084A1720F16991426D
:100DE00000DD0CE6316A914200DD08E625E71720B8
:100DF00005E6C046FF0F0000FF030000FFFF0000F4
:100E000070B52F4B1D682B681A7EDC7D1440E207FD
:100E100016D4630708D504232A681376EB7E9B0754
:100E200002D5AB7E9B0742D4A30708D502232A68CC
:100E30001376EB7E5B0702D5AB7E5B073BD470BDC0
:100E400001221A762A68537E5BB2002BFBDB6969AC
:100E50008B1C6B61538B9BB20B802B8B013B9BB22A
:100E60002B83002B11D06B7F002BD2D02A68537EAE
:100E70005BB2002BFBDB137B02210B4313732A684D
:100E8000537E5BB2002BFBDBC3E701232A6893751B
:100E90002B7F052BBDD100232B77EB7EDB07B8D54D
:100EA000AB7EDB07B5D52800AB689847B1E72800D3
:100EB000EB689847B8E72B6928009847BFE7C0461A
:100EC000C402002000B583B001AB80221A700A78FA
:100ED0005A704A789A708A78DA701900014B9847EC
:100EE00003B000BD51200000F0B5DE4657464E4627
:100EF0004546E0B587B08046049116001F000022E9
:100F0000002300218B463F240120210000960197F9
:100F10005C4603944446059413E02024641A0500BB
:100F2000E540A84614E0009C019D121BAB415C46C5
:100F30004D462C43A346039C45462C43039401395C
:100F400025D3202464420C19E7D40500A540A84607
:100F500004008C40A14692185B4114001D00059EC0
:100F60004F463E40B446049E47463E40B246664623
:100F700057463E4303D00600264332002B00009C18
:100F8000019D9D42DBD8CED19442D8D8CBE7039BBC
:100F90005846190007B03CBC90469946A246AB465D
:100FA000F0BD10B5490840230024814202D2180048
:100FB00010BD1C00091A631C9BB28842F9D940235A
:100FC000FF2CF4D814800023F1E70000F0B583B0C3
:100FD0000F00160008AA117804004C434022BC42BE
:100FE00002D9100003B0F0BD002B14D1020008009C
:100FF0000021194CA04701003A0000230020174CA3
:10100000A04700220123121A8B41120C1B041A4321
:1010100032800022E5E70022012BF9D10A000023EB
:1010200000210D4CA04702000B00009201933800F4
:1010300000210A4CA047050080239B0140229842D2
:10104000CFD8790FF800009A019BA047EA00821AD6
:10105000D2B252032A43DBE7BD380000E90E00009C
:1010600010B582B004000E4B1B78002B07D000296E
:1010700005D10B4B5B78834210D01D200CE001A9F9
:101080000C701320074B98471320074B9847044BCD
:101090005C7001221A70002002B010BD0020FBE736
:1010A0006C020020591F0000CD1E0000404B9842EA
:1010B00031D00AD93F4B98424DD03F4B98425AD03D
:1010C0003E4B984237D0002070473D4B98420CD0A1
:1010D0003C4B9842F7D1012917D000295DD0022955
:1010E00015D0032915D00020EEE7012907D00029EB
:1010F00051D0022905D0032905D00020E4E7324869
:10110000E2E73248E0E73248DEE73248DCE73248DF
:10111000DAE73248D8E7012907D000293FD0022971
:1011200005D0032905D00020CEE72D48CCE72D4877
:10113000CAE72D48C8E7012907D0002931D0022984
:1011400005D0032905D00020BEE72848BCE7284881
:10115000BAE72848B8E7012907D0002923D0022997
:1011600005D0032905D00020AEE72348ACE723488B
:10117000AAE72348A8E7012907D0002915D00229AA
:1011800005D0032905D000209EE71E489CE71E4895
:101190009AE71E4898E71E4896E7032094E71D4803
:1011A00092E71D4890E71D488EE71D488CE7C04632
:1011B0000010004200180042001C004200140042CF
:1011C00000080042000C0042030005000300060076
:1011D000030007000300010003001E0003001F00BE
:1011E0000300090003000A0003000B0003001100C4
:1011F000030012000300130003000D0003000E00A3
:1012000003000F000300170003001800030019007B
:1012100003000400030008000300100003000C009A
:101220000300160030B587B00B4B6A4632CB32C292
:1012300032CB32C2009B83420BD001239A00694615
:101240005258824206D00133062BF7D1002007B056
:1012500030BD0023D8B2FAE7C45100007047000047
:10126000F0B50A4B1B78002B0CD1094F094E0A4DE3
:101270000024DE515A1914600433182BF9D10122CD
:10128000024B1A708000024BC150F0BD6E0200206C
:10129000700200205D120000C802002000B583B07B
:1012A00009236A461370013353700133937001337D
:1012B000D3700133137101335371034B98476B465D
:1012C000185603B000BDC0462512000010B5024BF1
:1012D0001B680020984710BD7002002010B5024B1B
:1012E0005B680120984710BD7002002010B5024BCA
:1012F0009B680220984710BD7002002010B5024B79
:10130000DB680320984710BD7002002010B5024B27
:101310001B690420984710BD7002002010B5024BD5
:101320005B690520984710BD70020020F0B5DE46CD
:1013300057464E464546E0B591B005000C001600F4
:1013400029600800BA4B9847020023680520DB0794
:1013500006D511B03CBC90469946A246AB46F0BDBE
:10136000236817309B07F4D4B249086A971C0123FD
:10137000BB4003430B620FA92D27F35D0B701432A2
:10138000D3B202931800AC4B98470298AB4B9847E6
:10139000F05D0021AA4B9847F37A6B712423F35C2C
:1013A000AB712523F35CEB71F37E2B72337F6B7291
:1013B0002B68984618009E4B9847143000220E2345
:1013C00006A98C4663441A80328A02928023DB018C
:1013D0009A4200D19AE00FD9C023DB01029A9A42C7
:1013E00000D18EE080231B029A4200D01BE1032330
:1013F00006930023079308E080239B019A4200D0C4
:1014000011E1102306930F3B079333680593F368AC
:101410009B4673690393337E04932623F35C9A46B9
:1014200073689946002B00D19CE080235B059945A9
:1014300000D180E0737E002B02D0B37E42469373CE
:101440000E2306AA944663441B8842469381059B5B
:101450005A461343039A13434A461343029F1F43BA
:10146000049B1B021F4353465B071F432723F35C68
:10147000002B01D104331F43737E9B02327F520243
:101480001343727F120213432422B25C52041343AB
:101490002522B25C12041343B17AF27A1143194344
:1014A0003389FF2B00D181E0802252041743194376
:1014B0002C23F35C002B03D1624B9B789B0701D557
:1014C00080231F432A68D369002BFCD1434659600F
:1014D0002A68D369002BFCD143461F600EAB8022E3
:1014E0001A7000225A70DA709A70336B0A93736B19
:1014F0000B93B36B0C93F36B02930D9300270AAE1F
:1015000063E008230693073B07937EE73368059360
:10151000F3689B4673690393337E04932623F35C3D
:101520009A4673689946002B18D080235B0599452D
:1015300001D0002025E02723F35C002B00D079E7C1
:10154000336A1F00C0B2404B984701000E2206AB21
:101550009C46624438003D4B984712E008230693AE
:10156000002307932723F35C002B0ED0069B0093E8
:10157000079B0E2206A98C466244B16A306A344F3A
:10158000B847002800D0E4E654E7336A1F00C0B231
:101590002D4B98470100069B0093079B0E2206A83F
:1015A0008446624438002A4FB847EAE7F37E002BAE
:1015B00000D17DE78023DB041F4379E72000254B22
:1015C000984707E00137042F0DD0F9B2BB009859B6
:1015D0000028F3D0431CF5D00EA90870000CC0B24F
:1015E0001D4B9847EEE70023EB602B616B61AB610D
:1015F000EB612B62AB626B620022EB85AB85303313
:10160000EA540133EA540133EA540133EA542868B6
:10161000074B984704001149114B9847A400114B00
:10162000E550002095E61023069300230793ECE68F
:101630002512000000040040591F0000CD1E0000CC
:101640006110000000200041751F0000A30F000082
:10165000CD0F0000AD1000005120000081170000E8
:1016600061120000C8020020C2791C23002A01D1A7
:1016700018007047C28D92B2173B002AF8D1026859
:1016800011850221137E0B42FCD00023F0E7827902
:101690001C23002A01D118007047828D92B2173B9B
:1016A000002AF8D10268107E4007F4D5538BDBB2D4
:1016B00098061DD0980703D5022353831833EAE711
:1016C000580703D5042353831A33E4E7D80703D517
:1016D000012353831233DEE7D80603D51023538347
:1016E0003233D8E79B0603D5202353832133D2E737
:1016F000138D0B800023CEE7F8B504000D00160013
:1017000007680F4B9847A38D9BB2002B03D00D4B5E
:1017100098470520F8BDA6850A4B984765620522C3
:101720003223E2542E3BBB75237A002B01D02023B9
:10173000BB75637A0020002BECD00823BB75E9E76A
:10174000ED0800002D090000931C9B00C318596090
:101750003021012393401A00435C134343547047E4
:1017600010B51723002A01D1180010BD8479053364
:10177000002CF9D0014B98470300F5E7F91600005B
:10178000F8B58000624BC5582C68E369002BFCD18A
:10179000237EA67D1E403023EB5C3122AF5C1F40D0
:1017A000F30722D5EB8D9BB2002B1CD0AA6A1378CD
:1017B000DBB2511CA962697901290ED09BB2DB050D
:1017C000DB0D2385EB8D013B9BB2EB85002B0CD110
:1017D000013323750133A37507E0517809020B43E8
:1017E0000232AA62EBE701232375B30706D5022371
:1017F000237500223133EA54FB071AD4730765D5E9
:10180000AB8D9BB2002B5FD0638BDBB21A0714D475
:101810003F221340002B34D09A0711D51A223223CD
:10182000EA54303B63837B0750D528006B699847A7
:101830004CE02800EB689847E0E737221340E9E7DF
:101840005A0705D51E223223EA542E3B6383EAE76A
:10185000DA0705D513223223EA54313B6383E2E7EA
:10186000DA0605D542223223EA54223B6383DAE7C3
:1018700020221A42D7D021323223EA54123B63830A
:10188000D1E7238DDB05DB0DDAB2696A0A706A6A7B
:10189000511C69626979012910D0AB8D013B9BB263
:1018A000AB85002B12D10433237500222E33EA546A
:1018B000BB070BD528002B69984707E01B0A53701C
:1018C0006B6A01336B62E8E704232375F30604D5E2
:1018D000102323752376FB060ED4B30604D52023EC
:1018E000237523763B070BD4330704D508232375D0
:1018F0002376BB0608D4F8BD2800EB699847ECE7CF
:101900002800AB699847EFE72B6A28009847F2E771
:10191000C802002010B5082803D880001C4B1B58B3
:101920009F46002032E01B4B18692FE01A4B1B6AC0
:101930009B059B0F1948D84028E0164B586925E0B5
:10194000144B1B6800209B0720D513491022CB683D
:101950001A42FCD00F4B1A6824231340042B01D0E9
:101960000F4813E000200F4B98470A4B9B681B045D
:101970001B0C58430AE05023074AD35C00205B0746
:1019800004D5044BD86801E08020000210BDC04699
:10199000DC510000880200200008004000127A009C
:1019A000006CDC02751F000070B50C490B6A0478EE
:1019B000857840780122104080014026B3430343DC
:1019C0002A40D20180208343134303222240120283
:1019D0000348034013430B6270BDC046000800403B
:1019E000FFFCFFFFF0B5DE4657464E464546E0B5E4
:1019F0000100264B9B469B8A457800784242424133
:101A000091468878CA7894460A7990464E7B0F7B37
:101A10008C7B8A681E494A6101214A4692009146A0
:101A2000042293434A46134342460A40D20090465A
:101A3000082293434246134362460A4012019446E9
:101A400010229343624613430840400120229343EF
:101A500003430F40BF01402083433B430E40F60148
:101A6000403083433343793805402D020948034011
:101A70002B4321400903084803400B435A469382F5
:101A80003CBC90469946A246AB46F0BD00080040DB
:101A900088020020FFF8FFFFFFEFFFFF10B5037A79
:101AA0009B061B0C42899205920D134318494B600B
:101AB0008379C2791343428884882243134342784E
:101AC000D20113430B600378042B11D0202B0ED1CD
:101AD000037B9B06028A1343C28912040D490A4004
:101AE00013430B4A936011680B4B0B43136010BDFB
:101AF000037B9B06028A1343C289120405490A40EC
:101B00001343034A9360136804210B431360EEE709
:101B1000880200200000FF0324040000082803D8E6
:101B20008000254B1B589F46172044E0234A136A28
:101B300002210B43136200203DE0204A93690221F9
:101B40000B439361002036E01C4A138A02210B43A9
:101B5000138200202FE0194A938A02210B439382BB
:101B6000002028E016490B68022213430B60134B38
:101B70009A8419000E32CB681A42FCD0104A916840
:101B80000E4BD96252689A6200229A841900103270
:101B9000CB681A42FCD00A4B1B689BB2074A93845D
:101BA000002008E0054944228B5C022003438B544B
:101BB000002000E0002070470052000000080040B4
:101BC00088020020F0B58FB0C222D200474B9A6045
:101BD00047494B681E2293431C3A13434B6001ABA9
:101BE0001A700024434DE0B201A9A8470134252C06
:101BF000F9D10AA800230370837080221202826048
:101C0000C370012202710373837305324270437300
:101C1000394B98470520394B984734490222CB6805
:101C20001A42FCD0314A938A80210B43938205AB40
:101C300000210022598099809A71DA713F315981CF
:101C40003B3919705A702E4B1B689B0E3F2B4BD0A3
:101C500005A80372B723DB0003820723037338331D
:101C6000C381284B984704A800254570012686703B
:101C70000570254B98470620204FB847234B9847BF
:101C800001AC0296657025726572052323702100F0
:101C900001201F4B984701201E4B984726702100BA
:101CA0000020144B984700201B4B98470720B8474B
:101CB0000E49D022CB681340D02BFBD1174A00230A
:101CC000137253729372D37201A901224A604B704E
:101CD0000B724B7207330B7000200D4B984700209E
:101CE0000C4B98470FB0F0BD203BB1E70008004017
:101CF00000400041591F0000E51900001D1B0000B5
:101D0000246080009D1A0000A9190000211D000018
:101D1000451D0000FD1D0000CD1E00000004004018
:101D2000064A936908210B4393610122044B1A7000
:101D300019000B781342FCD17047C04600040040E4
:101D4000000C004070B5060004000D782D0205431C
:101D50004B78002B02D08023DB021D434B7A002BF3
:101D600002D080231B031D434868012810D9431E5D
:101D7000184234D1022830D90223002201325B00FC
:101D80009842FBD812023243140080235B031D43A8
:101D90000B7A002B02D080239B031D43134A5378F8
:101DA0005BB2002BFBDB124B9847124B1E700F4AA5
:101DB00053785BB2002BFBDB0C4B9C601A00537812
:101DC0005BB2002BFBDB094A5368802149020B40C0
:101DD0001D435560084B984770BD0022D2E70402AE
:101DE000344380239B021D43D2E7C046000C0040D1
:101DF000ED080000080C00402D09000010B504009B
:101E00000B4A53785BB2002BFBDB0A4B98470A4B1B
:101E10001C70074A53785BB2002BFBDB044A516805
:101E200080235B020B435360044B984710BDC046B0
:101E3000000C0040ED080000040C00402D090000DB
:101E400070B504001A4A53785BB2002BFBDB194BC8
:101E50009847194B1C70164A53785BB2002BFBDB7A
:101E6000134E7068C004C00E144B98470500124B07
:101E70001C707668F602F60F114B1C700C4A5378F2
:101E80005BB2002BFBDB0A4B9C682402240C0D4B3D
:101E90009847002E07D1012C07D9210028000A4BB2
:101EA0009847050001E00134E540280070BDC046B8
:101EB000000C0040ED080000040C00401519000063
:101EC000080C00402D090000D135000010B50400B9
:101ED000064B9847064B1C70064A53888021C9015F
:101EE0000B435380044B984710BDC046ED080000DB
:101EF000020C0040000C00402D09000010B5040049
:101F00000F4B98470F4B1C700F4A53881B05180F37
:101F100053880E490B40538053880D490B40538022
:101F200011008022D2014B881342FCD106494A8815
:101F300003020648024013434B80064B984710BDEE
:101F4000ED080000020C0040000C0040FFF0FFFF15
:101F5000FFBFFFFF2D09000010B50C7824020443D9
:101F6000024B9847A4B2024B5C8010BDFD1E0000DE
:101F7000000C004010B50400064B9847064B1C703F
:101F8000064B5C882405240F054B98472000054B21
:101F9000984710BDED080000020C0040000C004006
:101FA0002D090000411E000030B5D378002B35D13B
:101FB0001378802B29D01B06802464022343547895
:101FC0000225AC4306D19478002C20D18024A402B1
:101FD000234341605478013C012C1CD90D042D0C85
:101FE000A024E4052C431C4384620D0CD024240659
:101FF0002C431C438462D478002C22D15B031CD573
:102000009378012B1ED0416117E00023D7E7C0244D
:10201000E4022343DDE70D4C2340DFE741600C047D
:10202000240CA023DB05234383620C0CD0231B0666
:1020300023438362D378002B03D15378013B012BD8
:1020400002D930BD8161F8E78160FAE7FFFFFBFF4D
:1020500010B50A00C1090023002904D14309DB019E
:1020600005498C4663441F2420400121814018000B
:10207000024B984710BDC04600440041A91F000014
:102080007047000010B5054B9847054B9847054B26
:102090009847054B9847054B984710BDC51B000056
:1020A0005D090000812000008120000081200000E7
:1020B000FEE70000F8B52A4A2A4B9A4211D01A00CE
:1020C000294B9A420DD2294A03339B1A9B080133AC
:1020D0009B000022234822498C58845004329A42A3
:1020E000FAD1234A234B9A420AD2D34321495B189F
:1020F00003218B4304339B18002102C29342FCD17D
:102100001D4AFF211D4B8B439360FD3990235B00DB
:102110001B4AD1501B4AD3780325AB4302242343E7
:10212000D370D3780C27BB4308263343D370164BA8
:10213000987B30229043202210439873997BB943B7
:10214000314399739A7BAA4322439A730F4A536887
:1021500080210B4353600E4B98470E4B9847FEE788
:10216000A86E000000000020C8010020040000202C
:10217000C8010020D40A002000ED00E000000000AB
:102180000070004100500041004800410040004103
:10219000113900001D350000F0B5C64600B50C0031
:1021A000904600280FD1002A11DD8F18094E0A4DE4
:1021B000306821002B6898470134BC42F8D1404672
:1021C00004BC9046F0BD01235B429846F7E7804689
:1021D000F5E7C046E8020020E0020020F0B5C64660
:1021E00000B50E0015000138022810D8002A11D0C1
:1021F00000240C4B98460C4F43461868315D3B68F1
:102200009847002808DB0134A542F5D106E00124F7
:10221000644203E0140001E001246442200004BC95
:102220009046F0BDE8020020E40200200300064AC8
:102230001268002A04D0044A1068C318136070475B
:102240000249014A1160F6E7A0020020D82A0020C6
:1022500001204042704780239B014B600020704763
:102260000120704700207047F0B5D6464F464646DD
:10227000C0B504002A4B1B882A4A15885A00D21878
:10228000D2002948821854558021C903274A116079
:1022900098001B185B0098B21421694389B20B00A7
:1022A00013339BB20200093292B2214DA847214A52
:1022B000A5002D19AB00ED1855190134A3001C1908
:1022C000A300E4189246A2441B4B99461B4B984628
:1022D0001B4F1C4E19E04B461888000243461B88D2
:1022E000184380B2B847013C0CD32B782341DB075D
:1022F000F1D530880002144B1B88184380B2104B74
:102300009847F0E70135554501D00724EDE78022D5
:10231000D2030E4B1A601CBC90469946A246F0BDF3
:10232000A4020020A60200202403002094440041BF
:10233000492D000024520000AA0A0020A40A00200F
:10234000812E0000A60A0020A80A0020984400411F
:10235000F0B5D6464F464646C0B5474B1B88474A60
:1023600015885A00D218D20045488218545D98004A
:102370001B185B0098B21421694389B20B00133318
:102380009BB20200093292B23E4DA8478022D2038E
:102390003D4B1A603D4B1B78002B13D13C4AA500E6
:1023A0002D19AB00ED1855190134A3001C19A30019
:1023B000E4189246A244374B9946374B9846374F1C
:1023C000374E49E0324AA5002D19AB00ED185519DA
:1023D0000134A3001C19A300E4189246A244304B18
:1023E0009946304B98462D4F2A4E19E04B46188897
:1023F000000243461B88184380B2B847013C0CD307
:102400002B782341DB07F1D530880002224B1B8853
:10241000184380B2214B9847F0E7013555451DD050
:102420000724EDE74B461888000243461B881843F3
:1024300080B2B847013C0CD32B782341DB07F1D5A0
:1024400030880002174B1B88184380B2134B984703
:10245000F0E70135554501D00724EDE78022D2038E
:10246000114B1A60094A137801214B4013701CBCB0
:1024700090469946A246F0BDA4020020A602002084
:1024800024030020492D0000944400411000002046
:1024900024520000AA0A0020A40A0020812E000075
:1024A000A60A0020A80A002098440041F0B5DE46A4
:1024B00057464E464546E0B583B0244B1B889B46A5
:1024C000234B1B8801930122224B1A70224B984701
:1024D000224804001834F023DB00C11803005A78A6
:1024E0001A7018338B42FAD10130A042F3D11C4B41
:1024F000F022D200991820221A7018338B42FBD197
:102500000026164B9A46114B9946114B9846534656
:10251000F5180024134F4B461C8043461E80287834
:10252000B84701341835502CF5D10136182EEED1AC
:10253000064B5A461A80064B6A4692881A8003B0A8
:102540003CBC90469946A246AB46F0BDA402002092
:10255000A6020020100000205123000024030020C8
:102560003B03002069220000F0B5C64600B5050017
:102570000C4B9847002811DD2C002D180A4F0B4EEC
:10258000B04602E00134AC4208D02078B847338826
:10259000502BF7D8013342461380F3E704BC904632
:1025A000F0BDC046A13D000069220000A402002049
:1025B000084BF022D2009818002102E0130090424C
:1025C00006D01A001832197001339342FBD1F5E797
:1025D0007047C0462403002070B5232806D02D285C
:1025E00021D037283CD0412857D070BD394B1B88AB
:1025F000002BFAD0384C394D29885A00D318DB000B
:10260000E318585C364EB047324A1388013B9BB200
:10261000138029885A00D318DB00E318585CB047B0
:10262000304B9847E1E72D4B1A88162ADDD82A4C03
:10263000284D29884B005B18DB00E318985C284E76
:10264000B047264A138801339BB2138029884A0079
:102650005218D200A418E05CB047224B9847C4E758
:102660001E4B1A88002AC0D01B4C1A4D29884B00DB
:102670005B18DB00E318985C194EB047174A1388C3
:10268000013B9BB2138029884A005218D200A4183B
:10269000E05CB047134B9847A7E70E4B1A884E2AC9
:1026A000A3D80D4C0D4D298853009B18DB00E3186F
:1026B000585C0B4EB047074A138801339BB2138016
:1026C00029885A00D318DB00E318585CB047054B43
:1026D00098478AE7A402002024030020A6020020D5
:1026E0006922000051230000094B1B6898420BD05F
:1026F000074A131D1932FF321968814206D004338C
:102700009342F9D1002002E0012000E0012070474F
:102710003C000020094B1B7898420AD007494B1C0B
:1027200014311A78824206D001338B42F9D100204D
:1027300070470120FCE70120FAE7C04614000020A2
:10274000F0B5D6464F464646C0B5CCB0B44D46224D
:1027500029003AA8B34CA04729004831462228A8AE
:10276000A047B14D29001031462216A8A0472900E4
:102770005831462204A8A047AC4F3C0014343D0019
:10278000002303930293012204E0162911D001359E
:10279000A54210D029780B000D3B5E425E41B44645
:1027A000080031384342434160461843EDD002905F
:1027B000EBE70392EBE79E4E3C009E4B9A460BE004
:1027C0001B309D4B98479D4B1B78002B4AD1013401
:1027D0000136AC4200D118E10194237898461800E4
:1027E000D0470028F3D1434633704346002BE7D04F
:1027F0004346012BEBD0432B3AD043463A2B3FD0F4
:1028000043460C2B78D04346032B7BD04346232BE7
:102810007ED043462D2B00D18CE04346372B00D190
:102820009AE04346412B00D1A8E0039B002B00D047
:10283000B6E0834B1B78002B00D0C4E0029B002B3A
:1028400000D1D1E028AB4246985C7B4B98477B4B4C
:102850001B78002BBBD0019B1B7828AAD05C794B3E
:102860009847B4E7784B18681B21784B9847AEE738
:10287000774B1B78002BAAD000206F4B9847A6E718
:10288000744B1B68012B14D0724B1B68022B26D093
:10289000704B1B68032B9AD10D20674B9847674BF1
:1028A0001B78002B93D0684B18680D21674B984715
:1028B0008DE70D20604B984698470A20C0475F4B34
:1028C0001B78002BE0D0604B99460D2118685F4BB8
:1028D000984698474B4618680A21C047D4E70A2013
:1028E000554B9847554B1B78002BD1D0564B186849
:1028F0000A21564B9847CBE7514A137801214B40A8
:10290000137064E7544A137801214B4013705EE75B
:102910001B20494B984698475B20C0474420C0473E
:10292000464B1B78002B00D151E7019B18784B4B8D
:1029300098474CE71B20404B984698475B20C04780
:102940004220C0473D4B1B78002B00D13FE7019B45
:102950001878424B98473AE71B20374B98469847E0
:102960005B20C0474120C047344B1B78002B00D16F
:102970002DE7019B1878394B984728E71B202E4BF1
:10298000984698475B20C0474320C0472B4B1B7895
:10299000002B00D11BE7019B1878304B984716E7B6
:1029A00004AB4246985C244B9847244B1B78002B81
:1029B00000D10CE7019B1B7804AAD15C224B18685C
:1029C000224B984703E716AB4246985C1A4B984750
:1029D0001A4B1B78002B00D1F9E6019B1B7816AA35
:1029E000D05C184B9847F2E63AAB4246985C124BE3
:1029F0009847124B1B78002B00D1E8E6019B1B780F
:102A00003AAAD05C0F4B9847E1E6FF233B700137B1
:102A1000BC42FBD14CB01CBC90469946A246F0BDCE
:102A2000246B00006D390000A46B0000280000201A
:102A30001400002015270000750800006001002028
:102A4000B802002051050000C00200204101000032
:102A5000A80200205C010020BA020020D925000055
:102A600010B5074B19001431FF2402E001338B42EB
:102A700004D01A788242F9D11C70F7E710BDC04625
:102A800014000020F0B5DE4657464E464546E0B5F8
:102A900083B06D4E31001931FF313300FF2204C382
:102AA0008B42FCD1694A916A8023DB030B4393621A
:102AB000674C1C34664B674867491A68026004CB50
:102AC0000A60A342F9D10022644B9C46644F654DD5
:102AD000042402206346D3583B6053596249884618
:102AE000434419782143197019780143197004324D
:102AF000282AEFD1564B99460023984600225B4B7B
:102B00009B46524D504B9C46534B9A4601964E461F
:102B1000474615E004330131A34208D0286A1E68F5
:102B20000642F7D09000664681510132F2E7009EDE
:102B3000494609685046016004360A37462F0AD0D4
:102B4000B1465B4631681960444B98461C002834F6
:102B500039000096E2E74746019E41463D4D3E4C16
:102B60000868286001C920609942F9D10021384BDA
:102B700099463B4B98463E4B9C46042502244346CF
:102B80004846085818606346CB5837488246534435
:102B900018782843187018782043187004311C29BD
:102BA000EDD100239C46314B9B46284D264B984641
:102BB000294B9A46B1463E00674615E004310A3378
:102BC000A34208D0286A0E680642F7D09000464615
:102BD00083510132F2E7009E63461B6851460B6049
:102BE000013704360A2F09D0B4465B4631681960B4
:102BF0003B003C00463416490096E3E74E46002A67
:102C000008DD1C4B920010498A1802CE197001335E
:102C1000B242FAD10024184D184E194F02E0013487
:102C2000462C0AD02000A8470028F8D02000B04742
:102C30000028F4D12000B847F1E703B03CBC90462F
:102C40009946A246AB46F0BD3C000020004400413E
:102C5000446C000008440041144400417C6C0000B6
:102C600004440041A46C0000404400411844004169
:102C7000606C00002800002015270000E9260000F5
:102C8000612A000010B54B090724A0431843054BE7
:102C90001880C900E0231940D2080A43024B1A8069
:102CA00010BDC046A60A0020A80A002010B54B0996
:102CB0000724A0431843054B1880C900E02319409E
:102CC000D2080A43024B1A8010BDC046AA0A00204F
:102CD000A40A002070B5194C194B1C600002014376
:102CE000184B1960D3170F261E40B6183611002551
:102CF000002E0CDD124C8021890212481023216025
:102D00000160013B002BFAD10135AE42F6D1130729
:102D100013D0D3171B0FD2180F211140C91A4B1C07
:102D2000002B0ADD19000023054C80229202054881
:102D30002260026001339942FAD170BDFFFF0000AA
:102D40009444004198440041F0B583B007000091DD
:102D50001600019300212A20174CA047380A174D6E
:102D6000A84701212A20A047F8B2A84702212A201B
:102D7000A047300AA84703212A20A047F0B2A8475D
:102D800000212B20A047009E300AA84701212B20BC
:102D9000A047F0B2A84702212B20A047019E300A8D
:102DA000A84703212B20A047F0B2A84700212C20E0
:102DB000A04703B0F0BDC046ED2E00001D2F00005F
:102DC000F0B5CE46474680B583B00600894614006C
:102DD0001D00904201DD16000400A94502DD33000C
:102DE00026001C008023DB039846114B42461A60E4
:102DF000ABB2A2B249466846C180C188B0B20D4F9D
:102E0000B8470D4F80231B043B60A41B01344B4685
:102E1000EA1A01326243094B1988094B1888094B99
:102E2000984743463B6003B00CBC90469946F0BDC2
:102E300094440041492D000098440041A80A002014
:102E4000A60A0020D52C000010B5044B1B88044AAC
:102E5000128800210020034CA04710BD560100201D
:102E600054010020492D000010B58022D203024BEE
:102E70001A60024B984710BD94440041492E00004F
:102E800010B5C1B2000A014B984710BD052F0000D4
:102E900010B50023064A1380064A1380064B1B8890
:102EA000064A128800210020054CA04710BDC046EC
:102EB000A60A0020A80A0020540100205601002084
:102EC000C12D000010B5064C064B236000020143E3
:102ED000054B19608022920222601A6010BDC04624
:102EE00094440041FFFF00009844004110B5802247
:102EF0001204024B1A60024B984710BD94440041E3
:102F0000C52E000010B580221204024B1A60024B3D
:102F1000984710BD98440041C52E000010B501002F
:102F200080221204024B1A600020024B984710BD09
:102F300098440041C52E0000F0B5C64600B582B0E9
:102F4000804B814F1F608025ED051D608026F603B4
:102F50001E60802080021860802109041960802290
:102F600052021A60794C276025602660206021603B
:102F700022601A60764F3A603D600520754B984696
:102F8000984725600520C0473D60266000246F4BB0
:102F9000984680252D042F006F4E43461F60A15D8B
:102FA0006E4BE05C6E4B9847694B1D606D4BE05C6F
:102FB0006D4B98470134462CEFD1D1230193684DD6
:102FC000694F6A4C2600343600210198A8472078C2
:102FD000B8470134A642F7D1019B0133DBB201931C
:102FE000D62BEED10021F0205D4CA04755205E4D40
:102FF000A8470121F020A047AA20A8470221F020DD
:10300000A0475220A8470321F020A0470820A84746
:103010000421F020A0470020A8470021B120A047AC
:10302000CC20A8470121B120A0470020A8470021BB
:10303000B520A0475020A8470021B620A047052072
:10304000A8470021B720A0477020A8470121B7203A
:10305000A0477020A8470021B820A0470120A8471A
:103060000121B820A0470320A8470221B820A0478B
:103070000320A8470321B820A0470320A847002128
:10308000BC20A0470220A8470121BC20A047002067
:10309000A8470221BC20A0470020A8470021C92042
:1030A000A047D020A8470121C920A0470220A84757
:1030B0000221C920A0475020A8470321C920A047CA
:1030C0005020A8470421C920A0475020A84700212C
:1030D0003520A0470020A84700213A20A0475520CE
:1030E000A84700213620A047E220A8470021112050
:1030F000A0476420174EB04700212920A047642034
:10310000B04700215120A047FF20A8478022D203CA
:103110000F4B1A60164B9847002200210020154BD8
:103120009847002200210020134B9847EA23FF33E1
:10313000124A00210020124CA04702B004BC904665
:10314000F0BDC04688440041FFFF000094440041A8
:1031500098440041C1080000906D0000006D00001F
:10316000ED2E0000486D00001D2F0000CC6C00000B
:10317000692E0000852C0000AD2C00001F0300000C
:10318000C12D000010B5064C012221000548064B58
:1031900098472178054B1868054B984710BDC046E5
:1031A000AC0A0020EC02002061170000C0020020E1
:1031B0004101000070B582B005000E0000226B4690
:1031C000DA80064C6B46991D2800A0470028F9D1EB
:1031D0006B4606331B88337002B070BD8F1600003B
:1031E00070B505008CB2034E21002800B0470028BE
:1031F000FAD170BD69160000024A138801331380AA
:103200007047C046AC02002010B50E4B1868FA217A
:1032100089000D4B984701380C4B98420DD80C4A49
:1032200050600C48036A1B021B0AC02109060B43AD
:103230000362002393600733136080221206064B5B
:103240001A6010BD0C000020D1350000FFFFFF0008
:1032500010E000E000ED00E000E100E070B590B0AB
:103260008023DB05009300230193FF2269460A8136
:1032700000228B72CB7296218901089101212420B2
:103280006C4621540130215425316354013163547B
:103290000A93053163540131635405932382E37625
:1032A0002276227762761323A376627780235B03EC
:1032B00003931E4B0C931E4B0D9301235B420E9305
:1032C0000F931C4D1C4C6A461C492800A04700283F
:1032D000F9D1184C1A4B1C601A4A1B4B1A601B4A36
:1032E0001B4B1A606A4615492000134B9847194E2C
:1032F000336898680021184DA84733685868002142
:10330000A84725682800154B98471F2318401E3BE7
:103310008340134A13602268D369002BFCD12B68C9
:10332000022213432B6010B070BDC046030008009A
:1033300003000900EC0200202D13000000100042E1
:10334000E8020020E1310000E4020020B531000075
:10335000E002002064010020353C00009D120000C6
:1033600000E100E010B5064C012206492000064BA2
:1033700098473122A35C02210B43A35410BDC046E1
:10338000EC020020853100004917000010B58CB018
:103390006846164B984701236A46137080239B00AA
:1033A00053800023537018331373C0235B01D38100
:1033B0000F4C10492000104B98472268537E5BB297
:1033C000002BFBDB802109040C4B19600F23937544
:1033D0001376137802210B431370054B1A68537E42
:1033E0005BB2002BFBDB0CB010BDC04695090000A2
:1033F000B00A002000400042D909000000E100E0CE
:10340000F8B50020314B984787B2314B9847314B84
:103410009847314B19684B7E5BB2002BFBDB0B7B73
:10342000022213430B734B7E5BB2002BFBDB0124A8
:103430000426022501E014420AD10B7EDBB22200F1
:103440001A401E4200D02A431D42F4D03243F2E714
:103450004B7E5BB2002BFBDB488B80B201230B76EB
:103460000A7ED2B21340540701D5022423439207A7
:1034700001D5042213435B0701D502230B76784064
:10348000164B9847164B9847164CA047164B984733
:10349000164B98470122164B1A70BFF35F8F62B626
:1034A00014491548154B98471548164B9847164B25
:1034B0009847164B9847A0470023154A1380154A92
:1034C0001380FF20144B9847F8BDC046411E0000F2
:1034D000852000008D330000B00A00203D3B000035
:1034E00081080000093200005D32000065330000F1
:1034F00008000020AC0A0020EC0200206117000048
:10350000D86D0000E13A0000392F000049060000A4
:10351000A4020020A602002069220000F8B5204B7A
:1035200098470A201F4B98470A211F4B98471F4B6B
:1035300018601F4F1F4E204D15E0C82120001D4B65
:10354000984789B200290ED11C4B1B78002B0AD159
:103550001A4C012323701A4B98471A4B98471A4B61
:1035600098470023237030BF3C8829002000B047D3
:1035700089B20029E1D1114B1B78002BF3D10F4CFC
:1035800001332370114B984700232370084B188890
:10359000C821084B984789B20029D9D0E3E7C04633
:1035A000013400005939000015010000C00200205C
:1035B000AC020020DD360000FF3F0000AA02002020
:1035C000852A0000412700002D080000512300003B
:1035D000002243088B4274D303098B425FD3030A52
:1035E0008B4244D3030B8B4228D3030C8B420DD365
:1035F000FF22090212BA030C8B4202D312120902F3
:1036000065D0030B8B4219D300E0090AC30B8B4230
:1036100001D3CB03C01A5241830B8B4201D38B03DE
:10362000C01A5241430B8B4201D34B03C01A524183
:10363000030B8B4201D30B03C01A5241C30A8B42C6
:1036400001D3CB02C01A5241830A8B4201D38B02B1
:10365000C01A5241430A8B4201D34B02C01A524155
:10366000030A8B4201D30B02C01A5241CDD2C309C7
:103670008B4201D3CB01C01A524183098B4201D343
:103680008B01C01A524143098B4201D34B01C01A2E
:10369000524103098B4201D30B01C01A5241C308A6
:1036A0008B4201D3CB00C01A524183088B4201D315
:1036B0008B00C01A524143088B4201D34B00C01A01
:1036C0005241411A00D20146524110467047FFE76D
:1036D00001B5002000F0F0F802BDC0460029F7D087
:1036E00076E7704703460B437FD4002243088B42A2
:1036F00074D303098B425FD3030A8B4244D3030B79
:103700008B4228D3030C8B420DD3FF22090212BA3D
:10371000030C8B4202D31212090265D0030B8B42B9
:1037200019D300E0090AC30B8B4201D3CB03C01AA3
:103730005241830B8B4201D38B03C01A5241430B7E
:103740008B4201D34B03C01A5241030B8B4201D36E
:103750000B03C01A5241C30A8B4201D3CB02C01AD9
:103760005241830A8B4201D38B02C01A5241430A51
:103770008B4201D34B02C01A5241030A8B4201D340
:103780000B02C01A5241CDD2C3098B4201D3CB01E7
:10379000C01A524183098B4201D38B01C01A524196
:1037A00043098B4201D34B01C01A524103098B429A
:1037B00001D30B01C01A5241C3088B4201D3CB0085
:1037C000C01A524183088B4201D38B00C01A524168
:1037D00043088B4201D34B00C01A5241411A00D218
:1037E00001465241104670475DE0CA0F00D0494281
:1037F000031000D34042534000229C4603098B42F1
:103800002DD3030A8B4212D3FC22890112BA030A78
:103810008B420CD3890192118B4208D389019211FA
:103820008B4204D389013AD0921100E08909C3097F
:103830008B4201D3CB01C01A524183098B4201D381
:103840008B01C01A524143098B4201D34B01C01A6C
:10385000524103098B4201D30B01C01A5241C308E4
:103860008B4201D3CB00C01A524183088B4201D353
:103870008B00C01A5241D9D243088B4201D34B006E
:10388000C01A5241411A00D20146634652415B10B0
:10389000104601D34042002B00D549427047634691
:1038A0005B1000D3404201B5002000F005F802BDD6
:1038B0000029F8D016E770477047C046F0B5CE46ED
:1038C000474615042D0C2E0080B50704140C3F0C40
:1038D0009946030C7E435D43674363437F19340C71
:1038E000E4199C46A54203D980235B029846C44450
:1038F0004B46514343433604360C250C240465449F
:10390000A4195918491920000CBC90469946F0BDDD
:1039100070B500260C4D0D4C641BA410A64209D1B5
:10392000002603F0B1FA0A4D0A4C641BA410A6420B
:1039300005D170BDB300EB5898470136EEE7B300F0
:10394000EB5898470136F2E7946E0000946E000041
:10395000946E0000986E000010B5034B01001868CB
:1039600000F060F810BDC04664010020002310B5CF
:103970009A4200D110BDCC5CC4540133F8E7030077
:103980008218934200D1704719700133F9E70000A3
:1039900070B50500002910D00C1F2368002B00DA39
:1039A000E418280000F0FEFB1D4A1368002B05D127
:1039B00063601460280000F0F6FB70BDA34209D9D3
:1039C000216860188342F3D118685B684118216050
:1039D000EEE713005A68002A01D0A242F9D919680B
:1039E0005818A0420BD12068091858181960824253
:1039F000E0D110685268411819605A60DAE7A042B5
:103A000002D90C232B60D5E721686018824203D1CC
:103A1000106852684118216062605C60CAE7C04665
:103A2000B0020020032370B5CD1C9D43083506006D
:103A30000C2D1ED20C25A9421DD8300000F0B2FB7F
:103A4000254A14682100002919D1244C2368002B31
:103A500003D1300000F0DCF820602900300000F0D5
:103A6000D7F8431C2CD10C233000336000F09BFBB3
:103A700003E0002DDFDA0C233360002070BD0B68FB
:103A80005B1B1AD40B2B03D90B60CC18256003E009
:103A90008C420ED163681360300000F084FB20007C
:103AA00007220B30231D9043C31AE7D05A42E2503D
:103AB000E4E74B6863600C00EEE70C004968C2E77E
:103AC0000323C41C9C43A042E0D0211A300000F024
:103AD0009FF8431CDAD1C6E7B0020020B4020020F0
:103AE0000FB40B4B13B51C68002C05D0A369002B39
:103AF00002D1200000F054FA05AB049AA16820001E
:103B0000019300F079FB16BC08BC04B01847C0460E
:103B100064010020084B70B51C680500002C05D01E
:103B2000A369002B02D1200000F03AFA2900A26814
:103B3000200000F005FE70BD64010020104B70B540
:103B40001C680500A36B002B15D11820FFF704FF9C
:103B50000C4BA06303800C4B012243800B4B8380F2
:103B60000B4BC3800B4B03810523438106338381B9
:103B70000023026143610022A36B1D615A6170BD85
:103B8000640100200E330000CDABFFFF34120000B3
:103B90006DE6FFFFECDEFFFF154B10B51C68A36B55
:103BA000002B15D11820FFF7D7FE124BA06303801E
:103BB000114B01224380114B8380114BC380114B69
:103BC000038105234381063383810023026143611E
:103BD000A46B0D4A206961690C4BFFF76FFE01224F
:103BE000002380185941206161614800400810BDE0
:103BF000640100200E330000CDABFFFF3412000043
:103C00006DE6FFFFECDEFFFF2D7F954C2DF4515844
:103C1000002370B5064C050008002360FEF706FB84
:103C2000431C03D12368002B00D02B6070BDC0461D
:103C3000D00A00204A424A41802310B55200DB00DE
:103C400000F002F810BD0000F0B51D004F4B85B02C
:103C50001E6804000F000092002E05D0B369002BEF
:103C600002D1300000F09CF9494B9C4250D174685D
:103C7000009B022B05D0012B00D984E0002D00DA37
:103C800081E02100300000F01DF9616B002908D0AF
:103C900023004433994202D03000FFF779FE00231D
:103CA00063630023A3616360A3891B0603D52169B5
:103CB0003000FFF76DFEA389364A1340A381009BB5
:103CC000022B5AD003AB02AA2100300000F0FEF90B
:103CD000A3891843A081002D24D1029D2800FFF75D
:103CE0003BFE0195071E42D1029B0193AB4239D1A5
:103CF000012040420223A2891343A3810023A36031
:103D000023004733236023610123636105B0F0BDC5
:103D1000214B9C4201D1B468AAE7204B9C42A7D119
:103D2000F468A5E7002FD9D0B369002B02D1300089
:103D300000F036F9009B012B03D1A389009A1A43A6
:103D4000A2810820A389276027616561184018D0E7
:103D5000012018400023984211D06D42A360A56154
:103D60001800D3E70198FFF7F7FD071EC0D08023A6
:103D7000A289019D1343A381D6E70020BAE7A5607D
:103D8000C4E7A060C2E701204042BFE76401002011
:103D9000146E00005CF3FFFF346E0000F46D000051
:103DA0000023C25C0133002AFBD1581E704700007B
:103DB000F7B58A8905000C00130760D44B68002B07
:103DC00004DC0B6C002B01DC0020FEBDE76A002F39
:103DD000FAD000232E682B6080235B011A4034D078
:103DE000606DA3895B0706D56368C01A636B002BFF
:103DF00001D0236CC01A0200216A00232800E76A60
:103E0000B847A189431C06D12B681D2B31D82C4AF9
:103E1000DA40D3072DD50023636023692360CB04E8
:103E200005D5431C02D12B68002B00D16065616B66
:103E30002E600029C8D023004433994202D02800C4
:103E4000FFF7A6FD00206063BFE70123216A280079
:103E5000B847431CC5D12B68002BC2D01D2B01D005
:103E6000162B01D12E60AFE74023A2891343A38113
:103E7000ABE740230B430120A3814042A5E70F6934
:103E8000002FA1D00B680F60DB1B0193002392076A
:103E900000D14B69A360019B002B00DC94E7019BE0
:103EA0003A00216A2800A66AB047002803DC4023B4
:103EB000A2891343DFE7019B3F181B1A0193EAE72E
:103EC000010040200B6970B505000C00002B01D1EA
:103ED000002070BD002804D08369002B01D100F0C0
:103EE0005FF80B4B9C4209D16C680C22A35E002B3F
:103EF000EED021002800FFF75BFFEAE7054B9C426C
:103F000001D1AC68F1E7044B9C42EED1EC68ECE7E0
:103F1000146E0000346E0000F46D000010B502490C
:103F200000F0B2F810BDC046C53E0000002310B539
:103F3000040003604360836081814366C281036142
:103F400043618361190008225C30FFF718FD054BBF
:103F500024626362044BA362044BE362044B236359
:103F600010BDC046AD470000D54700000D48000019
:103F70003948000070B568254A1E55430E002900D7
:103F80007431FFF74FFD041E08D000212A000160A4
:103F900046600C30A0606832FFF7F1FC200070BD75
:103FA000836913B50400002B28D18364C3640365BF
:103FB000134B144A1B6882620193984201D101237A
:103FC0008361200000F020F86060200000F01CF801
:103FD000A060200000F018F80022E0600421606872
:103FE000FFF7A4FF01220921A068FFF79FFF02222B
:103FF0001221E068FFF79AFF0123A36113BDC046B9
:10400000F06D00001D3F0000F8B51E4B07001E6854
:10401000B369002B02D13000FFF7C2FF4836B46805
:104020007368013B04D53368002B07D03668F6E788
:104030000C22A55E002D0DD06834F2E70421380073
:10404000FFF798FF30600028F0D10C2304003B609C
:104050002000F8BD012320005B42E3810233A381ED
:1040600065662560A560656025616561A5610822BA
:1040700029005C30FFF783FC6563A563A564E564F4
:10408000E6E7C046F06D0000F7B504000700002623
:1040900001914834002C01D13000FEBD6368A56851
:1040A0000093009B013B009301D52468F2E7AB89A4
:1040B000012B08D90E22AB5E013304D02900380051
:1040C000019B984706436835EBE7000070B50E008A
:1040D0001D000E23C95E90B01400002907DA0023EA
:1040E0002B60B3891B0611D48023DB000FE001AAEB
:1040F00000F09AFC0028F2DBF022029B120213402F
:10410000054A9B185A4253412B60EDE7402300209B
:10411000236010B070BDC04600E0FFFFF7B5022677
:104120008B8905000C00334206D0230047332360FF
:10413000236101236361F7BD01AB6A46FFF7C6FF48
:10414000009907002800FFF76DFC002808D10C2219
:10415000A35E9A05EFD4032293431E43A681E4E7AE
:104160000F4BAB628023A28920601343A381009B85
:1041700020616361019B002B0DD00E23E15E2800BE
:1041800000F064FC002806D00322A38993431A00A0
:1041900001231343A381A0893843A081CBE7C04604
:1041A0001D3F000070477047936810B5013B936056
:1041B000002B05DA9469A34208DBCBB20A2B05D0A9
:1041C0001368581C10601970C8B210BD00F03AFB9B
:1041D000FBE7F8B506000F001400D518AC4201D17A
:1041E000002007E021783A003000FFF7DDFF0134BE
:1041F000431CF3D1F8BD0000F0B59FB006000F00DE
:1042000014000593002804D08369002B01D1FFF727
:10421000C7FE7F4B9F425CD17768BB891B0762D585
:104220003B69002B5FD0002306AD6B6120336B76BA
:104230001033AB760294029C2378002B5DD1029B55
:10424000E31A04930DD0049B029A39003000FFF763
:10425000C0FF431C00D1CCE06A69049B94466344D0
:104260006B612378002B00D1C3E00122002352426E
:104270006A6002A95432521801342B60EB60AB60C3
:104280001370AB6521780522624800F005FC631CC1
:104290009C46002835D12968CB0604D5532302AAB1
:1042A00020309B1818700B0704D553232B2002AA2B
:1042B0009B18187023782A2B2CD000200A21099BE8
:1042C0002278303A092A00D86BE000282AD00993D6
:1042D00028E0514B9F4201D1B7689EE74F4B9F4268
:1042E0009BD1F76899E73900300000F015FB0028F2
:1042F00099D0012040421FB0F0BD252B9FD0013442
:104300009AE7444B2968C01A012383400B432B6072
:104310006446B7E7059B181D1B680590002B3ADB28
:104320000993644623782E2B0BD16378621C2A2BC9
:104330003FD1059B02341A1D1B680592002B35DB0B
:10434000079321780322364800F0A6FB002807D007
:10435000334B2A68C01A4023834013432B60013437
:104360002178631C06222F480293297600F094FBE3
:10437000002844D02C4B002B2FD12968059B072205
:10438000C90528D59B189343083305936B69039A95
:104390009B186B614FE75B42EB6002230B432B6082
:1043A000BFE74B4301349B18012089E701235B429F
:1043B000C6E7002314000A201A006B602178303908
:1043C000092903D9002BBCD00792BAE74243013434
:1043D00052180123F2E70733D5E705AB00933A0003
:1043E000124B2900300000E000BF0390039B013313
:1043F000CCD1BB895B0600D57BE70B987BE705AB8F
:1044000000933A00094B2900300000F07FF8ECE7F8
:10441000146E0000546E0000346E0000F46D000055
:104420005A6E00005E6E000000000000D3410000E4
:10443000F7B5150001938A680B6900900C00934250
:1044400000DA130022002B6043321278002A01D0D8
:1044500001332B6023689B0602D52B6802332B6047
:10446000062723681F4027D0230043331B785A1E9A
:1044700093412268920630D4220001994332009879
:10448000089EB047431C25D0062320682A68E168AF
:1044900003400025042B03D18D1AEB43DB171D408D
:1044A000A3682269934201DD9B1AED180027BD42E3
:1044B00020D1002010E00137E3682A689B1A9F4250
:1044C000D2DA22000123193201990098089EB047E0
:1044D000431CF0D101204042FEBD3020E1184331A1
:1044E000087021005A1C45310978A2184332023362
:1044F0001170C1E7220001231A3201990098089E29
:10450000B047431CE6D00137D1E70000F0B58BB0CF
:1045100006920A0043320793059004920A7E0C002B
:10452000109B6E2A00D18FE017D8632A2CD008D8B0
:10453000002A00D199E0582A54D026004236327021
:1045400029E0642A01D0692AF7D121681A6808068F
:1045500023D5111D1960156825E0732A00D188E064
:1045600008D86F2A29D0702AE7D1202209680A4387
:10457000226003E0752A20D0782ADED1220078213B
:10458000453211706C4A30E00E001A684236111D37
:10459000196013683370012379E04906D9D5111DDC
:1045A00019600023D55E002D03DA2D23049A6D4295
:1045B0001370624B0A2703932FE0206819680506E1
:1045C00003D5081D18600D6805E04006F9D50D6893
:1045D000081D1860ADB2594B082703936F2A18D0F5
:1045E0000A2716E045310A70544A03921A68216876
:1045F000101D18601568080622D5CB0702D52023A8
:10460000194321601027002D03D1202322689A43EB
:1046100022602300002243331A706368A360002BDA
:104620005CDB0422216891432160002D58D1049E57
:10463000002B64D02600039B42361B7833705EE06B
:104640004806DAD5ADB2D8E709681A68080605D574
:10465000111D1960136862691A6006E04906F7D5F2
:10466000111D19601368A28A1A800023049E236119
:1046700054E01A68111D1960166800216268300044
:1046800000F00AFA002801D0801B60606368236193
:104690000023049A137041E02369320006990598BB
:1046A000079DA847431C43D0236800259B070FD4D0
:1046B000099BE06898423DDA18003BE022000123A4
:1046C000193206990598079EB047431C30D0013532
:1046D000E368099A9B1A9D42F0DBE9E7002DA9D017
:1046E000049E28003900FEF7F9FF039B013E5B5C46
:1046F000280033703900FEF76BFF051EF1D1082F3B
:1047000009D12368DB0706D563682269934202DC7E
:104710003023013E3370049B9B1B2361079B09AA36
:1047200000932100069B0598FFF782FE431CB3D13E
:10473000012040420BB0F0BD766E0000656E0000B7
:1047400070B506000D001400002804D08369002B0A
:1047500001D1FFF725FC124B9C4211D17468A3686C
:10476000013BA360002B05DAA269934212DBEBB296
:104770000A2B0FD02368E8B25A1C22601D7070BD4E
:10478000084B9C4201D1B468E9E7074B9C42E6D153
:10479000F468E4E722002900300000F053F8EEE767
:1047A000146E0000346E0000F46D000070B50C0053
:1047B0000E25495F00F07CF9002803DB636D1B18B0
:1047C000636570BDA389024A1340A381F9E7C0461F
:1047D000FFEFFFFFF8B51F008B8905000C001600E6
:1047E000DB0505D50E23C95E0022022300F040F947
:1047F000A389054A28001340A38132000E23E15EFD
:104800003B0000F075F8F8BDFFEFFFFF70B50C003E
:104810000E25495F00F02CF9A389421C03D1054AFB
:104820001340A38170BD802252011343A3816065B0
:10483000F8E7C046FFEFFFFF10B50E23C95E00F09A
:10484000E1F810BDF8B505000E001400002804D0F2
:104850008369002B01D1FFF7A3FB224B9C422DD192
:104860006C68A369A360A3891B0731D52369002B5A
:104870002ED023682269F7B2981A6369F6B298427B
:1048800005DB21002800FFF71DFB002826D1A368C7
:104890000130013BA36023685A1C22601F706369CA
:1048A000984204D0A389DB071AD50A2E18D121001B
:1048B0002800FFF707FB002812D00FE00A4B9C42AC
:1048C00001D1AC68CDE7094B9C42CAD1EC68C8E77E
:1048D0002100280000F020F80028CAD001267642E6
:1048E0003000F8BD146E0000346E0000F46D00005E
:1048F00070B50500080011000022064C22601A0065
:10490000FDF76CFC431C03D12368002B00D02B6007
:1049100070BDC046D00A0020364B70B51D68060039
:104920000C00002D05D0AB69002B02D12800FFF749
:1049300037FB314B9C420FD16C680C23E25E93B283
:1049400019072DD4D90611D4092301203360373338
:104950001343A381404270BD284B9C4201D1AC68F7
:10496000EBE7274B9C42E8D1EC68E6E75B0713D501
:10497000616B002908D023004433994202D03000F3
:10498000FFF706F8002363632422A3899343A381DE
:1049900000236360236923600823A2891343A38152
:1049A0002369002B0BD1A0218022A38989009200CA
:1049B0000B40934203D021003000FFF7AFFB0123EF
:1049C000A289134011D00023A36063695B42A361F5
:1049D000002023698342BED10C23E25E1306BAD5C0
:1049E00040231343A3810138B5E7920700D46369DC
:1049F000A360EDE764010020146E0000346E000037
:104A0000F46D0000002370B5064C0500080023601B
:104A1000FDF71EFC431C03D12368002B00D02B6044
:104A200070BDC046D00A0020002370B5064C0500BA
:104A3000080011002360FDF70EFC431C03D123681E
:104A4000002B00D02B6070BDD00A0020002370B571
:104A5000064C050008002360FDF702FC431C03D14F
:104A60002368002B00D02B6070BDC046D00A002008
:104A700070B50500080011000022064C22601A00E3
:104A8000FDF7F0FB431C03D12368002B00D02B6003
:104A900070BDC046D00A0020C9B28218904201D130
:104AA0000020704703788B42FBD00130F6E700000E
:104AB00070B50500080011000022064C22601A00A3
:104AC000FDF76AFB431C03D12368002B00D02B6049
:104AD00070BDC046D00A0020080000000800000099
:104AE00008000000080000000800000008000000A6
:104AF0000800000008000000100000001000000086
:104B00001000000010000000100000001000000065
:104B10001000000010000000180000001800000045
:104B20001800000018000000180000001800000025
:104B30001800000018000000200000002000000005
:104B400020000000200000002000000020000000E5
:104B500020000000200000002800000028000000C5
:104B600028000000280000002800000028000000A5
:104B70002800000028000000300000003000000085
:104B80003000000030000000300000003000000065
:104B90003000000030000000380000003800000045
:104BA0003800000038000000380000003800000025
:104BB0003800000038000000400000004000000005
:104BC00040000000400000004000000040000000E5
:104BD00040000000400000004800000048000000C5
:104BE00048000000480000004800000048000000A5
:104BF00048000000480000004F0000004F00000087
:104C00004F0000004F0000004F0000004F00000068
:104C10004F0000004F0000000A000A0014001400BA
:104C2000140000007C010A007C010A0086011400C7
:104C3000000014000A0022018601140090012201E4
:104C40000A00220114002C017C01220186012C01A2
:104C500014002C017C01360100001E0032002800E7
:104C60000000320032003C0050001E0018012800F5
:104C7000460028005000BE005000BE001801C800C9
:104C8000180128002201BE0000004600320050003A
:104C900000005A003200640000006E00320078000C
:104CA0000000820032008C00000096003200A0005C
:104CB0000000AA003200B4000000BE003200C800AC
:104CC0002C01C8007201D2001E00DC007201E60057
:104CD0001E00F0007201FA001E00040172010E01B4
:104CE0005A0018012C012201B450BE82AA82BE8C47
:104CF0008C3C9664D23CDC6482968CA08CA0DCAAAE
:104D0000DC96E6A0783CF0506E46785A963CAAAA0B
:104D1000C83CDCA0D2A0E6AA5472616E732072690E
:104D200067687473206172652068756D616E2072AA
:104D3000696768747300000031335E35202B2031C1
:104D4000365E35203D2031375E350000526574698E
:104D500063756C6174696E672053706C696E6573FE
:104D60000000000076696F6C656E63652E776F7268
:104D70006B73000054616273210000004B696C6C1E
:104D80002042696C6C696F6E61697265732028617D
:104D90006E64205472696C6C696F6E61697265290A
:104DA00000000000496E74657265737420696E209E
:104DB000746563686E6F6C6F6779206973206E6FBE
:104DC00074206120706572736F6E616C6974790014
:104DD0003130205052494E5420434852242832301A
:104DE000352E352B524E44283129293B203A204775
:104DF0004F544F20313000004E6F20676F64732E88
:104E0000204E6F206D6173746572732E204E6F207B
:104E100065787465726E616C206C6962726172692A
:104E200065732E004B696C6C204E617A69730000CB
:104E30005469616E616E6D656E2053717561726546
:104E40002031393839000000416D65726963612095
:104E500077617320666F756E646564206F6E207372
:104E60006C617665727900005468657265206973BB
:104E7000206F6E6C79206361706974616C20616E63
:104E800064206C61626F7200456E636F757261675A
:104E9000652053594D4D455452494320636C61730D
:104EA0007320776172666172650000002443555279
:104EB00052454E545F4D454D4500000041204E691E
:104EC0006365205454590000556E69782065706FF1
:104ED0006368206D696E7573203078464620646182
:104EE000797300006920203D2030783566333735EE
:104EF000396466202D20282069203E3E203120295B
:104F00003B000000414341420000000044656663ED
:104F10006F6E27732063616E63656C65642E00009D
:104F2000526174736E6573743A204E6F7468696E63
:104F30006720546F20446F210000000049742068EE
:104F40006173203639206B6579732E004265636189
:104F50007573652056542D3432302077617320618B
:104F60006C72656164792074616B656E000000008D
:104F7000436F6D7072657373696F6E20616C676FDC
:104F8000726974686D206261736564206F6E20427F
:104F900042502028313939372900000054656163B7
:104FA00068206865616C746820696E737572616EE3
:104FB00063652070726F76696465727320746F2008
:104FC000636F64652E0000004F6666656E736976D8
:104FD000652068617264776172650000576946698F
:104FE000206973206E6F7420776972656C657373C6
:104FF0002045746865726E657421000044756D6D9E
:105000007920746869636320636C69656E7400005D
:1050100041204E696365205454592E20416E204F23
:105020004B20436F6D70757465722E005553546537
:105030006C6564696C646F6E69637300536F6C694F
:10504000646172697479206973206E6F74206120C5
:105050006E6577206672616D65776F726B00000018
:105060004272656164626F617264696E6720497340
:10507000204E6F742041204372696D65000000006E
:105080004F6666206279206F6E65206572726F725E
:10509000732061726520636F6D6D6F6E000000009C
:1050A000A20B0000EE0D0000EE0D0000EE0D000062
:1050B000EE0D0000EE0D0000EE0D0000EE0D000004
:1050C000EE0D0000EE0D0000EE0D0000EE0D0000F4
:1050D000EE0D0000EE0D0000EE0D0000EE0D0000E4
:1050E0008A0B0000EE0D0000EE0D0000EE0D00003A
:1050F000EE0D0000EE0D0000EE0D0000EE0D0000C4
:10510000EE0D0000EE0D0000EE0D0000EE0D0000B3
:10511000EE0D0000EE0D0000EE0D0000EE0D0000A3
:105120009A0B0000EE0D0000EE0D0000EE0D0000E9
:10513000EE0D0000EE0D0000EE0D0000EE0D000083
:10514000EE0D0000EE0D0000EE0D0000EE0D000073
:10515000EE0D0000EE0D0000EE0D0000EE0D000063
:10516000920B0000AA0B0000720B0000820B0000E3
:105170007A0B00000200000003000000280000007D
:1051800029000000040000000500000006000000E7
:1051900007000000200000002100000022000000A5
:1051A000230000002400000025000000260000006D
:1051B0002700000008000000090000000A000000AD
:1051C0000B00000000080042000C004200100042EA
:1051D0000014004200180042001C00422619000082
:1051E0002219000022190000881900008819000007
:1051F0003A1900002C19000040190000761900002F
:10520000481B0000281B0000281B0000B41B0000E6
:105210003A1B0000561B00002C1B0000641B000002
:10522000A41B0000000000000000000000000000BF
:10523000000000000000000000000000000000006E
:10524000000000000000000000000000000000005E
:10525000000000000000000000000000000000004E
:10526000000000000000000000000000000000003E
:10555000000000000000000000000000000000014A
:1055600080601806018060180601806000000180DC
:1055700060000000000000000661986619866198CE
:10558000000000000000000000000000000000001B
:105590000006619866198FFBFE66198FFBFE66197F
:1055A000866198000000000000000180607E1F8975
:1055B00082607E1F8190647E1F81806000000000F9
:1055C000000000042308A62906C12018040320981F
:1055D00065114C3208000000000000000781E084E3
:1055E00021084210781E085A16822087D9F600003A
:1055F000000000000000C03018060300C0000000DA
:10560000000000000000000000000000000000405A
:105610001008020300C0300C0300C0080200401054
:1056200000000000000000010040080200601806B1
:105630000180601808020100400000000000000026
:105640000000004210824090FF3FC2409042108014
:1056500000000000000000000000000008020080C0
:1056600020FFBFE0802008020000000000000000D2
:105670000000000000000000000000000000001812
:10568000060300C040100000000000000000000001
:10569000000000FFBFE0000000000000000000006C
:1056A00000000000000000000000000000000000FA
:1056B00000380E0380E00000000000000000200819
:1056C0000401008020100402008040100802000045
:1056D00000000000000003E0F86318CC1B06C1B016
:1056E0006C1B066318C3E0F8000000000000000017
:1056F000C0703C1B04C0300C0300C0300C0307E139
:10570000F80000000000000007E1F8C1B0601806D2
:105710000E038701C0C0300FFBFE00000000000038
:10572000000FFBFE0300C060300E0380180681B03E
:1057300067E1F8000000000000000040300C0703A3
:10574000409064310FFBFE04010040100000000097
:105750000000000FFBFEC0300FE3F8C1B060180678
:1057600081A067E1F80000000000000003E0F8609D
:10577000180C0300FE3F8C1B06C1B067E1F8000067
:1057800000000000000FFBFE018060200804010003
:105790008020300C0300C00000000000000003E087
:1057A000F8C1B06C1B063E0F8C1B06C1B063E0F85D
:1057B0000000000000000007E1F8C1B06C3B0E7D66
:1057C0009F6018060300C7E1F00000000000000021
:1057D000000000380E0380E00000000000380E03D7
:1057E00080E000000000000000000000380E038090
:1057F000E00000000000380E0300C0401000000070
:10580000000000300C0C030300C0C0300300C00CCB
:105810000300300C00000000000000000000000049
:105820000FFBFE00000FFBFE000000000000000068
:10583000000000000C0300300C00C0300300C0C0AA
:1058400030300C0C03000000000000000007E1F8FD
:10585000C1B060601818060180600000018060001F
:1058600000000000000007E1F8C1B06CDB3ED3B4DB
:10587000ECFB36C03007E1F800000000000000003B
:105880008070360D86318CC1B06FFBFEC1B06C1BD1
:1058900006000000000000000FE3F861986619861A
:1058A0007E1F86198661986FE3F8000000000000F3
:1058B0000003E0F861986C0300C0300C03006198AD
:1058C00063E0F8000000000000000FC3F0661986D6
:1058D0003186619866198C66198FC3F0000000004C
:1058E0000000000FFBFEC0300C0300FC3F0C030067
:1058F000C0300FFBFE000000000000000FFBFEC0E8
:10590000300C0300FC3F0C0300C0300C030000000F
:10591000000000000003E0F861986C0300C0300C48
:105920007B1E619863E0F8000000000000000C1B83
:1059300006C1B06C1B06FFBFEC1B06C1B06C1B069A
:105940000000000000000007E1F818060180601860
:1059500006018060180607E1F80000000000000062
:1059600001F87E06018060180601806018C6318744
:10597000C1F0000000000000000C1B06C6318D8342
:1059800060E0380D8360C6318C1B0600000000000B
:1059900000000C0300C0300C0300C0300C0300C03A
:1059A000300FFBFE000000000000000C1B8EE3BD6A
:1059B000EDDB76C9B26C1B06C1B06C1B06000000A3
:1059C000000000000C1B86E1BC6D1B66C9B36C5B5C
:1059D0001EC3B0EC1B060000000000000003E0F84E
:1059E000E3B06C1B06C1B06C1B06C1B8E3E0F80065
:1059F0000000000000000FE3F8C1B06C1B06FE3F82
:105A00008C0300C0300C0300000000000000000701
:105A1000E1F8C1B06C1B06C1B06CDB36C63187D96A
:105A2000F6000000000000000FE3F8C1B06C1B0698
:105A3000FE3F8C6318C330CC1B0600000000000042
:105A40000007E1F8C1B06C03007E1F801806C1B0EA
:105A500067E1F8000000000000000FFBFE080200F4
:105A60008020080200802008020080200000000042
:105A70000000000C1B06C1B06C1B06C1B06C1B06FD
:105A8000C1B063E0F8000000000000000C1B06C17C
:105A9000B066318C6318C360D8360D81C020000019
:105AA00000000000000C1B06C1B06C1B06C9B26DE3
:105AB000DB76D5B56F798C000000000000000C1B70
:105AC000066318C360F80C0603E0D86318CC1B0605
:105AD000000000000000000C1B066318C360D81C07
:105AE0000701C02008020080200000000000000024
:105AF0000FFBFE0300C060100C060301C0C0300F96
:105B0000FBFE0000000000000003E0F8300C030082
:105B1000C0300C0300C0300C03E0F80000000000AF
:105B20000000060180300C0180600C030060180347
:105B300000C018060000000000000007C1F00C03C0
:105B400000C0300C0300C0300C0307C1F00000009F
:105B500000000000008070360D86318CC1B06000FE
:105B60000000000000000000000000000000000035
:105B70000000000000000000000000000FFBFE001D
:105B80000000000000000380E00C0300601800002B
:105B90000000000000000000000000000000000005
:105BA0000000000003F0FC018063F8FEC0B023F8A1
:105BB000FE000000000000000C0300C0300DF3FCEC
:105BC000E1B86C0B02E1B86FF37C0000000000004C
:105BD00000000000000007E1F8C1B06C0300C03015
:105BE00007F9FE00000000000000001806018067B1
:105BF000D9F6C3B0EC1B06C3B0E7D9F6000000002D
:105C0000000000000000000007E1F8C1B06FFBFEDB
:105C1000C03007F1FC0000000000000000E0383157
:105C20008C6300C0FC3F0300C0300C0300C00000C8
:105C30000000000000000000000007D9F6C6318710
:105C4000C1F0C03007E1F8C3B0E7E1F800000C0391
:105C500000C0300DE378E1B86C1B06C1B06C1B06C8
:105C60000000000000000001806000000380E018D8
:105C700006018060180607E1F8000000000000003F
:105C80000060180000006018060180601806018C92
:105C90006318C63187C1F000000C0300C0308C636C
:105CA00030CC360F83C0CC330C330C000000000026
:105CB000000003C0F00C0300C0300C0300C0300C27
:105CC0000303E0F8000000000000000000000000F6
:105CD0000C330CE7BF6D9B66C1B06C1B0600000067
:105CE0000000000000000000000BE2F8E1B86C1BAF
:105CF00006C1B06C1B0600000000000000000000A0
:105D0000000007E1F8C330CC330CC330C7E1F80022
:105D100000000000000000000000000BE2F8C1B02D
:105D20006C1B06BE2F8802008020080200000000C5
:105D30000000000003E8FAC1B06C1B063E8FA0080B
:105D40000200802008020000000000000008E27C41
:105D5000F1BC6C0300C0300C030000000000000028
:105D600000000000000007E1F8C03007E1F8018002
:105D70006FE3F8000000000000000300C0300C0FCB
:105D8000E3F8300C0300C0330CC0C030000000004A
:105D900000000000000000000C330CC330CC330CBA
:105DA000C330C7D9F600000000000000000000006A
:105DB00000000202C1B8E630D83E0701C020000052
