S018000044756D42616467654669726D776172652E73726563D6
S1130000302400206D1B0000691B0000691B0000E8
S113001000000000000000000000000000000000DC
S1130020000000000000000000000000691B000048
S11300300000000000000000691B0000252E0000E5
S1130040691B0000691B0000691B0000691B00009C
S1130050691B0000691B0000691B0000691B00008C
S1130060691B00000D0E00001D0E00002D0E000087
S11300703D0E00004D0E00005D0E0000691B0000E7
S1130080691B0000691B0000691B0000691B00005C
S1130090691B0000691B0000691B00004109000086
S11300A0691B0000691B0000691B0000691B00003C
S11300B00000000010B5064C2378002B07D1054B37
S11300C0002B02D0044800E000BF0123237010BDC0
S11300D0BC01002000000000BC650000084B10B506
S11300E0002B03D00749084800E000BF0748036815
S11300F0002B00D110BD064B002BFBD09847F9E72D
S113010000000000C0010020BC650000BC650000C8
S113011000000000F0B5C1B00700D0222D490CA8A2
S11301202D4B984705A82D4B1A005032010031CAB7
S113013031C131CA31C112680A606C336A4613CBCB
S113014013C203CB03C20CAC40AE254DE3885B1055
S11301509633A28852102D32FF32618849109631AD
S1130160208840102D30FF30A8470834B442EDD128
S1130170002F03D0012F17D041B0F0BD05AC0CAE59
S1130180174DE3785B109633A27852102D32FF326C
S1130190617849109631207840102D30FF30A847FF
S11301A00434A642EDD1E7E76C4605AE0C4DE37886
S11301B05B109633A27852102D32FF3261784910C9
S11301C09631207840102D30FF30A8470434B442D3
S11301D0EDD1D1E794430000A9320000144400009B
S11301E0C929000070B5484C484B2360484B6360F4
S11301F0484BA360484BE360484B2361484B636121
S1130200484BA361484BE361484B2362484B63620C
S1130210484BA362484BE362484B2363484B6363F8
S1130220484BA363484BE363484B2364484B6364E4
S1130230484BA364484BE364484B2365484B6365D0
S1130240484BA365484BE365484B2366484B6366BC
S1130250484BA366484BE366484B2367484B6367A8
S1130260484BA367484BE367484A8023E250484B16
S11302709847C317DB0EC2181F201040C01A800015
S11302800459444B9847FF22FF21FF20424B9847D3
S113029080221206414B1A60414BDF22995C0420F4
S11302A001439954995C0220014399543F3A9B5865
S11302B0002B24DB00203B4B984720003A4B984707
S11302C03A4E40082823181A3070394D10232B70E9
S11302D02000384B9847FA20C000374B98472D4BE5
S11302E098470022FF2100202B4B98470022002131
S11302F00020324B9847002333702B7070BD0120CF
S1130300284B9847D9E7C046D80100209444000000
S1130310B0440000C4440000DC440000EC4400008D
S1130320F44400001C4500004845000070450000EE
S11303309C450000A4450000BC450000DC450000CD
S1130340FC45000020460000304600003C4600000A
S11303505C4600007C46000084460000984600008D
S1130360B4460000C4460000E846000014470000FC
S11303704C470000604700008C470000A047000085
S1130380BC470000E0470000044800002448000087
S11303905D330000312B00007D2800008C440041B7
S11303A0004400411501000041350000980200207E
S11303B099020020D120000001040000A5280000BB
S11303C070B50020084B98470500084CFA218900B5
S11303D0A047074B186007492800A047064B186040
S11303E00522064B1A6070BDF9180000F5300000B4
S11303F00000002040420F000400002010E000E054
S113040030B5084B1C68084A002580214902013890
S113041007D3002CFBD05460956013680B42FCD0CA
S1130420F5E730BD0000002010E000E00C4B1B6835
S1130430002B06D1EFF31083002B07D00022094BC9
S11304401A70074A136801331360704772B6BFF31A
S11304505F8F0022044B1A700132024B1A70F0E7CE
S1130460580200205C02002008000020084B1A6893
S1130470013A1A601B68002B09D1064B1B78002B2C
S113048005D00122044B1A70BFF35F8F62B6704728
S1130490580200205C02002008000020F0B583B060
S11304A001AC012565700027A770257021003E204E
S11304B0064EB0478022D205054B9A6127706570BD
S11304C021000F20B04703B0F0BDC046050A00006C
S11304D08044004110B500220023027042700021C4
S11304E04280017103760262C2618260C0246401A9
S11304F0C481037443748374C37403752A24035539
S113050043758375063C0355C2840285C1752B234C
S1130510C1540133C15410BDF0B5D6464F464646CA
S1130520C0B596B0070016000160C64A106A802361
S11305305B02034313620B780520DB0705D516B075
S11305401CBC90469946A246F0BD0B7817309B0719
S1130550F5D473783B71002B04D1BB4A136C04218E
S11305600B4313640023BB60FB603B61BB76FB76EB
S11305703B833B77B54B1F602A23F35C002B05D1EB
S1130580337D002B02D101337B7701E000237B779D
S11305903B68984633786A46137069461E20AC4B14
S11305A098471E20AB4B98472C23F25C002A54D06A
S11305B0013BF55C337BEB18DBB2D118C9B28B423B
S11305C021D25219D3B29946A34B9A4603E001357E
S11305D0EDB24D4517D00F242C40337BE418502244
S11305E09E4902A8D047132CF1D8A40002ABE058CE
S11305F001A900234B70CB708B7001330B70C0B218
S1130600974B9847E3E7F4895022944902A8924B08
S11306109847132C13D9737D9B00DBB242461370A9
S1130620B37DDB0172781343DBB2424653703379F6
S1130630342B00D97BE19B008A4AD3589F46A400FF
S113064002ABE05801A900234B70CB708B700133CF
S11306500B70C0B2824B9847DDE7347B50227F4950
S113066002A87D4B9847132C15D9F48950227B4955
S113067002A8794B9847132CCDD8A40002ABE058BC
S113068001A900234B70CB708B7001330B70C0B287
S1130690734B9847BFE7A40002ABE05801A90023BD
S11306A04B70CB708B7001330B70C0B26C4B98479E
S11306B0DBE70423102402211AE0717C337C10242C
S11306C016E006231024012112E00823102400213F
S11306D00EE00023302400210AE00023202400211E
S11306E006E000230024002102E00223102401215B
S11306F0090170220A40134342469370F37D172088
S11307003F2B00D91BE7D3703A68537E5BB2002BB2
S1130710FBDBF37C728813432422B25CD2001343C4
S1130720327D92001343B27C52001343234342466A
S11307309380337E002B20D0102C00D1D9E000D838
S113074098E0202C00D1B6E0302C16D1F27C002A9F
S11307500AD0F26980321720FF2A00D9EFE6326A04
S11307608032FF2A00D9EAE61720F269FF2A00DD69
S1130770E5E6326AFF2A00DDE1E639684A7E52B2D4
S1130780002AFBDB424613723A68537E5BB2002BAD
S1130790FBDBB38B424693833A68537E5BB2002BF8
S11307A0FBDB338C424613842C23F35C002B05D0F3
S11307B0013BDBB217200F2B00D9C0E62B22B15C22
S11307C017200F2900D9BAE63868427E52B2002AAF
S11307D0FBDBF289307B0243B068024309050A431C
S11307E01B041343424613612A23F35C13750F233E
S11307F093751533F35C002B12D0F38C1A4A17202F
S1130800934200D99BE642469384328D80231B0198
S1130810D31815499BB28B4200D990E64346DA843B
S1130820124B1B685B01E022D2001340104A51684E
S113083049011268D20E0A43D2B2134342461385C9
S113084000207CE60004004000080040A4020020D0
S1130850111A000085190000A9320000184900008F
S1130860091B000044480000FF0F000024608000C2
S113087020608000002C00D07FE7F27C002A0FD09B
S1130880F269802109018C4662442A4917208A4270
S113089000D954E6326A624426498A4200D94EE6B7
S11308A0244A1720F169914200DD48E6316A9142F9
S11308B000DD44E661E7F27C002A0FD0F269802172
S11308C089008C4662441C4917208A4200D936E6C6
S11308D0326A624418498A4200D930E6164A17201F
S11308E0F169914200DD2AE6316A914200DD26E693
S11308F043E7F27C002A0FD0F269802109028C467A
S113090062440E4917208A4200D918E6326A6244CA
S11309100A498A4200D912E6084A1720F16991422D
S113092000DD0CE6316A914200DD08E625E7172078
S113093005E6C046FF0F0000FF030000FFFF0000B4
S113094070B52F4B1D682B681A7EDC7D1440E207BE
S113095016D4630708D504232A681376EB7E9B0715
S113096002D5AB7E9B0742D4A30708D502232A688D
S11309701376EB7E5B0702D5AB7E5B073BD470BD81
S113098001221A762A68537E5BB2002BFBDB69696D
S11309908B1C6B61538B9BB20B802B8B013B9BB2EB
S11309A02B83002B11D06B7F002BD2D02A68537E6F
S11309B05BB2002BFBDB137B02210B4313732A680E
S11309C0537E5BB2002BFBDBC3E701232A689375DC
S11309D02B7F052BBDD100232B77EB7EDB07B8D50E
S11309E0AB7EDB07B5D52800AB689847B1E7280094
S11309F0EB689847B8E72B6928009847BFE7C046DB
S1130A00A402002000B583B001AB80221A700A78DA
S1130A105A704A789A708A78DA701900014B9847AC
S1130A2003B000BD091B0000F0B5DE4657464E4634
S1130A304546E0B587B08046049116001F000022A9
S1130A40002300218B463F240120210000960197BA
S1130A505C4603944446059413E02024641A05007C
S1130A60E540A84614E0009C019D121BAB415C4686
S1130A704D462C43A346039C45462C43039401391D
S1130A8025D3202464420C19E7D40500A540A846C8
S1130A9004008C40A14692185B4114001D00059E81
S1130AA04F463E40B446049E47463E40B2466646E4
S1130AB057463E4303D00600264332002B00009CD9
S1130AC0019D9D42DBD8CED19442D8D8CBE7039B7D
S1130AD05846190007B03CBC90469946A246AB461E
S1130AE0F0BD10B5490840230024814202D2180009
S1130AF010BD1C00091A631C9BB28842F9D940231B
S1130B00FF2CF4D814800023F1E70000F0B583B083
S1130B100F00160008AA117804004C434022BC427E
S1130B2002D9100003B0F0BD002B14D1020008005C
S1130B300021194CA04701003A0000230020174C63
S1130B40A04700220123121A8B41120C1B041A43E2
S1130B5032800022E5E70022012BF9D10A000023AC
S1130B6000210D4CA04702000B00009201933800B5
S1130B7000210A4CA047050080239B014022984293
S1130B80CFD8790FF800009A019BA047EA00821A97
S1130B90D2B252032A43DBE70D320000290A0000D7
S1130BA010B582B004000E4B1B78002B07D000292F
S1130BB005D10B4B5B78834210D01D200CE001A9BA
S1130BC00C701320074B98471320074B9847044B8E
S1130BD05C7001221A70002002B010BD0020FBE7F7
S1130BE060020020111A000085190000404B984251
S1130BF031D00AD93F4B98424DD03F4B98425AD0FE
S1130C003E4B984237D0002070473D4B98420CD061
S1130C103C4B9842F7D1012917D000295DD0022915
S1130C2015D0032915D00020EEE7012907D00029AB
S1130C3051D0022905D0032905D00020E4E7324829
S1130C40E2E73248E0E73248DEE73248DCE73248A0
S1130C50DAE73248D8E7012907D000293FD0022932
S1130C6005D0032905D00020CEE72D48CCE72D4838
S1130C70CAE72D48C8E7012907D0002931D0022945
S1130C8005D0032905D00020BEE72848BCE7284842
S1130C90BAE72848B8E7012907D0002923D0022958
S1130CA005D0032905D00020AEE72348ACE723484C
S1130CB0AAE72348A8E7012907D0002915D002296B
S1130CC005D0032905D000209EE71E489CE71E4856
S1130CD09AE71E4898E71E4896E7032094E71D48C4
S1130CE092E71D4890E71D488EE71D488CE7C046F3
S1130CF00010004200180042001C00420014004290
S1130D0000080042000C0042030005000300060036
S1130D10030007000300010003001E0003001F007E
S1130D200300090003000A0003000B000300110084
S1130D30030012000300130003000D0003000E0063
S1130D4003000F000300170003001800030019003C
S1130D5003000400030008000300100003000C005B
S1130D600300160030B587B00B4B6A4632CB32C253
S1130D7032CB32C2009B83420BD001239A006946D6
S1130D805258824206D00133062BF7D1002007B017
S1130D9030BD0023D8B2FAE768490000704700006C
S1130DA0F0B50A4B1B78002B0CD1094F094E0A4DA4
S1130DB00024DE515A1914600433182BF9D101228E
S1130DC0024B1A708000024BC150F0BD6202002039
S1130DD0640200209D0D0000A802002000B583B02D
S1130DE009236A461370013353700133937001333E
S1130DF0D3700133137101335371034B98476B461E
S1130E00185603B000BDC046650D000010B5024B76
S1130E101B680020984710BD6402002010B5024BE7
S1130E205B680120984710BD6402002010B5024B96
S1130E309B680220984710BD6402002010B5024B45
S1130E40DB680320984710BD6402002010B5024BF4
S1130E501B690420984710BD6402002010B5024BA2
S1130E605B690520984710BD64020020F0B5DE469A
S1130E7057464E464546E0B591B005000C001600B5
S1130E8029600800BA4B9847020023680520DB0755
S1130E9006D511B03CBC90469946A246AB46F0BD7F
S1130EA0236817309B07F4D4B249086A971C0123BE
S1130EB0BB4003430B620FA92D27F35D0B70143263
S1130EC0D3B202931800AC4B98470298AB4B9847A7
S1130ED0F05D0021AA4B9847F37A6B712423F35CED
S1130EE0AB712523F35CEB71F37E2B72337F6B7252
S1130EF02B68984618009E4B9847143000220E2306
S1130F0006A98C4663441A80328A02928023DB014C
S1130F109A4200D19AE00FD9C023DB01029A9A4287
S1130F2000D18EE080231B029A4200D01BE10323F0
S1130F3006930023079308E080239B019A4200D084
S1130F4011E1102306930F3B079333680593F3686D
S1130F509B4673690393337E04932623F35C9A467A
S1130F6073689946002B00D19CE080235B0599456A
S1130F7000D180E0737E002B02D0B37E424693738F
S1130F800E2306AA944663441B8842469381059B1C
S1130F905A461343039A13434A461343029F1F437B
S1130FA0049B1B021F4353465B071F432723F35C29
S1130FB0002B01D104331F43737E9B02327F520204
S1130FC01343727F120213432422B25C520413436C
S1130FD02522B25C12041343B17AF27A1143194305
S1130FE03389FF2B00D181E0802252041743194337
S1130FF02C23F35C002B03D1624B9B789B0701D518
S113100080231F432A68D369002BFCD143465960CF
S11310102A68D369002BFCD143461F600EAB8022A3
S11310201A7000225A70DA709A70336B0A93736BD9
S11310300B93B36B0C93F36B02930D9300270AAEDF
S113104063E008230693073B07937EE73368059321
S1131050F3689B4673690393337E04932623F35CFE
S11310609A4673689946002B18D080235B059945EE
S113107001D0002025E02723F35C002B00D079E782
S1131080336A1F00C0B2404B984701000E2206ABE2
S11310909C46624438003D4B984712E0082306936F
S11310A0002307932723F35C002B0ED0069B0093A9
S11310B0079B0E2206A98C466244B16A306A344FFB
S11310C0B847002800D0E4E654E7336A1F00C0B2F2
S11310D02D4B98470100069B0093079B0E2206A800
S11310E08446624438002A4FB847EAE7F37E002B6F
S11310F000D17DE78023DB041F4379E72000254BE3
S1131100984707E00137042F0DD0F9B2BB00985976
S11311100028F3D0431CF5D00EA90870000CC0B20F
S11311201D4B9847EEE70023EB602B616B61AB61CD
S1131130EB612B62AB626B620022EB85AB853033D3
S1131140EA540133EA540133EA540133EA54286877
S1131150074B984704001149114B9847A400114BC1
S1131160E550002095E61023069300230793ECE650
S1131170650D000000040040111A000085190000EC
S1131180A10B0000002000412D1A0000E30A00001A
S11311900D0B0000ED0B0000091B000039120000CC
S11311A0A10D0000A8020020C2791C23002A01D14D
S11311B018007047C28D92B2173B002AF8D102681A
S11311C011850221137E0B42FCD00023F0E78279C3
S11311D01C23002A01D118007047828D92B2173B5C
S11311E0002AF8D10268107E4007F4D5538BDBB295
S11311F098061DD0980703D5022353831833EAE7D2
S1131200580703D5042353831A33E4E7D80703D5D7
S1131210012353831233DEE7D80603D51023538307
S11312203233D8E79B0603D5202353832133D2E7F7
S1131230138D0B800023CEE7F8B58000624BC558B0
S11312402C68E369002BFCD1237EA67D1E4030234D
S1131250EB5C3122AF5C1F40F30722D5EB8D9BB2D0
S1131260002B1CD0AA6A1378DBB2511CA9626979DD
S113127001290ED09BB2DB05DB0D2385EB8D013BF1
S11312809BB2EB85002B0CD1013323750133A3757D
S113129007E0517809020B430232AA62EBE701230B
S11312A02375B30706D50223237500223133EA548C
S11312B0FB071AD4730765D5AB8D9BB2002B5FD0A7
S11312C0638BDBB21A0714D43F221340002B34D0B3
S11312D09A0711D51A223223EA54303B63837B07E1
S11312E050D528006B6998474CE02800EB68984774
S11312F0E0E737221340E9E75A0705D51E223223D7
S1131300EA542E3B6383EAE7DA0705D51322322336
S1131310EA54313B6383E2E7DA0605D542223223FD
S1131320EA54223B6383DAE720221A42D7D02132DF
S11313303223EA54123B6383D1E7238DDB05DB0DB3
S1131340DAB2696A0A706A6A511C696269790129A8
S113135010D0AB8D013B9BB2AB85002B12D1043373
S1131360237500222E33EA54BB070BD528002B69C2
S1131370984707E01B0A53706B6A01336B62E8E716
S113138004232375F30604D5102323752376FB0663
S11313900ED4B30604D52023237523763B070BD440
S11313A0330704D5082323752376BB0608D4F8BD78
S11313B02800EB699847ECE72800AB699847EFE70A
S11313C02B6A28009847F2E7A802002010B50828E5
S11313D003D880001C4B1B589F46002032E01B4B57
S11313E018692FE01A4B1B6A9B059B0F1948D840BC
S11313F028E0164B586925E0144B1B6800209B0716
S113140020D513491022CB681A42FCD00F4B1A681E
S113141024231340042B01D00F4813E000200F4B6A
S113142098470A4B9B681B041B0C58430AE0502343
S1131430074AD35C00205B0704D5044BD86801E05D
S11314408020000210BDC046804900007C020020BC
S11314500008004000127A00006CDC022D1A000023
S113146070B50C490B6A04788578407801221040E5
S113147080014026B34303432A40D20180208343A2
S113148013430322224012020348034013430B6216
S113149070BDC04600080040FFFCFFFFF0B5DE460B
S11314A057464E464546E0B50100264B9B469B8A6F
S11314B0457800784242424191468878CA789446F9
S11314C00A7990464E7B0F7B8C7B8A681E494A6161
S11314D001214A4692009146042293434A4613430B
S11314E042460A40D20090460822934342461343A0
S11314F062460A4012019446102293436246134303
S1131500084040012022934303430F40BF01402081
S113151083433B430E40F6014030834333437938E1
S113152005402D02094803402B4321400903084884
S113153003400B435A4693823CBC90469946A246CC
S1131540AB46F0BD000800407C020020FFF8FFFF1E
S1131550FFEFFFFF10B5037A9B061B0C428992052F
S1131560920D134318494B608379C279134342881F
S11315708488224313434278D20113430B600378D7
S1131580042B11D0202B0ED1037B9B06028A13431C
S1131590C28912040D490A4013430B4A936011682F
S11315A00B4B0B43136010BD037B9B06028A134352
S11315B0C289120405490A401343034A936013681D
S11315C004210B431360EEE77C0200200000FF03BC
S11315D024040000082803D88000254B1B589F468C
S11315E0172044E0234A136A02210B4313620020AC
S11315F03DE0204A936902210B439361002036E0C9
S11316001C4A138A02210B43138200202FE0194A3B
S1131610938A02210B439382002028E016490B6829
S1131620022213430B60134B9A8419000E32CB68C9
S11316301A42FCD0104A91680E4BD96252689A62E1
S113164000229A8419001032CB681A42FCD00A4B4B
S11316501B689BB2074A9384002008E00549442292
S11316608B5C022003438B54002000E00020704771
S1131670A4490000000800407C020020F0B58FB0AF
S1131680C222D200474B9A6047494B681E229343BB
S11316901C3A13434B6001AB1A700024434DE0B273
S11316A001A9A8470134252CF9D10AA80023037005
S11316B08370802212028260C3700122027103735C
S11316C08373053242704373394B98470520394B75
S11316D0984734490222CB681A42FCD0314A938A93
S11316E080210B43938205AB00210022598099800D
S11316F09A71DA713F3159813B3919705A702E4B06
S11317001B689B0E3F2B4BD005A80372B723DB004D
S11317100382072303733833C381284B984704A8F3
S113172000254570012686700570254B98470620D4
S1131730204FB847234B984701AC02966570257239
S1131740657205232370210001201F4B9847012057
S11317501E4B9847267021000020144B9847002008
S11317601B4B98470720B8470E49D022CB6813403B
S1131770D02BFBD1174A0023137253729372D37286
S113178001A901224A604B700B724B7207330B7034
S113179000200D4B984700200C4B98470FB0F0BD2C
S11317A0203BB1E70008004000400041111A00004E
S11317B09D140000D515000024608000551500001C
S11317C061140000D9170000FD170000B5180000CF
S11317D08519000000040040064A936908210B4360
S11317E093610122044B1A7019000B781342FCD147
S11317F07047C04600040040000C004070B506006D
S113180004000D782D0205434B78002B02D0802371
S1131810DB021D434B7A002B02D080231B031D43A4
S11318204868012810D9431E184234D1022830D9FF
S11318300223002201325B009842FBD81202324399
S1131840140080235B031D430B7A002B02D08023FA
S11318509B031D43134A53785BB2002BFBDB124BF3
S11318609847124B1E700F4A53785BB2002BFBDB78
S11318700C4B9C601A0053785BB2002BFBDB094ACB
S11318805368802149020B401D435560084B98471B
S113189070BD0022D2E70402344380239B021D431F
S11318A0D2E7C046000C00402D040000080C0040A4
S11318B06D04000010B504000B4A53785BB2002B92
S11318C0FBDB0A4B98470A4B1C70074A53785BB200
S11318D0002BFBDB044A516880235B020B435360FB
S11318E0044B984710BDC046000C00402D04000076
S11318F0040C00406D04000070B504001A4A5378CB
S11319005BB2002BFBDB194B9847194B1C70164A32
S113191053785BB2002BFBDB134E7068C004C00E1F
S1131920144B98470500124B1C707668F602F60FAC
S1131930114B1C700C4A53785BB2002BFBDB0A4B37
S11319409C682402240C0D4B9847002E07D1012CCF
S113195007D9210028000A4B9847050001E001340B
S1131960E540280070BDC046000C00402D04000076
S1131970040C0040CD130000080C00406D0400006E
S1131980F530000010B50400064B9847064B1C7058
S1131990064A53888021C9010B435380044B98475E
S11319A010BDC0462D040000020C0040000C004095
S11319B06D04000010B504000F4B98470F4B1C70CA
S11319C00F4A53881B05180F53880E490B40538048
S11319D053880D490B40538011008022D2014B885B
S11319E01342FCD106494A880302064802401343C5
S11319F04B80064B984710BD2D040000020C00409C
S1131A00000C0040FFF0FFFFFFBFFFFF6D0400006C
S1131A1010B50C7824020443024B9847A4B2024B3D
S1131A205C8010BDB5190000000C004010B5040026
S1131A30064B9847064B1C70064B5C882405240F04
S1131A40054B98472000054B984710BD2D04000016
S1131A50020C0040000C00406D040000F918000066
S1131A6030B5D378002B35D11378802B29D01B06C1
S1131A7080246402234354780225AC4306D194782D
S1131A80002C20D18024A402234341605478013CDB
S1131A90012C1CD90D042D0CA024E4052C431C435B
S1131AA084620D0CD02424062C431C438462D47815
S1131AB0002C22D15B031CD59378012B1ED04161ED
S1131AC017E00023D7E7C024E4022343DDE70D4CED
S1131AD02340DFE741600C04240CA023DB052343EF
S1131AE083620C0CD0231B0623438362D378002B20
S1131AF003D15378013B012B02D930BD8161F8E752
S1131B008160FAE7FFFFFBFF10B50A00C10900235B
S1131B10002904D14309DB0105498C4663441F2491
S1131B202040012181401800024B984710BDC04657
S1131B3000440041611A00007047000010B5054BD5
S1131B409847054B9847054B9847054B9847054BD5
S1131B50984710BD7D1600009D040000391B00004D
S1131B60391B0000391B0000FEE70000F8B52A4AC3
S1131B702A4B9A4211D01A00294B9A420DD2294A73
S1131B8003339B1A9B0801339B00002223482249FC
S1131B908C58845004329A42FAD1234A234B9A42F5
S1131BA00AD2D34321495B1803218B4304339B1886
S1131BB0002102C29342FCD11D4AFF211D4B8B43DD
S1131BC09360FD3990235B001B4AD1501B4AD378A4
S1131BD00325AB4302242343D370D3780C27BB43A0
S1131BE008263343D370164B987B3022904320222F
S1131BF010439873997BB943314399739A7BAA43F1
S1131C0022439A730F4A536880210B4353600E4B4F
S1131C1098470E4B9847FEE7BC6500000000002083
S1131C20BC01002004000020BC0100202C04002082
S1131C3000ED00E000000000007000410050004191
S1131C400048004100400041613200009D30000026
S1131C50F0B5C64600B50C00904600280FD1002A06
S1131C6011DD8F18094E0A4D306821002B68984702
S1131C700134BC42F8D1404604BC9046F0BD012377
S1131C805B429846F7E78046F5E7C046C802002065
S1131C90C0020020F0B5C64600B50E00150001389C
S1131CA0022810D8002A11D000240C4B98460C4F5F
S1131CB043461868315D3B689847002808DB0134C7
S1131CC0A542F5D106E00124644203E0140001E0DA
S1131CD001246442200004BC9046F0BDC8020020E8
S1131CE0C40200200300064A1268002A04D0044AF1
S1131CF01068C318136070470249014A1160F6E77F
S1131D0094020020302400200120404270478023A8
S1131D109B014B60002070470120704700207047F2
S1131D2070B582B005000E0000226B46DA80064CC6
S1131D306B46991D2800A0470028F9D16B4606334D
S1131D401B88337002B070BDCF11000070B5050060
S1131D508CB2034E21002800B0470028FAD170BD90
S1131D60A911000070B590B08023DB050093002317
S1131D700193FF2269460A8100228B72CB7296215D
S1131D8089010891012124206C46215401302154F9
S1131D9025316354013163540A930531635401318D
S1131DA0635405932382E3762276227762761323A3
S1131DB0A376627780235B0303931E4B0C931E4B25
S1131DC00D9301235B420E930F931C4D1C4C6A46EA
S1131DD01C492800A0470028F9D1184C1A4B1C6054
S1131DE01A4A1B4B1A601B4A1B4B1A606A46154958
S1131DF02000134B9847194E336898680021184DFA
S1131E00A847336858680021A84725682800154B5F
S1131E1098471F2318401E3B8340134A13602268CF
S1131E20D369002BFCD12B68022213432B6010B022
S1131E3070BDC0460300080003000900CC02002066
S1131E406D0E000000100042C80200204D1D00006D
S1131E50C4020020211D0000C002002058010020FF
S1131E60D5330000DD0D000000E100E0F0B5D646FA
S1131E704F464646C0B52C4CA5440400C822520126
S1131E802A4968462A4B98472A4B18782A4B1978CE
S1131E908022D203294B1A608300C0184000142307
S1131EA059430B0013339BB20200093292B2244D02
S1131EB0A847A5002D19AB00ED186D440134A3000B
S1131EC01B199A009B186B449A461E4B99461E4B4D
S1131ED098461E4F1E4E19E04B4618880002434692
S1131EE01B88184380B2B847013C0CD32B7823419C
S1131EF0DB07F1D530880002164B1B88184380B2EB
S1131F00124B9847F0E70135554501D00724EDE71A
S1131F108022D203104B1A60C8235B019D441CBC71
S1131F2090469946A246F0BD00E7FFFFC84900006D
S1131F30A932000098020020990200209444004134
S1131F4041290000D2030020CC030020212B0000F3
S1131F50CE030020D003002098440041F0B5DE46B3
S1131F6057464E464546E0B5494CA54400230093E8
S1131F70484B9846484F8026760246E053462370E5
S1131F8043461E603E600134644508D043461E60EB
S1131F903E6043581A42F1D04B462370F0E7019457
S1131FA080231B043B603D4A3D4B1A6000990B00A3
S1131FB03C4A00203C4CA0473C4B9B463C4B9A4639
S1131FC03C4B9946019C0BE03B4B188800023B4B71
S1131FD01B88184380B2374B98470135AC420BD06D
S1131FE02B78FF2BF0D05B461888000253461B88E1
S1131FF0184380B2C847F0E7009B01339BB21A0034
S11320000093E6235B009A4231D043468022D203F8
S11320101A600099143189B20B00224A0020224C24
S1132020A04700212E20264B984780231B043B60A9
S11320304346802252021A603A608022214B1A6081
S1132040214AC723D15C02200143D154D15C04202E
S11320500143D15402ADCAAB9C4601951000A021A6
S1132060802200239A46FF3399462C008EE71433CE
S11320700C4AE62149000020144CA047CB239B00C6
S11320809D443CBC90469946A246AB46F0BDC04632
S1132090D4FCFFFF9444004198440041FFFF00003A
S11320A0884400411F03000041290000D20300209E
S11320B0CC030020212B0000CE030020D0030020FD
S11320C08D2B00008444004100440041592A000043
S11320D0F0B5C64600B505000C4B9847002811DD45
S11320E02C002D180A4F0B4EB04602E00134AC42CE
S11320F008D02078B8473378502BF7D801334246BC
S11321001370F3E704BC9046F0BDC04641350000AF
S11321106D1E000098020020094B1B6898420BD0EA
S1132120074A131D1932FF321968814206D004335D
S11321309342F9D1002002E0012000E00120704721
S11321403C000020094B1B7898420AD007494B1CDD
S113215014311A78824206D001338B42F9D100201F
S113216070470120FCE70120FAE7C0461400002074
S113217010B5074B19001431FF2402E001338B42E0
S113218004D01A788242F9D11C70F7E710BDC0461A
S113219014000020F0B5DE4657464E464546E0B5ED
S11321A083B06D4E31001931FF313300FF2204C377
S11321B08B42FCD1694A916A8023DB030B4393620F
S11321C0674C1C34664B674867491A68026004CB45
S11321D00A60A342F9D10022644B9C46644F654DCA
S11321E0042402206346D3583B605359624988460D
S11321F04344197821431970197801431970043242
S1132200282AEFD1564B99460023984600225B4B6F
S11322109B46524D504B9C46534B9A4601964E4614
S1132220474615E004330131A34208D0286A1E68EA
S11322300642F7D09000664681510132F2E7009ED3
S1132240494609685046016004360A37462F0AD0C9
S1132250B1465B4631681960444B98461C002834EB
S113226039000096E2E74746019E41463D4D3E4C0B
S11322700868286001C920609942F9D10021384BCF
S113228099463B4B98463E4B9C46042502244346C4
S11322904846085818606346CB583748824653442A
S11322A018782843187018782043187004311C29B2
S11322B0EDD100239C46314B9B46284D264B984636
S11322C0294B9A46B1463E00674615E004310A336D
S11322D0A34208D0286A0E680642F7D0900046460A
S11322E083510132F2E7009E63461B6851460B603E
S11322F0013704360A2F09D0B4465B4631681960A9
S11323003B003C00463416490096E3E74E46002A5B
S113231008DD1C4B920010498A1802CE1970013353
S1132320B242FAD10024184D184E194F02E001347C
S1132330462C0AD02000A8470028F8D02000B04737
S11323400028F4D12000B847F1E703B03CBC904624
S11323509946A246AB46F0BD3C0000200044004133
S11323605863000008440041144400419063000095
S113237004440041B8630000404400411844004153
S1132380746300002800002045210000192100008A
S113239071210000044B1900C83100221A70013366
S11323A08B42FBD17047C04604030020F0B5C646FB
S11323B000B5194B18788300C0184000174B1978E2
S11323C0142359430B0013339BB20200093292B217
S11323D0134CA047134C2500C835134B9846134F94
S11323E0134E0BE0134B18880002134B1B88184341
S11323F080B20F4B98470134AC420AD02378FF2BAC
S1132400F0D04346188800023B88184380B2B04796
S1132410F1E704BC9046F0BD980200209902002028
S11324204129000004030020D2030020CC03002033
S1132430212B0000CE030020D0030020F8B5DE4697
S113244057464E464546E0B583468A4680222F4B82
S11324501A602F4AC723D15C02200143D154D15CB6
S113246004200143D1542B4C8023DB0323602A4BEB
S113247018788300C0184000284B19781423594356
S11324800B0013339BB20200093292B2244DA847C9
S113249000212E20234B9847234B802212041A60DC
S11324A08022520222601A60204BC922914699442C
S11324B02000802252021C49154CA046A024A446A8
S11324C08025002705E01F7002600A6001334B4538
S11324D009D002600A6044466646A4592542F2D0F7
S11324E0FF241C70F0E7802212040F4B1A60104A7C
S11324F0104B1A60084B5A461A70084B52461A7011
S11325003CBC90469946A246AB46F8BD8444004183
S113251000440041944400419802002099020020A4
S1132520412900008D2B0000984400410403002041
S1132530FFFF000088440041F0B5DE4657464E4692
S11325404546E0B5A7B07C4C4622210014A87B4D3B
S1132550A84721004831462202A8A847784E3100F6
S1132560143135000023019302E001358D420BD074
S11325702B781A000D3A50424241313B58424341B4
S11325801343F2D00193F0E700276D4B9A466D4B4D
S11325909B466D4B994607E06C4B1B78002B38D15A
S11325A00137142F00D1BAE05346FC5C2000D84711
S11325B00028F5D14B46DC55FF2CF1D0232CEBD071
S11325C02D2C34D0372C41D0412C4ED0312CE7D097
S11325D00D2CE5D03A2C57D0452C6BD0422C74D01E
S11325E0019B002B00D181E002AB185D584B98474A
S11325F0564B18784E28D3D81C00431C2370554BD7
S11326001978554B9847237801332370534B9847D7
S1132610C6E7534CA0474F4B19784C4B18780138F8
S1132620C0B24D4B9847A0474C4B9847B8E7494B2D
S11326301B78172BB4D84A4B9847464B197801316D
S1132640C9B2424B1878444B9847A9E7414B1B78D1
S1132650002BA5D0424B98473E4B19780139C9B29B
S11326603A4B18783C4B98479AE7384B1B784E2BDB
S113267096D83B4B9847374B1978344B1878013030
S1132680C0B2354B98478BE7324B1B78172B09D0D8
S1132690334B98472F4A13780133137000222B4B86
S11326A01A707DE72E4B98472E4B98470022274BF4
S11326B01A7075E7274B1B78172B03D00133254A73
S11326C013706DE7274B98476AE7254B98471F4CD3
S11326D02378013B237020201D4B98471F4B9847BC
S11326E01C4B197820781C4B984759E714AB185D9C
S11326F0174B9847154B18784E2800D950E7984641
S1132700431C42461370134B1978134B98474346A6
S11327101B78013342461370104B984740E7FF2360
S113272033700136AE42FBD127B03CBC904699468B
S1132730A246AB46F0BDC046C8620000A932000004
S113274028000020452100001400002098020020E9
S11327506D1E0000990200203D2400009523000016
S1132760AD2300005D1F0000F0B5C64600B5394B2F
S11327701B78002B37D0384B18788300C0184000E2
S1132780364B1978142359430B0013339BB20200C0
S1132790093292B2324CA047324C2500C835324B34
S11327A09846324F324E09E04346188800023B886F
S11327B0184380B2B0470134A5420CD02378FF2BD4
S11327C0F2D02C4B188800022B4B1B88184380B284
S11327D0274B9847EFE71F4A137801214B401370AA
S11327E004BC9046F0BD1C4B18788300C018400010
S11327F01A4B1978142359430B0013339BB202006C
S1132800093292B2164CA047164C2500C835164B17
S11328109846164F164E0BE0164B18880002164BBE
S11328201B88184380B2124B98470134AC420AD03B
S11328302378FF2BF0D04346188800023B881843C6
S113284080B2B047F1E7034A137801214B4013707B
S1132850C6E7C0461000002098020020990200201C
S11328604129000004030020D2030020CC030020EF
S1132870212B0000CE030020D003002010B54B090B
S11328800724A0431843054B1880C900E0231940CE
S1132890D2080A43024B1A8010BDC046CE03002062
S11328A0D003002010B54B090724A0431843054B5F
S11328B01880C900E0231940D2080A43024B1A8049
S11328C010BDC046D2030020CC03002070B5194CC3
S11328D0194B1C6000020143184B1960D3170F26D3
S11328E01E40B61836110025002E0CDD124C802136
S11328F089021248102321600160013B002BFAD1A8
S11329000135AE42F6D1130713D0D3171B0FD218DB
S11329100F211140C91A4B1C002B0ADD190000239A
S1132920054C8022920205482260026001339942DC
S1132930FAD170BDFFFF0000944400419844004167
S1132940F0B583B00E0000931C4B1D88281A87B283
S1132950AD1AADB200212A20194CA0470196300AC5
S1132960184EB04701212A20A0476B461879B0477A
S113297002212A20A047009B180AB04703212A20DD
S1132980A0476B461878B04700212B20A047280A9F
S1132990B04701212B20A047E8B2B04702212B20E9
S11329A0A047380AB04703212B20A047F8B2B0470C
S11329B000212C20A04703B0F0BDC04656010020E2
S11329C08D2B0000BD2B0000F0B5CE46474680B5E8
S11329D083B08146884615001C00904202DD030442
S11329E091461D0CA04503DD43461B04A0461C0C68
S11329F08027FF03124B1F60A3B2AAB24146684668
S1132A00C180C18848466E46F080F0880D4EB047BC
S1132A100D4E80231B0433604B46ED1A01354346AB
S1132A20E21A01326A43094B1988094B1888094B89
S1132A309847376003B00CBC90469946F0BDC04639
S1132A40944400414129000098440041D0030020EF
S1132A50CE030020CD280000F0B5CE46474680B511
S1132A6083B08146884615001C00904202DD0304B1
S1132A7091461D0CA04503DD43461B04A0461C0CD7
S1132A808027FF03124B1F60A3B2AAB241466846D7
S1132A90C180C18848466E46F080F0880D4EB0472C
S1132AA00D4E80231B0433604B46ED1A013543461B
S1132AB0E21A01326A43094B1988094B1888094BF9
S1132AC09847376003B00CBC90469946F0BDC046A9
S1132AD0944400414129000098440041CC03002063
S1132AE0D2030020CD28000010B5044B1B88044AF3
S1132AF0128800210020034CA04710BD560100207D
S1132B00540100204129000010B58022D203024B59
S1132B101A60024B984710BD94440041E92A000012
S1132B2010B5C1B2000A014B984710BDA52B000097
S1132B3010B50023064A1380064A1380064B1B88EF
S1132B40064A128800210020054CA04710BDC0464B
S1132B50CE030020D00300205401002056010020A1
S1132B60C929000010B5064C064B2360000201433E
S1132B70054B19608022920222601A6010BDC04683
S1132B8094440041FFFF00009844004110B58022A6
S1132B901204024B1A60024B984710BD9444004142
S1132BA0652B000010B580221204024B1A60024B00
S1132BB0984710BD98440041652B000010B50100F2
S1132BC080221204024B1A600020024B984710BD69
S1132BD098440041652B0000F0B5C64600B582B0AC
S1132BE0804B814F1F608025ED051D608026F60314
S1132BF01E608020800218608021090419608022F0
S1132C0052021A60794C276025602660206021609A
S1132C1022601A60764F3A603D600520754B9846F5
S1132C20984725600520C0473D60266000246F4B0F
S1132C30984680252D042F006F4E43461F60A15DEA
S1132C406E4BE05C6E4B9847694B1D606D4BE05CCE
S1132C506D4B98470134462CEFD1D1230193684D35
S1132C60694F6A4C2600343600210198A847207821
S1132C70B8470134A642F7D1019B0133DBB201937B
S1132C80D62BEED10021F0205D4CA04755205E4D9F
S1132C90A8470121F020A047AA20A8470221F0203C
S1132CA0A0475220A8470321F020A0470820A847A6
S1132CB00421F020A0470020A8470021B120A0470C
S1132CC0CC20A8470121B120A0470020A84700211B
S1132CD0B520A0475020A8470021B620A0470520D2
S1132CE0A8470021B720A0477020A8470121B7209A
S1132CF0A0477020A8470021B820A0470120A8477A
S1132D000121B820A0470320A8470221B820A047EA
S1132D100320A8470321B820A0470320A847002187
S1132D20BC20A0470220A8470121BC20A0470020C6
S1132D30A8470221BC20A0470020A8470021C920A1
S1132D40A047D020A8470121C920A0470220A847B6
S1132D500221C920A0475020A8470321C920A04729
S1132D605020A8470421C920A0475020A84700218B
S1132D703520A0470020A84700213A20A04755202D
S1132D80A84700213620A0470020A8470021112091
S1132D90A0476420174EB04700212920A047642093
S1132DA0B04700215120A047FF20A8478022D2032A
S1132DB00F4B1A60164B9847002200210020154B38
S1132DC09847002200210020134B9847EA23FF3341
S1132DD0124A00210020124CA04702B004BC9046C5
S1132DE0F0BDC04688440041FFFF00009444004108
S1132DF09844004101040000A4640000146400002D
S1132E008D2B00005C640000BD2B0000E06300001B
S1132E10092B00007D280000A52800001F030000E6
S1132E20C9290000064B1B8801339BB2054A934213
S1132E3002D0034A138070470022014B1A80FAE73C
S1132E409A0200201127000010B50E4B1868FA21D1
S1132E5089000D4B984701380C4B98420DD80C4A09
S1132E6050600C48036A1B021B0AC02109060B436D
S1132E700362002393600733136080221206064B1B
S1132E801A6010BD0C000020F5300000FFFFFF00A9
S1132E9010E000E000ED00E000E100E030B591B0AA
S1132EA08023DB05009300230193FF2269460A81F6
S1132EB000228B72CB729621890108910121242072
S1132EC06C4621540130215425316354013163543B
S1132ED00A93053163540131635405932382E376E5
S1132EE02276227762761323A376627780235B03AC
S1132EF00393124B0C93124B0D9301235B420E93DD
S1132F000F93104D104C6A4610492800A047002822
S1132F10F9D10C4D2C6820000D4B98471F23184005
S1132F201E3B83400B4A13602A68D369002BFCD1F3
S1132F30236802221343236011B030BD020016003F
S1132F4002001700D40300206D0E0000001400429C
S1132F50DD0D000000E100E010B58CB06846114BB7
S1132F6098471C236A4613730F4C10492000104BDA
S1132F7098472268537E5BB2002BFBDB8021090457
S1132F800C4B19600F2393751376137802210B43AE
S1132F901370054B1A68537E5BB2002BFBDB0CB03D
S1132FA010BDC046D50400000804002000400042C3
S1132FB01905000000E100E070B52A4B98472A4B40
S1132FC098472A4B19684B7E5BB2002BFBDB0B7BCB
S1132FD0022213430B734B7E5BB2002BFBDB0120FD
S1132FE00425022401E010420AD10B7EDBB2020068
S1132FF01A401D4200D022431C42F4D02A43F2E777
S11330004B7E5BB2002BFBDB4C8BA4B201230B7613
S11330100A7ED2B21340500701D50220034392071F
S113302001D5042213435B0701D502230B760D4B14
S113303098470F4B984720000E4B98470E4B9847E4
S11330400E4B98470E4B98470E4B98470E480F4B24
S113305098470F4B98470F4B9847002100200E4B81
S1133060984770BD3D1B0000592F00000804002044
S1133070C1030000013300009D2E0000651D000007
S1133080D92B0000E5010000EC640000CD32000003
S1133090492E0000952300003D240000F8B50E4B96
S11330A098470E4E0E4D0F4F14E00C4B1888142108
S11330B00B4B984789B2002908D030BF30882100D3
S11330C0A84789B20029F0D1B847EEE7064B9847E4
S11330D0064B9847064CF0E7B92F00009A020020EF
S11330E00132000069270000952100003925000005
S11330F010270000002243088B4274D303098B423B
S11331005FD3030A8B4244D3030B8B4228D3030CB3
S11331108B420DD3FF22090212BA030C8B4202D355
S11331201212090265D0030B8B4219D300E0090A7D
S1133130C30B8B4201D3CB03C01A5241830B8B4286
S113314001D38B03C01A5241430B8B4201D34B036F
S1133150C01A5241030B8B4201D30B03C01A5241D4
S1133160C30A8B4201D3CB02C01A5241830A8B4259
S113317001D38B02C01A5241430A8B4201D34B0242
S1133180C01A5241030A8B4201D30B02C01A5241A6
S1133190CDD2C3098B4201D3CB01C01A524183095A
S11331A08B4201D38B01C01A524143098B4201D394
S11331B04B01C01A524103098B4201D30B01C01ABF
S11331C05241C3088B4201D3CB00C01A5241830839
S11331D08B4201D38B00C01A524143088B4201D366
S11331E04B00C01A5241411A00D2014652411046C6
S11331F07047FFE701B5002000F006F802BDC046A5
S11332000029F7D076E770477047C046F0B5CE4640
S1133210474615042D0C2E0080B50704140C3F0CF2
S11332209946030C7E435D43674363437F19340C23
S1133230E4199C46A54203D980235B029846C44402
S11332404B46514343433604360C250C2404654451
S1133250A4195918491920000CBC90469946F0BD90
S113326070B500260C4D0D4C641BA410A64209D168
S1133270002603F093F90A4D0A4C641BA410A642DD
S113328005D170BDB300EB5898470136EEE7B300A3
S1133290EB5898470136F2E7A8650000A8650000DE
S11332A0A8650000AC650000002310B59A4200D167
S11332B010BDCC5CC4540133F8E703008218934278
S11332C000D1704719700133F9E700000FB40B4BBC
S11332D013B51C68002C05D0A369002B02D1200073
S11332E000F02EFA05AB049AA1682000019300F0C7
S11332F003FC16BC08BC04B01847C04658010020A3
S1133300104B70B51C680500A36B002B15D1182059
S113331000F018FB0C4BA06303800C4B012243808C
S11333200B4B83800B4BC3800B4B038105234381E1
S1133330063383810023026143610022A36B1D6174
S11333405A6170BD580100200E330000CDABFFFF61
S1133350341200006DE6FFFFECDEFFFF154B10B5E5
S11333601C68A36B002B15D1182000F0EBFA124B4C
S1133370A0630380114B01224380114B8380114BC6
S1133380C380114B038105234381063383810023CA
S113339002614361A46B0D4A206961690C4BFFF71C
S11333A035FF0122002380185941206161614800E2
S11333B0400810BD580100200E330000CDABFFFFC4
S11333C0341200006DE6FFFFECDEFFFF2D7F954C0D
S11333D02DF451584A424A41802310B55200DB0073
S11333E000F002F810BD0000F0B51D004F4B85B091
S11333F01E6804000F000092002E05D0B369002B54
S113340002D1300000F09CF9494B9C4250D17468C1
S1133410009B022B05D0012B00D984E0002D00DA9B
S113342081E02100300000F01DF9616B002908D013
S113343023004433994202D0300000F08DFA002377
S113344063630023A3616360A3891B0603D5216919
S1133450300000F081FAA389364A1340A381009B0F
S1133460022B5AD003AB02AA2100300000F0FEF96F
S1133470A3891843A081002D24D1029D280000F0C7
S113348061FA0195071E42D1029B0193AB4239D1E7
S1133490012040420223A2891343A3810023A36095
S11334A023004733236023610123636105B0F0BD2A
S11334B0214B9C4201D1B468AAE7204B9C42A7D17E
S11334C0F468A5E7002FD9D0B369002B02D13000EE
S11334D000F036F9009B012B03D1A389009A1A430B
S11334E0A2810820A389276027616561184018D04C
S11334F0012018400023984211D06D42A360A561B9
S11335001800D3E7019800F01DFA071EC0D08023ED
S1133510A289019D1343A381D6E70020BAE7A560E1
S1133520C4E7A060C2E701204042BFE75801002081
S1133530286500005CF3FFFF486500000865000093
S11335400023C25C0133002AFBD1581E70470000DF
S1133550F7B58A8905000C00130760D44B68002B6B
S113356004DC0B6C002B01DC0020FEBDE76A002F9D
S1133570FAD000232E682B6080235B011A4034D0DC
S1133580606DA3895B0706D56368C01A636B002B63
S113359001D0236CC01A0200216A00232800E76AC4
S11335A0B847A189431C06D12B681D2B31D82C4A5E
S11335B0DA40D3072DD50023636023692360CB044D
S11335C005D5431C02D12B68002B00D16065616BCB
S11335D02E600029C8D023004433994202D0280029
S11335E000F0BAF900206063BFE70123216A2800D4
S11335F0B847431CC5D12B68002BC2D01D2B01D06A
S1133600162B01D12E60AFE74023A2891343A38177
S1133610ABE740230B430120A3814042A5E70F6998
S1133620002FA1D00B680F60DB1B019300239207CE
S113363000D14B69A360019B002B00DC94E7019B44
S11336403A00216A2800A66AB047002803DC402318
S1133650A2891343DFE7019B3F181B1A0193EAE792
S1133660010040200B6970B505000C00002B01D14E
S1133670002070BD002804D08369002B01D100F024
S11336805FF80B4B9C4209D16C680C22A35E002BA3
S1133690EED021002800FFF75BFFEAE7054B9C42D0
S11336A001D1AC68F1E7044B9C42EED1EC68ECE745
S11336B028650000486500000865000010B502494F
S11336C000F0B2F810BDC04665360000002310B506
S11336D0040003604360836081814366C2810361A7
S11336E043618361190008225C30FFF7E6FD054B56
S11336F024626362044BA362044BE362044B2363BE
S113370010BDC046654000008D400000C54000006B
S1133710F140000070B568254A1E55430E0029008B
S1133720743100F063F9041E08D000212A000160FE
S113373046600C30A0606832FFF7BFFD200070BD0A
S1133740836913B50400002B28D18364C364036523
S1133750134B144A1B6882620193984201D10123DE
S11337608361200000F020F86060200000F01CF865
S1133770A060200000F018F80022E06004216068D6
S1133780FFF7A4FF01220921A068FFF79FFF02228F
S11337901221E068FFF79AFF0123A36113BDC0461D
S11337A004650000BD360000F8B51E4B07001E6816
S11337B0B369002B02D13000FFF7C2FF4836B4686A
S11337C07368013B04D53368002B07D03668F6E7ED
S11337D00C22A55E002D0DD06834F2E704213800D8
S11337E0FFF798FF30600028F0D10C2304003B6001
S11337F02000F8BD012320005B42E3810233A38152
S113380065662560A560656025616561A56108221E
S113381029005C30FFF751FD6563A563A564E56489
S1133820E6E7C04604650000F7B50400070000267B
S113383001914834002C01D13000FEBD6368A568B5
S11338400093009B013B009301D52468F2E7AB8908
S1133850012B08D90E22AB5E013304D029003800B5
S1133860019B984706436835EBE7000070B50E00EE
S11338701D000E23C95E90B01400002907DA00234E
S11338802B60B3891B0611D48023DB000FE001AA4F
S113389000F026FD0028F2DBF022029B1202134006
S11338A0054A9B185A4253412B60EDE74023002000
S11338B0236010B070BDC04600E0FFFFF7B50226DC
S11338C08B8905000C00334206D023004733236064
S11338D0236101236361F7BD01AB6A46FFF7C6FFAD
S11338E000990700280000F081F8002808D10C2274
S11338F0A35E9A05EFD4032293431E43A681E4E713
S11339000F4BAB628023A28920601343A381009BE9
S113391020616361019B002B0DD00E23E15E280022
S113392000F0F0FC002806D00322A38993431A0078
S113393001231343A381A0893843A081CBE7C04668
S1133940BD36000010B5034B0100186800F04EF8B6
S113395010BDC0465801002070B50500002910D0E4
S11339600C1F2368002B00DAE418280000F0FBFC8D
S11339701D4A1368002B05D163601460280000F011
S1133980F3FC70BDA34209D9216860188342F3D1C6
S113399018685B6841182160EEE713005A68002A32
S11339A001D0A242F9D919685818A0420BD1206855
S11339B00918581819608242E0D1106852684118F9
S11339C019605A60DAE7A04202D90C232B60D5E7CC
S11339D021686018824203D110685268411821603E
S11339E062605C60CAE7C0469C020020032370B595
S11339F0CD1C9D43083506000C2D1ED20C25A94272
S1133A001DD8300000F0AFFC254A146821000029BD
S1133A1019D1244C2368002B03D1300000F010FB93
S1133A2020602900300000F00BFB431C2CD10C2338
S1133A303000336000F098FC03E0002DDFDA0C2343
S1133A403360002070BD0B685B1B1AD40B2B03D9A9
S1133A500B60CC18256003E08C420ED163681360C0
S1133A60300000F081FC200007220B30231D90431E
S1133A70C31AE7D05A42E250E4E74B6863600C0093
S1133A80EEE70C004968C2E70323C41C9C43A04230
S1133A90E0D0211A300000F0D3FA431CDAD1C6E793
S1133AA09C020020A0020020936810B5013B9360A3
S1133AB0002B05DA9469A34208DBCBB20A2B05D0AC
S1133AC01368581C10601970C8B210BD00F016FBC2
S1133AD0FBE7F8B506000F001400D518AC4201D17D
S1133AE0002007E021783A003000FFF7DDFF0134C1
S1133AF0431CF3D1F8BD0000F0B59FB006000F00E1
S1133B0014000593002804D08369002B01D1FFF72A
S1133B1017FE7F4B9F425CD17768BB891B0762D538
S1133B203B69002B5FD0002306AD6B6120336B76BD
S1133B301033AB760294029C2378002B5DD1029B58
S1133B40E31A04930DD0049B029A39003000FFF766
S1133B50C0FF431C00D1CCE06A69049B94466344D3
S1133B606B612378002B00D1C3E001220023524271
S1133B706A6002A95432521801342B60EB60AB60C6
S1133B801370AB6521780522624800F0E1FB631CE9
S1133B909C46002835D12968CB0604D5532302AAB4
S1133BA020309B1818700B0704D553232B2002AA2E
S1133BB09B18187023782A2B2CD000200A21099BEB
S1133BC02278303A092A00D86BE000282AD00993D9
S1133BD028E0514B9F4201D1B7689EE74F4B9F426B
S1133BE09BD1F76899E73900300000F0F1FA00281A
S1133BF099D0012040421FB0F0BD252B9FD0013445
S1133C009AE7444B2968C01A012383400B432B6075
S1133C106446B7E7059B181D1B680590002B3ADB2B
S1133C200993644623782E2B0BD16378621C2A2BCC
S1133C303FD1059B02341A1D1B680592002B35DB0E
S1133C40079321780322364800F082FB002807D02E
S1133C50334B2A68C01A4023834013432B6001343A
S1133C602178631C06222F480293297600F070FB0A
S1133C70002844D02C4B002B2FD12968059B072208
S1133C80C90528D59B189343083305936B69039A98
S1133C909B186B614FE75B42EB6002230B432B6085
S1133CA0BFE74B4301349B18012089E701235B42A2
S1133CB0C6E7002314000A201A006B60217830390B
S1133CC0092903D9002BBCD00792BAE74243013437
S1133CD052180123F2E70733D5E705AB00933A0006
S1133CE0124B2900300000E000BF0390039B013316
S1133CF0CCD1BB895B0600D57BE70B987BE705AB92
S1133D0000933A00094B2900300000F07FF8ECE7FB
S1133D10286500006865000048650000086500002B
S1133D206E6500007265000000000000D33A0000D8
S1133D30F7B5150001938A680B6900900C00934253
S1133D4000DA130022002B6043321278002A01D0DB
S1133D5001332B6023689B0602D52B6802332B604A
S1133D60062723681F4027D0230043331B785A1E9D
S1133D7093412268920630D422000199433200987C
S1133D80089EB047431C25D0062320682A68E168B2
S1133D9003400025042B03D18D1AEB43DB171D4090
S1133DA0A3682269934201DD9B1AED180027BD42E6
S1133DB020D1002010E00137E3682A689B1A9F4253
S1133DC0D2DA22000123193201990098089EB047E3
S1133DD0431CF0D101204042FEBD3020E1184331A4
S1133DE0087021005A1C45310978A2184332023365
S1133DF01170C1E7220001231A3201990098089E2C
S1133E00B047431CE6D00137D1E70000F0B58BB0D2
S1133E1006920A0043320793059004920A7E0C002E
S1133E20109B6E2A00D18FE017D8632A2CD008D8B3
S1133E30002A00D199E0582A54D026004236327024
S1133E4029E0642A01D0692AF7D121681A68080692
S1133E5023D5111D1960156825E0732A00D188E067
S1133E6008D86F2A29D0702AE7D1202209680A438A
S1133E70226003E0752A20D0782ADED1220078213E
S1133E80453211706C4A30E00E001A684236111D3A
S1133E90196013683370012379E04906D9D5111DDF
S1133EA019600023D55E002D03DA2D23049A6D4298
S1133EB01370624B0A2703932FE0206819680506E4
S1133EC003D5081D18600D6805E04006F9D50D6896
S1133ED0081D1860ADB2594B082703936F2A18D0F8
S1133EE00A2716E045310A70544A03921A68216879
S1133EF0101D18601568080622D5CB0702D52023AB
S1133F00194321601027002D03D1202322689A43EE
S1133F1022602300002243331A706368A360002BDD
S1133F205CDB0422216891432160002D58D1049E5A
S1133F30002B64D02600039B42361B7833705EE06E
S1133F404806DAD5ADB2D8E709681A68080605D577
S1133F50111D1960136862691A6006E04906F7D5F5
S1133F60111D19601368A28A1A800023049E23611C
S1133F7054E01A68111D1960166800216268300047
S1133F8000F0E6F9002801D0801B606063682361BB
S1133F900023049A137041E02369320006990598BE
S1133FA0079DA847431C43D0236800259B070FD4D3
S1133FB0099BE06898423DDA18003BE022000123A7
S1133FC0193206990598079EB047431C30D0013535
S1133FD0E368099A9B1A9D42F0DBE9E7002DA9D01A
S1133FE0049E28003900FFF70BF9039B013E5B5C3C
S1133FF0280033703900FFF77DF8051EF1D1082F32
S113400009D12368DB0706D563682269934202DC81
S11340103023013E3370049B9B1B2361079B09AA39
S113402000932100069B0598FFF782FE431CB3D141
S1134030012040420BB0F0BD8A65000079650000A4
S1134040002370B5064C050008002360FDF74AFE06
S1134050431C03D12368002B00D02B6070BDC046E5
S11340602804002070B50C000E25495F00F07EF98D
S1134070002803DB636D1B18636570BDA389024AC6
S11340801340A381F9E7C046FFEFFFFFF8B51F0017
S11340908B8905000C001600DB0505D50E23C95ECF
S11340A00022022300F040F9A389054A28001340A6
S11340B0A38132000E23E15E3B0000F075F8F8BDE9
S11340C0FFEFFFFF70B50C000E25495F00F02CF9DF
S11340D0A389421C03D1054A1340A38170BD8022E9
S11340E052011343A3816065F8E7C046FFEFFFFF69
S11340F010B50E23C95E00F0E1F810BDF8B5050057
S11341000E001400002804D08369002B01D1FFF7AE
S113411017FB224B9C422DD16C68A369A360A38931
S11341201B0731D52369002B2ED023682269F7B2EF
S1134130981A6369F6B2984205DB21002800FFF75C
S113414091FA002826D1A3680130013BA3602368BB
S11341505A1C22601F706369984204D0A389DB074C
S11341601AD50A2E18D121002800FFF77BFA00285F
S113417012D00FE00A4B9C4201D1AC68CDE7094B49
S11341809C42CAD1EC68C8E72100280000F020F85E
S11341900028CAD0012676423000F8BD2865000008
S11341A0486500000865000070B5050008001100AE
S11341B00022064C22601A00FDF76CFD431C03D15B
S11341C02368002B00D02B6070BDC046280400205B
S11341D0364B70B51D6806000C00002D05D0AB6988
S11341E0002B02D12800FFF7ABFA314B9C420FD1D0
S11341F06C680C23E25E93B219072DD4D90611D44E
S113420009230120336037331343A381404270BD37
S1134210284B9C4201D1AC68EBE7274B9C42E8D188
S1134220EC68E6E75B0713D5616B002908D023002F
S11342304433994202D03000FFF78EFB00236363BE
S11342402422A3899343A381002363602369236009
S11342500823A2891343A3812369002B0BD1A02136
S11342608022A389890092000B40934203D021004D
S11342703000FFF723FB0123A289134011D0002350
S1134280A36063695B42A361002023698342BED1BA
S11342900C23E25E1306BAD540231343A3810138ED
S11342A0B5E7920700D46369A360EDE758010020E5
S11342B0286500004865000008650000002370B50B
S11342C0064C050008002360FDF71EFD431C03D1C6
S11342D02368002B00D02B6070BDC046280400204A
S11342E0002370B5064C0500080011002360FDF79B
S11342F00EFD431C03D12368002B00D02B6070BD3E
S113430028040020002370B5064C05000800236033
S1134310FDF702FD431C03D12368002B00D02B6062
S113432070BDC0462804002070B5050008001100C7
S11343300022064C22601A00FDF7F0FC431C03D156
S11343402368002B00D02B6070BDC04628040020D9
S1134350C9B28218904201D10020704703788B4281
S1134360FBD00130F6E770477047000070B50500D8
S1134370080011000022064C22601A00FDF768FCB8
S1134380431C03D12368002B00D02B6070BDC046B2
S1134390280400200A000A0014001400140000007D
S11343A07C010A007C010A0086011400000014004C
S11343B00A00220186011400900122010A00220150
S11343C014002C017C01220186012C0114002C0113
S11343D07C01360100001E0032002800000032007B
S11343E032003C0050001E0018012800460028003E
S11343F05000BE005000BE001801C800180128007B
S11344002201BE00000046003200500000005A00A5
S11344103200640000006E00320078000000820068
S113442032008C00000096003200A0000000AA00B8
S11344303200B4000000BE003200C8002C01C800E5
S11344407201D2001E00DC007201E6001E00F000C2
S11344507201FA001E00040172010E015A001801D3
S11344602C012201B450BE82AA82BE8C8C3C96647C
S1134470D23CDC6482968CA08CA0DCAADC96E6A0FC
S1134480783CF0506E46785A963CAAAAC83CDCA008
S1134490D2A0E6AA556E69782065706F6368206DB6
S11344A0696E757320307846462064617973000024
S11344B031335E35202B2031365E35203D203137B7
S11344C05E3500005265746963756C6174696E676A
S11344D02053706C696E65730000000056696F6C40
S11344E0656E636520776F726B730000546162734D
S11344F0210000004B696C6C2042696C6C696F6E22
S113450061697265732028616E64205472696C6CF1
S1134510696F6E616972652900000000496E7465F7
S11345207265737420696E20746563686E6F6C6F56
S11345306779206973206E6F7420612070657273CF
S11345406F6E616C697479003130205052494E5459
S11345502043485224283230352E352B524E4428DD
S11345603129293B203A20474F544F203130000055
S11345704E6F20676F64732E204E6F206D617374CD
S11345806572732E204E6F2065787465726E616C4F
S1134590206C69627261726965732E005370616385
S11345A0657321005469616E616E6D656E2053718F
S11345B0756172652031393839000000416D6572CA
S11345C06963612077617320666F756E646564202A
S11345D06F6E20736C617665727900005468657241
S11345E065206973206F6E6C7920636170697461F2
S11345F06C20616E64206C61626F7200456E636F43
S113460075726167652073796D6D65747269632075
S1134610636C617373207761726661726500000078
S11346202443555252454E545F4D454D45000000BC
S113463041204E6963652054545900005472616EE0
S11346407320726967687473206172652068756D80
S1134650616E207269676874730000006920203DF0
S11346602030783566333735396466202D2028208C
S113467069203E3E203120293B0000004143414255
S113468000000000446566636F6E27732063616EEB
S113469063656C65642E0000526174736E65737497
S11346A03A204E6F7468696E6720546F20446F21FE
S11346B000000000497420686173203639206B655E
S11346C079732E00426563617573652056542D34E9
S11346D032302077617320616C7265616479207473
S11346E0616B656E00000000436F6D7072657373DB
S11346F0696F6E20616C676F726974686D206261A6
S1134700736564206F6E2042425020283139393756
S11347102900000054686520736F75726365206F0B
S11347206620746865204D6973736973736970706A
S11347306920726976657220697320696E205065FC
S11347406E6E73796C76616E69612E004F66666574
S11347506E736976652068617264776172650000C2
S1134760466F6C6C6F7720576F726C6420506F6764
S11347702046656465726174696F6E202020204054
S1134780576F726C64506F670000000044756D6D64
S11347907920746869636320636C69656E740000D2
S11347A041204E696365205454592E20416E204F98
S11347B04B20436F6D70757465722E004920634100
S11347C06E204F70456E2041204C6F436B2057691B
S11347D05468204120734F64412063416E000000FF
S11347E0536F6C69646172697479206973206E6FA8
S11347F0742061206E6577206672616D65776F72D3
S11348006B0000004272656164626F617264696E7C
S113481067204973204E6F742041204372696D658F
S1134820000000004F6666206279206F6E65206587
S113483072726F72732061726520636F6D6D6F6E3B
S113484000000000E20600002E0900002E0900000E
S11348502E0900002E0900002E0900002E09000078
S11348602E0900002E0900002E0900002E09000068
S11348702E0900002E0900002E0900002E09000058
S11348802E090000CA0600002E0900002E090000AF
S11348902E0900002E0900002E0900002E09000038
S11348A02E0900002E0900002E0900002E09000028
S11348B02E0900002E0900002E0900002E09000018
S11348C02E090000DA0600002E0900002E0900005F
S11348D02E0900002E0900002E0900002E090000F8
S11348E02E0900002E0900002E0900002E090000E8
S11348F02E0900002E0900002E0900002E090000D8
S11349002E090000D2060000EA060000B2060000EC
S1134910C2060000BA060000020000000300000006
S11349202800000029000000040000000500000029
S11349300600000007000000200000002100000025
S113494022000000230000002400000025000000D5
S113495026000000270000000800000009000000F5
S11349600A0000000B00000000080042000C004296
S1134970001000420014004200180042001C0042D3
S1134980DE130000DA130000DA1300004014000004
S113499040140000F2130000E4130000F8130000B8
S11349A02E14000000160000E0150000E0150000C1
S11349B06C160000F21500000E160000E41500004D
S11349C01C1600005C16000000000000000000003F
S11349D000000000000000000000000000000000D3
S11349E000000000000000000000000000000000C3
S11349F000000000000000000000000000000000B3
S1134A0000000000000000000000000000000000A2
S1134D000000000000000000000000000003FF306D
S1134D103FF300000000000000000000000000005D
S1134D200003F0003F00000000000003F0003F001B
S1134D300000000000003300033003FFF03FFF00D9
S1134D403300033003FFF03FFF0033000000000096
S1134D5000003000CCC00CCC03FFF03FFF00CCC0FF
S1134D600CCC0030000000000000000E0383300E65
S1134D701C00380000E000E380330E01C030000066
S1134D8000033000330000C00F33030C3030C30382
S1134D900C3030C300F3C00000000000000000002D
S1134DA000300003C0000F000030000000000000CD
S1134DB000000000000000000000300300C0C00339
S1134DC0F0003F00000000000000000000000000B0
S1134DD0003F0003F000C0C03003000000000000EA
S1134DE00000000000000000C000CCC003F0000C74
S1134DF00000C0003F000CCC000C000000000C00C0
S1134E0000C0000C0000C000FFC000C0000C000087
S1134E10C0000C00000000000000000000000000C2
S1134E200000C0000F0000300000C00000000000BF
S1134E300C0000C0000C0000C0000C0000C0000CFE
S1134E400000C0000C000000000000000000000092
S1134E5000000000F0000F0000F00000000000005F
S1134E600000000000000300000C0000300000C03F
S1134E70000300000C0000300000003F000FFC03A2
S1134E80C0F03003030030300303C0F00FFC003FD8
S1134E9000000000000000000000303FFF03FFF0AE
S1134EA0180300C0300603000000000000F0300FBB
S1134EB003030C3030C3030C3030330303303C3F66
S1134EC000C0F000000303C03C3C03EC3033C303D8
S1134ED01C30300303003030070300C0000000031F
S1134EE00000300003003FFF01C3000630003B0018
S1134EF000F00007000000030FC030FC0330303323
S1134F000303303033030330303FC303FCC00000DD
S1134F100003C0003C030C3030C3030C3030C30327
S1134F20CC300FFF003FC0000003C0003C00033042
S1134F300030C0030300300F0300F0300003000012
S1134F40000000F3C00F3C030C3030C3030C3030BE
S1134F50C3030C300F3C00F3C0000000FF000FFC43
S1134F600330E030C3030C3030C3030C303FC300C4
S1134F70F00000000000000000000000000000F04D
S1134F80F00F0F00F0F0000000000000000000002F
S1134F900000000000000000F0C00F0F00F0F0005F
S1134FA000C00000000000000030030300300C0CBF
S1134FB000C0C0033000330000C0000C000000003B
S1134FC03300033000330003300033000330003378
S1134FD0000330003300000000000000C0000C009B
S1134FE003300033000C0C00C0C030030300300059
S1134FF00000C0000C000330003300030F3030F316
S11350000300003C0000C000000000FF000FF0039C
S11350101E30333303333030C30300303FFF00FF0F
S1135020C00000000FF003FF00F3001C3003030076
S11350301C3000F30003FF000FF0000000F3C00F6A
S11350403C030C3030C3030C3030C303FFF03FFF8C
S1135050030030000000C0C00C0C03003030030318
S11350600030300303C0F00FFC003F000000001EBE
S11350700003F000E1C03C0F030030300303FFF0F5
S11350803FFF0300300000030030300303003030E2
S1135090C3030C3030C3030C303FFF03FFF00000A8
S11350A0030000300003000030C0030C0030C003D4
S11350B00C003FFF03FFF0000000C3C00C3C0303DF
S11350C0303033030030300303C0F00FFC003F00E6
S11350D0000003FFF03FFF000C0000C0000C0000C4
S11350E0C0000C003FFF03FFF000000000000000C0
S11350F0030030300303FFF03FFF030030300300B0
S113510000000000030000300003FFC03FFF030065
S1135110303003000030000F0000C00000030030F6
S1135120300300C0C00C0C0033000330000C003FFF
S1135130FF03FFF000000000300003000030000314
S113514000003000030000303FFF03FFF0000003C5
S1135150FFF03FFF01C0000700003C00070001C052
S1135160003FFF03FFF0000003FFF03FFF0001C01A
S11351700070001C00070001C0003FFF03FFF000A7
S11351800000FFC00FFC03807030030300303003C5
S11351900380700FFC00FFC0000000F0000F00034C
S11351A00C0030C0030C0030C0030C003FFF03FFB1
S11351B0F0000000FF300FF30300C0303F03033062
S11351C030030300303FFF00FFC0000000F0300F49
S11351D00F030FC030F0030C0030C0030C003FFF7E
S11351E003FFF0000000C3C00C3C030C3030C303C9
S11351F00C3030C3030C303FCF00F0C0000003007C
S1135200003000030000300003FFF0300003000012
S11352103000030000000003FFC03FFC000030002A
S11352200300003000030000303FFC03FFC0000017
S113523003C0003FC0003FC0003E000030003E00FD
S11352403FC03FC003C000000003FFE03FFF000079
S113525030003E000F00003E0000303FFF03FFE03F
S113526000000300303C0F00F3C003B0001E000335
S11352707000F3C03C0F03003000000300003C004A
S113528000F00003E0000FF003E000F0003C000336
S1135290000000000300303C0303E0303383030CC0
S11352A0303073030330301F0300F00000000000AF
S11352B0000003003030030300303FFF03FFF00021
S11352C0000000000000000030000F0003C000F0E8
S11352D0003C000F0003C00030000000000000008C
S11352E0000000000000003FFF03FFF03003030054
S11352F03030030000000000000C0003C000F00088
S11353001C000300001C0000F00003C0000C00009F
S113531000000030000300003000030000300003F0
S11353200000300003000030000000000000000016
S113533030000F0003C00030000300000000000034
S1135340000000000FF003F3003330033300333068
S11353500333003330000C0000C00000000FC00312
S1135360CF00303003030030300303001CE03FFF64
S113537003FFF00000000C3000C3003030030300D2
S11353803030030300303003FF000FC0000003FF80
S1135390F03FFF000CC00303003030030300303043
S11353A003FF000FC00000000F0000F300333003C0
S11353B033003330033300333003FF000FC00000E9
S11353C000C0000C0003000030C0030C000FFF00FD
S11353D0FFF000C0000C00000000300C0300C00C03
S11353E03F03F3303333033330333303FFF00CCC58
S11353F00000000FF000FF00300003000030000345
S113540000000C003FFF03FFF0000000000000005C
S11354100000300003033FF033FF0030300003008E
S1135420000000000000000000033FFC33FFF00018
S11354300300003000030003F0003C000000000003
S11354400003006030038C001EC000700003003FA6
S1135450FF03FFF0000000000000000000303FFFE9
S113546003FFF030030300300000000000000000E0
S11354700FF003FF00380000C00007000070000CAC
S11354800003FF003FF00000000FF000FF003000B9
S113549003000030000300003C0000FF003FF00068
S11354A00000000000FC003FF00303003030030361
S11354B000303003FF000FC00000000F0000F000B8
S11354C030C0030C0030C0030C0030C000F0003FBB
S11354D0FF0000003FFF00F00030C0030C0030C0AC
S11354E0030C0030C000F0000F000000000C0001AD
S11354F0C0003000030000300001C0000C0000FFB9
S1135500003FF000000000C0000C00333003330003
S11355103330033300333003F3000C300000000059
S113552000000C0030C003030030303FFC03FFC018
S11355300300003000000000003003FF003FC00003
S113554003000030000300003003FF003FC00000F0
S1135550001C0000E0000780001E0000F0001E0098
S1135560078000E0001C000000003FC003FF0000B3
S113557030001C000300001C00003003FF003FC08B
S11355800000000000000000303001CE0007800061
S11355903000078001CE0030300000000000000021
S11355A0003FFC03FFF000C7000C3000C703FCF011
S11355B03F0C000000303003C3003C3003330033A1
S11355C030030F0030F003030030300000030030DC
S11355D03003030030333300CCC000C0000C0000A3
S11355E000000000000000000000000000000000B7
S11355F003FFF03FFF000000000000000000000077
S11356000000000000000000C000CCC033330333AE
S1135610303003030030000003C0003F00003000BE
S1135620070000C00038000300003F0000F0000045
S11356300000000000000000000000000000000066
S11356400000000000000000000000C0C00C0C03BB
S11356500030300303003C300343C0F00FFC003F34
S113566000000000003003FF01BFC0180300003039
S113567000030180301BFF003FC00000000F00004A
S1135680F30133301B3300B330033300333003FFF3
S1135690000FC00000000FF003F300B33013330019
S11356A0B3300333003330000C0000C00000000F9F
S11356B0F01BF301B33003330033301B3301B33039
S11356C0000C0000C00000000FF003F30033300BA7
S11356D03301B3301333003330000C0000C000003A
S11356E0000FF003F30333304B3304B33033330090
S11356F03330000C0000C00000000C3000C3003048
S1135700300303C03034030300303003FF000FC004
S11357100000000F0000F30033300B330133300B73
S11357203300333003FF000FC00000000F0000F30C
S113573001B3301B33003330033301B3301BFF009C
S11357400FC00000000F0000F3003330033300B338
S1135750301B3301333003FF000FC0000000000092
S113576000000300303003003FF003FF033030300B
S113577003000000000000000000000000300003EF
S113578000BFF013FF00B030000300000000000071
S113579000000000000030000300BFF01BFF0130D8
S11357A03000030000000000000FF0C3FF0CF30002
S11357B01C300303001C300CF300C3FF000FF00087
S11357C000000FF003FF04F300BC300B0300BC30F7
S11357D004F30003FF000FF0000003003030030B5C
S11357E00030B0C3070C3070C3030C303FFF03FF1D
S11357F0F00000003F3003B300313003BE001FF05F
S113580003F3003330033F0001C00000030C3030C9
S1135810C303FFF03FFF0303001C3000F30003FF4A
S1135820000FF0000000000000FC003FF00B03013B
S113583030300B0300303003FF000FC000000000C5
S11358400000FC01BFF01B03003030030301B03043
S11358501BFF000FC0000000000000FC003FF0032D
S11358600300B0301B0301303003FF000FC0000001
S113587000003003FF003FC00803010030080300AC
S1135880003003FF003FC0000000003003FF003F72
S1135890C00803018030100300003003FF003FC044
S11358A00000000000000001BFFC1BFFF000C70067
S11358B00C3180C71BFCF03F0C0000007FC007FCCC
S11358C00DC070D803018030D8030DC07007FC00F0
S11358D07FC0000001FFC0DFFC0C003000030000AB
S11358E030C0030C00301FFC01FFC0000000330077
S11358F0033000C0C00C0C07DEF80C0C00C0C00F55
S1135900FC003F0000000000300C03018030300335
S1135910030630386301FFF00FFF00063000000279
S11359200000380000E24003A4000FF003A400E2EA
S1135930403800020000000000E0000E00031930AF
S11359403193031BF031BE0318003FFF03FFF00047
S11359500000E0001E00038C0038C003FC000FFCB4
S113596000FFFC00CFC00C000000000FF003F301A7
S113597033301B3300B3300333003330000C0000EA
S1135980C0000000000000000000302003033FF0CE
S113599013FF00303000030000000000000000008E
S11359A0FC003FF0130301B0300B0300303003FF61
S11359B0000FC0000000003003FF003FC0100301CF
S11359C08030080300003003FF003FC00000000FD8
S11359D0F008FF013000130000B0000B00013C0090
S11359E000FF003FF0000003FFF03FFF0400C08011
S11359F030080C00430004C000BFFF03FFF00000A8
S1135A00000800008001E8002A8002A8002A800221
S1135A10680000800008000000000800008001C841
S1135A20003680022800368001C80000800008008B
S1135A3000000000300003C0000C0CF0C0CF0C00CC
S1135A400CC000CC00030000300000000C0000C0BB
S1135A50000C0000C0000C0000C0000C0000F000AE
S1135A600F000000000F0000F0000C0000C0000C4C
S1135A700000C0000C0000C0000C000000000C007E
S1135A8000CC400DE47EDB47ED9C00CCC00C440010
S1135A90C0000C000000000C0000C1000CFE7ECF12
S1135AA0E7EC1000C1000DF000DF000C0000000066
S1135AB000000000000000000000CFFC0CFFC0004C
S1135AC00000000000000000000000000000208032
S1135AD00110000A00024800110000A000040000A8
S1135AE00000040000A00011000248000A00011098
S1135AF0002080000000000082082208200820887E
S1135B00208220820082088208220820082088201F
S1135B108292492249244924992492249244924904
S1135B20924922492449249924926DB6DDB6DBB604
S1135B30DB66DB6DDB6DBB6DB66DB6DDB6DBB6DB90
S1135B4066DB6D0000000000000000000000000F94
S1135B50FFFF000000000000000000000000000043
S1135B6000000000000000000FFFFF0040000400E0
S1135B7000400004000000000000000000000000DD
S1135B80000FFFFF00A0000A0000A0000A000000B0
S1135B900000000000000000FFFFF00000FFFFF025
S1135BA004000040000400000000000000000000A9
S1135BB000007FF00400007FF004000040000400B7
S1135BC0000000000000000000000000000FFF00C3
S1135BD0A0000A0000A0000A00000000000000006D
S1135BE0000000FFFFF00000FFBFF00A0000A0006B
S1135BF00A0000000000000000000000FFFFF000A9
S1135C0000FFFFF0000000000000000000000000A2
S1135C10000000000000FFF0080000BFF00A0000D0
S1135C20A0000A0000000000000000000000FFE0E7
S1135C30000200FFA0000A0000A0000A000000000B
S1135C4000000000000000FFC0000400FFC00004CA
S1135C5000004000040000000000000000000000FC
S1135C6000000FFE0000A0000A0000A0000A0000CF
S1135C7000000000000000000000000007FF0040DA
S1135C800004000040000400004000040000400044
S1135C90040000400FFC00000000000000000000B1
S1135CA0000040000400004000040000400FFC001D
S1135CB00040000400004000040000400004000014
S1135CC04000040000400007FF00400004000040C2
S1135CD00004000040000400004000040000400FE5
S1135CE0FFFF00000000000000000000004000046E
S1135CF000004000040000400004000040000400D4
S1135D0000400004000040000400004000040000C3
S1135D10400FFFFF0040000400004000040000A00A
S1135D20000A0000A0000A0000A00FFFFF0000000E
S1135D3000000000000000004000040000400004D7
S1135D4000FFFFF00000FFFFF00000000000000073
S1135D5000A0000A0000A0000A00FFA0000200FF4B
S1135D60E0000000000000000000A0000A0000A005
S1135D70000A0000BFF0080000FFF000000000006F
S1135D80000000A0000A0000A0000A00FFA000021A
S1135D9000FFA0000A0000A0000A0000A0000A0002
S1135DA000A0000A0000BFF0080000BFF00A0000D5
S1135DB0A0000A0000A0000A0000A0000A00FFBF23
S1135DC0F00000FFFFF00000000000000000A00051
S1135DD00A0000A0000A0000A0000A0000A0000AB7
S1135DE00000A0000A0000A0000A0000A0000A00B1
S1135DF0FFBFF00000FFBFF00A0000A0000A00008F
S1135E00A0000A0000A0000A0000A00FFA0000A0F1
S1135E10000A0000A0000A00004000040000400046
S1135E200400FFC0000400FFC000040000400004A0
S1135E300000A0000A0000A0000A0000A0000BFF60
S1135E4000A0000A0000A0000A00004000040000B6
S1135E5040000400007FF00400007FF004000040D4
S1135E6000040000400004000040000400FFC000E3
S1135E700400FFC0000000000000000000A0000AB1
S1135E800000A0000A0000A00FFE000000000000B7
S1135E90000000000000A0000A0000A0000A0000AA
S1135EA0A0000FFF00000000000000000000004000
S1135EB00004000040000400007FF00400007FF0B4
S1135EC00000000000000000400004000040000446
S1135ED000FFFFF00400FFFFF00400004000040096
S1135EE000A0000A0000A0000A0000A00FFFFF00AD
S1135EF0A0000A0000A0000A00000000000000004A
S1135F0000000000000FFC000040000400004000FE
S1135F1004000040000400004000040000400007AA
S1135F20FF00000000000000000000FFFFFFFFFF73
S1135F30FFFFFFFFFFFFFFFFFFFFFFFFFFFFFFFF6D
S1135F40FFFFFFFF007FF007FF007FF007FF007FE8
S1135F50F007FF007FF007FF007FF007FF0000005D
S1135F600000000000000000000FFFFFFFFFFFFF24
S1135F70FFFFFFFFFFFFFFFFFFFFFFFFFFFFFFFF2D
S1135F80FFFFFFFFFF00000000000000000000FF13
S1135F90C00FFC00FFC00FFC00FFC00FFC00FFC0DF
S1135FA00FFC00FFC00FFC000000000810004200BE
S1135FB003C00042000C3000C3000C30003C00035E
S1135FC0C00000000000001C0073700DE3008C1082
S1135FD008C100FFF007FF00001000000000000FE0
