S018000044756D42616467654669726D776172652E73726563D6
S1130000A0210020C5180000C1180000C11800007C
S113001000000000000000000000000000000000DC
S1130020000000000000000000000000C1180000F3
S11300300000000000000000C1180000C11800000A
S1130040C1180000C1180000C1180000C118000048
S1130050C1180000C1180000C1180000C118000038
S1130060C1180000650B0000750B0000850B000033
S1130070950B0000A50B0000B50B0000C118000093
S1130080C1180000C1180000C1180000C118000008
S1130090C1180000C1180000C11800009906000032
S11300A0C1180000C1180000C1180000C1180000E8
S11300B00000000010B5064C2378002B07D1054B37
S11300C0002B02D0044800E000BF0123237010BDC0
S11300D07400002000000000E05D0000084B10B533
S11300E0002B03D00749084800E000BF0748036815
S11300F0002B00D110BD064B002BFBD09847F9E72D
S11301000000000078000020E05D0000E05D0000D9
S11301100000000070B50020084B98470500084C0B
S1130120FA218900A047074B186007492800A04717
S1130130064B18600522064B1A6070BD511600006C
S11301402D2800000000002040420F000400002081
S113015010E000E030B5084B1C68084A00258021F7
S11301604902013807D3002CFBD054609560136812
S11301700B42FCD0F5E730BD0000002010E000E0A9
S11301800C4B1B68002B06D1EFF31083002B07D018
S11301900022094B1A70074A136801331360704731
S11301A072B6BFF35F8F0022044B1A700132024B08
S11301B01A70F0E79000002094000020080000204E
S11301C0084B1A68013A1A601B68002B09D1064BC8
S11301D01B78002B05D00122044B1A70BFF35F8FEC
S11301E062B67047900000209400002008000020B0
S11301F0F0B583B001AC012565700027A7702570A8
S113020021003E20064EB0478022D205054B9A615C
S11302102770657021000F20B04703B0F0BDC046C1
S11302205D0700008044004110B5002200230270E5
S1130230427000214280017103760262C2618260D1
S11302400373C0246401C481037443748374C3744A
S113025003752A24035543758375063C0355C284EC
S11302600285C1752B23C1540133C15410BD000054
S1130270F0B5D6464F464646C0B596B007001600C0
S11302800160C64A106A80235B02034313620B7841
S11302900520DB0705D516B01CBC90469946A2463E
S11302A0F0BD0B7817309B07F5D473783B71002BA6
S11302B004D1BB4A136C04210B4313640023BB60B9
S11302C0FB603B61BB76FB763B833B77B54B1F60A2
S11302D02A23F35C002B05D1337D002B02D101339B
S11302E07B7701E000237B773B68984633786A4646
S11302F0137069461E20AC4B98471E20AB4B9847A1
S11303002C23F25C002A54D0013BF55C337BEB18C0
S1130310DBB2D118C9B28B4221D25219D3B2994659
S1130320A34B9A4603E00135EDB24D4517D00F2497
S11303302C40337BE41850229E4902A8D047132C4A
S1130340F1D8A40002ABE05801A900234B70CB7094
S11303508B7001330B70C0B2974B9847E3E7F48975
S11303605022944902A8924B9847132C13D9737DB9
S11303709B00DBB242461370B37DDB0172781343FA
S1130380DBB2424653703379342B00D97BE19B00B6
S11303908A4AD3589F46A40002ABE05801A900231F
S11303A04B70CB708B7001330B70C0B2824B98478B
S11303B0DDE7347B50227F4902A87D4B9847132CFC
S11303C015D9F48950227B4902A8794B9847132CFC
S11303D0CDD8A40002ABE05801A900234B70CB7028
S11303E08B7001330B70C0B2734B9847BFE7A40006
S11303F002ABE05801A900234B70CB708B70013322
S11304000B70C0B26C4B9847DBE704231024022125
S11304101AE0717C337C102416E006231024012199
S113042012E00823102400210EE0002330240021D0
S11304300AE000232024002106E0002300240021F8
S113044002E0022310240121090170220A4013430F
S113045042469370F37D17203F2B00D91BE7D370DE
S11304603A68537E5BB2002BFBDBF37C7288134348
S11304702422B25CD2001343327D92001343B27C37
S113048052001343234342469380337E002B20D0F3
S1130490102C00D1D9E000D898E0202C00D1B6E08F
S11304A0302C16D1F27C002A0AD0F269803217204F
S11304B0FF2A00D9EFE6326A8032FF2A00D9EAE641
S11304C01720F269FF2A00DDE5E6326AFF2A00DD23
S11304D0E1E639684A7E52B2002AFBDB42461372D7
S11304E03A68537E5BB2002BFBDBB38B42469383AB
S11304F03A68537E5BB2002BFBDB338C4246138499
S11305002C23F35C002B05D0013BDBB217200F2B0F
S113051000D9C0E62B22B15C17200F2900D9BAE616
S11305203868427E52B2002AFBDBF289307B0243F8
S1130530B068024309050A431B041343424613618E
S11305402A23F35C13750F2393751533F35C002B87
S113055012D0F38C1A4A1720934200D99BE64246E4
S11305609384328D80231B01D31815499BB28B428F
S113057000D990E64346DA84124B1B685B01E02203
S1130580D2001340104A516849011268D20E0A433E
S1130590D2B213434246138500207CE60004004097
S11305A000080040D800002069170000DD16000094
S11305B0B52B0000743D000061180000A03C000051
S11305C0FF0F00002460800020608000002C00D019
S11305D07FE7F27C002A0FD0F269802109018C4662
S11305E062442A4917208A4200D954E6326A624496
S11305F026498A4200D94EE6244A1720F1699142DD
S113060000DD48E6316A914200DD44E661E7F27CB0
S1130610002A0FD0F269802189008C4662441C496B
S113062017208A4200D936E6326A624418498A425F
S113063000D930E6164A1720F169914200DD2AE616
S1130640316A914200DD26E643E7F27C002A0FD0AE
S1130650F269802109028C4662440E4917208A42BD
S113066000D918E6326A62440A498A4200D912E67D
S1130670084A1720F169914200DD0CE6316A914283
S113068000DD08E625E7172005E6C046FF0F000059
S1130690FF030000FFFF000070B52F4B1D682B689F
S11306A01A7EDC7D1440E20716D4630708D50423C0
S11306B02A681376EB7E9B0702D5AB7E9B0742D458
S11306C0A30708D502232A681376EB7E5B0702D5BD
S11306D0AB7E5B073BD470BD01221A762A68537E39
S11306E05BB2002BFBDB69698B1C6B61538B9BB288
S11306F00B802B8B013B9BB22B83002B11D06B7F88
S1130700002BD2D02A68537E5BB2002BFBDB137B19
S113071002210B4313732A68537E5BB2002BFBDB6D
S1130720C3E701232A6893752B7F052BBDD10023D2
S11307302B77EB7EDB07B8D5AB7EDB07B5D528007E
S1130740AB689847B1E72800EB689847B8E72B698E
S113075028009847BFE7C046D800002000B583B002
S113076001AB80221A700A785A704A789A708A7893
S1130770DA701900014B984703B000BD61180000FE
S1130780F0B5DE4657464E464546E0B587B080464E
S1130790049116001F000022002300218B463F24F1
S11307A001202100009601975C4603944446059479
S11307B013E02024641A0500E540A84614E0009CD8
S11307C0019D121BAB415C464D462C43A346039C42
S11307D045462C430394013925D3202464420C1943
S11307E0E7D40500A540A84604008C40A146921811
S11307F05B4114001D00059E4F463E40B446049ED6
S113080047463E40B246664657463E4303D006003E
S1130810264332002B00009C019D9D42DBD8CED1A3
S11308209442D8D8CBE7039B5846190007B03CBC88
S113083090469946A246AB46F0BD10B54908402300
S11308400024814202D2180010BD1C00091A631C46
S11308509BB28842F9D94023FF2CF4D8148000239A
S1130860F1E70000F0B583B00F00160008AA117874
S113087004004C434022BC4202D9100003B0F0BD36
S1130880002B14D1020008000021194CA0470100DC
S11308903A0000230020174CA04700220123121A1B
S11308A08B41120C1B041A4332800022E5E700221C
S11308B0012BF9D10A00002300210D4CA0470200AE
S11308C00B0000920193380000210A4CA047050058
S11308D080239B0140229842CFD8790FF800009AD8
S11308E0019BA047EA00821AD2B252032A43DBE7F3
S11308F0192B00008107000010B582B004000E4BD4
S11309001B78002B07D0002905D10B4B5B78834261
S113091010D01D200CE001A90C701320074B984740
S11309201320074B9847044B5C7001221A70002077
S113093002B010BD0020FBE79800002069170000FA
S1130940DD160000404B984231D00AD93F4B984203
S11309504DD03F4B98425AD03E4B984237D000205E
S113096070473D4B98420CD03C4B9842F7D101293B
S113097017D000295DD0022915D0032915D00020F5
S1130980EEE7012907D0002951D0022905D0032917
S113099005D00020E4E73248E2E73248E0E7324895
S11309A0DEE73248DCE73248DAE73248D8E70129A3
S11309B007D000293FD0022905D0032905D0002003
S11309C0CEE72D48CCE72D48CAE72D48C8E70129D2
S11309D007D0002931D0022905D0032905D00020F1
S11309E0BEE72848BCE72848BAE72848B8E7012901
S11309F007D0002923D0022905D0032905D00020DF
S1130A00AEE72348ACE72348AAE72348A8E701292F
S1130A1007D0002915D0022905D0032905D00020CC
S1130A209EE71E489CE71E489AE71E4898E71E4822
S1130A3096E7032094E71D4892E71D4890E71D4878
S1130A408EE71D488CE7C0460010004200180042A3
S1130A50001C00420014004200080042000C004246
S1130A600300050003000600030007000300010063
S1130A7003001E0003001F000300090003000A0016
S1130A8003000B0003001100030012000300130015
S1130A9003000D0003000E0003000F000300170005
S1130AA003001800030019000300040003000800F9
S1130AB00300100003000C000300160030B587B0DB
S1130AC00B4B6A4632CB32C232CB32C2009B8342DA
S1130AD00BD001239A0069465258824206D0013352
S1130AE0062BF7D1002007B030BD0023D8B2FAE7B7
S1130AF0C43D000070470000F0B50A4B1B78002B82
S1130B000CD1094F094E0A4D0024DE515A191460C4
S1130B100433182BF9D10122024B1A708000024BC6
S1130B20C150F0BD9A0000209C000020F50A00008E
S1130B30DC00002000B583B009236A46137001333A
S1130B405370013393700133D37001331371013344
S1130B505371034B98476B46185603B000BDC0460B
S1130B60BD0A000010B5024B1B680020984710BD59
S1130B709C00002010B5024B5B680120984710BD13
S1130B809C00002010B5024B9B680220984710BDC2
S1130B909C00002010B5024BDB680320984710BD71
S1130BA09C00002010B5024B1B690420984710BD1F
S1130BB09C00002010B5024B5B690520984710BDCE
S1130BC09C000020F0B5DE4657464E464546E0B54B
S1130BD091B005000C00160029600800BA4B984734
S1130BE0020023680520DB0706D511B03CBC904603
S1130BF09946A246AB46F0BD236817309B07F4D450
S1130C00B249086A971C0123BB4003430B620FA936
S1130C102D27F35D0B701432D3B202931800AC4B42
S1130C2098470298AB4B9847F05D0021AA4B984730
S1130C30F37A6B712423F35CAB712523F35CEB71C2
S1130C40F37E2B72337F6B722B68984618009E4B91
S1130C509847143000220E2306A98C4663441A8058
S1130C60328A02928023DB019A4200D19AE00FD9A2
S1130C70C023DB01029A9A4200D18EE080231B023A
S1130C809A4200D01BE1032306930023079308E054
S1130C9080239B019A4200D011E1102306930F3B5D
S1130CA0079333680593F3689B4673690393337E14
S1130CB004932623F35C9A4673689946002B00D16B
S1130CC09CE080235B05994500D180E0737E002B76
S1130CD002D0B37E424693730E2306AA944663441D
S1130CE01B8842469381059B5A461343039A134338
S1130CF04A461343029F1F43049B1B021F43534650
S1130D005B071F432723F35C002B01D104331F43EC
S1130D10737E9B02327F52021343727F120213438B
S1130D202422B25C520413432522B25C12041343FE
S1130D30B17AF27A114319433389FF2B00D181E050
S1130D4080225204174319432C23F35C002B03D154
S1130D50624B9B789B0701D580231F432A68D36984
S1130D60002BFCD1434659602A68D369002BFCD17F
S1130D7043461F600EAB80221A7000225A70DA704C
S1130D809A70336B0A93736B0B93B36B0C93F36B83
S1130D9002930D9300270AAE63E008230693073BF2
S1130DA007937EE733680593F3689B46736903935F
S1130DB0337E04932623F35C9A4673689946002B8A
S1130DC018D080235B05994501D0002025E0272316
S1130DD0F35C002B00D079E7336A1F00C0B2404BAC
S1130DE0984701000E2206AB9C46624438003D4BF6
S1130DF0984712E008230693002307932723F35C04
S1130E00002B0ED0069B0093079B0E2206A98C464E
S1130E106244B16A306A344FB847002800D0E4E62F
S1130E2054E7336A1F00C0B22D4B98470100069B5C
S1130E300093079B0E2206A88446624438002A4F7A
S1130E40B847EAE7F37E002B00D17DE78023DB047B
S1130E501F4379E72000254B984707E00137042F0B
S1130E600DD0F9B2BB0098590028F3D0431CF5D03B
S1130E700EA90870000CC0B21D4B9847EEE7002382
S1130E80EB602B616B61AB61EB612B62AB626B62FC
S1130E900022EB85AB853033EA540133EA54013345
S1130EA0EA540133EA542868074B9847040011496F
S1130EB0114B9847A400114BE550002095E61023F0
S1130EC0069300230793ECE6BD0A000000040040EB
S1130ED069170000DD160000F90800000020004139
S1130EE0851700003B080000650800004509000064
S1130EF061180000910F0000F90A0000DC000020D6
S1130F00C2791C23002A01D118007047C28D92B205
S1130F10173B002AF8D1026811850221137E0B4287
S1130F20FCD00023F0E782791C23002A01D11800A9
S1130F307047828D92B2173B002AF8D10268107E66
S1130F404007F4D5538BDBB298061DD0980703D520
S1130F50022353831833EAE7580703D50423538342
S1130F601A33E4E7D80703D5012353831233DEE7AA
S1130F70D80603D5102353833233D8E79B0603D511
S1130F80202353832133D2E7138D0B800023CEE734
S1130F90F8B58000624BC5582C68E369002BFCD17E
S1130FA0237EA67D1E403023EB5C3122AF5C1F40C4
S1130FB0F30722D5EB8D9BB2002B1CD0AA6A1378C1
S1130FC0DBB2511CA962697901290ED09BB2DB0501
S1130FD0DB0D2385EB8D013B9BB2EB85002B0CD104
S1130FE0013323750133A37507E0517809020B43DC
S1130FF00232AA62EBE701232375B30706D5022365
S1131000237500223133EA54FB071AD4730765D5DC
S1131010AB8D9BB2002B5FD0638BDBB21A0714D469
S11310203F221340002B34D09A0711D51A223223C1
S1131030EA54303B63837B0750D528006B6998479B
S11310404CE02800EB689847E0E737221340E9E7D3
S11310505A0705D51E223223EA542E3B6383EAE75E
S1131060DA0705D513223223EA54313B6383E2E7DE
S1131070DA0605D542223223EA54223B6383DAE7B7
S113108020221A42D7D021323223EA54123B6383FE
S1131090D1E7238DDB05DB0DDAB2696A0A706A6A6F
S11310A0511C69626979012910D0AB8D013B9BB257
S11310B0AB85002B12D10433237500222E33EA545E
S11310C0BB070BD528002B69984707E01B0A537010
S11310D06B6A01336B62E8E704232375F30604D5D6
S11310E0102323752376FB060ED4B30604D52023E0
S11310F0237523763B070BD4330704D508232375C4
S11311002376BB0608D4F8BD2800EB699847ECE7C2
S11311102800AB699847EFE72B6A28009847F2E765
S1131120DC00002010B5082803D880001C4B1B5895
S11311309F46002032E01B4B18692FE01A4B1B6AB4
S11311409B059B0F1948D84028E0164B586925E0A9
S1131150144B1B6800209B0720D513491022CB6831
S11311601A42FCD00F4B1A6824231340042B01D0DD
S11311700F4813E000200F4B98470A4B9B681B0451
S11311801B0C58430AE05023074AD35C00205B073A
S113119004D5044BD86801E08020000210BDC0468D
S11311A0DC3D0000B40000200008004000127A007A
S11311B0006CDC028517000070B50C490B6A0478DA
S11311C0857840780122104080014026B3430343D0
S11311D02A40D20180208343134303222240120277
S11311E00348034013430B6270BDC046000800402F
S11311F0FFFCFFFFF0B5DE4657464E464546E0B5D8
S11312000100264B9B469B8A457800784242424126
S113121091468878CA7894460A7990464E7B0F7B2B
S11312208C7B8A681E494A6101214A469200914694
S1131230042293434A46134342460A40D20090464E
S1131240082293434246134362460A4012019446DD
S113125010229343624613430840400120229343E3
S113126003430F40BF01402083433B430E40F6013C
S1131270403083433343793805402D020948034005
S11312802B4321400903084803400B435A469382E9
S11312903CBC90469946A246AB46F0BD00080040CF
S11312A0B4000020FFF8FFFFFFEFFFFF10B5037A43
S11312B09B061B0C42899205920D134318494B60FF
S11312C08379C27913434288848822431343427842
S11312D0D20113430B600378042B11D0202B0ED1C1
S11312E0037B9B06028A1343C28912040D490A40F8
S11312F013430B4A936011680B4B0B43136010BDEF
S1131300037B9B06028A1343C289120405490A40DF
S11313101343034A9360136804210B431360EEE7FD
S1131320B40000200000FF0324040000082803D8B0
S11313308000254B1B589F46172044E0234A136A1C
S113134002210B43136200203DE0204A93690221ED
S11313500B439361002036E01C4A138A02210B439D
S1131360138200202FE0194A938A02210B439382AF
S1131370002028E016490B68022213430B60134B2C
S11313809A8419000E32CB681A42FCD0104A916834
S11313900E4BD96252689A6200229A841900103264
S11313A0CB681A42FCD00A4B1B689BB2074A938451
S11313B0002008E0054944228B5C022003438B543F
S11313C0002000E000207047003E000000080040BC
S11313D0B4000020F0B58FB0C222D200474B9A600F
S11313E047494B681E2293431C3A13434B6001AB9D
S11313F01A700024434DE0B201A9A8470134252CFA
S1131400F9D10AA80023037083708022120282603B
S1131410C3700122027103738373053242704373F4
S1131420394B98470520394B984734490222CB68F9
S11314301A42FCD0314A938A80210B43938205AB34
S113144000210022598099809A71DA713F315981C3
S11314503B3919705A702E4B1B689B0E3F2B4BD097
S113146005A80372B723DB00038207230373383311
S1131470C381284B984704A800254570012686702F
S11314800570254B98470620204FB847234B9847B3
S113149001AC0296657025726572052323702100E4
S11314A001201F4B984701201E4B984726702100AE
S11314B00020144B984700201B4B98470720B8473F
S11314C00E49D022CB681340D02BFBD1174A0023FE
S11314D0137253729372D37201A901224A604B7042
S11314E00B724B7207330B7000200D4B9847002092
S11314F00C4B98470FB0F0BD203BB1E7000800400B
S11315000040004169170000F51100002D13000090
S113151024608000AD120000B911000031150000F4
S1131520551500000D160000DD16000000040040F3
S1131530064A936908210B4393610122044B1A70F4
S113154019000B781342FCD17047C04600040040D8
S1131550000C004070B5060004000D782D02054310
S11315604B78002B02D08023DB021D434B7A002BE7
S113157002D080231B031D434868012810D9431E51
S1131580184234D1022830D90223002201325B00F0
S11315909842FBD812023243140080235B031D439C
S11315A00B7A002B02D080239B031D43134A5378EC
S11315B05BB2002BFBDB124B9847124B1E700F4A99
S11315C053785BB2002BFBDB0C4B9C601A00537806
S11315D05BB2002BFBDB094A5368802149020B40B4
S11315E01D435560084B984770BD0022D2E70402A2
S11315F0344380239B021D43D2E7C046000C0040C5
S113160081010000080C0040C101000010B5040075
S11316100B4A53785BB2002BFBDB0A4B98470A4B0F
S11316201C70074A53785BB2002BFBDB044A5168F9
S113163080235B020B435360044B984710BDC046A4
S1131640000C004081010000040C0040C1010000B6
S113165070B504001A4A53785BB2002BFBDB194BBC
S11316609847194B1C70164A53785BB2002BFBDB6E
S1131670134E7068C004C00E144B98470500124BFB
S11316801C707668F602F60F114B1C700C4A5378E6
S11316905BB2002BFBDB0A4B9C682402240C0D4B31
S11316A09847002E07D1012C07D9210028000A4BA6
S11316B09847050001E00134E540280070BDC046AC
S11316C0000C004081010000040C004025110000C2
S11316D0080C0040C10100002D28000010B50400D2
S11316E0064B9847064B1C70064A53888021C90153
S11316F00B435380044B984710BDC0468101000042
S1131700020C0040000C0040C101000010B50400B0
S11317100F4B98470F4B1C700F4A53881B05180F2B
S113172053880E490B40538053880D490B40538016
S113173011008022D2014B881342FCD106494A8809
S113174003020648024013434B80064B984710BDE2
S113175081010000020C0040000C0040FFF0FFFF7C
S1131760FFBFFFFFC101000010B50C782402044341
S1131770024B9847A4B2024B5C8010BD0D170000C9
S1131780000C004010B50400064B9847064B1C7033
S1131790064B5C882405240F054B98472000054B15
S11317A0984710BD81010000020C0040000C00406D
S11317B0C10100005116000030B5D378002B35D19B
S11317C01378802B29D01B06802464022343547889
S11317D00225AC4306D19478002C20D18024A402A5
S11317E0234341605478013C012C1CD90D042D0C79
S11317F0A024E4052C431C4384620D0CD02424064D
S11318002C431C438462D478002C22D15B031CD566
S11318109378012B1ED0416117E00023D7E7C02441
S1131820E4022343DDE70D4C2340DFE741600C0471
S1131830240CA023DB05234383620C0CD0231B065A
S113184023438362D378002B03D15378013B012BCC
S113185002D930BD8161F8E78160FAE7FFFFFBFF41
S113186010B50A00C1090023002904D14309DB0192
S113187005498C4663441F242040012181401800FF
S1131880024B984710BDC04600440041B917000000
S11318907047000010B5054B9847054B9847054B1A
S11318A09847054B9847054B984710BDD513000042
S11318B0F101000091180000911800009118000037
S11318C0FEE70000F8B52A4A2A4B9A4211D01A00C2
S11318D0294B9A420DD2294A03339B1A9B080133A0
S11318E09B000022234822498C58845004329A4297
S11318F0FAD1234A234B9A420AD2D34321495B1893
S113190003218B4304339B18002102C29342FCD170
S11319101D4AFF211D4B8B439360FD3990235B00CF
S11319201B4AD1501B4AD3780325AB4302242343DB
S1131930D370D3780C27BB4308263343D370164B9C
S1131940987B30229043202210439873997BB943AB
S1131950314399739A7BAA4322439A730F4A53687B
S113196080210B4353600E4B98470E4B9847FEE77C
S1131970E05D00000000002074000020040000204E
S1131980740000209C01002000ED00E00000000035
S113199000700041005000410048004100400041F7
S11319A06D2B0000BD260000F0B5C64600B50C0046
S11319B0904600280FD1002A11DD8F18094E0A4DD8
S11319C0306821002B6898470134BC42F8D1404666
S11319D004BC9046F0BD01235B429846F7E780467D
S11319E0F5E7C046FC000020F4000020F0B5C64630
S11319F000B50E0015000138022810D8002A11D0B5
S1131A0000240C4B98460C4F43461868315D3B68E4
S1131A109847002808DB0134A542F5D106E00124EB
S1131A20644203E0140001E001246442200004BC89
S1131A309046F0BDFC000020F80000200300064A98
S1131A401268002A04D0044A1068C318136070474F
S1131A500249014A1160F6E7CC000020A0210020D1
S1131A6001204042704780239B014B600020704757
S1131A70012070470020704770B582B005000E0049
S1131A8000226B46DA80064C6B46991D2800A0475D
S1131A900028F9D16B4606331B88337002B070BD41
S1131AA0270F000070B505008CB2034E21002800FA
S1131AB0B0470028FAD170BD010F000070B590B096
S1131AC08023DB05009300230193FF2269460A81EA
S1131AD000228B72CB729621890108910121242066
S1131AE06C4621540130215425316354013163542F
S1131AF00A93053163540131635405932382E376D9
S1131B002276227762761323A376627780235B039F
S1131B1003931E4B0C931E4B0D9301235B420E93B8
S1131B200F931C4D1C4C6A461C492800A0470028F2
S1131B30F9D1184C1A4B1C601A4A1B4B1A601B4AE9
S1131B401B4B1A606A4615492000134B9847194EDF
S1131B50336898680021184DA847336858680021F5
S1131B60A84725682800154B98471F2318401E3B9B
S1131B708340134A13602268D369002BFCD12B687D
S1131B80022213432B6010B070BDC046030008004E
S1131B900300090000010020C50B000000100042F2
S1131BA0FC000020A51A0000F8000020791A0000AB
S1131BB0F400002010000020E12C0000350B000090
S1131BC000E100E030B591B08023DB0500930023F1
S1131BD00193FF2269460A8100228B72CB729621FF
S1131BE089010891012124206C462154013021549B
S1131BF025316354013163540A930531635401312F
S1131C00635405932382E376227622776276132344
S1131C10A376627780235B030393124B0C93124BDE
S1131C200D9301235B420E930F93104D104C6A46A3
S1131C3010492800A0470028F9D10C4D2C68200039
S1131C400D4B98471F2318401E3B83400B4A1360DB
S1131C502A68D369002BFCD1236802221343236032
S1131C6011B030BD02001600020017003C01002034
S1131C70C50B000000140042350B000000E100E039
S1131C8010B58CB06846104B9847104C6A46104902
S1131C902000104B98472268537E5BB2002BFBDB7D
S1131CA0802109040C4B19600F2393751376137864
S1131CB002210B431370054B1A68537E5BB2002B51
S1131CC0FBDB0CB010BDC0462902000074010020EB
S1131CD0004000427102000000E100E010B5064C33
S1131CE0064B236000020143054B196080229202D7
S1131CF022601A6010BDC04694440041FFFF0000FA
S1131D009844004110B580221204024B1A60024B21
S1131D10984710BD94440041DD1C000010B580229A
S1131D201204024B1A60024B984710BD98440041BC
S1131D30DD1C000010B5010080221204024B1A6061
S1131D400020024B984710BD98440041DD1C000060
S1131D5070B5094B8025ED031D60802636041E6096
S1131D6000213620054B9847054C26608020054B02
S1131D709847256070BDC04694440041051D00008D
S1131D8098440041351D000010B5C1B2000A014B52
S1131D90984710BD1D1D000070B5194C194B1C60EF
S1131DA000020143184B1960D3170F261E40B618C2
S1131DB036110025002E0CDD124C802189021248B8
S1131DC0102321600160013B002BFAD10135AE42A2
S1131DD0F6D1130713D0D3171B0FD2180F211140BC
S1131DE0C91A4B1C002B0ADD19000023054C802264
S1131DF0920205482260026001339942FAD170BD13
S1131E00FFFF00009444004198440041F0B583B0C2
S1131E100E0000931C4B1D88281A87B2AD1AADB270
S1131E2000212A20194CA0470196300A184EB047C9
S1131E3001212A20A0476B461879B04702212A20A5
S1131E40A047009B180AB04703212A20A0476B46ED
S1131E501878B04700212B20A047280AB047012159
S1131E602B20A047E8B2B04702212B20A047380A14
S1131E70B04703212B20A047F8B2B04700212C2003
S1131E80A04703B0F0BDC0460C000020051D0000B3
S1131E90351D0000F0B5DE4657464E464546E0B5D2
S1131EA0F9B00023E6225200012105ACFF200133E2
S1131EB0934203D01942FAD0E054F8E70023029386
S1131EC0454B9846454F8026760244E05B46237096
S1131ED043461E603E600134A44508D043461E605C
S1131EE03E6043581A42F1D053462370F0E7019400
S1131EF080231B043B603A4A3A4B1A60E6235B009A
S1131F00039A00210298384CA047384B9B46384B23
S1131F109A46384B9946019C0BE0374B18880002CF
S1131F20364B1B88184380B2324B98470135A54283
S1131F300BD02B78FF2BF0D05B4618880002534659
S1131F401B88184380B2C847F0E7039B1A0002932A
S1131F502B4B9A4234D043468022D2031A60029813
S1131F60030001339BB21A000393F0235B00142196
S1131F701D4CA04700212E20224B984780231B0490
S1131F803B604346802252021A603A6080221E4B14
S1131F901A601E4AC723D15C02200143D154D15C8C
S1131FA004208143D15405AD78AB9C4601951000C3
S1131FB0A021802200239B46FF339A462C008DE704
S1131FC08022D203054B1A6079B03CBC90469946F6
S1131FD0A246AB46F0BDC04694440041984400413B
S1131FE0FFFF0000884400410D1E00009601002000
S1131FF070010020891D000072010020940100205E
S113200021030000051D00008444004100440041F8
S1132010F0B5D6464F464646C0B52F4CA5440400FD
S1132020C82252012D4968462D4B98472D4B1878EC
S11320304F38C317C01858402B4B19788022D2034D
S11320402A4B1A608300C018400080B214235943FD
S11320500B0013339BB20200093292B2244DA847FD
S1132060A5002D19AB00ED186D440134A3001B1914
S11320709A009B186B449A461E4B99461E4B9846F1
S11320801E4F1F4E19E04B461888000243461B881A
S1132090184380B2B847013C0CD32B782341DB07AB
S11320A0F1D530880002174B1B88184380B2134BBC
S11320B09847F0E70135554501D00724EDE7802224
S11320C0D203114B1A60C8235B019D441CBC90468B
S11320D09946A246F0BDC04600E7FFFF243E00003B
S11320E0B52B000038010020390100209444004140
S11320F00D1E00009601002070010020891D0000C3
S1132100720100209401002098440041F8B50600B3
S1132110084B984700280BDD34003618064F074D4E
S11321202078B8472B7801332B700134B442F7D1AF
S1132130F8BDC0464D2E00001120000038010020DB
S1132140F0B5CE46474680B583B081468846150033
S11321501C00904202DD030491461D0CA04503DDE2
S113216043461B04A0461C0C8027FF03124B1F6030
S1132170A3B2AAB241466846C180C18848466E46A9
S1132180F080F0880D4EB0470D4E80231B04336061
S11321904B46ED1A01354346E21A01326A43094BB4
S11321A01988094B1888094B9847376003B00CBC51
S11321B090469946F0BDC046944400410D1E00006F
S11321C0984400419401002072010020991D0000F0
S11321D010B50023064A1380064A1380064B1B8859
S11321E0064A128800210020054CA04710BDC046B5
S11321F072010020940100200A0000200C0000203D
S113220041210000F0B5C1B00700D0222D490CA82F
S11322102D4B984705A82D4B1A005032010031CAA6
S113222031C131CA31C112680A606C336A4613CBBA
S113223013C203CB03C20CAC40AE254DE3885B1044
S11322409633A28852102D32FF326188491096319C
S1132250208840102D30FF30A8470834B442EDD117
S1132260002F03D0012F17D041B0F0BD05AC0CAE48
S1132270174DE3785B109633A27852102D32FF325B
S1132280617849109631207840102D30FF30A847EE
S11322900434A642EDD1E7E76C4605AE0C4DE37875
S11322A05B109633A27852102D32FF3261784910B8
S11322B09631207840102D30FF30A8470434B442C2
S11322C0EDD1D1E724570000B52B0000A45700003E
S11322D04121000030B5A1B001AC354B0193354B21
S11322E06360354BA360354BE360354B2361354B5D
S11322F06361354BA361354BE361354B2362354B49
S11323006362354BA362354BE362354B2363354B34
S11323106363354BA363354BE363354B2364354B20
S11323206364354BA364354BE364354B2365354B0C
S11323306365354BA365354BE365354B2366354BF8
S11323406366354BA366354BE366354B2367354BE4
S11323506367354BA367354B98473F21344B984708
S11323600B00C90FC918491089000C59314DA847F1
S1132370FF23314A1380314A13800020304B9847A1
S1132380304B98472000304B984740082823181AB0
S11323902E4B187010222E4B1A7020002D4B98478C
S11323A0FA20C0002C4B9847A84721B030BDC04646
S11323B0405900005C590000785900009059000011
S11323C0A0590000A8590000D0590000FC59000091
S11323D0245A0000505A0000585A0000705A000055
S11323E0905A0000B05A0000D45A0000E45A000089
S11323F0F05A0000105B00003C5B0000845B0000AE
S1132400985B0000B45B0000C45B0000E85B000064
S1132410345C0000705C0000845C0000B05C000070
S1132420C45C0000E05C0000045D0000692C000056
S11324300D2B0000D1210000720100209401002026
S113244005220000511D00004D2E0000380100201F
S1132450390100200D2100005501000010B5044B86
S11324601B88044A128800210020034CA04710BD99
S11324700C0000200A0000200D1E000010B5802270
S1132480D203024B1A60024B984710BD944400419A
S11324905D240000F0B5C64600B582B080235B021F
S11324A0754A1360754C23608025ED052560052071
S11324B0734FB847734E35600520B84725608023B5
S11324C0DB0333600024B04680252D042F006E4EBC
S11324D043461F60A15D6D4BE05C6D4B9847674BB5
S11324E01D606C4BE05C6C4B98470134462CEFD17B
S11324F0D1230193664D684F684C26003436002181
S11325000198A8472078B8470134A642F7D1019B27
S11325100133DBB20193D62BEED10021F0205C4CC9
S1132520A04755205C4DA8470121F020A047AA20D0
S1132530A8470221F020A0475220A8470321F020F9
S1132540A0470820A8470421F020A0470020A8475E
S11325500021B120A047CC20A8470121B120A047E9
S11325600020A8470021B520A0475020A8470021FB
S1132570B620A0470520A8470021B720A047702017
S1132580A8470121B720A0477020A8470021B82000
S1132590A0470120A8470121B820A0470320A8474D
S11325A00221B820A0470320A8470321B820A04750
S11325B00320A8470021BC20A0470220A8470121EE
S11325C0BC20A0470020A8470221BC20A04700202F
S11325D0A8470021C920A047D020A8470121C9202D
S11325E0A0470220A8470221C920A0475020A8479D
S11325F00321C920A0475020A8470421C920A0478F
S11326005020A84700213520A0470020A8470021DA
S11326103A20A0475520A84700213620A047002093
S1132620A84700211120A0476420154EB04700217F
S11326302920A0476420B04700215120A047FF2053
S1132640A8478022D2030D4B1A60154B98470023EC
S1132650144A1380144A1380144A1380144A1380B2
S1132660EA23FF33134A00210020134CA04702B091
S113267004BC9046F0BDC0468844004198440041E3
S11326805501000094440041F858000058580000D7
S1132690051D0000A0580000351D0000245800004E
S11326A07D24000072010020940100209601002086
S11326B0700100201F03000041210000F0B5D64640
S11326C04F464646C0B5444B444E1E608025ED053A
S11326D01D608024E4031C60802080021860802137
S11326E009041960802252021A603D4B1E601D606D
S11326F01C60186019601A603A4B98473A4B1B6883
S11327005A7E52B2002AFBDB1A7B02210A431A7357
S11327105A7E52B2002AFBDB012504240220197ED2
S1132720C9B22A000A400C4200D00243084200D039
S113273022431542F3D05A7E52B2002AFBDB5C8B53
S1132740A4B201221A76197EC9B20A40480701D5FB
S113275002200243890701D504210A43520701D507
S113276002221A76214B9847214B98472000214B8F
S11327709847214B9847214B98472148214B98472C
S1132780214B9847214B98470722214B1A80D93275
S1132790204B1A8000239A461F4B99461F4B98469C
S11327A01F4F5646002500244B461C7043461D709F
S11327B03019FF21B847C8B21A4B98470134502C3E
S11327C0F2D150360135182DEDD1F023DB009C46B3
S11327D0E244154B9847E4E788440041FFFF0000BA
S11327E094440041811C00007401002095180000ED
S11327F0150100000D2C0000C51B0000BD1A0000CF
S1132800E8580000D92B000095240000D5220000D0
S113281072010020940100203801002039010020B9
S11328200D2B000011200000951E0000002243081B
S11328308B4274D303098B425FD3030A8B4244D384
S1132840030B8B4228D3030C8B420DD3FF220902C6
S113285012BA030C8B4202D31212090265D0030B85
S11328608B4219D300E0090AC30B8B4201D3CB037B
S1132870C01A5241830B8B4201D38B03C01A5241BD
S1132880430B8B4201D34B03C01A5241030B8B42BF
S113289001D30B03C01A5241C30A8B4201D3CB02AA
S11328A0C01A5241830A8B4201D38B02C01A52418F
S11328B0430A8B4201D34B02C01A5241030A8B4292
S11328C001D30B02C01A5241CDD2C3098B4201D3AA
S11328D0CB01C01A524183098B4201D38B01C01A28
S11328E0524143098B4201D34B01C01A524103099F
S11328F08B4201D30B01C01A5241C3088B4201D34E
S1132900CB00C01A524183088B4201D38B00C01AFA
S1132910524143088B4201D34B00C01A5241411A21
S113292000D20146524110467047FFE701B500202E
S113293000F0F0F802BDC0460029F7D076E77047F2
S113294003460B437FD4002243088B4274D303090C
S11329508B425FD3030A8B4244D3030B8B4228D3AD
S1132960030C8B420DD3FF22090212BA030C8B42D3
S113297002D31212090265D0030B8B4219D300E073
S1132980090AC30B8B4201D3CB03C01A5241830BF8
S11329908B4201D38B03C01A5241430B8B4201D3A8
S11329A04B03C01A5241030B8B4201D30B03C01AD1
S11329B05241C30A8B4201D3CB02C01A5241830A4B
S11329C08B4201D38B02C01A5241430A8B4201D37A
S11329D04B02C01A5241030A8B4201D30B02C01AA4
S11329E05241CDD2C3098B4201D3CB01C01A52410B
S11329F083098B4201D38B01C01A524143098B4294
S1132A0001D34B01C01A524103098B4201D30B017C
S1132A10C01A5241C3088B4201D3CB00C01A5241A1
S1132A2083088B4201D38B00C01A524143088B4266
S1132A3001D34B00C01A5241411A00D201465241FF
S1132A40104670475DE0CA0F00D04942031000D31E
S1132A504042534000229C4603098B422DD3030A73
S1132A608B4212D3FC22890112BA030A8B420CD383
S1132A70890192118B4208D3890192118B4204D3AC
S1132A8089013AD0921100E08909C3098B4201D32C
S1132A90CB01C01A524183098B4201D38B01C01A66
S1132AA0524143098B4201D34B01C01A52410309DD
S1132AB08B4201D30B01C01A5241C3088B4201D38C
S1132AC0CB00C01A524183088B4201D38B00C01A39
S1132AD05241D9D243088B4201D34B00C01A524110
S1132AE0411A00D20146634652415B10104601D39D
S1132AF04042002B00D54942704763465B1000D327
S1132B00404201B5002000F005F802BD0029F8D0CC
S1132B1016E770477047C046F0B5CE4647461504E1
S1132B202D0C2E0080B50704140C3F0C9946030CA1
S1132B307E435D43674363437F19340CE4199C4629
S1132B40A54203D980235B029846C4444B465143B3
S1132B5043433604360C250C24046544A41959183F
S1132B60491920000CBC90469946F0BD70B500266A
S1132B700C4D0D4C641BA410A64209D1002603F091
S1132B801FF90A4D0A4C641BA410A64205D170BD5E
S1132B90B300EB5898470136EEE7B300EB5898477B
S1132BA00136F2E7CC5D0000CC5D0000CC5D000096
S1132BB0D05D0000002310B59A4200D110BDCC5C5A
S1132BC0C4540133F8E703008218934200D17047DC
S1132BD019700133F9E700000FB40B4B13B51C68EF
S1132BE0002C05D0A369002B02D1200000F02EFA9E
S1132BF005AB049AA1682000019300F003FC16BC05
S1132C0008BC04B01847C04610000020104B70B533
S1132C101C680500A36B002B15D1182000F018FBCD
S1132C200C4BA06303800C4B012243800B4B83802D
S1132C300B4BC3800B4B03810523438106338381F4
S1132C400023026143610022A36B1D615A6170BDC0
S1132C50100000200E330000CDABFFFF3412000043
S1132C606DE6FFFFECDEFFFF154B10B51C68A36B90
S1132C70002B15D1182000F0EBFA124BA06303804F
S1132C80114B01224380114B8380114BC380114BA4
S1132C900381052343810633838100230261436159
S1132CA0A46B0D4A206961690C4BFFF735FF0122C3
S1132CB0002380185941206161614800400810BD1B
S1132CC0100000200E330000CDABFFFF34120000D3
S1132CD06DE6FFFFECDEFFFF2D7F954C2DF4515880
S1132CE04A424A41802310B55200DB0000F002F84A
S1132CF010BD0000F0B51D004F4B85B01E680400E8
S1132D000F000092002E05D0B369002B02D13000D1
S1132D1000F09CF9494B9C4250D17468009B022BF3
S1132D2005D0012B00D984E0002D00DA81E02100D8
S1132D30300000F01DF9616B002908D023004433F2
S1132D40994202D0300000F08DFA0023636300231F
S1132D50A3616360A3891B0603D52169300000F0D9
S1132D6081FAA389364A1340A381009B022B5AD0CF
S1132D7003AB02AA2100300000F0FEF9A389184336
S1132D80A081002D24D1029D280000F061FA019554
S1132D90071E42D1029B0193AB4239D1012040422C
S1132DA00223A2891343A3810023A3602300473392
S1132DB0236023610123636105B0F0BD214B9C4274
S1132DC001D1B468AAE7204B9C42A7D1F468A5E7D7
S1132DD0002FD9D0B369002B02D1300000F036F9AE
S1132DE0009B012B03D1A389009A1A43A2810820D6
S1132DF0A389276027616561184018D00120184015
S1132E000023984211D06D42A360A5611800D3E756
S1132E10019800F01DFA071EC0D08023A289019DED
S1132E201343A381D6E70020BAE7A560C4E7A060F6
S1132E30C2E701204042BFE7100000204C5D0000C3
S1132E405CF3FFFF6C5D00002C5D00000023C25C9E
S1132E500133002AFBD1581E70470000F7B58A8958
S1132E6005000C00130760D44B68002B04DC0B6CCA
S1132E70002B01DC0020FEBDE76A002FFAD00023FE
S1132E802E682B6080235B011A4034D0606DA389C7
S1132E905B0706D56368C01A636B002B01D0236CF3
S1132EA0C01A0200216A00232800E76AB847A189F2
S1132EB0431C06D12B681D2B31D82C4ADA40D3078A
S1132EC02DD50023636023692360CB0405D5431CFF
S1132ED002D12B68002B00D16065616B2E60002944
S1132EE0C8D023004433994202D0280000F0BAF934
S1132EF000206063BFE70123216A2800B847431C10
S1132F00C5D12B68002BC2D01D2B01D0162B01D1AB
S1132F102E60AFE74023A2891343A381ABE740238C
S1132F200B430120A3814042A5E70F69002FA1D0E4
S1132F300B680F60DB1B01930023920700D14B69E0
S1132F40A360019B002B00DC94E7019B3A00216AFB
S1132F502800A66AB047002803DC4023A289134353
S1132F60DFE7019B3F181B1A0193EAE701004020A9
S1132F700B6970B505000C00002B01D1002070BD59
S1132F80002804D08369002B01D100F05FF80B4BBB
S1132F909C4209D16C680C22A35E002BEED0210068
S1132FA02800FFF75BFFEAE7054B9C4201D1AC68C0
S1132FB0F1E7044B9C42EED1EC68ECE74C5D000079
S1132FC06C5D00002C5D000010B5024900F0B2F801
S1132FD010BDC046712F0000002310B5040003602B
S1132FE04360836081814366C2810361436183617D
S1132FF0190008225C30FFF7E6FD054B246263628A
S1133000044BA362044BE362044B236310BDC0462C
S11330107139000099390000D1390000FD390000F0
S113302070B568254A1E55430E002900743100F01E
S113303063F9041E08D000212A00016046600C30A8
S1133040A0606832FFF7BFFD200070BD836913B52F
S11330500400002B28D18364C3640365134B144A12
S11330601B6882620193984201D10123836120008D
S113307000F020F86060200000F01CF8A060200040
S113308000F018F80022E06004216068FFF7A4FF54
S113309001220921A068FFF79FFF02221221E068A4
S11330A0FFF79AFF0123A36113BDC046285D00000A
S11330B0C92F0000F8B51E4B07001E68B369002B2A
S11330C002D13000FFF7C2FF4836B4687368013B91
S11330D004D53368002B07D03668F6E70C22A55ECA
S11330E0002D0DD06834F2E704213800FFF798FF73
S11330F030600028F0D10C2304003B602000F8BDB0
S1133100012320005B42E3810233A38165662560CD
S1133110A560656025616561A561082229005C30B0
S1133120FFF751FD6563A563A564E564E6E7C04662
S1133130285D0000F7B5040007000026019148341B
S1133140002C01D13000FEBD6368A5680093009B8C
S1133150013B009301D52468F2E7AB89012B08D920
S11331600E22AB5E013304D029003800019B98473E
S113317006436835EBE7000070B50E001D000E2312
S1133180C95E90B01400002907DA00232B60B389CC
S11331901B0611D48023DB000FE001AA00F026FDFA
S11331A00028F2DBF022029B12021340054A9B180E
S11331B05A4253412B60EDE740230020236010B0B6
S11331C070BDC04600E0FFFFF7B502268B890500FD
S11331D00C00334206D023004733236023610123CC
S11331E06361F7BD01AB6A46FFF7C6FF00990700AC
S11331F0280000F081F8002808D10C22A35E9A056B
S1133200EFD4032293431E43A681E4E70F4BAB6242
S11332108023A28920601343A381009B2061636102
S1133220019B002B0DD00E23E15E280000F0F0FC82
S1133230002806D00322A38993431A0001231343D1
S1133240A381A0893843A081CBE7C046C92F0000E1
S113325010B5034B0100186800F04EF810BDC046CD
S11332601000002070B50500002910D00C1F236841
S1133270002B00DAE418280000F0FBFC1D4A136858
S1133280002B05D163601460280000F0F3FC70BDCE
S1133290A34209D9216860188342F3D118685B6896
S11332A041182160EEE713005A68002A01D0A242B7
S11332B0F9D919685818A0420BD120680918581870
S11332C019608242E0D110685268411819605A604E
S11332D0DAE7A04202D90C232B60D5E721686018F5
S11332E0824203D1106852684118216062605C60B8
S11332F0CAE7C046D0000020032370B5CD1C9D430F
S1133300083506000C2D1ED20C25A9421DD830000C
S113331000F0AFFC254A14682100002919D1244C7F
S11333202368002B03D1300000F010FB206029003B
S1133330300000F00BFB431C2CD10C233000336015
S113334000F098FC03E0002DDFDA0C23336000204A
S113335070BD0B685B1B1AD40B2B03D90B60CC1804
S1133360256003E08C420ED163681360300000F0E6
S113337081FC200007220B30231D9043C31AE7D0A1
S11333805A42E250E4E74B6863600C00EEE70C003D
S11333904968C2E70323C41C9C43A042E0D0211A1D
S11333A0300000F0D3FA431CDAD1C6E7D000002085
S11333B0D4000020936810B5013B9360002B05DA1C
S11333C09469A34208DBCBB20A2B05D01368581CBE
S11333D010601970C8B210BD00F016FBFBE7F8B519
S11333E006000F001400D518AC4201D1002007E0FC
S11333F021783A003000FFF7DDFF0134431CF3D19C
S1133400F8BD0000F0B59FB006000F00140005934E
S1133410002804D08369002B01D1FFF717FE7F4BEE
S11334209F425CD17768BB891B0762D53B69002B3F
S11334305FD0002306AD6B6120336B761033AB761F
S11334400294029C2378002B5DD1029BE31A04931F
S11334500DD0049B029A39003000FFF7C0FF431CD3
S113346000D1CCE06A69049B944663446B61237881
S1133470002B00D1C3E00122002352426A6002A95A
S11334805432521801342B60EB60AB601370AB659F
S113349021780522624800F0E1FB631C9C46002869
S11334A035D12968CB0604D5532302AA20309B18B2
S11334B018700B0704D553232B2002AA9B181870ED
S11334C023782A2B2CD000200A21099B2278303A19
S11334D0092A00D86BE000282AD0099328E0514B30
S11334E09F4201D1B7689EE74F4B9F429BD1F7683B
S11334F099E73900300000F0F1FA002899D0012052
S113350040421FB0F0BD252B9FD001349AE7444BB5
S11335102968C01A012383400B432B606446B7E734
S1133520059B181D1B680590002B3ADB0993644624
S113353023782E2B0BD16378621C2A2B3FD1059B59
S113354002341A1D1B680592002B35DB0793217882
S11335500322364800F082FB002807D0334B2A6848
S1133560C01A4023834013432B6001342178631C29
S113357006222F480293297600F070FB002844D0DD
S11335802C4B002B2FD12968059B0722C90528D570
S11335909B189343083305936B69039A9B186B61DB
S11335A04FE75B42EB6002230B432B60BFE74B43C7
S11335B001349B18012089E701235B42C6E70023FD
S11335C014000A201A006B6021783039092903D9C4
S11335D0002BBCD00792BAE74243013452180123AE
S11335E0F2E70733D5E705AB00933A00124B290005
S11335F0300000E000BF0390039B0133CCD1BB89B2
S11336005B0600D57BE70B987BE705AB00933A009C
S1133610094B2900300000F07FF8ECE74C5D000016
S11336208C5D00006C5D00002C5D0000925D00006C
S1133630965D000000000000DF330000F7B51500C0
S113364001938A680B6900900C00934200DA13001E
S113365022002B6043321278002A01D001332B6000
S113366023689B0602D52B6802332B600627236848
S11336701F4027D0230043331B785A1E93412268EE
S1133680920630D42200019943320098089EB04734
S1133690431C25D0062320682A68E16803400025DE
S11336A0042B03D18D1AEB43DB171D40A368226959
S11336B0934201DD9B1AED180027BD4220D1002062
S11336C010E00137E3682A689B1A9F42D2DA22008D
S11336D00123193201990098089EB047431CF0D188
S11336E001204042FEBD3020E11843310870210022
S11336F05A1C45310978A218433202331170C1E7CC
S1133700220001231A3201990098089EB047431CF5
S1133710E6D00137D1E70000F0B58BB006920A007D
S113372043320793059004920A7E0C00109B6E2A84
S113373000D18FE017D8632A2CD008D8002A00D1F2
S113374099E0582A54D026004236327029E0642A7F
S113375001D0692AF7D121681A68080623D5111DFA
S11337601960156825E0732A00D188E008D86F2A0B
S113377029D0702AE7D1202209680A43226003E095
S1133780752A20D0782ADED12200782145321170A2
S11337906C4A30E00E001A684236111D1960136835
S11337A03370012379E04906D9D5111D196000232E
S11337B0D55E002D03DA2D23049A6D421370624BFB
S11337C00A2703932FE020681968050603D5081D0E
S11337D018600D6805E04006F9D50D68081D1860ED
S11337E0ADB2594B082703936F2A18D00A2716E065
S11337F045310A70544A03921A682168101D1860F2
S11338001568080622D5CB0702D520231943216069
S11338101027002D03D1202322689A43226023001D
S1133820002243331A706368A360002B5CDB04221C
S1133830216891432160002D58D1049E002B64D04F
S11338402600039B42361B7833705EE04806DAD5C7
S1133850ADB2D8E709681A68080605D5111D1960C4
S1133860136862691A6006E04906F7D5111D1960EC
S11338701368A28A1A800023049E236154E01A6804
S1133880111D1960166800216268300000F0E6F925
S1133890002801D0801B6060636823610023049AC0
S11338A0137041E02369320006990598079DA847E3
S11338B0431C43D0236800259B070FD4099BE06871
S11338C098423DDA18003BE02200012319320699A0
S11338D00598079EB047431C30D00135E368099A28
S11338E09B1A9D42F0DBE9E7002DA9D0049E280035
S11338F03900FFF721F8039B013E5B5C280033701D
S11339003900FEF793FF051EF1D1082F09D1236872
S1133910DB0706D563682269934202DC3023013E4B
S11339203370049B9B1B2361079B09AA009321000E
S1133930069B0598FFF782FE431CB3D10120404249
S11339400BB0F0BDAE5D00009D5D0000002370B5BE
S1133950064C050008002360FEF770F8431C03D1F1
S11339602368002B00D02B6070BDC0469801002056
S113397070B50C000E25495F00F07EF9002803DBCA
S1133980636D1B18636570BDA389024A1340A3814C
S1133990F9E7C046FFEFFFFFF8B51F008B8905006C
S11339A00C001600DB0505D50E23C95E0022022398
S11339B000F040F9A389054A28001340A38132008E
S11339C00E23E15E3B0000F075F8F8BDFFEFFFFF4A
S11339D070B50C000E25495F00F02CF9A389421C38
S11339E003D1054A1340A38170BD802252011343C1
S11339F0A3816065F8E7C046FFEFFFFF10B50E2313
S1133A00C95E00F0E1F810BDF8B505000E00140021
S1133A10002804D08369002B01D1FFF717FB224B48
S1133A209C422DD16C68A369A360A3891B0731D57F
S1133A302369002B2ED023682269F7B2981A636990
S1133A40F6B2984205DB21002800FFF791FA00281E
S1133A5026D1A3680130013BA36023685A1C22606D
S1133A601F706369984204D0A389DB071AD50A2E14
S1133A7018D121002800FFF77BFA002812D00FE0AC
S1133A800A4B9C4201D1AC68CDE7094B9C42CAD198
S1133A90EC68C8E72100280000F020F80028CAD00C
S1133AA0012676423000F8BD4C5D00006C5D0000DC
S1133AB02C5D000070B50500080011000022064CC2
S1133AC022601A00FDF792FF431C03D12368002BE8
S1133AD000D02B6070BDC04698010020364B70B5F5
S1133AE01D6806000C00002D05D0AB69002B02D127
S1133AF02800FFF7ABFA314B9C420FD16C680C23C2
S1133B00E25E93B219072DD4D90611D409230120FA
S1133B10336037331343A381404270BD284B9C422A
S1133B2001D1AC68EBE7274B9C42E8D1EC68E6E7AF
S1133B305B0713D5616B002908D0230044339942F5
S1133B4002D03000FFF78EFB002363632422A38995
S1133B509343A38100236360236923600823A2891C
S1133B601343A3812369002B0BD1A0218022A389B5
S1133B70890092000B40934203D021003000FFF7EC
S1133B8023FB0123A289134011D00023A36063699E
S1133B905B42A361002023698342BED10C23E25E11
S1133BA01306BAD540231343A3810138B5E792071E
S1133BB000D46369A360EDE7100000204C5D0000B1
S1133BC06C5D00002C5D0000002370B5064C050000
S1133BD008002360FDF744FF431C03D12368002B36
S1133BE000D02B6070BDC04698010020002370B542
S1133BF0064C0500080011002360FDF734FF431C48
S1133C0003D12368002B00D02B6070BD98010020E5
S1133C10002370B5064C050008002360FDF728FF5B
S1133C20431C03D12368002B00D02B6070BDC04619
S1133C309801002070B50500080011000022064C10
S1133C4022601A00FDF716FF431C03D12368002BE2
S1133C5000D02B6070BDC04698010020C9B2821804
S1133C60904201D10020704703788B42FBD0013091
S1133C70F6E770477047000070B5050008001100B2
S1133C800022064C22601A00FDF78EFE431C03D16D
S1133C902368002B00D02B6070BDC0469801002023
S1133CA03A0400008606000086060000860600002E
S1133CB086060000860600008606000086060000D0
S1133CC086060000860600008606000086060000C0
S1133CD086060000860600008606000086060000B0
S1133CE02204000086060000860600008606000006
S1133CF08606000086060000860600008606000090
S1133D00860600008606000086060000860600007F
S1133D10860600008606000086060000860600006F
S1133D2032040000860600008606000086060000B5
S1133D30860600008606000086060000860600004F
S1133D40860600008606000086060000860600003F
S1133D50860600008606000086060000860600002F
S1133D602A040000420400000A0400001A040000AF
S1133D7012040000020000000300000028000000FC
S1133D8029000000040000000500000006000000F7
S1133D9007000000200000002100000022000000B5
S1133DA0230000002400000025000000260000007D
S1133DB02700000008000000090000000A000000BD
S1133DC00B00000000080042000C004200100042FA
S1133DD00014004200180042001C0042361100008A
S1133DE032110000321100009811000098110000F7
S1133DF04A1100003C11000050110000861100001F
S1133E00581300003813000038130000C4130000D6
S1133E104A130000661300003C13000074130000F2
S1133E20B4130000000000000000000000000000C7
S1133E30000000000000000000000000000000007E
S1133E40000000000000000000000000000000006E
S1133E50000000000000000000000000000000005E
S1133E60000000000000000000000000000000004E
S11341600000000003FF303FF300000000000000E7
S1134170000000000000000003F0003F0000000009
S1134180000003F0003F00000000000000000003F6
S11341903003FFF03FFF003300033003FFF03FFF25
S11341A00033000330000000030000CCC00CCC033B
S11341B0FFF03FFF00CCC00CCC0003000000000067
S11341C0001C030330E00E38000E00038000E1C041
S11341D038330000E000000000000F3C030C3030D6
S11341E0C3030C3030C300F330000C000330003341
S11341F00000000000000000030000F0003C000389
S113420000000000000000000000000000000000AA
S11342100003F0003F000C0C03003000000000001D
S11342200000000000000000000000000300300C4B
S11342300C003F0003F0000000000000000000C07C
S113424000CCC003F0000C0000C0003F000CCC0008
S11342500C00000000000000C0000C0000C0000CB6
S1134260000FFC000C0000C0000C0000C0000000A7
S1134270000000000C00030000F0000C000000002F
S113428000000000000000000000C0000C0000C09E
S1134290000C0000C0000C0000C0000C0000C000B6
S11342A000000000000000000F0000F0000F0000FC
S11342B0000000000000000000000000030000C037
S11342C00030000C00030000C000300000000000BB
S11342D00000000003F000FFC03C0F030030300377
S11342E00300303C0F00FFC003F00000000000009A
S11342F060300C030180303FFF03FFF00003000037
S11343000000000000000C0F03C3F030330303303F
S113431030C3030C3030C300F0300F030000003012
S11343200C030070300303003031C3033C303EC340
S113433003C3C0303C0000000070000F0003B00055
S113434063001C3003FFF000300003000030000065
S1134350003FCC03FC3033030330303303033030ED
S11343603303030FC030FC00000003FC00FFF03CEB
S1134370C3030C3030C3030C3030C30003C0003C13
S11343800000003000030000300F0300F030300361
S11343900C00330003C0003C000000000F3C00F39D
S11343A0C030C3030C3030C3030C3030C300F3C03F
S11343B00F3C0000000F0003FC3030C3030C30300E
S11343C0C3030C30330E00FFC00FF00000000000E8
S11343D00000000F0F00F0F00F0F000000000000BD
S11343E000000000000000000000000C0F0F00F0AF
S11343F0F00F0C00000000000000000000000000AE
S113440000C0000C0003300033000C0C00C0C030AE
S113441003030030000000000003300033000330C9
S11344200033000330003300033000330003300056
S1134430000030030300300C0C00C0C00330003314
S11344400000C0000C0000000000000C0003C000CD
S11344503000030F3030F3033000330000C0000C91
S1134460000000000FFC03FFF03003030C30333373
S113447003333031E300FF000FF000000000FF00C1
S11344803FF00F3001C300303001C3000F30003F54
S1134490F000FF000000300303FFF03FFF030C3087
S11344A030C3030C3030C300F3C00F3C00000003E2
S11344B0F000FFC03C0F0300303003030030300332
S11344C000C0C00C0C000000300303FFF03FFF03EA
S11344D00030300303C0F00E1C003F0001E0000078
S11344E0003FFF03FFF030C3030C3030C3030C3034
S11344F0300303003030030000003FFF03FFF030BF
S1134500C0030C0030C0030C003000030000300076
S113451000000003F000FFC03C0F03003030030331
S11345200330303300C3C00C3C0000003FFF03FFE6
S1134530F000C0000C0000C0000C0000C003FFF03D
S11345403FFF0000000000030030300303FFF03F92
S1134550FF03003030030000000000000000000CE6
S11345600000F00003030030300303FFF03FFC03BE
S1134570000030000000003FFF03FFF000C00033E4
S113458000033000C0C00C0C0300303003000000F6
S11345903FFF03FFF0000300003000030000300081
S11345A00300003000030000003FFF03FFF01C0085
S11345B000700003C00070001C0003FFF03FFF0008
S11345C000003FFF03FFF01C0000700001C0000763
S11345D000001C03FFF03FFF0000000FFC00FFC0C1
S11345E038070300303003030030380700FFC00FE2
S11345F0FC0000003FFF03FFF030C0030C0030C09C
S1134600030C0030C000F0000F000000000FFC039A
S1134610FFF0300303003030330303F0300C00FFAD
S1134620300FF30000003FFF03FFF030C0030C0025
S113463030C0030F0030FC00F0F00F030000000F47
S11346400C03FCF030C3030C3030C3030C3030C314
S113465000C3C00C3C000000300003000030000325
S113466000003FFF030000300003000030000000A2
S1134670003FFC03FFC000030000300003000030D3
S1134680000303FFC03FFC0000003C0003FC0003E8
S1134690FC0003E000030003E003FC03FC003C0017
S11346A00000003FFE03FFF000030003E000F00001
S11346B003E0000303FFF03FFE000000300303C0EB
S11346C0F00F3C00370001E0003B000F3C03C0F05A
S11346D03003000000300003C0000F00003E000063
S11346E0FF003E000F0003C0003000000000300F48
S11346F00301F0303303073030C30338303E030383
S1134700C030300300000000000000003FFF03FF42
S1134710F03003030030300300000000000000000C
S113472000000300003C0000F00003C0000F000084
S11347303C0000F0000300000000000300303003E0
S11347400300303FFF03FFF0000000000000000002
S1134750000000C0003C000F0001C000300001C098
S1134760000F00003C0000C0000000000300003007
S1134770000300003000030000300003000030009C
S113478003000000000000000030000300003C00B3
S113479000F00003000000000000000000000C0016
S11347A000C0033300333003330033300333003F9E
S11347B03000FF0000003FFF03FFF001CE00303067
S11347C003030030300303003CF000FC0000000051
S11347D0FC003FF0030300303003030030300303D8
S11347E0000C3000C300000000FC003FF003030095
S11347F03030030300303000CC03FFF03FFF0000F3
S11348000000FC003FF00333003330033300333047
S11348100333000F3000F000000000C0000C000F54
S1134820FF00FFF030C0030C00300000C0000C009B
S113483000000000CCC03FFF033330333303333078
S11348403F3300C3F0300C0300C000003FFF03FF00
S1134850F000C000300003000030000300000FF03F
S113486000FF00000000000000300303033FF033AA
S1134870FF000030000300000000000000000003FF
S1134880C0003F00003000030000333FFF33FFC08F
S1134890000000000000003FFF03FFF000300007AD
S11348A00001EC0038C006030000300000000000E6
S11348B0000000000030030300303FFF03FFF0005E
S11348C003000000000000000003FF003FF000C0F0
S11348D00007000070000C000380003FF000FF00A0
S11348E0000003FF000FF003C0003000030000309D
S11348F0000300000FF000FF00000000FC003FF088
S11349000303003030030300303003FF000FC00006
S11349100000000003FFF00F00030C0030C0030C84
S11349200030C0030C000F0000F000000000F00095
S11349300F00030C0030C0030C0030C0030C000F48
S11349400003FFF0000003FF000FF000C0001C0094
S113495003000030000300001C0000C00000000041
S1134960C3003F30033300333003330033300333A9
S11349700000C0000C00000003000030003FFC03F6
S1134980FFC00303003030030C0000C0000000002F
S11349900003FC003FF0000300003000030000307F
S11349A003FC003FF0000300000001C0000E000003
S11349B0780001E0000F0001E00078000E0001C063
S11349C000000003FC003FF000030001C0003000C1
S11349D001C00003003FF003FC0000000303001CBF
S11349E0E000780003000078001CE00303000000EE
S11349F0000000000003F0C03FCF000C7000C300B3
S1134A000C703FFF03FFC000000000000000030320
S1134A10003030030F0030F0033300333003C300A1
S1134A203C300303000000000000000000C0000C44
S1134A30000CCC033330300303003030030000009B
S1134A400000000000000003FFF03FFF0000000032
S1134A500000000000000000003003030030333386
S1134A600333300CCC000C000000000000000000F8
S1134A7000000F0003F00030000380000C00007001
S1134A8000030003F0003C000000000000000000F0
S1134A900000000000000000000000000000000012
S1134AA00000000003F000FFC03C0F03003430039B
S1134AB0C30030300300C0C00C0C00000003FC0134
S1134AC0BFF0180300003000030180301BFC003FDE
S1134AD0F0000300000000FC003FF003330033301B
S1134AE00B3301B3301333000F3000F0000000002B
S1134AF00C0000C003330033300B330133300B336D
S1134B00003F3000FF000000000C0000C01B330118
S1134B10B33003330033301B3301BF3000FF0000D8
S1134B2000000C0000C003330133301B3300B330EA
S1134B300333003F3000FF000000000C0000C003FE
S1134B40330333304B3304B3303333003F3000FF8F
S1134B5000000000FC003FF003030030300303407A
S1134B60303C0303000C3000C300000000FC003F95
S1134B70F0033300B330133300B3300333000F308A
S1134B8000F000000000FC01BFF01B3300333003D1
S1134B903301B3301B33000F3000F000000000FC81
S1134BA0003FF0133301B3300B33003330033300D1
S1134BB00F3000F000000000000300303303003F1A
S1134BC0F003FF0300303003000000000000000089
S1134BD000000000300B03013FF00BFF0000300029
S1134BE00300000000000000000000000030130378
S1134BF001BFF00BFF0000300003000000000000C4
S1134C00000000FF0C3FF0CF3001C300303001C37F
S1134C1000CF300C3FF000FF00000000FF003FF029
S1134C204F300BC300B0300BC3004F30003FF000D7
S1134C30FF0000003FFF03FFF030C3070C3070C3D8
S1134C400B0C30B0030300303003000000001C00E4
S1134C5033F00333003F3001FF003BE00313003B1C
S1134C603003F300000000FF003FF00F3001C300E9
S1134C70303003FFF03FFF030C3030C3000000006E
S1134C80FC003FF0030300B030130300B03003FF17
S1134C90000FC0000000000000FC01BFF01B030077
S1134CA03030030301B0301BFF000FC000000000D0
S1134CB00000FC003FF0130301B0300B0300303060
S1134CC003FF000FC0000000000003FC003FF000E1
S1134CD003008030100300803003FC003FF0000329
S1134CE000000003FC003FF0000301003018030043
S1134CF0803003FC003FF0000300000003F0C1BF5C
S1134D00CF180C7000C3000C71BFFF1BFFC0000064
S1134D10000000000007FC007FC0DC070D80301895
S1134D20030D8030DC07007FC007FC0000001FFC7F
S1134D3001FFC0C0030C00300003000030C0030DAD
S1134D40FFC01FFC00000003F000FFC00C0C00C0FB
S1134D50C07DEF80C0C00C0C0033000330000000A5
S1134D60006300FFF01FFF03863030630300301838
S1134D700300C030000300000020000380000E2464
S1134D80003A4000FF003A400E2403800020000057
S1134D9000003FFF03FFF03180031BE031BF031924
S1134DA030319300E0000E0000000000C0000CFC55
S1134DB00FFFC0FFC03FC0038C0038C001E0000EED
S1134DC000000000000C0000C003330033300B333C
S1134DD001B3301333003F3000FF00000000000037
S1134DE000300303013FF033FF02003000030000F2
S1134DF000000000000000FC003FF0030300B0309E
S1134E001B0301303003FF000FC00000000000034B
S1134E10FC003FF00003008030180301003003FC65
S1134E20003FF0000300000003FF000FF013C00078
S1134E30B0000B000130001300008FF000FF0000F1
S1134E40003FFF0BFFF04C0004300080C00803005B
S1134E50400C03FFF03FFF00000000800008002624
S1134E608002A8002A8002A8001E8000080000809A
S1134E7000000000800008001C80036800228003FA
S1134E8068001C800008000080000000000300008F
S1134E9030000CC000CC0CF0C0CF0C0000C0003CB3
S1134EA0000300000000F0000F0000C0000C000030
S1134EB0C0000C0000C0000C0000C000000000C0D6
S1134EC0000C0000C0000C0000C0000C0000C0007A
S1134ED00F0000F000000000C0000C0000C4400CF3
S1134EE0CC7ED9C7EDB400DE400CC400C000000085
S1134EF000C0000DF000DF000C107EC107ECFE00C6
S1134F00CFE00C1000C00000000000000000000012
S1134F1000CFFC0CFFC000000000000000000000F7
S1134F2000000040000A00011000248000A00011CD
S1134F300002080000000000000000000000000063
S1134F40020800110000A00024800110000A0000E3
S1134F504000000082082082082082082082082065
S1134F608208208208208208208208208292492414
S1134F7092492492492492492492492492492492A0
S1134F804924924924926DB6DB6DB6DB6DB6DB6DB8
S1134F90B6DB6DB6DB6DB6DB6DB6DB6DB6DB6D0017
S1134FA0000000000000000000FFFFF0000000000F
S1134FB00000000000000000004000040000400069
S1134FC00400FFFFF00000000000000000000000EB
S1134FD00000A0000A0000A0000A00FFFFF000008B
S1134FE00000000000000000000000400004000079
S1134FF0400FFFFF00000FFFFF0000000000000053
S1135000000000004000040000400007FF004000D2
S113501007FF0000000000000000000000A0000ADC
S11350200000A0000A0000FFF000000000000000E3
S1135030000000000000A0000A0000A00FFBFF0019
S1135040000FFFFF0000000000000000000000004F
S113505000000000000FFFFF00000FFFFF00000032
S11350600000000000000000A0000A0000A0000BE7
S1135070FF0080000FFF000000000000000000009F
S113508000A0000A0000A00FFA0000200FFE00009C
S11350900000000000000000000040000400004088
S11350A00FFC0000400FFC000000000000000000A6
S11350B0000000A0000A0000A0000A00FFE00000B9
S11350C00000000000000000000000004000040098
S11350D00040000400007FF0000000000000000019
S11350E00000000000000000000000000000FFC0FD
S11350F000040000400004000040000400004000E0
S113510004000040000400FFC0000400004000044C
S113511000004000040000400004000040000400BF
S1135120007FF00400004000040000400004000080
S1135130000000000000000000FFFFF00400004039
S1135140000400004000040000400004000040008F
S1135150040000400004000040000400004000047B
S11351600000400004000040000400FFFFF00400C1
S113517000400004000040000400000000000000A3
S113518000000000FFFFF00A0000A0000A0000A0D9
S1135190000A00000000000000000FFFFF00000FE5
S11351A0FFFF004000040000400004000000000075
S11351B00000000FFE0000200FFA0000A0000A000B
S11351C000A0000A0000000000000000000FFF0023
S11351D080000BFF00A0000A0000A0000A0000A04D
S11351E0000A0000A00FFA0000200FFA0000A0003F
S11351F00A0000A0000A0000A0000A0000A0000BA2
S1135200FF0080000BFF00A0000A0000A0000A00BD
S1135210000000000000000FFFFF00000FFBFF0074
S1135220A0000A0000A0000A0000A0000A0000A0DC
S1135230000A0000A0000A0000A0000A0000A0006C
S11352400A0000A0000A0000A00FFBFF00000FFBF3
S1135250FF00A0000A0000A0000A0000A0000A004D
S113526000A0000A00FFA0000A0000A0000A00003D
S1135270A0000A00004000040000400FFC000040B1
S11352800FFC000040000400004000040000A000E7
S11352900A0000A0000A0000BFF00A0000A0000AF3
S11352A00000A0000A00004000040000400007FFC6
S11352B000400007FF00400004000040000400001C
S11352C00000000000000FFC0000400FFC00004044
S11352D00004000040000400000000000000000082
S11352E00000FFE0000A0000A0000A0000A0000A7D
S11352F0000000000000000000000000FFF00A00B1
S113530000A0000A0000A0000A0000000000000045
S1135310000007FF00400007FF00400004000040B9
S1135320000400004000040000400FFFFF00400F95
S1135330FFFF0040000400004000040000A0000A39
S11353400000A0000A00FFFFF00A0000A0000A000D
S113535000A0000A0000400004000040000400FF18
S1135360C000000000000000000000000000000079
S11353700000000000000000007FF0040000400076
S113538004000040000400FFFFFFFFFFFFFFFFFFDA
S1135390FFFFFFFFFFFFFFFFFFFFFFFFFFFFFFFF19
S11353A0007FF007FF007FF007FF007FF007FF009A
S11353B07FF007FF007FF007FFFFFFFFFFFFFFFF06
S11353C0FFFFFFFFFFF000000000000000000000EE
S11353D0000000000000000000000000FFFFFFFFCD
S11353E0FFFFFFFFFFFFFFFFFFFFFFFFC00FFC00FA
S11353F0FFC00FFC00FFC00FFC00FFC00FFC00FF4C
S1135400C00FFC00003C0003C000C3000C3000C30C
S1135410000420003C000420008100000000010082
S11354207FF00FFF008C1008C100DE300737000149
S1135430C00000000000080100FFF00FFF00C010D2
S11354400C0000C0000F8000F80000000000000005
S113545081000FF000FF000C0000C0000C0000FFF2
S1135460000FF000810000003C0F0361B0333303F0
S11354701E3030C30300303003030030380700000F
S11354800000FC003FF00303003030030300303021
S113549003FF003FC0030000000003FFE03FFE00E5
S11354A003000030000300003003FC003FF0000361
S11354B0000000030000380001C0000FF003FF00EB
S11354C030000380001C0000C000000004FC805F6A
S11354D0E80703807038070380703805FE804FC8E2
S11354E0000000000003F000FFC03CCF030C30308C
S11354F0C3030C303CCF00FFC003F00000000FF9E1
S113550001FFF0381F0300003000030000381F01C2
S1135510FFF00FF900000000FC003FF0330303B07C
S1135520303F0303703033FF030FC030000000002E
S113553000F8001040020200104000F80010400281
S11355400200104000F800000001FD003070020E5F
S11355500061B00471006C30038200706005FC00CF
S1135560000003F000FFC03CCF030C3030C3030C39
S1135570303003000000000000000003FFC03FFCC7
S11355800C0000C0000C0000C0000C00003FFC0335
S1135590FFC00000033300333003330033300333E0
S11355A00033300333003330033300000000C10004
S11355B00C1000C1000C100FFD000C1000C1000CF9
S11355C01000C100000030036300360C0C60C0C63C
S11355D0033060330600C0600C06000000000000C9
S11355E0C0600C0603306033060C0C60C0C6300388
S11355F0630036000000000000000000000000000E
S113560000007FFFFC000080000C00006000000030
S11356100000006000010000100006FFFF80000091
S11356200000000000000000000000C0000C0000AA
S1135630C000CCC00CCC000C0000C0000C0000C0AA
S113564000000003300066000660006600033000BE
S11356501980019800198003300000000000000048
S1135660000C00012000120000C000000000000037
S113567000000000000000000000000E0000E00038
S11356800E00000000000000000000000000000008
S113569000000000000000300003000000000000D3
S11356A00000000000000000200003800007000349
S11356B0C001C000E0001000010000100001000063
S11356C000000000007E0003E000600006000060AF
S11356D00007E0001E000000000000000000218020
S11356E0063800678006E8007C800388000000001C
S11356F0000000FF000FF000FF000FF000FF000F9C
S1135700F0000000000000000000000000000000A5
S11357100000000000000000000000000000000085
S1135720000000000A000A00140014001400000025
S11357307C010A007C010A008601140000001400A8
S11357400A00220186011400900122010A002201AC
S113575014002C017C01220186012C0114002C016F
S11357607C01360100001E003200280000003200D7
S113577032003C0050001E0018012800460028009A
S11357805000BE005000BE001801C80018012800D7
S11357902201BE00000046003200500000005A0002
S11357A03200640000006E003200780000008200C5
S11357B032008C00000096003200A0000000AA0015
S11357C03200B4000000BE003200C8002C01C80042
S11357D07201D2001E00DC007201E6001E00F0001F
S11357E07201FA001E00040172010E015A00180130
S11357F02C012201B450BE82AA82BE8C8C3C9664D9
S1135800D23CDC6482968CA08CA0DCAADC96E6A058
S1135810783CF0506E46785A963CAAAAC83CDCA064
S1135820D2A0E6AA002D002E0032004400530088C6
S113583000B600F301220164019201D402070208B8
S11358400234025F0278029402A602BB02CA02DB9F
S113585002E802F9031F037FF0F0F0F0F0B0B0B0FB
S1135860B6B6B6B1B1B1B7B7B7B2B2B2B8B8B8BFDD
S1135870B3B3B3B9B9B9B5B5B5C2BABABABCBCBC9D
S1135880BDBDBDBEBEF0F0F0F0F0B1B1B6B7B7B873
S1135890B8B8B8BCBCBCC9C9C9C9C9353A36000016
S11358A055AA5208010D0D0D3434340D0D0D343448
S11358B034000000242424010F0F0F34343408086A
S11358C00803242424007800007800008955AA5293
S11358D00800CC0005707001030303020000D0022D
S11358E0505050005500000048656C6C6F20576F95
S11358F0726C640A0D00000000010203040001023E
S11359000001020001020001020001020001020084
S11359100102000102000001000001020001020076
S11359200102000100010203040000000001000163
S11359300203000102000102030400000000000051
S1135940556E69782065706F6368206D696E757334
S11359502030784646206461797300003339383743
S11359605E3132202B20343336355E3132203D20F7
S1135970343437325E3132005265746963756C6158
S113598074696E672053706C696E65730000000063
S113599056696F6C656E636520776F726B73000078
S11359A054616273210000004B696C6C2042696C85
S11359B06C696F6E61697265732028616E6420542E
S11359C072696C6C696F6E61697265290000000010
S11359D0496E74657265737420696E2074656368BA
S11359E06E6F6C6F6779206973206E6F742061200D
S11359F0706572736F6E616C697479003130205018
S1135A0052494E542043485224283230352E352BE7
S1135A10524E44283129293B203A20474F544F20E5
S1135A20313000004E6F20676F64732E204E6F205C
S1135A306D6173746572732E204E6F206578746582
S1135A40726E616C206C69627261726965732E009A
S1135A5053706163657321005469616E616E6D6595
S1135A606E20537175617265203139383900000038
S1135A70416D65726963612077617320666F756E2D
S1135A80646564206F6E20736C61766572790000C2
S1135A905468657265206973206F6E6C7920636148
S1135AA0706974616C20616E64206C61626F720055
S1135AB0456E636F75726167652073796D6D65748A
S1135AC072696320636C61737320776172666172BB
S1135AD0650000002443555252454E545F4D454DD8
S1135AE04500000041204E6963652054545900006C
S1135AF05472616E73207269676874732061726591
S1135B002068756D616E20726967687473000000A7
S1135B104A6F686E2043617270656E746572277394
S1135B20204573636170652046726F6D2053616E0A
S1135B30204672616E636973636F00005468696E16
S1135B406B696E673A205768617420796F752064B9
S1135B506F207768656E20796F752063616E277496
S1135B60206A7573742070757420697420696E746A
S1135B706F20616E20415753206275636B65742EEC
S1135B8000000000446566636F6E27732063616ED6
S1135B9063656C65642E0000526174736E65737482
S1135BA03A204E6F7468696E6720546F20446F21E9
S1135BB000000000497420686173203639206B6549
S1135BC079732E00426563617573652056542D34D4
S1135BD032302077617320616C726561647920745E
S1135BE0616B656E000000004B696473207468612A
S1135BF074206B6E6F636B656420646F776E2073C3
S1135C007461636B73206F6620626C6F636B7320C7
S1135C106772657720757020746F206265207365E4
S1135C2063757269747920726573656172636865FE
S1135C3072732E004B6964732074686174207374EA
S1135C4061636B65642074686520626C6F636B7359
S1135C502067726577207570206E6F742068617498
S1135C60696E67207468656D73656C7665732E0064
S1135C704F6666656E7369766520686172647761E4
S1135C8072650000466F6C6C6F7720576F726C649E
S1135C9020506F672046656465726174696F6E2079
S1135CA020202040576F726C64506F670000000022
S1135CB044756D6D7920746869636320636C6965EC
S1135CC06E74000041204E696365205454592E209F
S1135CD0416E204F4B20436F6D70757465722E00BA
S1135CE0492063416E204F70456E2041204C6F4324
S1135CF06B2057695468204120734F6441206341ED
S1135D006E000000536F6C69646172697479206974
S1135D1073206E6F742061206E6577206672616DEA
S1135D2065776F726B000000140000200000000013
S1135D30000000000000000000000000000000005F
S1135D40000000000000000000000000000000004F
S1135D50000000000000000000000000000000003F
S1135D60000000000000000000000000000000002F
S1135D70000000000000000000000000000000001F
S1135D80000000000000000000000000232D302B64
S1135D902000686C4C006566674546470030313228
S1135DA0333435363738394142434445460030317F
S1135DB032333435363738396162636465660000DE
S1135DC0F8B5C046F8BC08BC9E467047DD0000002C
S1135DD0F8B5C046F8BC08BC9E467047B500000044
S1135DE0401F0000080000000100DF011F03000045
S1135DF014000020000000004C5D00006C5D0000F9
S1135E002C5D000000000000000000000000000005
S1135E10000000000000000000000000000000007E
S1135E20000000000000000000000000000000006E
S1135E30000000000000000000000000000000005E
S1135E40000000000000000000000000000000004E
S1075E50000000004A
S90318C51F
