S018000044756D42616467654669726D776172652E73726563D6
S113000028510020B1340000AD340000AD340000AC
S113001000000000000000000000000000000000DC
S1130020000000000000000000000000AD340000EB
S11300300000000000000000AD340000394600005C
S1130040AD340000AD340000AD340000AD34000028
S1130050AD340000AD340000AD340000AD34000018
S1130060AD340000C9260000D9260000E9260000AE
S1130070F92600000927000019270000AD3400000C
S1130080AD340000AD340000AD340000AD340000E8
S1130090AD340000AD340000AD340000FD2100009B
S11300A0AD340000AD340000AD340000AD340000C8
S11300B00000000010B5064C2378002B07D1054B37
S11300C0002B02D0044800E000BF0123237010BDC0
S11300D00C0200200000000038870000084B10B517
S11300E0002B03D00749084800E000BF0748036815
S11300F0002B00D110BD064B002BFBD09847F9E72D
S1130100000000001002002038870000388700003B
S11301100000000070B505000C000C20044B98474B
S11301200560048100238380C380837270BDC04650
S1130130D14D000000238380C38083727047000088
S113014010B5040083885B0002689952837A002BFF
S113015005D0C08801302189074B9847E180A088E9
S113016001302189044B98478BB2A380E188C91AD6
S11301704A424A41A27210BDF14C0000827A002327
S1130180002A05D18388C0881B1A58424341DBB238
S11301901800704770B504000D000B4B98470028F9
S11301A00ED1E3885B0022689B5A2B700023A37254
S11301B0E08801302189054B9847E180002070BD1B
S11301C001204042FBE7C0467D010000F14C0000E5
S11301D0034B1868013043425841C0B27047C046CF
S11301E008000020084A13680849C85C01331360FA
S11301F0074A1268934205DD01235B42044A1360F7
S1130200014A13607047C046080000200003002024
S113021010000020074B1B68013306D0064A136800
S113022001331360054AD05470470022014B1A6011
S1130230F4E7C0460800002010000020000300205E
S1130240034B1868013043425841C0B27047C0465E
S113025004000020084A13680849C85C013313608D
S1130260074A1268934205DD01235B42044A136086
S1130270014A13607047C046040000203403002084
S11302800C000020074B1B68013306D0064A136894
S113029001331360054AD05470470022014B1A60A1
S11302A0F4E7C046040000200C00002034030020C2
S11302B030B50E4B1868431E002B0BDD18000023CD
S11302C00B4D00220B4C59190A7019190A7001338D
S11302D08342F8D101235B42074A1360074A136043
S11302E0074A1360074A136030BDC046000000206F
S11302F03403002000030020080000200400002034
S11303000C00002010000020F8B500250C4E0D4F05
S11303100D4C02E0E8B2A0470025B04700280AD1FE
S1130320B847FB2303403B2BF4D0AB005D196D00B1
S113033030384519F1E7E8B2034B9847F8BDC04699
S1130340D1010000E5010000850200001B2806D051
S113035040383E2802D80022034B1A70704701220D
S1130360014B1A70FAE7C046F1020020054B1A88C7
S1130370054B1A70054B1A88054B1A700022054B61
S11303801A707047EC02002028020020EE020020C0
S113039029020020F1020020F8B50F4C0F4F3A88D3
S11303A00F4E318853009B18DB00E318585C0D4D49
S11303B0A8470D4B1A783A800C4B197831805300BA
S11303C09B18DB00E318585CA847094B98470022A8
S11303D0084B1A70F8BDC046F4030020EC0200205C
S11303E0EE020020653600002802002029020020C9
S11303F02D380000F102002070B5194B1A88162A16
S113040014D9184D2C8863001B19DB001649CB182E
S1130410985C164EB047164B98470020B0472C8086
S1130420144B98470022144B1A7070BD0E4C0D4D9E
S113043029884B005B18DB00E318985C0B4EB0472F
S1130440074A138801339BB2138029884A00521843
S1130450D200A418E05CB047064B9847E2E7C046D8
S1130460EE020020EC020020F403002065360000B8
S1130470593900002D380000F102002070B5184BE6
S11304801A88162A15D9174C21884B005B18DB00F3
S11304901549CB18985C154DA847154B9847002073
S11304A0A84700232380134B98470022124B1A704D
S11304B070BD0D4C0B4D29884B005B18DB00E31815
S11304C0985C0A4EB047064A138801339BB21380E6
S11304D000222A80E05CB047064B9847E5E7C04617
S11304E0EE020020EC020020F40300206536000038
S11304F0593900002D380000F102002070B5104B6E
S11305001A88002A03D100220E4B1A7070BD0E4CBB
S11305100E4D29884B005B18DB00E318985C0C4EE9
S1130520B047074A1388013B9BB2138029884A00CD
S11305305218D200A418E05CB047064B9847E2E793
S1130540EE020020F1020020F4030020EC0200205F
S1130550653600002D380000BFF34F8F034A044B6B
S1130560DA60BFF34F8FC046FDE7C0460400FA05CA
S113057000ED00E010B5372821D0382822D04428D7
S113058023D0452824D0482825D04D2827D05928C1
S113059028D063282ED03E282ED03D2830D05D2888
S11305A032D0FD220300233B134231D0053B012B03
S11305B02ED95B2832D000221A4B1A702DE01A4B28
S11305C098472AE0194B984727E0194B984724E0AD
S11305D0184B984721E00022124B1A701DE0164B6D
S11305E098471AE015491648164B984700220D4BB8
S11305F01A7012E0144B984700220A4B1A700CE050
S11306000022084B1A7008E00022064B1A7004E01E
S11306100E4B18700222034B1A7010BD0322014BBB
S11306201A70FAE7F10200206D030000990300003C
S1130630F90300007D040000FD04000000640000D4
S113064034640000594F000059050000760300206F
S1130650F8B5204B9847012400281DD01E4B1A885A
S1130660131B182B1ED91D4C1D4E31884B005B18D3
S1130670DB00E318985C1B4DA8470022164B1A8038
S1130680328853009B18DB00185DA847164B984727
S11306900022164B1A70F8BD154B9847041EDDD185
S11306A00134DBE70D4D0E4E31884B005B18DB0047
S11306B0EB18985C0B4FB847074B1888041BA4B27F
S11306C01C80328853009B18DB00ED18285DB84766
S11306D0DCE7C04641020000EE020020F4030020E3
S11306E0EC020020653600002D380000F1020020E5
S11306F055020000F8B5204B9847012400281ED06D
S11307001E4B1A88A318172B1FDD1D4C1D4E318854
S11307104B005B18DB00E318985C1B4DA8471722BD
S1130720164B1A80328853009B18DB00E318D87DDF
S1130730A847164B98470022154B1A70F8BD154B65
S11307409847041EDCD10134DAE70D4D0D4E318893
S11307504B005B18DB00EB18985C0B4FB847074B5A
S113076018880419A4B21C80328853009B18DB003B
S1130770ED18285DB847DCE741020000EE020020D6
S1130780F4030020EC020020653600002D38000040
S1130790F102002055020000F8B5214B98470124CE
S11307A000281FD01F4B1A88A3184F2B20DD1E4C86
S11307B01E4E318853009B18DB00E318585C1C4D17
S11307C0A8474F22174B1A803388E418ED23DB0027
S11307D09C4664442078A847164B98470022164B41
S11307E01A70F8BD154B9847041EDBD10134D9E7C4
S11307F00D4D0E4E318853009B18DB00EB18585CEE
S11308000B4FB847074B18880419A4B21C803388CF
S113081060000419E4002C19E05CB847DCE7C0462A
S113082041020000EC020020F4030020EE0200204C
S1130830653600002D380000F1020020550200004A
S1130840F8B51E4B9847012600281FD01C4B1A8868
S1130850931B21D41B4C1C4D298853009B18DB008F
S1130860E318585C194FB847154B1888801B80B2A1
S113087018802A8843001818C0002018805CB847E4
S1130880134B98470022134B1A70F8BD124B98472C
S1130890061EDBD10136D9E70A4D0B4E31885300D1
S11308A09B18DB00EB18585C084CA0470022044B53
S11308B01A803388E85CA047E2E7C04641020000A2
S11308C0EC020020F4030020EE0200206536000054
S11308D02D380000F10200205502000070B51D4BB8
S11308E09847012400281CD000221B4B1A801B4B64
S11308F01B88E218172A1ADD194CE05C194DA84729
S11309001722164B1A80144B1A8853009B18DB00CD
S1130910E318D87DA847144B98470022134B1A704C
S113092070BD134B9847041EDED10134DCE70C4D37
S1130930E85C0C4EB047094B18880419A4B21C801B
S1130940054B1A8853009B18DB00EB18185DB04761
S1130950E1E7C04641020000EC020020EE02002064
S1130960F4030020653600002D380000F102002059
S11309705502000070B51C4B9847012400281BD079
S113098000221A4B1A801A4B1B881A1B182A19D9D1
S1130990184DE85C184CA0470022154B1A80134BE5
S11309A01A8853009B18DB00585DA047134B9847E7
S11309B00022134B1A7070BD124B9847041EDFD1EE
S11309C00134DDE70B4DE85C0B4EB047084B18884B
S11309D0041BA4B21C80054B1A8853009B18DB002F
S11309E0EB18185DB047E1E741020000EC0200207B
S11309F0EE020020F4030020653600002D380000CC
S1130A00F102002055020000F0B5C64600B5174BB0
S1130A109847012500281CD0154C164F3A88164ECD
S1130A20318853009B18DB00E318585C134B98463D
S1130A3098473D8032886B005B19DB00E318985CB3
S1130A40C0470F4B984700220E4B1A7004BC9046C7
S1130A50F0BD0D4B9847021E01D00138C2B2131CE1
S1130A604F2A00D94F23DDB2D6E7C0464102000029
S1130A70F4030020EC020020EE02002065360000A2
S1130A802D380000F102002055020000F8B5CE46D2
S1130A90474680B5204B98470024002824D01E4B9D
S1130AA09847002600282BD01C4D1D4B98461A88C9
S1130AB01C4F398853009B18DB00EB18585C1A4B09
S1130AC09946984743461C803E8063001C19E40005
S1130AD02C19A05DC847154B98470022144B1A7077
S1130AE00CBC90469946F8BD124B9847031E01D0A2
S1130AF00138C3B21C1C4F2B00D94F24E4B2CEE7FB
S1130B000C4B9847031E01D00138C3B21E1C172B8F
S1130B1000D91726F6B2C7E741020000F40300200B
S1130B20EC020020EE020020653600002D380000A3
S1130B30F102002055020000F0B5DE4657464E464D
S1130B404546E0B583B0434B1B889846424B1B880F
S1130B5099460022414B1A70414B9847002811D006
S1130B6000253C4B9A463C4F3E4E002453461C8085
S1130B703D800020B0470134502CF7D10135182DA9
S1130B80F3D14EE043466A46D371D4794B46D371D0
S1130B90D3799A46344B9847012804D0002822D0B0
S1130BA002283ED1DCE7250000262A4C2D4F268062
S1130BB00020B8470136AE42F9DDD346002653463D
S1130BC0002B2EDD234B9A46234D264F00245346FB
S1130BD01C802E800020B8470134502CF7D10136F8
S1130BE05E45F3DB1DE04E2C07DC1A4F1D4E3C80A6
S1130BF00020B04701344F2CF9D155460135172D4B
S1130C000FDC144B9A46144F164E002453461C8096
S1130C103D800020B0470134502CF7D10135182D08
S1130C20F3D1124B9847FF2342461A4009490A80E0
S1130C304A461340084A138000200A4B9847002272
S1130C400B4B1A7003B03CBC90469946A246AB4687
S1130C50F0BDC046EC020020EE0200202800002077
S1130C604102000065360000550200002D380000E6
S1130C70F1020020F0B5D6464F464646C0B5314B8A
S1130C801F88FCB2304B1B88984600222F4B1A70E9
S1130C902F4B9847002815D02A4B1A882A4B1988BD
S1130CA053009B18DB002B4AD3185B5C99464F2CEE
S1130CB024DC244E284D34800020A8470134502CD5
S1130CC0F9D11BE0254B98471E4B1A881E4B1988F7
S1130CD053009B18DB001F4AD3185B5C994601281C
S1130CE021D00028E3D0022808D10024154E1A4D43
S1130CF034800020A84701344F2CF9D1184B984771
S1130D00FF231F400F4A1780424613400E4A1380A8
S1130D104846114B98470022124B1A701CBC90464F
S1130D209946A246F0BD01340025002CE6DB054BB4
S1130D309A46094E53461D800020B0470135A5420E
S1130D40F8DDDBE7EC020020EE02002028000020A2
S1130D5041020000F4030020653600005502000043
S1130D602D380000F1020020F0B5D6464F46464625
S1130D70C0B58A4CA5448022920089496846894BB3
S1130D8098470022884B1A70884B9847002804D152
S1130D90864D874E874F884C2EE00023874A137078
S1130DA0874A1370874A1370874A1370874B1A88CF
S1130DB0814B1A80864B1A88864B1A80864B98473B
S1130DC00022864B1A7080239B009D441CBC9046D5
S1130DD09946A246F0BD0023784A1370784A1370EE
S1130DE0784A1370784A1370784B1A88724B1A80B9
S1130DF0774B1A88774B1A80A8470028DED1B04772
S1130E003128F9D880003B589F4601226B4B1A7059
S1130E10F2E701226A4B1A70EEE70122694B1A705D
S1130E20EAE70122684B1A70E6E70122644B1A7064
S1130E30E2E70022614B1A70DEE70022604B1A7071
S1130E40DAE700225F4B1A70D6E700225E4B1A7075
S1130E50D2E70022584B1A80CEE7614A564B1A80DB
S1130E60CAE78022D200544B1A80C5E7202252429E
S1130E70514B1A80C0E71F224F4B1A80BCE7594AD6
S1130E804D4B1A80B8E7584A4B4B1A80B4E70122FD
S1130E905242494B1A80AFE7454B9847052818D072
S1130EA00228A9D1424B9A4698478046D0478146AA
S1130EB0D04743461B02DB0ADB024A46D200FC2130
S1130EC0C9000A401343C008C0B203433A4A13801E
S1130ED092E7374B984743006A469A5A364B1A8032
S1130EE0DEE73A4B1A88344B1A8085E70022394BE7
S1130EF01A8081E73A4A374B1A807DE78022D20074
S1130F00344B1A8078E720225242324B1A8073E71E
S1130F101F22304B1A806FE7324A2E4B1A806BE740
S1130F20314A2C4B1A8067E701225242294B1A801E
S1130F3062E71F4B9847052819D0022800D05BE7C9
S1130F401B4B9A4698478046D0478146D047434634
S1130F501B02DB0ADB024A46D200FC21C9000A401C
S1130F601343C008C0B203431A4A138044E7104B2A
S1130F70984743006A469A5A164B1A80DDE7144B89
S1130F801A88144B1A8037E7228818490A402280AD
S1130F90104A13880B4013802EE7C04600FEFFFF63
S1130FA0BC600000E54D0000280000204102000064
S1130FB055020000DC5F00001400002088030020BC
S1130FC0680300206A0300208A0300208A010020AD
S1130FD0F20200202A0200202D380000F102002035
S1130FE000F8FFFF1FF8FFFFFF070000EF7B000082
S1130FF0F0B5CE46474680B587B0364B1D88364B94
S11310001E88364B1B6805930022354B1A70354BEE
S113101098470400344B9847002818D0052C1AD060
S1131020062C1DD0002402AB1C706B461C702F4B89
S11310309847FF231D40274A15803340264A1380D2
S11310402B4B1C7007B00CBC90469946F0BD294B45
S113105098470400E2E705A92748284B9847E1E7A9
S113106002A8274FB84702AB9C4660440222254998
S1131070254CA04702A8B84702AB9C466044022214
S11310802249A047F0B20A226946214B9946984763
S1131090010002A81F4B9846984702A8B84702AB24
S11310A09C46604402221C49A047E8B20A226946D1
S11310B0C847010002A8C04702A8B84702AB9C4633
S11310C0604402221549A04702A90B480B4B9847DC
S11310D0A8E7C046EC020020EE020020BC6200003B
S11310E028000020E5010000410200002D38000026
S11310F0F10200205502000034640000594F000042
S11311003352000008640000E54D00000C64000048
S1131110C94D00001952000020670000106400004F
S1131120402806D0044B013301335A1E1278824200
S1131130FAD101207047C0461464000010B50400C1
S11311400300303B092B0BD93B280CD03F280ED091
S11311500D4B984700280ED105220C4B1A7010BD78
S11311600B4B9847FBE73B20094B9847F7E73F2099
S1131170074B9847F3E7074B98470322034B1A7032
S11311802000054B9847EAE721110000F1020020F6
S113119015020000090300009D11000010B540284D
S11311A076D0412800D177E0612800D177E0422849
S11311B000D177E0432800D177E0632800D177E0BD
S11311C0442800D17CE0642865D0452800D17AE029
S11311D0652800D17AE0462800D17AE0662800D15B
S11311E07AE0472800D17AE0672800D17AE04828DD
S11311F000D17BE0682800D17BE0492800D17CE065
S11312004A2800D17DE04B2800D17DE04C2800D154
S11312107DE06C2800D17EE04D2800D17FE06D2870
S113122000D180E06E2800D180E0502800D180E019
S1131230512800D181E0712800D182E0722800D1C8
S113124083E0732800D184E0752800D184E0582815
S113125000D184E0572800D185E05A2800D186E0E7
S1131260602800D187E00300303B092B00D886E0DA
S11312703B2800D189E03F2800D18CE01B2800D115
S11312808FE03A2800D190E000224A4B1A7002E025
S11312900022484B1A7010BD474B9847FBE7474B59
S11312A09847F8E7464B9847F5E7444B9847F2E7E9
S11312B044494548454B984700223E4B1A70EAE79B
S11312C0434B9847E7E7434B9847E4E73C4B984741
S11312D0E1E7414B9847DEE7404B9847DBE7404B5B
S11312E09847D8E70022334B1A70D4E73B4B984712
S11312F0D1E700222F4B1A70CDE700222D4B1A7034
S1131300C9E7384B9847C6E7374B9847C3E70022ED
S1131310284B1A70BFE70022264B1A70BBE7002245
S1131320244B1A70B7E7314B9847B4E7304B9847D2
S1131330B1E700221F4B1A70ADE700221D4B1A7053
S1131340A9E700221B4B1A70A5E70022194B1A705B
S1131350A1E7284B98479EE7274B98479BE7002235
S1131360144B1A7097E70022124B1A7093E700226D
S1131370104B1A708FE700220E4B1A708BE7042271
S11313800C4B1A701D4B984785E70422094B1A70C1
S11313901A4B98477FE70422064B1A70174B98475D
S11313A079E70122034B1A7075E70522014B1A7085
S11313B071E7C046F10200205106000099070000C1
S11313C0F50600000064000034640000594F00007A
S11313D041080000DD080000750900008D0A0000C6
S11313E0090A0000390B0000750C0000690D0000AB
S11313F0F10F00006D030000990300003D1100008F
S113140010B5D0B00400A02252000549043168464A
S1131410044B9847A4006B46E05850B010BDC0463A
S1131420BC620000E54D000070B50400B94B98475C
S1131430072C00D882E0082C00D17BE0092C00D1D5
S113144096E00A2C00D1B5E00B2C00D109E10C2C5C
S113145000D181E10D2C00D1D6E123000E3B0C2BF1
S11314606CD91B2C00D1F5E123001C3B032B65D95F
S11314707F2C63D0A84B1A88A84B1B881820504394
S1131480A7490918CC54A7490978002900D1E5E1F6
S113149018205043A4490918CD5C802040422843B9
S11314A0C854A2490978002900D1E0E1182050432A
S11314B09D490918CD5C02202843C8549C490978E9
S11314C0002900D1DCE11820504397490918CD5C6C
S11314D010202843C85497490978002900D1D8E13D
S11314E01820504390490918CD5C20202843C85443
S11314F018256A43D3189B008F4A128812048F4917
S113150009880A438E495A5020008E4EB047824CB7
S1131510238801339BB22380804A12886B43804D19
S1131520EB18985CB04723884F2B07D9013B7A4AC4
S1131530138003E0784B1B88002B00D170BD784CDE
S1131540764D29885A00D318DB00E318585C7D4E89
S1131550B047714A1388013B9BB2138029885A0013
S1131560D318DB00E318585CB047774B9847E5E79E
S1131570694C2288694B198853009B18DB00684A20
S1131580D318585C6F4B984720884F2803D86F4B6B
S11315909847614B1880604B1A88604B1988530038
S11315A09B18DB005E4AD318585C664B9847664B21
S11315B09847C3E7594B1A88172A32D0584C564DCE
S11315C029884B005B18DB00E318985C5D4EB0473C
S11315D0524A138801339BB2138029884A00521857
S11315E0D200A418E05CB047574B9847584B1B787F
S11315F0002BA3D0494B1A88172A21D0484D464EB8
S113160031884B005B18DB00EB18985C4D4CA0470D
S113161000233380414B1B88E85CA0474A4B984722
S11316208CE73D4B1A8853009B18DB003C4AD318C7
S1131630D87D444B9847474B9847434B9847D5E749
S1131640354D2A8853009B18DB00354AD318D87DC2
S11316503C4CA04700232B800020A0473A4B9847DE
S11316606CE72E4B1A88172A33D02D4C2A4D298823
S11316704B005B18DB00E318985C324EB047274AF6
S1131680138801339BB2138029884A005218D20070
S1131690A418E05CB0472C4B98472D4B1B78002BCB
S11316A000D14BE71D4B1A88172A21D01C4D1A4E26
S11316B031884B005B18DB00EB18985C214CA04789
S11316C000233380154B1B88E85CA0471E4B9847CA
S11316D034E7114B1A8853009B18DB00104AD318C7
S11316E0D87D184B98471B4B9847174B9847D4E71E
S11316F0094D2A8853009B18DB00094AD318D87D6A
S1131700104CA04700232B800020A0470E4B984785
S113171014E7C046B1020000EC020020EE020020F3
S1131720F40300208A030020740B002088030020A7
S1131730680300206A030020140000202A0200200D
S1131740F4120020653600002D380000011400005A
S11317508C01002059390000524B1A88172A33D0C3
S1131760514C524D29884B005B18DB00E318985C00
S11317704F4EB0474B4A138801339BB213802988DC
S11317804A005218D200A418E05CB047494B98476D
S1131790494B1B78002B00D1D0E6424B1A88172AFC
S11317A021D0414D414E31884B005B18DB00EB18D2
S11317B0985C3F4CA047002333803A4B1B88E85C7D
S11317C0A0473C4B9847B9E6384B1A8853009B18FE
S11317D0DB00354AD318D87D354B9847374B9847AB
S11317E0344B9847D4E7314D2A8853009B18DB00CB
S11317F02D4AD318D87D2E4CA04700232B800020DF
S1131800A0472C4B984799E6264B1A88172A12D0E2
S1131810254D264E31884B005B18DB00EB18985C95
S1131820234CA047002333801E4B1B88E85CA04751
S1131830204B984782E61D4C228853009B18DB00FE
S1131840194AD318D87D1A4B984700232380194B83
S1131850984773E601221A4B1A706FE6182050431A
S113186018490918C85C7F252840C85419E618206F
S1131870504314490918C85C0225A843C8541DE6FE
S1131880182050430F490918C85C1025A843C854B0
S113189021E6182050430B490918C85C2025A843A9
S11318A0C85425E6EE020020F4030020EC020020D8
S11318B0653600002D3800008C01002059390000E5
S11318C0F1020020740B002010B50E4B1A78052A83
S11318D005D893000C4AD3589F460C4B984710BD2B
S11318E00B4B9847FBE700230A4A1370054A137011
S11318F0F5E7094B9847F2E7084B9847EFE7084BA1
S11319009847ECE7F1020020A460000029140000CD
S113191075050000760300209D1100003D110000B4
S11319204D030000F0B5C1B00700D0222D490CA82A
S11319302D4B984705A82D4B1A005032010031CA8F
S113194031C131CA31C112680A606C336A4613CBA3
S113195013C203CB03C20CAC40AE254DE3885B102D
S11319609633A28852102D32FF3261884910963185
S1131970208840102D30FF30A8470834B442EDD100
S1131980002F03D0012F17D041B0F0BD05AC0CAE31
S1131990174DE3785B109633A27852102D32FF3244
S11319A0617849109631207840102D30FF30A847D7
S11319B00434A642EDD1E7E76C4605AE0C4DE3785E
S11319C05B109633A27852102D32FF3261784910A1
S11319D09631207840102D30FF30A8470434B442AB
S11319E0EDD1D1E738640000E54D0000B864000093
S11319F001420000F8B5CE46474680B5574C584BD7
S1131A002360584B6360584BA360584BE360584BBA
S1131A102361584B6361584BA361584BE361584BA6
S1131A202362584B6362584BA362584BE362584B92
S1131A302363584B6363584BA363584BE363584B7E
S1131A402364584B6364584BA364584BE364584B6A
S1131A502365584B6365584BA365584BE365584B56
S1131A602366584B6366584BA366584BE366584B42
S1131A702367584B6367584BA367584BE367584A2F
S1131A808023E250574B9847C217D20E80181F2369
S1131A9003409B1A9B001C59534B9847FF22FF217C
S1131AA0FF20524B984780221206514B1A60514B2B
S1131AB0DF22995C042001439954995C022001437C
S1131AC099543F3A9B58002B08DB00204A4B984717
S1131AD04A4BF02252019818494906E00120464B2E
S1131AE09847F5E71300904205D01A00603202C30C
S1131AF09342FCD1F6E72000424B99469847424F67
S1131B0043082825EB1A3B80404E102333802000E5
S1131B103F4B984698473F4C2000C8474308EB1A70
S1131B203B80122333802000C0473B4C2000C84731
S1131B3040082D1A3D80132333802000C0473748C6
S1131B40374B9847284B9847364B984700233B80A0
S1131B5033800CBC90469946F8BDC0462C02002048
S1131B6038650000586500006C650000846500005D
S1131B70946500009C650000C4650000F0650000E9
S1131B8018660000446600005066000068660000A5
S1131B9088660000A8660000CC660000DC660000D1
S1131BA0E866000004670000246700006067000026
S1131BB07C67000098670000A8670000CC670000FD
S1131BC0F8670000246800004468000064680000AE
S1131BD07868000094680000A4680000C8680000E9
S1131BE0E868000011500000D1420000C540000028
S1131BF08C4400410044004125190000F4120020E7
S1131C000000FFFF33520000EC020020EE0200202F
S1131C10493A00009801002070010020B80B000030
S1131C20BD1C0000913A0000F0B583B00B4E0C4D82
S1131C30370008E06B46DC1D21003868094B9847E3
S1131C402078094B98473068A8470028F2D0034B06
S1131C501868064B984703B0F0BDC04690030020B7
S1131C607D01000095010000C91800003501000045
S1131C7010B5014B984710BD8D4F000070B5002082
S1131C80084B98470500084CFA218900A047074BE8
S1131C90186007492800A047064B18600522064B28
S1131CA01A6070BD3D320000114A00001800002087
S1131CB040420F001C00002010E000E030B5084B4B
S1131CC01C68084A002580214902013807D3002CEA
S1131CD0FBD05460956013680B42FCD0F5E730BD2F
S1131CE01800002010E000E00C4B1B68002B06D10C
S1131CF0EFF31083002B07D00022094B1A70074A18
S1131D00136801331360704772B6BFF35F8F00220C
S1131D10044B1A700132024B1A70F0E7AC02002037
S1131D20B002002020000020084B1A68013A1A6013
S1131D301B68002B09D1064B1B78002B05D0012210
S1131D40044B1A70BFF35F8F62B67047AC02002079
S1131D50B002002020000020F0B583B001AC0125C2
S1131D6065700027A770257021003E20064EB047FD
S1131D708022D205054B9A612770657021000F20DF
S1131D80B04703B0F0BDC046C1220000804400410A
S1131D9010B50022002302704270002142800171BC
S1131DA003760262C2618260C0246401C481037448
S1131DB043748374C37403752A240355437583756C
S1131DC0063C0355C2840285C1752B23C1540133DB
S1131DD0C15410BDF0B5D6464F464646C0B596B080
S1131DE0070016000160C64A106A80235B020343A1
S1131DF013620B780520DB0705D516B01CBC904692
S1131E009946A246F0BD0B7817309B07F5D473783A
S1131E103B71002B04D1BB4A136C04210B431364A4
S1131E200023BB60FB603B61BB76FB763B833B7767
S1131E30B54B1F602A23F35C002B05D1337D002BA7
S1131E4002D101337B7701E000237B773B6898461E
S1131E5033786A46137069461E20AC4B98471E209F
S1131E60AB4B98472C23F25C002A54D0013BF55C21
S1131E70337BEB18DBB2D118C9B28B4221D2521991
S1131E80D3B29946A34B9A4603E00135EDB24D45D2
S1131E9017D00F242C40337BE41850229E4902A80B
S1131EA0D047132CF1D8A40002ABE05801A90023B9
S1131EB04B70CB708B7001330B70C0B2974B98474B
S1131EC0E3E7F4895022944902A8924B9847132CD3
S1131ED013D9737D9B00DBB242461370B37DDB01E3
S1131EE072781343DBB2424653703379342B00D9F2
S1131EF07BE19B008A4AD3589F46A40002ABE0587A
S1131F0001A900234B70CB708B7001330B70C0B2EE
S1131F10824B9847DDE7347B50227F4902A87D4BF2
S1131F209847132C15D9F48950227B4902A8794B80
S1131F309847132CCDD8A40002ABE05801A9002384
S1131F404B70CB708B7001330B70C0B2734B9847DE
S1131F50BFE7A40002ABE05801A900234B70CB708B
S1131F608B7001330B70C0B26C4B9847DBE70423D2
S1131F70102402211AE0717C337C102416E006231D
S1131F801024012112E00823102400210EE0002374
S1131F90302400210AE000232024002106E000234D
S1131FA00024002102E002231024012109017022EF
S1131FB00A40134342469370F37D17203F2B00D908
S1131FC01BE7D3703A68537E5BB2002BFBDBF37CD8
S1131FD0728813432422B25CD2001343327D9200F0
S1131FE01343B27C52001343234342469380337E0F
S1131FF0002B20D0102C00D1D9E000D898E0202C60
S113200000D1B6E0302C16D1F27C002A0AD0F26955
S113201080321720FF2A00D9EFE6326A8032FF2A85
S113202000D9EAE61720F269FF2A00DDE5E6326A04
S1132030FF2A00DDE1E639684A7E52B2002AFBDB62
S1132040424613723A68537E5BB2002BFBDBB38BC0
S1132050424693833A68537E5BB2002BFBDB338C9E
S1132060424613842C23F35C002B05D0013BDBB2E6
S113207017200F2B00D9C0E62B22B15C17200F29A3
S113208000D9BAE63868427E52B2002AFBDBF289F4
S1132090307B0243B068024309050A431B0413431F
S11320A0424613612A23F35C13750F23937515338A
S11320B0F35C002B12D0F38C1A4A1720934200D9F8
S11320C09BE642469384328D80231B01D318154925
S11320D09BB28B4200D990E64346DA84124B1B68CC
S11320E05B01E022D2001340104A51684901126892
S11320F0D20E0A43D2B213434246138500207CE633
S11321000004004000080040940300205533000000
S1132110C9320000E54D0000DC6900004D340000C8
S113212008690000FF0F0000246080002060800028
S1132130002C00D07FE7F27C002A0FD0F2698021C6
S113214009018C4662442A4917208A4200D954E680
S1132150326A624426498A4200D94EE6244A17204C
S1132160F169914200DD48E6316A914200DD44E6BE
S113217061E7F27C002A0FD0F269802189008C4645
S113218062441C4917208A4200D936E6326A624406
S113219018498A4200D930E6164A1720F16991425B
S11321A000DD2AE6316A914200DD26E643E7F27C4F
S11321B0002A0FD0F269802109028C4662440E493C
S11321C017208A4200D918E6326A62440A498A42D0
S11321D000D912E6084A1720F169914200DD0CE6A5
S11321E0316A914200DD08E625E7172005E6C0467E
S11321F0FF0F0000FF030000FFFF000070B52F4B2E
S11322001D682B681A7EDC7D1440E20716D4630730
S113221008D504232A681376EB7E9B0702D5AB7E90
S11322209B0742D4A30708D502232A681376EB7EC2
S11322305B0702D5AB7E5B073BD470BD01221A76E7
S11322402A68537E5BB2002BFBDB69698B1C6B61D4
S1132250538B9BB20B802B8B013B9BB22B83002BAC
S113226011D06B7F002BD2D02A68537E5BB2002B37
S1132270FBDB137B02210B4313732A68537E5BB28F
S1132280002BFBDBC3E701232A6893752B7F052B07
S1132290BDD100232B77EB7EDB07B8D5AB7EDB0704
S11322A0B5D52800AB689847B1E72800EB68984794
S11322B0B8E72B6928009847BFE7C046940300207D
S11322C000B583B001AB80221A700A785A704A783C
S11322D09A708A78DA701900014B984703B000BDF0
S11322E04D340000F0B5DE4657464E464546E0B54F
S11322F087B08046049116001F00002200230021AD
S11323008B463F2401202100009601975C460394EC
S11323104446059413E02024641A0500E540A846C9
S113232014E0009C019D121BAB415C464D462C43BE
S1132330A346039C45462C430394013925D320240A
S113234064420C19E7D40500A540A84604008C405B
S1132350A14692185B4114001D00059E4F463E4065
S1132360B446049E47463E40B246664657463E4300
S113237003D00600264332002B00009C019D9D42A1
S1132380DBD8CED19442D8D8CBE7039B584619006A
S113239007B03CBC90469946A246AB46F0BD10B58A
S11323A0490840230024814202D2180010BD1C00B9
S11323B0091A631C9BB28842F9D94023FF2CF4D834
S11323C014800023F1E70000F0B583B00F0016007D
S11323D008AA117804004C434022BC4202D91000E0
S11323E003B0F0BD002B14D1020008000021194CE9
S11323F0A04701003A0000230020174CA047002208
S11324000123121A8B41120C1B041A43328000223E
S1132410E5E70022012BF9D10A00002300210D4C2D
S1132420A04702000B0000920193380000210A4CDF
S1132430A047050080239B0140229842CFD8790F02
S1132440F800009A019BA047EA00821AD2B2520314
S11324502A43DBE7FD4C0000E522000010B582B002
S113246004000E4B1B78002B07D0002905D10B4B21
S11324705B78834210D01D200CE001A90C7013205E
S1132480074B98471320074B9847044B5C70012275
S11324901A70002002B010BD0020FBE7B402002037
S11324A055330000C9320000404B984231D00AD95C
S11324B03F4B98424DD03F4B98425AD03E4B9842A6
S11324C037D0002070473D4B98420CD03C4B98428B
S11324D0F7D1012917D000295DD0022915D003298D
S11324E015D00020EEE7012907D0002951D0022998
S11324F005D0032905D00020E4E73248E2E732485A
S1132500E0E73248DEE73248DCE73248DAE73248CF
S1132510D8E7012907D000293FD0022905D0032993
S113252005D00020CEE72D48CCE72D48CAE72D483A
S1132530C8E7012907D0002931D0022905D0032991
S113254005D00020BEE72848BCE72848BAE7284859
S1132550B8E7012907D0002923D0022905D003298F
S113256005D00020AEE72348ACE72348AAE7234878
S1132570A8E7012907D0002915D0022905D003298D
S113258005D000209EE71E489CE71E489AE71E4897
S113259098E71E4896E7032094E71D4892E71D48F4
S11325A090E71D488EE71D488CE7C04600100042A6
S11325B000180042001C00420014004200080042BF
S11325C0000C00420300050003000600030007009E
S11325D00300010003001E0003001F0003000900A4
S11325E003000A0003000B000300110003001200A3
S11325F00300130003000D0003000E0003000F008E
S1132600030017000300180003001900030004006E
S1132610030008000300100003000C000300160070
S113262030B587B00B4B6A4632CB32C232CB32C2A2
S1132630009B83420BD001239A0069465258824280
S113264006D00133062BF7D1002007B030BD00239C
S1132650D8B2FAE72C6A000070470000F0B50A4BC4
S11326601B78002B0CD1094F094E0A4D0024DE5172
S11326705A1914600433182BF9D10122024B1A7031
S11326808000024BC150F0BDB6020020B802002009
S1132690592600009803002000B583B009236A4638
S11326A0137001335370013393700133D3700133CA
S11326B0137101335371034B98476B46185603B09B
S11326C000BDC0462126000010B5024B1B68002047
S11326D0984710BDB802002010B5024B5B6801207A
S11326E0984710BDB802002010B5024B9B68022029
S11326F0984710BDB802002010B5024BDB680320D8
S1132700984710BDB802002010B5024B1B69042085
S1132710984710BDB802002010B5024B5B69052034
S1132720984710BDB8020020F0B5DE4657464E4625
S11327304546E0B591B005000C001600296008007C
S1132740BA4B9847020023680520DB0706D511B071
S11327503CBC90469946A246AB46F0BD2368173070
S11327609B07F4D4B249086A971C0123BB40034376
S11327700B620FA92D27F35D0B701432D3B20293B1
S11327801800AC4B98470298AB4B9847F05D00217A
S1132790AA4B9847F37A6B712423F35CAB7125231E
S11327A0F35CEB71F37E2B72337F6B722B6898466C
S11327B018009E4B9847143000220E2306A98C461D
S11327C063441A80328A02928023DB019A4200D148
S11327D09AE00FD9C023DB01029A9A4200D18EE01D
S11327E080231B029A4200D01BE10323069300239B
S11327F0079308E080239B019A4200D011E1102343
S113280006930F3B079333680593F3689B467369FC
S11328100393337E04932623F35C9A4673689946A4
S1132820002B00D19CE080235B05994500D180E01A
S1132830737E002B02D0B37E424693730E2306AA06
S1132840944663441B8842469381059B5A4613432E
S1132850039A13434A461343029F1F43049B1B02DC
S11328601F4353465B071F432723F35C002B01D10F
S113287004331F43737E9B02327F52021343727FE1
S1132880120213432422B25C520413432522B25C85
S113289012041343B17AF27A114319433389FF2B9B
S11328A000D181E080225204174319432C23F35CA6
S11328B0002B03D1624B9B789B0701D580231F43D8
S11328C02A68D369002BFCD1434659602A68D3692E
S11328D0002BFCD143461F600EAB80221A700022ED
S11328E05A70DA709A70336B0A93736B0B93B36BF1
S11328F00C93F36B02930D9300270AAE63E0082355
S11329000693073B07937EE733680593F3689B467A
S113291073690393337E04932623F35C9A467368A6
S11329209946002B18D080235B05994501D00020DF
S113293025E02723F35C002B00D079E7336A1F00DE
S1132940C0B2404B984701000E2206AB9C4662443D
S113295038003D4B984712E0082306930023079361
S11329602723F35C002B0ED0069B0093079B0E22BB
S113297006A98C466244B16A306A344FB8470028CD
S113298000D0E4E654E7336A1F00C0B22D4B9847E9
S11329900100069B0093079B0E2206A8844662440E
S11329A038002A4FB847EAE7F37E002B00D17DE7D1
S11329B08023DB041F4379E72000254B984707E079
S11329C00137042F0DD0F9B2BB0098590028F3D079
S11329D0431CF5D00EA90870000CC0B21D4B9847DB
S11329E0EEE70023EB602B616B61AB61EB612B6263
S11329F0AB626B620022EB85AB853033EA54013362
S1132A00EA540133EA540133EA542868074B9847DF
S1132A1004001149114B9847A400114BE5500020C4
S1132A2095E61023069300230793ECE62126000085
S1132A300004004055330000C93200005D2400004A
S1132A4000200041713300009F230000C9230000CF
S1132A50A92400004D3400007D2B00005D260000F9
S1132A6098030020C2791C23002A01D11800704762
S1132A70C28D92B2173B002AF8D102681185022157
S1132A80137E0B42FCD00023F0E782791C23002A3A
S1132A9001D118007047828D92B2173B002AF8D1F9
S1132AA00268107E4007F4D5538BDBB298061DD024
S1132AB0980703D5022353831833EAE7580703D54D
S1132AC0042353831A33E4E7D80703D5012353833C
S1132AD01233DEE7D80603D5102353833233D8E705
S1132AE09B0603D5202353832133D2E7138D0B8018
S1132AF00023CEE7F8B504000D00160007680F4B5D
S1132B009847A38D9BB2002B03D00D4B984705200B
S1132B10F8BDA6850A4B9847656205223223E25424
S1132B202E3BBB75237A002B01D02023BB75637A1F
S1132B300020002BECD00823BB75E9E7E91C00005A
S1132B40291D0000931C9B00C318596030210123E8
S1132B5093401A00435C13434354704710B5172342
S1132B60002A01D1180010BD84790533002CF9D056
S1132B70014B98470300F5E7F52A0000F8B58000FB
S1132B80624BC5582C68E369002BFCD1237EA67DDB
S1132B901E403023EB5C3122AF5C1F40F30722D58B
S1132BA0EB8D9BB2002B1CD0AA6A1378DBB2511CAC
S1132BB0A962697901290ED09BB2DB05DB0D23855F
S1132BC0EB8D013B9BB2EB85002B0CD101332375BC
S1132BD00133A37507E0517809020B430232AA625C
S1132BE0EBE701232375B30706D5022323750022DF
S1132BF03133EA54FB071AD4730765D5AB8D9BB206
S1132C00002B5FD0638BDBB21A0714D43F2213402E
S1132C10002B34D09A0711D51A223223EA54303BC0
S1132C2063837B0750D528006B6998474CE02800E4
S1132C30EB689847E0E737221340E9E75A0705D5E0
S1132C401E223223EA542E3B6383EAE7DA0705D5D2
S1132C5013223223EA54313B6383E2E7DA0605D5D3
S1132C6042223223EA54223B6383DAE720221A42C7
S1132C70D7D021323223EA54123B6383D1E7238D28
S1132C80DB05DB0DDAB2696A0A706A6A511C696293
S1132C906979012910D0AB8D013B9BB2AB85002B28
S1132CA012D10433237500222E33EA54BB070BD50B
S1132CB028002B69984707E01B0A53706B6A01339D
S1132CC06B62E8E704232375F30604D51023237508
S1132CD02376FB060ED4B30604D52023237523766E
S1132CE03B070BD4330704D5082323752376BB068F
S1132CF008D4F8BD2800EB699847ECE72800AB69D5
S1132D009847EFE72B6A28009847F2E798030020DA
S1132D1010B5082803D880001C4B1B589F46002080
S1132D2032E01B4B18692FE01A4B1B6A9B059B0F63
S1132D301948D84028E0164B586925E0144B1B6805
S1132D4000209B0720D513491022CB681A42FCD0DF
S1132D500F4B1A6824231340042B01D00F4813E0AF
S1132D6000200F4B98470A4B9B681B041B0C5843CD
S1132D700AE05023074AD35C00205B0704D5044BC8
S1132D80D86801E08020000210BDC046446A0000FB
S1132D90D00200200008004000127A00006CDC021F
S1132DA07133000070B50C490B6A0478857840785B
S1132DB00122104080014026B34303432A40D2013C
S1132DC0802083431343032222401202034803401A
S1132DD013430B6270BDC04600080040FFFCFFFFB8
S1132DE0F0B5DE4657464E464546E0B50100264B53
S1132DF09B469B8A457800784242424191468878B6
S1132E00CA7894460A7990464E7B0F7B8C7B8A68FD
S1132E101E494A6101214A46920091460422934385
S1132E204A46134342460A40D2009046082293433E
S1132E304246134362460A401201944610229343C9
S1132E4062461343084040012022934303430F404A
S1132E50BF01402083433B430E40F601403083438F
S1132E603343793805402D02094803402B43214060
S1132E700903084803400B435A4693823CBC9046DE
S1132E809946A246AB46F0BD00080040D00200209F
S1132E90FFF8FFFFFFEFFFFF10B5037A9B061B0C43
S1132EA042899205920D134318494B608379C27984
S1132EB0134342888488224313434278D201134344
S1132EC00B600378042B11D0202B0ED1037B9B06BF
S1132ED0028A1343C28912040D490A4013430B4A60
S1132EE0936011680B4B0B43136010BD037B9B066F
S1132EF0028A1343C289120405490A401343034A50
S1132F009360136804210B431360EEE7D0020020A2
S1132F100000FF0324040000082803D88000254B88
S1132F201B589F46172044E0234A136A02210B438F
S1132F30136200203DE0204A936902210B43936110
S1132F40002036E01C4A138A02210B43138200201E
S1132F502FE0194A938A02210B439382002028E030
S1132F6016490B68022213430B60134B9A84190011
S1132F700E32CB681A42FCD0104A91680E4BD962CB
S1132F8052689A6200229A8419001032CB681A425D
S1132F90FCD00A4B1B689BB2074A9384002008E0CC
S1132FA0054944228B5C022003438B54002000E03B
S1132FB000207047686A000000080040D00200202A
S1132FC0F0B58FB0C222D200474B9A6047494B6894
S1132FD01E2293431C3A13434B6001AB1A70002426
S1132FE0434DE0B201A9A8470134252CF9D10AA820
S1132FF0002303708370802212028260C370012256
S1133000027103738373053242704373394B9847DB
S11330100520394B984734490222CB681A42FCD028
S1133020314A938A80210B43938205AB002100220D
S1133030598099809A71DA713F3159813B391970FD
S11330405A702E4B1B689B0E3F2B4BD005A8037266
S1133050B723DB000382072303733833C381284B70
S1133060984704A800254570012686700570254BF5
S113307098470620204FB847234B984701AC029647
S113308065702572657205232370210001201F4B92
S1133090984701201E4B9847267021000020144BAE
S11330A0984700201B4B98470720B8470E49D02269
S11330B0CB681340D02BFBD1174A002313725372F1
S11330C09372D37201A901224A604B700B724B7246
S11330D007330B7000200D4B984700200C4B98478A
S11330E00FB0F0BD203BB1E70008004000400041B4
S11330F055330000E12D0000192F000024608000EA
S1133100992E0000A52D00001D3100004131000062
S1133110F9310000C932000000040040064A9369F6
S113312008210B4393610122044B1A7019000B7898
S11331301342FCD17047C04600040040000C00401C
S113314070B5060004000D782D0205434B78002B62
S113315002D08023DB021D434B7A002B02D0802354
S11331601B031D434868012810D9431E184234D15B
S1133170022830D90223002201325B009842FBD896
S113318012023243140080235B031D430B7A002B8D
S113319002D080239B031D43134A53785BB2002B58
S11331A0FBDB124B9847124B1E700F4A53785BB2ED
S11331B0002BFBDB0C4B9C601A0053785BB2002B9A
S11331C0FBDB094A5368802149020B401D435560CB
S11331D0084B984770BD0022D2E704023443802391
S11331E09B021D43D2E7C046000C0040E91C0000CE
S11331F0080C0040291D000010B504000B4A537848
S11332005BB2002BFBDB0A4B98470A4B1C70074A46
S113321053785BB2002BFBDB044A516880235B02CA
S11332200B435360044B984710BDC046000C00404C
S1133230E91C0000040C0040291D000070B50400C6
S11332401A4A53785BB2002BFBDB194B9847194B96
S11332501C70164A53785BB2002BFBDB134E70686C
S1133260C004C00E144B98470500124B1C707668BE
S1133270F602F60F114B1C700C4A53785BB2002B0C
S1133280FBDB0A4B9C682402240C0D4B9847002E50
S113329007D1012C07D9210028000A4B98470500C3
S11332A001E00134E540280070BDC046000C004038
S11332B0E91C0000040C0040112D0000080C004023
S11332C0291D0000114A000010B50400064B984760
S11332D0064B1C70064A53888021C9010B43538056
S11332E0044B984710BDC046E91C0000020C004086
S11332F0000C0040291D000010B504000F4B984736
S11333000F4B1C700F4A53881B05180F53880E4926
S11333100B40538053880D490B4053801100802289
S1133320D2014B881342FCD106494A88030206485D
S1133330024013434B80064B984710BDE91C000024
S1133340020C0040000C0040FFF0FFFFFFBFFFFF36
S1133350291D000010B50C7824020443024B984741
S1133360A4B2024B5C8010BDF9320000000C004096
S113337010B50400064B9847064B1C70064B5C883E
S11333802405240F054B98472000054B984710BD92
S1133390E91C0000020C0040000C0040291D000044
S11333A03D32000030B5D378002B35D11378802B13
S11333B029D01B0680246402234354780225AC439D
S11333C006D19478002C20D18024A40223434160A8
S11333D05478013C012C1CD90D042D0CA024E405C7
S11333E02C431C4384620D0CD02424062C431C4320
S11333F08462D478002C22D15B031CD59378012BF2
S11334001ED0416117E00023D7E7C024E402234320
S1133410DDE70D4C2340DFE741600C04240CA023BE
S1133420DB05234383620C0CD0231B0623438362F6
S1133430D378002B03D15378013B012B02D930BD43
S11334408161F8E78160FAE7FFFFFBFF10B50A002E
S1133450C1090023002904D14309DB0105498C4635
S113346063441F242040012181401800024B9847E7
S113347010BDC04600440041A53300007047000061
S113348010B5054B9847054B9847054B9847054B96
S11334909847054B984710BDC12F0000591D0000E7
S11334A07D3400007D3400007D340000FEE7000020
S11334B0F8B52A4A2A4B9A4211D01A00294B9A424B
S11334C00DD2294A03339B1A9B0801339B00002227
S11334D0234822498C58845004329A42FAD1234A10
S11334E0234B9A420AD2D34321495B1803218B43CD
S11334F004339B18002102C29342FCD11D4AFF21D0
S11335001D4B8B439360FD3990235B001B4AD150C4
S11335101B4AD3780325AB4302242343D370D378C7
S11335200C27BB4308263343D370164B987B3022B9
S11335309043202210439873997BB9433143997384
S11335409A7BAA4322439A730F4A536880210B4300
S113355053600E4B98470E4B9847FEE738870000A0
S1133560000000200C020020040000200C020020B7
S11335702431002000ED00E0000000000070004154
S1133580005000410048004100400041514D0000FE
S11335905D490000F0B5C64600B50C009046002811
S11335A00FD1002A11DD8F18094E0A4D3068210011
S11335B02B6898470134BC42F8D1404604BC90467D
S11335C0F0BD01235B429846F7E78046F5E7C04625
S11335D0B8030020B0030020F0B5C64600B50E00C5
S11335E015000138022810D8002A11D000240C4BF1
S11335F098460C4F43461868315D3B68984700284D
S113360008DB0134A542F5D106E00124644203E05D
S1133610140001E001246442200004BC9046F0BD83
S1133620B8030020B40300200300064A1268002AED
S113363004D0044A1068C318136070470249014A51
S11336401160F6E7E80200202851002001204042E2
S1133650704780239B014B60002070470120704716
S113366000207047F0B5D6464F4680B5E7B0060057
S1133670644B1B88644A17885900CA18D200D219AF
S1133680920062481458220C0092A2B20192C91806
S1133690C9005F4A5118CE558021C9035D4A1160A3
S11336A098001B185B0098B21421794389B20B006F
S11336B013339BB20200093292B2574FB847B3009A
S11336C09E19B300F618554B9946B14400270126BC
S11336D00025FF2413E002A9CD540133DBB2013AE3
S11336E006D3010011410E42F5D002A9CC54F4E7EF
S11336F00837FFB201239C46E144C82F04D04B464F
S113370018783B000722ECE739AF38000025002683
S1133710FF2410E014700133DBB20132824205D081
S113372002A9C95CFF29F5D01670F4E71435EDB28F
S11337301430C82D03D00200143A2B00F0E7314BAB
S11337401A88314B198853009B18DB00344AD3186C
S11337505E5CB30711D566A934ACFF200AE00133DF
S11337608B4204D01A78FF2AF9D11875F7E7143977
S1133770A14202D00B00143BF4E7F3060AD561AB77
S1133780C321490002AA94466144FF221A700133FE
S11337908B42FBD1F60904D06BAB9A46214D2C0029
S11337A023E06BAB9A461F4C25000DE00098A84718
S11337B00136B74205D03378FF2BF7D00198A047E4
S11337C0F6E71437BA4513D03E00143EF3E70198E8
S11337D0A8470136B74205D03378FF2BF7D00098BD
S11337E0A047F6E71437574502D03E00143EF3E7EE
S11337F08022D2030C4B1A6067B00CBC91469A46E7
S1133800F0BDC046EC020020EE020020F4120020BD
S1133810F403002094440041894100008C6A0000B4
S1133820740B0020C142000098440041F0B5DE460C
S1133830474680B583B03E4B1B883E4A17885900E3
S1133840CA18D200D21992003B4815582A0C00928B
S1133850AAB20192C918C900384A5118CC5D98001F
S11338601B185B0098B21421794389B20B001333FF
S11338709BB20200093292B2314FB8478022D20380
S1133880304B1A60304B1B78002B0FD12F4AA70006
S11338903F19BB00FF18D7190134A3001C19A3005A
S11338A0E4189346A3442A4EB0462FE0274AA700C3
S11338B03F19BB00FF18D7190134A3001C19A3003A
S11338C0E4189346A344224B98461E000DE000984A
S11338D0C047013C06D33B7823411D42F7D00198F1
S11338E0B047F6E701375F4513D007240125F2E717
S11338F00198B047013C06D33B7823411D42F7D0E1
S11339000098C047F6E701375F4502D00724012538
S1133910F2E78022D2030F4B1A600B4A137801217D
S11339204B40137003B00CBC90469B46F0BDC046A0
S1133930EC020020EE020020F4120020F403002028
S11339408941000094440041280000208C6A000052
S1133950C142000098440041F0B5DE4657464E4649
S11339604546E0B583B02E4B1B889B462D4B1B88E8
S1133970019301222C4B1A702C4B98472C4D2D4F40
S11339802D4E18239C46AC44F023DB00EC18310088
S11339903A002B0058781870506810604878087006
S11339A0183360321831A342F4D10135043701369B
S11339B06545E9D1214A17231D4F202600211E4DBC
S11339C01F4CFE5411605819017060321833A34221
S11339D0F7D10026164B9A46114B9946114B98463F
S11339E05346F5180024174F4B461C8043461E804F
S11339F02878B84701341835502CF5D10136182EE3
S1133A00EED1074B5A461A80064B6A4692881A80B2
S1133A1003B03CBC90469946A246AB46F0BDC046B6
S1133A20EC020020EE020020280000202D380000C7
S1133A30F4030020F4120020740B00205013002023
S1133A409707000065360000F0B5C64600B50500CE
S1133A500C4B9847002811DD2C002D180A4F0B4EF3
S1133A60B04602E00134AC4208D02078B84733882D
S1133A70502BF7D8013342461380F3E704BC904639
S1133A80F0BDC0463352000065360000EC02002051
S1133A90F0B50C4E0C4C0D48F0235B01F7180021D7
S1133AA00B4D04E0603618341830BE4208D03200A2
S1133AB00023E154C15420C20133182BF9D1F1E79A
S1133AC0F0BDC046F4120020F4030020740B002063
S1133AD00000FFFF094B1B6898420BD0074A131DD7
S1133AE01932FF321968814206D004339342F9D166
S1133AF0002002E0012000E0012070475400002073
S1133B00094B1B7898420AD007494B1C14311A7888
S1133B10824206D001338B42F9D100207047012044
S1133B20FCE70120FAE7C0462C000020F0B5D64699
S1133B304F464646C0B5CCB0CA4D462229003AA8E5
S1133B40C94CA04729004831462228A8A047C74DA0
S1133B5029001031462216A8A047290058314622D0
S1133B6004A8A047C24F3C0014343D000023039333
S1133B700293012204E0162911D00135A54210D088
S1133B8029780B000D3B5E425E41B4460800313893
S1133B904342434160461843EDD00290EBE7039261
S1133BA0EBE7B44E3C00B44B9A460BE01B30B34BEE
S1133BB09847B34B1B78002B4AD101340136AC42F1
S1133BC000D144E10194237898461800D047002896
S1133BD0F3D1434633704346002BE7D04346012BD1
S1133BE0EBD0432B3AD043463A2B3FD043460C2BE1
S1133BF078D04346032B7BD04346232B7ED04346C9
S1133C002D2B00D197E04346372B00D1B0E043463B
S1133C10412B00D1C9E0039B002B00D0E2E0994B7B
S1133C201B78002B00D0F0E0029B002B00D1FDE0BC
S1133C3028AB4246985C914B9847914B1B78002BDC
S1133C40BBD0019B1B7828AAD05C8F4B9847B4E764
S1133C508E4B18681B218E4B9847AEE78D4B1B7813
S1133C60002BAAD00020854B9847A6E78A4B1B68F7
S1133C70012B14D0884B1B68022B26D0864B1B6863
S1133C80032B9AD10D207D4B98477D4B1B78002B3D
S1133C9093D07E4B18680D217D4B98478DE70D20FE
S1133CA0764B984698470A20C047754B1B78002BE3
S1133CB0E0D0764B99460D211868754B9846984785
S1133CC04B4618680A21C047D4E70A206B4B984733
S1133CD06B4B1B78002BD1D06C4B18680A216C4BB2
S1133CE09847CBE7674A137801214B40137064E788
S1133CF06A4A137801214B4013705EE71B205F4B27
S1133D00984698475B20C0474420C0475C4B1B78CB
S1133D10002B00D151E75D4B99461B2118685C4B81
S1133D20984698475B214B461868C0474B4618682D
S1133D304421C04741E71B20504B984698475B20DD
S1133D40C0474220C0474E4B1B78002B00D134E7BC
S1133D504E4B99461B2118684D4B984698475B215A
S1133D604B461868C0474B4618684221C04724E7B1
S1133D701B20424B984698475B20C0474120C047D0
S1133D803F4B1B78002B00D117E7404B99461B2172
S1133D9018683F4B984698475B214B461868C047C4
S1133DA04B4618684121C04707E71B20334B984610
S1133DB098475B20C0474320C047314B1B78002BFA
S1133DC000D1FAE6314B99461B211868304B9846CE
S1133DD098475B214B461868C0474B4618684321F7
S1133DE0C047EAE604AB4246985C244B9847244B10
S1133DF01B78002B00D1E0E6019B1B7804AAD15C60
S1133E00224B1868224B9847D7E616AB4246985C7B
S1133E101A4B98471A4B1B78002B00D1CDE6019B17
S1133E201B7816AAD05C184B9847C6E63AAB4246B4
S1133E30985C124B9847124B1B78002B00D1BCE6C0
S1133E40019B1B783AAAD05C0F4B9847B5E6FF2339
S1133E503B700137BC42FBD14CB01CBC9046994628
S1133E60A246F0BD8C830000E54D00000C840000E8
S1133E70400000202C000020013B0000711C0000C9
S1133E809401002069030020C91800009003002059
S1133E9041010000F002002090010020890300206D
S1133EA010B5074B19001431FF2402E001338B4293
S1133EB004D01A788242F9D11C70F7E710BDC046CD
S1133EC02C000020F0B5DE4657464E464546E0B588
S1133ED083B06D4E31001931FF313300FF2204C32A
S1133EE08B42FCD1694A916A8023DB030B439362C2
S1133EF0674C1C34664B674867491A68026004CBF8
S1133F000A60A342F9D10022644B9C46644F654D7C
S1133F10042402206346D3583B60535962498846BF
S1133F2043441978214319701978014319700432F4
S1133F30282AEFD1564B99460023984600225B4B22
S1133F409B46524D504B9C46534B9A4601964E46C7
S1133F50474615E004330131A34208D0286A1E689D
S1133F600642F7D09000664681510132F2E7009E86
S1133F70494609685046016004360A37462F0AD07C
S1133F80B1465B4631681960444B98461C0028349E
S1133F9039000096E2E74746019E41463D4D3E4CBE
S1133FA00868286001C920609942F9D10021384B82
S1133FB099463B4B98463E4B9C4604250224434677
S1133FC04846085818606346CB58374882465344DD
S1133FD018782843187018782043187004311C2965
S1133FE0EDD100239C46314B9B46284D264B9846E9
S1133FF0294B9A46B1463E00674615E004310A3320
S1134000A34208D0286A0E680642F7D090004646BC
S113401083510132F2E7009E63461B6851460B60F0
S1134020013704360A2F09D0B4465B46316819605B
S11340303B003C00463416490096E3E74E46002A0E
S113404008DD1C4B920010498A1802CE1970013306
S1134050B242FAD10024184D184E194F02E001342F
S1134060462C0AD02000A8470028F8D02000B047EA
S11340700028F4D12000B847F1E703B03CBC9046D7
S11340809946A246AB46F0BD5400002000440041CE
S1134090AC8400000844004114440041E48400005E
S11340A0044400410C850000404400411844004190
S11340B0C884000040000020013B0000D53A000005
S11340C0A13E000010B54B090724A0431843054B3B
S11340D01880C900E0231940D2080A43024B1A8011
S11340E010BDC046F6300020F830002010B54B0952
S11340F00724A0431843054B1880C900E023194046
S1134100D2080A43024B1A8010BDC046FA30002080
S1134110F430002070B5194C194B1C6000020143A7
S1134120184B1960D3170F261E40B61836110025F8
S1134130002E0CDD124C80218902124810232160CC
S11341400160013B002BFAD10135AE42F6D11307D1
S113415013D0D3171B0FD2180F211140C91A4B1CAF
S1134160002B0ADD19000023054C80229202054829
S11341702260026001339942FAD170BDFFFF000052
S11341809444004198440041F0B583B00700009185
S11341901600019300212A20174CA047380A174D16
S11341A0A84701212A20A047F8B2A84702212A20C3
S11341B0A047300AA84703212A20A047F0B2A84705
S11341C000212B20A047009E300AA84701212B2064
S11341D0A047F0B2A84702212B20A047019E300A35
S11341E0A84703212B20A047F0B2A84700212C2088
S11341F0A04703B0F0BDC0462D4300005D4300005E
S1134200F0B5CE46474680B583B006008946140013
S11342101D00904201DD16000400A94502DD3300B3
S113422026001C008023DB039846114B42461A608B
S1134230ABB2A2B249466846C180C188B0B20D4F44
S1134240B8470D4F80231B043B60A41B01344B462D
S1134250EA1A01326243094B1988094B1888094B41
S1134260984743463B6003B00CBC90469946F0BD6A
S1134270944400418941000098440041F8300020F2
S1134280F63000201541000010B5044B1B88044A89
S1134290128800210020034CA04710BD6E010020AD
S11342A06C0100208941000010B58022D203024B2A
S11342B01A60024B984710BD9444004189420000A3
S11342C010B5C1B2000A014B984710BD4543000028
S11342D010B50023064A1380064A1380064B1B8838
S11342E0064A128800210020054CA04710BDC04694
S11342F0F6300020F83000206C0100206E01002010
S11343000142000010B5064C064B23600002014335
S1134310054B19608022920222601A6010BDC046CB
S113432094440041FFFF00009844004110B58022EE
S11343301204024B1A60024B984710BD944400418A
S11343400543000010B580221204024B1A60024B90
S1134350984710BD984400410543000010B5010082
S113436080221204024B1A600020024B984710BDB1
S11343709844004105430000F0B5C64600B582B03C
S1134380804B814F1F608025ED051D608026F6035C
S11343901E60802080021860802109041960802238
S11343A052021A60794C27602560266020602160E3
S11343B022601A60764F3A603D600520754B98463E
S11343C0984725600520C0473D60266000246F4B58
S11343D0984680252D042F006F4E43461F60A15D33
S11343E06E4BE05C6E4B9847694B1D606D4BE05C17
S11343F06D4B98470134462CEFD1D1230193684D7E
S1134400694F6A4C2600343600210198A847207869
S1134410B8470134A642F7D1019B0133DBB20193C3
S1134420D62BEED10021F0205D4CA04755205E4DE7
S1134430A8470121F020A047AA20A8470221F02084
S1134440A0475220A8470321F020A0470820A847EE
S11344500421F020A0470020A8470021B120A04754
S1134460CC20A8470121B120A0470020A847002163
S1134470B520A0475020A8470021B620A04705201A
S1134480A8470021B720A0477020A8470121B720E2
S1134490A0477020A8470021B820A0470120A847C2
S11344A00121B820A0470320A8470221B820A04733
S11344B00320A8470321B820A0470320A8470021D0
S11344C0BC20A0470220A8470121BC20A04700200F
S11344D0A8470221BC20A0470020A8470021C920EA
S11344E0A047D020A8470121C920A0470220A847FF
S11344F00221C920A0475020A8470321C920A04772
S11345005020A8470421C920A0475020A8470021D3
S11345103520A0470020A84700213A20A047552075
S1134520A84700213620A047E220A84700211120F7
S1134530A0476420174EB04700212920A0476420DB
S1134540B04700215120A047FF20A8478022D20372
S11345500F4B1A60164B9847002200210020154B80
S11345609847002200210020134B9847EA23FF3389
S1134570124A00210020124CA04702B004BC90460D
S1134580F0BDC04688440041FFFF00009444004150
S113459098440041BD1C0000F885000068850000B7
S11345A02D430000B08500005D4300003485000009
S11345B0A9420000C5400000ED4000001F030000B8
S11345C00142000010B5064C012221000548064BAB
S11345D098472178054B1868054B984710BDC0468D
S11345E0FC300020BC0300205D2B00009003002061
S11345F04101000070B582B005000E0000226B4638
S1134600DA80064C6B46991D2800A0470028F9D192
S11346106B4606331B88337002B070BD8B2A0000D2
S113462070B505008CB2034E21002800B047002865
S1134630FAD170BD652A0000024A13880133138041
S11346407047C046F602002010B50E4B1868FA21D8
S113465089000D4B984701380C4B98420DD80C4AF1
S113466050600C48036A1B021B0AC02109060B4355
S11346700362002393600733136080221206064B03
S11346801A6010BD24000020114A0000FFFFFF0043
S113469010E000E000ED00E000E100E070B590B053
S11346A08023DB05009300230193FF2269460A81DE
S11346B000228B72CB72962189010891012124205A
S11346C06C46215401302154253163540131635423
S11346D00A93053163540131635405932382E376CD
S11346E02276227762761323A376627780235B0394
S11346F003931E4B0C931E4B0D9301235B420E93AD
S11347000F931C4D1C4C6A461C492800A0470028E6
S1134710F9D1184C1A4B1C601A4A1B4B1A601B4ADD
S11347201B4B1A606A4615492000134B9847194ED3
S1134730336898680021184DA847336858680021E9
S1134740A84725682800154B98471F2318401E3B8F
S11347508340134A13602268D369002BFCD12B6871
S1134760022213432B6010B070BDC0460300080042
S113477003000900BC0300202927000000100042A8
S1134780B803002021460000B4030020F5450000D2
S1134790B0030020A8010020AD50000099260000BD
S11347A000E100E010B5064C012206492000064B4A
S11347B098473122A35C02210B43A35410BDC04689
S11347C0BC030020C5450000452B000010B58CB08B
S11347D06846164B984701236A46137080239B0052
S11347E053800023537018331373C0235B01D381A8
S11347F00F4C10492000104B98472268537E5BB23F
S1134800002BFBDB802109040C4B19600F239375EB
S11348101376137802210B431370054B1A68537EE9
S11348205BB2002BFBDB0CB010BDC046911D000039
S11348300031002000400042D51D000000E100E0EE
S1134840F8B50020314B984787B2314B9847314B2C
S11348509847314B19684B7E5BB2002BFBDB0B7B1B
S1134860022213430B734B7E5BB2002BFBDB012450
S11348700426022501E014420AD10B7EDBB2220099
S11348801A401E4200D02A431D42F4D03243F2E7BC
S11348904B7E5BB2002BFBDB488B80B201230B7693
S11348A00A7ED2B21340540701D50224234392074F
S11348B001D5042213435B0701D502230B7678400C
S11348C0164B9847164B9847164CA047164B9847DB
S11348D0164B98470122164B1A70BFF35F8F62B6CE
S11348E014491548154B98471548164B9847164BCD
S11348F09847164B9847A0470023154A1380154A3A
S11349001380FF20144B9847F8BDC0463D32000089
S113491081340000CD47000000310020B54F000075
S11349207D1C0000494600009D460000A54700008C
S113493020000020FC300020BC0300205D2B000080
S113494040860000594F000079430000F51900002B
S1134950EC020020EE02002065360000F8B5204B82
S113496098470A201F4B98470A211F4B98471F4B13
S113497018601F4F1F4E204D15E0C82120001D4B0D
S1134980984789B200290ED11C4B1B78002B0AD101
S11349901A4C012323701A4B98471A4B98471A4B09
S11349A098470023237030BF3C8829002000B0477B
S11349B089B20029E1D1114B1B78002BF3D10F4CA4
S11349C001332370114B984700232370084B188838
S11349D0C821084B984789B20029D9D0E3E7C046DB
S11349E041480000D14D0000150100009003002053
S11349F0F60200201D4B0000FF3F0000F4020020DF
S1134A00C53E00002D3B0000291C00002D3800008D
S1134A10002243088B4274D303098B425FD3030AF9
S1134A208B4244D3030B8B4228D3030C8B420DD30C
S1134A30FF22090212BA030C8B4202D3121209029A
S1134A4065D0030B8B4219D300E0090AC30B8B42D8
S1134A5001D3CB03C01A5241830B8B4201D38B0386
S1134A60C01A5241430B8B4201D34B03C01A52412B
S1134A70030B8B4201D30B03C01A5241C30A8B426E
S1134A8001D3CB02C01A5241830A8B4201D38B0259
S1134A90C01A5241430A8B4201D34B02C01A5241FD
S1134AA0030A8B4201D30B02C01A5241CDD2C3096F
S1134AB08B4201D3CB01C01A524183098B4201D3EB
S1134AC08B01C01A524143098B4201D34B01C01AD6
S1134AD0524103098B4201D30B01C01A5241C3084E
S1134AE08B4201D3CB00C01A524183088B4201D3BD
S1134AF08B00C01A524143088B4201D34B00C01AA9
S1134B005241411A00D20146524110467047FFE714
S1134B1001B5002000F0F0F802BDC0460029F7D02E
S1134B2076E7704703460B437FD4002243088B4249
S1134B3074D303098B425FD3030A8B4244D3030B20
S1134B408B4228D3030C8B420DD3FF22090212BAE5
S1134B50030C8B4202D31212090265D0030B8B4261
S1134B6019D300E0090AC30B8B4201D3CB03C01A4B
S1134B705241830B8B4201D38B03C01A5241430B26
S1134B808B4201D34B03C01A5241030B8B4201D316
S1134B900B03C01A5241C30A8B4201D3CB02C01A81
S1134BA05241830A8B4201D38B02C01A5241430AF9
S1134BB08B4201D34B02C01A5241030A8B4201D3E8
S1134BC00B02C01A5241CDD2C3098B4201D3CB018F
S1134BD0C01A524183098B4201D38B01C01A52413E
S1134BE043098B4201D34B01C01A524103098B4242
S1134BF001D30B01C01A5241C3088B4201D3CB002D
S1134C00C01A524183088B4201D38B00C01A52410F
S1134C1043088B4201D34B00C01A5241411A00D2BF
S1134C2001465241104670475DE0CA0F00D0494228
S1134C30031000D34042534000229C4603098B4298
S1134C402DD3030A8B4212D3FC22890112BA030A20
S1134C508B420CD3890192118B4208D389019211A2
S1134C608B4204D389013AD0921100E08909C30927
S1134C708B4201D3CB01C01A524183098B4201D329
S1134C808B01C01A524143098B4201D34B01C01A14
S1134C90524103098B4201D30B01C01A5241C3088C
S1134CA08B4201D3CB00C01A524183088B4201D3FB
S1134CB08B00C01A5241D9D243088B4201D34B0016
S1134CC0C01A5241411A00D20146634652415B1058
S1134CD0104601D34042002B00D549427047634639
S1134CE05B1000D3404201B5002000F005F802BD7E
S1134CF00029F8D016E770477047C046F0B5CE4695
S1134D00474615042D0C2E0080B50704140C3F0CE7
S1134D109946030C7E435D43674363437F19340C18
S1134D20E4199C46A54203D980235B029846C444F7
S1134D304B46514343433604360C250C2404654446
S1134D40A4195918491920000CBC90469946F0BD85
S1134D5070B500260C4D0D4C641BA410A64209D15D
S1134D60002603F0D9FC0A4D0A4C641BA410A64289
S1134D7005D170BDB300EB5898470136EEE7B30098
S1134D80EB5898470136F2E7248700002487000097
S1134D902487000028870000931E10B50C00222BE6
S1134DA004D900231C000B70200010BD0A2A09D16D
S1134DB0002807DA2D230B7001214042611800F00E
S1134DC03FFAF1E70021F9E710B5FFF7E5FF10BD61
S1134DD010B5034B0100186800F060F810BDC04620
S1134DE0A8010020002310B59A4200D110BDCC5C6C
S1134DF0C4540133F8E703008218934200D170478A
S1134E0019700133F9E7000070B50500002910D0CE
S1134E100C1F2368002B00DAE418280000F044FC7F
S1134E201D4A1368002B05D163601460280000F04C
S1134E303CFC70BDA34209D9216860188342F3D1B8
S1134E4018685B6841182160EEE713005A68002A6D
S1134E5001D0A242F9D919685818A0420BD1206890
S1134E600918581819608242E0D110685268411834
S1134E7019605A60DAE7A04202D90C232B60D5E707
S1134E8021686018824203D1106852684118216079
S1134E9062605C60CAE7C046F8020020032370B574
S1134EA0CD1C9D43083506000C2D1ED20C25A942AD
S1134EB01DD8300000F0F8FB254A146821000029B1
S1134EC019D1244C2368002B03D1300000F0DCF806
S1134ED020602900300000F0D7F8431C2CD10C23AB
S1134EE03000336000F0E1FB03E0002DDFDA0C2337
S1134EF03360002070BD0B685B1B1AD40B2B03D9E5
S1134F000B60CC18256003E08C420ED163681360FB
S1134F10300000F0CAFB200007220B30231D904311
S1134F20C31AE7D05A42E250E4E74B6863600C00CE
S1134F30EEE70C004968C2E70323C41C9C43A0426B
S1134F40E0D0211A300000F09FF8431CDAD1C6E704
S1134F50F8020020FC0200200FB40B4B13B51C68B0
S1134F60002C05D0A369002B02D1200000F09AFA8E
S1134F7005AB049AA1682000019300F0BFFB16BCA6
S1134F8008BC04B01847C046A8010020084B70B5FF
S1134F901C680500002C05D0A369002B02D1200059
S1134FA000F080FA2900A268200000F04BFE70BDDA
S1134FB0A8010020104B70B51C680500A36B002BE2
S1134FC015D11820FFF704FF0C4BA06303800C4B92
S1134FD0012243800B4B83800B4BC3800B4B03811B
S1134FE00523438106338381002302614361002248
S1134FF0A36B1D615A6170BDA80100200E3300002F
S1135000CDABFFFF341200006DE6FFFFECDEFFFFC7
S1135010154B10B51C68A36B002B15D11820FFF796
S1135020D7FE124BA0630380114B01224380114B26
S11350308380114BC380114B0381052343810633C5
S11350408381002302614361A46B0D4A2069616975
S11350500C4BFFF753FE01220023801859412061B5
S113506061614800400810BDA80100200E33000013
S1135070CDABFFFF341200006DE6FFFFECDEFFFF57
S11350802D7F954C2DF45158002370B5064C050026
S113509008002360FEF7C8FA431C03D12368002BE1
S11350A000D02B6070BDC046203100204A424A41E6
S11350B0802310B55200DB0000F002F810BD0000A0
S11350C0F0B51D004F4B85B01E6804000F00009220
S11350D0002E05D0B369002B02D1300000F0E2F9B4
S11350E0494B9C4250D17468009B022B05D0012B84
S11350F000D984E0002D00DA81E02100300000F0C6
S113510063F9616B002908D023004433994202D02B
S11351103000FFF779FE002363630023A36163601B
S1135120A3891B0603D521693000FFF76DFEA3890F
S1135130364A1340A381009B022B5AD003AB02AA28
S11351402100300000F044FAA3891843A081002D07
S113515024D1029D2800FFF73BFE0195071E42D192
S1135160029B0193AB4239D1012040420223A28920
S11351701343A3810023A3602300473323602361E7
S11351800123636105B0F0BD214B9C4201D1B46899
S1135190AAE7204B9C42A7D1F468A5E7002FD9D0F9
S11351A0B369002B02D1300000F07CF9009B012B85
S11351B003D1A389009A1A43A2810820A3892760F6
S11351C027616561184018D00120184000239842D7
S11351D011D06D42A360A5611800D3E70198FFF7D1
S11351E0F7FD071EC0D08023A289019D1343A3812C
S11351F0D6E70020BAE7A560C4E7A060C2E70120B3
S11352004042BFE7A8010020A48600005CF3FFFF32
S1135210C486000084860000020010B51378002BB9
S113522005D1CC5CD4540133002CFAD110BD013229
S1135230F4E70023C25C0133002AFBD1581E7047F7
S1135240F0B517008FB0252206000D0004A81849F8
S1135250FFF7C8FD04AABB1E00240392222B05D924
S11352602C70250028000FB0F0BD019C631C019335
S1135270EB1800933000013B39000293FFF74EFC1A
S1135280039B029A5B5C300013703900FFF7C0FB8C
S1135290061EEAD1009B18702B005A1B9442E1DDD4
S11352A01A78295D19702A550133013CF5E7C04687
S11352B05C860000F7B58A8905000C00130760D4EA
S11352C04B68002B04DC0B6C002B01DC0020FEBDC2
S11352D0E76A002FFAD000232E682B6080235B013D
S11352E01A4034D0606DA3895B0706D56368C01A81
S11352F0636B002B01D0236CC01A0200216A0023C7
S11353002800E76AB847A189431C06D12B681D2BE6
S113531031D82C4ADA40D3072DD5002363602369A2
S11353202360CB0405D5431C02D12B68002B00D18C
S11353306065616B2E600029C8D023004433994214
S113534002D02800FFF760FD00206063BFE701235F
S1135350216A2800B847431CC5D12B68002BC2D052
S11353601D2B01D0162B01D12E60AFE74023A2895B
S11353701343A381ABE740230B430120A3814042A5
S1135380A5E70F69002FA1D00B680F60DB1B019309
S11353900023920700D14B69A360019B002B00DC22
S11353A094E7019B3A00216A2800A66AB0470028C6
S11353B003DC4023A2891343DFE7019B3F181B1A38
S11353C00193EAE7010040200B6970B505000C0069
S11353D0002B01D1002070BD002804D08369002B6C
S11353E001D100F05FF80B4B9C4209D16C680C2290
S11353F0A35E002BEED021002800FFF75BFFEAE755
S1135400054B9C4201D1AC68F1E7044B9C42EED1C0
S1135410EC68ECE7A4860000C486000084860000E3
S113542010B5024900F0B2F810BDC046C9530000DF
S1135430002310B5040003604360836081814366E8
S1135440C281036143618361190008225C30FFF764
S1135450D2FC054B24626362044BA362044BE362F7
S1135460044B236310BDC046B15C0000D95C00004E
S1135470115D00003D5D000070B568254A1E55436E
S11354800E0029007431FFF709FD041E08D0002125
S11354902A00016046600C30A0606832FFF7ABFC64
S11354A0200070BD836913B50400002B28D18364E8
S11354B0C3640365134B144A1B68826201939842C8
S11354C001D101238361200000F020F860602000F6
S11354D000F01CF8A060200000F018F80022E06042
S11354E004216068FFF7A4FF01220921A068FFF7E7
S11354F09FFF02221221E068FFF79AFF0123A361B4
S113550013BDC0465886000021540000F8B51E4B58
S113551007001E68B369002B02D13000FFF7C2FFF9
S11355204836B4687368013B04D53368002B07D050
S11355303668F6E70C22A55E002D0DD06834F2E73C
S113554004213800FFF798FF30600028F0D10C23C5
S113555004003B602000F8BD012320005B42E3818E
S11355600233A38165662560A56065602561656178
S1135570A561082229005C30FFF73DFC6563A56343
S1135580A564E564E6E7C04658860000F7B5040064
S11355900700002601914834002C01D13000FEBDE3
S11355A06368A5680093009B013B009301D52468C0
S11355B0F2E7AB89012B08D90E22AB5E013304D08C
S11355C029003800019B984706436835EBE7000043
S11355D070B50E001D000E23C95E90B014000029A2
S11355E007DA00232B60B3891B0611D48023DB0068
S11355F00FE001AA00F09AFC0028F2DBF022029BE3
S113560012021340054A9B185A4253412B60EDE79E
S113561040230020236010B070BDC04600E0FFFFAF
S1135620F7B502268B8905000C00334206D023000F
S113563047332360236101236361F7BD01AB6A46ED
S1135640FFF7C6FF009907002800FFF727FC002892
S113565008D10C22A35E9A05EFD4032293431E4380
S1135660A681E4E70F4BAB628023A2892060134339
S1135670A381009B20616361019B002B0DD00E234D
S1135680E15E280000F064FC002806D00322A38910
S113569093431A0001231343A381A0893843A081B3
S11356A0CBE7C0462154000070477047936810B59B
S11356B0013B9360002B05DA9469A34208DBCBB26B
S11356C00A2B05D01368581C10601970C8B210BD9D
S11356D000F03AFBFBE7F8B506000F001400D518FC
S11356E0AC4201D1002007E021783A003000FFF7F6
S11356F0DDFF0134431CF3D1F8BD0000F0B59FB0C9
S113570006000F0014000593002804D08369002BC1
S113571001D1FFF7C7FE7F4B9F425CD17768BB89FD
S11357201B0762D53B69002B5FD0002306AD6B617C
S113573020336B761033AB760294029C2378002BD3
S11357405DD1029BE31A04930DD0049B029A3900A5
S11357503000FFF7C0FF431C00D1CCE06A69049B12
S1135760944663446B612378002B00D1C3E001228B
S1135770002352426A6002A95432521801342B6049
S1135780EB60AB601370AB6521780522624800F0D2
S113579005FC631C9C46002835D12968CB0604D53A
S11357A0532302AA20309B1818700B0704D55323E7
S11357B02B2002AA9B18187023782A2B2CD00020A7
S11357C00A21099B2278303A092A00D86BE0002884
S11357D02AD0099328E0514B9F4201D1B7689EE734
S11357E04F4B9F429BD1F76899E73900300000F096
S11357F015FB002899D0012040421FB0F0BD252B95
S11358009FD001349AE7444B2968C01A012383408E
S11358100B432B606446B7E7059B181D1B68059076
S1135820002B3ADB0993644623782E2B0BD1637843
S1135830621C2A2B3FD1059B02341A1D1B6805925A
S1135840002B35DB079321780322364800F0A6FBB2
S1135850002807D0334B2A68C01A402383401343DF
S11358602B6001342178631C06222F480293297689
S113587000F094FB002844D02C4B002B2FD1296836
S1135880059B0722C90528D59B1893430833059324
S11358906B69039A9B186B614FE75B42EB600223D1
S11358A00B432B60BFE74B4301349B18012089E76E
S11358B001235B42C6E7002314000A201A006B6030
S11358C021783039092903D9002BBCD00792BAE7D3
S11358D04243013452180123F2E70733D5E705ABFD
S11358E000933A00124B2900300000E000BF0390FF
S11358F0039B0133CCD1BB895B0600D57BE70B98B6
S11359007BE705AB00933A00094B2900300000F017
S11359107FF8ECE7A4860000E4860000C48600005B
S113592084860000EA860000EE8600000000000085
S1135930D7560000F7B5150001938A680B690090EB
S11359400C00934200DA130022002B6043321278D9
S1135950002A01D001332B6023689B0602D52B68F3
S113596002332B60062723681F4027D023004333CC
S11359701B785A1E93412268920630D42200019962
S113598043320098089EB047431C25D00623206864
S11359902A68E16803400025042B03D18D1AEB43E8
S11359A0DB171D40A3682269934201DD9B1AED18A1
S11359B00027BD4220D1002010E00137E3682A68A7
S11359C09B1A9F42D2DA22000123193201990098CE
S11359D0089EB047431CF0D101204042FEBD302058
S11359E0E1184331087021005A1C45310978A21886
S11359F0433202331170C1E7220001231A320199A4
S1135A000098089EB047431CE6D00137D1E7000058
S1135A10F0B58BB006920A004332079305900492C6
S1135A200A7E0C00109B6E2A00D18FE017D8632ADF
S1135A302CD008D8002A00D199E0582A54D0260046
S1135A404236327029E0642A01D0692AF7D12168EC
S1135A501A68080623D5111D1960156825E0732AF4
S1135A6000D188E008D86F2A29D0702AE7D12022F3
S1135A7009680A43226003E0752A20D0782ADED11F
S1135A8022007821453211706C4A30E00E001A6809
S1135A904236111D196013683370012379E04906F9
S1135AA0D9D5111D19600023D55E002D03DA2D23ED
S1135AB0049A6D421370624B0A2703932FE0206807
S1135AC01968050603D5081D18600D6805E0400631
S1135AD0F9D50D68081D1860ADB2594B082703931A
S1135AE06F2A18D00A2716E045310A70544A0392E7
S1135AF01A682168101D18601568080622D5CB079E
S1135B0002D52023194321601027002D03D120231F
S1135B1022689A4322602300002243331A70636888
S1135B20A360002B5CDB0422216891432160002DDB
S1135B3058D1049E002B64D02600039B42361B7868
S1135B4033705EE04806DAD5ADB2D8E709681A6862
S1135B50080605D5111D1960136862691A6006E00C
S1135B604906F7D5111D19601368A28A1A8000230B
S1135B70049E236154E01A68111D196016680021FF
S1135B806268300000F00AFA002801D0801B6060CF
S1135B90636823610023049A137041E0236932008F
S1135BA006990598079DA847431C43D02368002500
S1135BB09B070FD4099BE06898423DDA18003BE04C
S1135BC022000123193206990598079EB047431C09
S1135BD030D00135E368099A9B1A9D42F0DBE9E76E
S1135BE0002DA9D0049E28003900FEF797FF039BDF
S1135BF0013E5B5C280033703900FEF709FF051E87
S1135C00F1D1082F09D12368DB0706D5636822691F
S1135C10934202DC3023013E3370049B9B1B2361BF
S1135C20079B09AA00932100069B0598FFF782FEB3
S1135C30431CB3D1012040420BB0F0BD06870000E5
S1135C40F586000070B506000D001400002804D08D
S1135C508369002B01D1FFF725FC124B9C4211D123
S1135C607468A368013BA360002B05DAA269934220
S1135C7012DBEBB20A2B0FD02368E8B25A1C226065
S1135C801D7070BD084B9C4201D1B468E9E7074B15
S1135C909C42E6D1F468E4E722002900300000F0D9
S1135CA053F8EEE7A4860000C48600008486000052
S1135CB070B50C000E25495F00F07CF9002803DB69
S1135CC0636D1B18636570BDA389024A1340A381E9
S1135CD0F9E7C046FFEFFFFFF8B51F008B89050009
S1135CE00C001600DB0505D50E23C95E0022022335
