:10000000582000202D0600002906000029060000C7
:1000100000000000000000000000000000000000E0
:1000200000000000000000000000000029060000A1
:100030000000000000000000290600002906000062
:1000400029060000290600002906000029060000F4
:1000500029060000290600002906000029060000E4
:1000600029060000290600002906000029060000D4
:1000700029060000290600002906000029060000C4
:1000800029060000290600002906000029060000B4
:1000900029060000290600002906000029060000A4
:1000A0002906000029060000290600002906000094
:1000B0000000000010B5064C2378002B07D1054B3B
:1000C000002B02D0044800E000BF0123237010BDC4
:1000D0000C000020000000002C0F0000084B10B5A1
:1000E000002B03D00749084800E000BF0748036819
:1000F000002B00D110BD064B002BFBD09847F9E731
:1001000000000000100000202C0F00002C0F000049
:100110000000000030B5084B1C68084A002580210B
:100120004902013807D3002CFBD054609560136856
:100130000B42FCD0F5E730BD0000002010E000E0ED
:100140000C4B1B68002B06D1EFF31083002B07D05C
:100150000022094B1A70074A136801331360704775
:1001600072B6BFF35F8F0022044B1A700132024B4C
:100170001A70F0E7280000202C0000200400002066
:10018000084B1A68013A1A601B68002B09D1064B0C
:100190001B78002B05D00122044B1A70BFF35F8F30
:1001A00062B67047280000202C00002004000020C8
:1001B000F0B583B001AC012565700027A7702570EC
:1001C00021003E20064EB0478022D205054B9A61A1
:1001D0002770657021000F20B04703B0F0BDC04606
:1001E000E90100008044004100B583B001AB8022EA
:1001F0001A700A785A704A789A708A78DA701900F8
:10020000014B984703B000BDC905000070B50C490B
:100210000B6A0478857840780122104080014026DE
:10022000B34303432A40D201802083431343032274
:10023000224012020348034013430B6270BDC046C4
:1002400000080040FFFCFFFF082803D88000254B72
:100250001B589F46172044E0234A136A02210B4390
:10026000136200203DE0204A936902210B43936111
:10027000002036E01C4A138A02210B43138200201F
:100280002FE0194A938A02210B439382002028E031
:1002900016490B68022213430B60134B9A84190012
:1002A0000E32CB681A42FCD0104A91680E4BD962CC
:1002B00052689A6200229A8419001032CB681A425E
:1002C000FCD00A4B1B689BB2074A9384002008E0CD
:1002D000054944228B5C022003438B54002000E03C
:1002E00000207047DC0C00000008004030000020B7
:1002F00030B585B0C222D2001A4B9A601A4A5368B0
:100300001E218B43536001236A4613700024174D4E
:10031000E0B26946A8470134252CF9D103A800248E
:100320004470012585700470114B98470620114BCD
:100330009847114B9847114B1C725C729C72DC728F
:1003400001956B465C7006236A46137014725472F2
:10035000694600200A4B984700200A4B984705B091
:1003600030BDC046000800400040004105050000C7
:100370000D02000049020000890300000004004053
:10038000AD03000065040000064A936908210B4391
:1003900093610122044B1A7019000B781342FCD1AF
:1003A0007047C04600040040000C004070B50600D5
:1003B00004000D782D0205434B78002B02D08023DA
:1003C000DB021D434B7A002B02D080231B031D430D
:1003D0004868012810D9431E184234D1022830D968
:1003E0000223002201325B009842FBD81202324302
:1003F000140080235B031D430B7A002B02D0802363
:100400009B031D43134A53785BB2002BFBDB124B5B
:100410009847124B1E700F4A53785BB2002BFBDBE0
:100420000C4B9C601A0053785BB2002BFBDB094A33
:100430005368802149020B401D435560084B984783
:1004400070BD0022D2E70402344380239B021D4387
:10045000D2E7C046000C004041010000080C0040FB
:100460008101000010B504000B4A53785BB2002BE9
:10047000FBDB0A4B98470A4B1C70074A53785BB268
:10048000002BFBDB044A516880235B020B43536063
:10049000044B984710BDC046000C004041010000CD
:1004A000040C00408101000010B504000F4B984778
:1004B0000F4B1C700F4A53881B05180F53880E49A9
:1004C0000B40538053880D490B405380110080220C
:1004D000D2014B881342FCD106494A8803020648E0
:1004E000024013434B80064B984710BD410100006A
:1004F000020C0040000C0040FFF0FFFFFFBFFFFFB9
:100500008101000010B50C7824020443024B984787
:10051000A4B2024B5C8010BDA9040000000C004096
:1005200030B5D378002B35D11378802B29D01B061A
:1005300080246402234354780225AC4306D1947886
:10054000002C20D18024A402234341605478013C34
:10055000012C1CD90D042D0CA024E4052C431C43B4
:1005600084620D0CD02424062C431C438462D4786E
:10057000002C22D15B031CD59378012B1ED0416146
:1005800017E00023D7E7C024E4022343DDE70D4C46
:100590002340DFE741600C04240CA023DB05234348
:1005A00083620C0CD0231B0623438362D378002B79
:1005B00003D15378013B012B02D930BD8161F8E7AB
:1005C0008160FAE7FFFFFBFF10B50A00C1090023B5
:1005D000002904D14309DB0105498C4663441F24EB
:1005E0002040012181401800024B984710BDC046B1
:1005F00000440041210500007047000010B5054B84
:100600009847054B9847054B9847054B9847054B2E
:10061000984710BDF1020000B1010000F90500008B
:10062000F9050000F9050000FEE70000F8B52A4AC8
:100630002A4B9A4211D01A00294B9A420DD2294ACC
:1006400003339B1A9B0801339B0000222348224955
:100650008C58845004329A42FAD1234A234B9A424E
:100660000AD2D34321495B1803218B4304339B18DF
:10067000002102C29342FCD11D4AFF211D4B8B4336
:100680009360FD3990235B001B4AD1501B4AD378FD
:100690000325AB4302242343D370D3780C27BB43F9
:1006A00008263343D370164B987B30229043202288
:1006B00010439873997BB943314399739A7BAA434A
:1006C00022439A730F4A536880210B4353600E4BA9
:1006D00098470E4B9847FEE72C0F000000000020C3
:1006E0000C000020040000200C000020540000201A
:1006F00000ED00E0000000000070004100500041EB
:100700000048004100400041810C0000690C0000DD
:1007100010B5064C064B236000020143054B1960DF
:100720008022920222601A6010BDC04694440041AB
:10073000FFFF00009844004110B580221204024BD4
:100740001A60024B984710BD944400411107000005
:1007500010B5010080221204024B1A600020024BE7
:10076000984710BD984400411107000070B5194C1E
:10077000194B1C6000020143184B1960D3170F2658
:100780001E40B61836110025002E0CDD124C8021BB
:1007900089021248102321600160013B002BFAD12D
:1007A0000135AE42F6D1130713D0D3171B0FD21861
:1007B0000F211140C91A4B1C002B0ADD1900002320
:1007C000054C802292020548226002600133994262
:1007D000FAD170BDFFFF00009444004198440041ED
:1007E000F0B583B0070000911600019300212A2084
:1007F000174CA047380A174DA84701212A20A047C7
:10080000F8B2A84702212A20A047300AA8470321AE
:100810002A20A047F0B2A84700212B20A047009E25
:10082000300AA84701212B20A047F0B2A847022197
:100830002B20A047019E300AA84703212B20A04768
:10084000F0B2A84700212C20A04703B0F0BDC0465D
:100850003907000051070000F0B5CE46474680B585
:1008600083B00600894614001D00904201DD160089
:100870000400A94502DD330026001C008023DB03B1
:100880009846114B42461A60ABB2A2B2494668463E
:10089000C180C188B0B20D4FB8470D4F80231B04F3
:1008A0003B60A41B01344B46EA1A01326243094BF8
:1008B0001988094B1888094B984743463B6003B099
:1008C0000CBC90469946F0BD94440041E1070000FD
:1008D00098440041500000204E0000206D070000A9
:1008E00010B5044B1B88044A128800210020034CD9
:1008F000A04710BD0800002006000020E10700000E
:1009000010B58022D203024B1A60024B984710BDEB
:1009100094440041E1080000F0B5C64600B582B03D
:100920007F4B804F1F608025ED051D608026F603FC
:100930001E608020800218608021090419608022D6
:1009400052021A60784C2760256026602060216082
:1009500022601A60754F3A603D600520744B9846DE
:10096000984725600520C0473D60266000246E4BF7
:10097000984680252D042F006E4E43461F60A15DD2
:100980006D4BE05C6D4B9847684B1D606C4BE05CB9
:100990006C4B98470134462CEFD1D1230193674D1E
:1009A000684F694C2600343600210198A84720780A
:1009B000B8470134A642F7D1019B0133DBB2019362
:1009C000D62BEED10021F0205C4CA04755205D4D88
:1009D000A8470121F020A047AA20A8470221F02023
:1009E000A0475220A8470321F020A0470820A8478D
:1009F0000421F020A0470020A8470021B120A047F3
:100A0000CC20A8470121B120A0470020A847002101
:100A1000B520A0475020A8470021B620A0470520B8
:100A2000A8470021B720A0477020A8470121B72080
:100A3000A0477020A8470021B820A0470120A84760
:100A40000121B820A0470320A8470221B820A047D1
:100A50000320A8470321B820A0470320A84700216E
:100A6000BC20A0470220A8470121BC20A0470020AD
:100A7000A8470221BC20A0470020A8470021C92088
:100A8000A047D020A8470121C920A0470220A8479D
:100A90000221C920A0475020A8470321C920A04710
:100AA0005020A8470421C920A0475020A847002172
:100AB0003520A0470020A84700213A20A047552014
:100AC000A84700213620A047E220A8470021112096
:100AD000A0476420164EB04700212920A04764207B
:100AE000B04700215120A047FF20A8478022D20311
:100AF0000E4B1A60154B98470023154A1380154A70
:100B00001380154A1380154A1380EA23FF33144AD1
:100B100000210020134CA04702B004BC9046F0BD59
:100B200088440041FFFF0000944400419844004184
:100B300015010000C40E0000340E0000390700004B
:100B40007C0E000051070000000E000001090000AB
:100B50004E00002050000020520000204C000020D9
:100B60001F03000059080000F0B5C1B00700D022F3
:100B70002D490CA82D4B984705A82D4B1A00503233
:100B8000010031CA31C131CA31C112680A606C3307
:100B90006A4613CB13C203CB03C20CAC40AE254D47
:100BA000E3885B109633A28852102D32FF326188A1
:100BB00049109631208840102D30FF30A847083466
:100BC000B442EDD1002F03D0012F17D041B0F0BDBA
:100BD00005AC0CAE174DE3785B109633A27852103B
:100BE0002D32FF32617849109631207840102D3037
:100BF000FF30A8470434A642EDD1E7E76C4605AEC6
:100C00000C4DE3785B109633A27852102D32FF32F0
:100C1000617849109631207840102D30FF30A84778
:100C20000434B442EDD1D1E7000D0000C90C00003E
:100C3000800D00005908000010B50020024B9847B5
:100C40000248034B984710BD690B0000B80B000029
:100C50001501000010B5024B9847024B984710BD94
:100C600019090000390C000010B5034B9847034BDD
:100C70009847002010BDC046FD050000550C00003F
:100C800070B500260C4D0D4C641BA410A64209D172
:100C9000002600F03BF90A4D0A4C641BA410A64242
:100CA00005D170BDB300EB5898470136EEE7B300AD
:100CB000EB5898470136F2E7180F0000180F0000B4
:100CC000180F00001C0F0000002310B59A4200D13D
:100CD00010BDCC5CC4540133F8E70000740200007E
:100CE0005402000054020000E0020000660200000E
:100CF000820200005802000090020000D0020000B2
:100D00000A000A0014001400140000007C010A000C
:100D10007C010A0086011400000014000A00220170
:100D200086011400900122010A00220114002C0106
:100D30007C01220186012C0114002C017C0136016A
:100D400000001E00320028000000320032003C008B
:100D500050001E0018012800460028005000BE0068
:100D60005000BE001801C800180128002201BE0072
:100D7000000046003200500000005A0032006400BB
:100D800000006E00320078000000820032008C000B
:100D9000000096003200A0000000AA003200B4005B
:100DA0000000BE003200C8002C01C8007201D20051
:100DB0001E00DC007201E6001E00F0007201FA0065
:100DC0001E00040172010E015A0018012C012201BB
:100DD000B450BE82AA82BE8C8C3C9664D23CDC6449
:100DE00082968CA08CA0DCAADC96E6A0783CF05021
:100DF0006E46785A963CAAAAC83CDCA0D2A0E6AAC5
:100E0000002D002E003200440053008800B600F38D
:100E100001220164019201D4020702080234025F38
:100E20000278029402A602BB02CA02DB02E802F9BF
:100E3000031F037FF0F0F0F0F0B0B0B0B6B6B6B17B
:100E4000B1B1B7B7B7B2B2B2B8B8B8BFB3B3B3B94C
:100E5000B9B9B5B5B5C2BABABABCBCBCBDBDBDBEE8
:100E6000BEF0F0F0F0F0B1B1B6B7B7B8B8B8B8BCF2
:100E7000BCBCC9C9C9C9C9353A36000055AA52080F
:100E8000010D0D0D3434340D0D0D343434000000DB
:100E9000242424010F0F0F343434080808032424B9
:100EA00024007800007800008955AA520800CC0080
:100EB00005707001030303020000D002505050007F
:100EC00055000000000102030400010200010200BD
:100ED0000102000102000102000102000102000102
:100EE00002000001000001020001020001020001F5
:100EF00000010203040000000001000102030001E0
:100F0000020001020304000000000000F8B5C04622
:100F1000F8BC08BC9E467047DD000000F8B5C0462E
:0C0F2000F8BC08BC9E467047B5000000FD
:0C0F2C00401F00000100DF011F03000057
:040000030000062DC6
:00000001FF
